:020000040800F2
:1000000060040020B10100088F0D0008C70C000833
:100010008D0D0008BD020008BD0F000800000000A3
:10002000000000000000000000000000930D000828
:10003000BF02000800000000910D0008950D0008A7
:10004000CB010008CB010008CB010008CB01000860
:10005000CB010008CB010008CB010008CB01000850
:10006000CB010008CB010008CB010008CB01000840
:10007000CB010008CB010008CB010008CB01000830
:10008000CB010008CB010008CB01000800000000F4
:10009000000000000000000000000000CB0100088C
:1000A000CB010008CB010008CB010008CB01000800
:1000B000CB010008CB010008CB010008CB010008F0
:1000C000CB010008CB010008CB010008CB010008E0
:1000D000CB010008CB010008CB01000800000000A4
:1000E000CB010008CB010008CB0100080000000094
:1000F000000000000000000000000000CB0100082C
:1001000000000000CB010008CB010008CB01000873
:1001100000000000000000000000000000000000DF
:10012000CB010008CB010008CB010008CB0100087F
:10013000CB010008000000000000000000000000EB
:10014000000000000000000000000000CB010008DB
:10015000CB010008CB010008CB010008CB0100084F
:10016000CB010008CB0100080000000000000000E7
:10017000000000000000000000000000000000007F
:1001800000000000CB01000800000000000000009B
:10019000CB010008CB010008DFF810D000F07CF89C
:1001A0000048004749100008AFF3008060040020B9
:1001B0000648804706480047FEE7FEE7FEE7FEE701
:1001C000FEE7FEE7FEE7FEE7FEE7FEE7290E000892
:1001D000990100082DE9F05F0546002092469B46F4
:1001E00088460646814640241BE02846414647464D
:1001F000224600F041F853465A46C01A914110D3A6
:1002000011461846224600F028F82D1A67EB01081F
:100210004F4622460120002100F01FF817EB00098D
:100220004E41201EA4F10104DFDC484631462A4637
:100230004346BDE8F09FD2B201E000F8012B491E11
:10024000FBD270470022F6E710B513460A46044673
:100250001946FFF7F0FF204610BD202A04DB203AA4
:1002600000FA02F1002070479140C2F1200320FA09
:1002700003F3194390407047202A04DB203A21FA07
:1002800002F00021704721FA02F3D040C2F12002AF
:100290009140084319467047064C074D06E0E06858
:1002A00040F0010394E8070098471034AC42F6D3BD
:1002B000FFF776FFA4100008C4100008FEE770479F
:1002C00002490020086072B6704700003C0E4742A9
:1002D00072B6FEE72DE9F84FDFF8B8A1002201243D
:1002E00003254FF00F090AF1040BAAF1040E00BF19
:1002F0000B6804FA02F63340B34273D10F7907F06A
:100300000307012F01D0022F16D187684FEA420858
:1003100005FA08FC27EA0C07D1F80CC00CFA08FC17
:100320004CEA070CC0F808C04768B7430E79C6F31B
:10033000001696403E4346600E79F643B6070DD050
:10034000C768560005FA06FC27EA0C07D1F808C072
:100350000CFA06FC4CEA070CC0F80CC00E7906F04B
:100360000306022E10D1D60800EB8608D8F82060CC
:1003700057074FEAD76C09FA0CF7BE430F6907FA23
:100380000CF73743C8F8207006684FEA420C05FAAC
:100390000CF7BE430F7907F0030707FA0CF7374352
:1003A00007604E6816F4403F6DD03B4E376847F407
:1003B00080473760366822F0030706F480460096CF
:1003C000364E07EB060CDCF8086897073F0F09FA72
:1003D00007F826EA0806DFF8C880404503D14FF049
:1003E00000081EE04FE0DFF8BC80404502D14FF02E
:1003F000010816E0DFF8B080404502D14FF0020856
:100400000FE0DFF8A880404502D14FF0030808E074
:10041000DFF89C80404502D14FF0040801E04FF026
:10042000070808FA07F848EA0608CCF80888DAF856
:1004300000605746D1F804C09E435FEACC2C00D53B
:100440001E433E60DBF800605F46D1F804C09E4367
:100450005FEA8C2C00D51E433E60DEF800607746D4
:10046000D1F804C09E435FEA8C3C00D51E433E6039
:10047000084F083F3E68D1F804C09E435FEACC3C79
:1004800000D51E433E60521C102AFFF431AFBDE878
:10049000F88F0000083C0140443802400030014021
:1004A000000002400004024000080240000C02402C
:1004B00000100240014880687047000004000020DE
:1004C000024881680278114481607047040000206E
:1004D0000B4810B5016841F400710160016841F4F6
:1004E00080610160016841F480710160032000F0C7
:1004F00061F80F2000F006F800F024F8002010BD8D
:10050000003C024070B50D4D04464FF47A712878D6
:10051000B1FBF0F00A490968B1FBF0F000F0FEFA17
:1005200048B9102C07D200222146501E00F022F8B4
:1005300000206C6070BD012070BD00000400002030
:10054000100000200A4808B5016841F480410160AC
:10055000006800F4804000900548001F016841F0E9
:1005600080510160006800F08050009008BD0000DC
:1005700044380240F0B40E4B1B680C46C3F3022310
:10058000C3F10705042D00D90425191D072901D23F
:10059000002300E0DB1E012606FA05F1491E21407A
:1005A00099409E40761E16403143F0BC00F010BDCD
:1005B0000CED00E0064900F0070208684FF6FF0363
:1005C000184040EA0220034A1043086070470000C8
:1005D0000CED00E00000FA052DE9F0470E4605009D
:1005E00065D0DFF81481D8F80000F7B200F00700FA
:1005F000B04207D288F80070D8F8000000F0070079
:10060000B04254D128683D4C810712D5400703D52C
:10061000206840F4E05020602878000703D5206867
:1006200040F4604020602068A96820F0F000084392
:1006300020602878C0072DD0304968680839012823
:1006400012D0022813D0032811D009688907002985
:100650002DDA216821F0030101432160FFF72AFF11
:10066000814641F2883A0EE009688903EFE709689C
:100670008901ECE7FFF71EFFA0EB0901514502D904
:100680000320BDE8F0872068696800F00C00B0EB3B
:10069000810FEFD1D8F80010404601F00701B142B8
:1006A00007D90770006800F00700B04201D00120B0
:1006B000E7E72878400705D52068E96820F4E0508E
:1006C000084320602878000706D52068296920F4AF
:1006D000604040EAC100206000F038F82168084A14
:1006E000C1F30311515CC840064908600648006820
:1006F000FFF708FF0020C4E7003C02400838024032
:100700008C10000810000020080000200448054953
:1007100000680968044AC1F38221515CC8407047EF
:1007200010000020083802409C10000804480549C9
:1007300000680968044AC1F34231515CC8407047FF
:1007400010000020083802409C100008154810B521
:10075000006810F00C02144813D01449042A0FD07A
:10076000082A0ED10F4C241F2268236802F03F0292
:100770005B0207D52068C0F38810A0FB010106E0EA
:10078000084610BD2168C1F38811A1FB00010023B8
:10079000FFF720FD2168C1F30141491C4900B0FB6E
:1007A000F1F010BD083802400024F40040787D01CB
:1007B0002DE9F84F04006ED02078DFF84C93C00785
:1007C000A9F104054AD009F104000168C1F38101CF
:1007D000012908D00068C0F3810002280AD1D9F8A5
:1007E0000000400206D52868800337D560680028DD
:1007F000E1D033E06068B0F5803F10D0B0F5A02FB5
:10080000286810D020F480302860286820F48020E8
:1008100028606068A8B1FFF74DFE06460DE0286825
:1008200040F48030F4E740F480202860F7E700BF10
:10083000FFF740FE801B642873D828688003F7D533
:100840000CE0FFF737FE064605E000BFFFF732FE7B
:10085000801B6428F0D828688003F7D42078DFF85C
:10086000AC8280074FF0000A3ED5A748001D016802
:1008700011F00C0F08D00068C0F3810002280BD1E2
:10088000D9F80000400207D42868800716D5E06830
:10089000012800D112E033E1E068B8B10120C8F8C6
:1008A0000000FFF707FE064605E000BFFFF702FE67
:1008B000801B0228C0D828688007F7D528682169DE
:1008C00020F0F80040EAC10028600DE0C8F800A060
:1008D000FFF7F0FD064604E0FFF7ECFD801B022861
:1008E0001FD828688007F7D42078000722D5864FC4
:1008F00087486169703771B101210160FFF7DAFD46
:10090000064604E0FFF7D6FD801B022809D83868A8
:100910008007F7D50EE0C0F800A0FFF7CBFD064634
:1009200005E082E0FFF7C6FD801B02287DD838680D
:100930008007F7D42078400768D5DFF8CCB10027CE
:100940000BF13C0BDBF80000C0000BD4DBF800100F
:1009500041F08051CBF80010DBF80000012700F0D7
:10096000805000906B4E3068C00510D4306840F461
:1009700080703060FFF79EFD009005E0FFF79AFD64
:100980000099401A022850D83068C005F6D55E4E4E
:10099000A0686C3601280FD00528306810D020F0F0
:1009A00001003060306820F004003060A068B8B109
:1009B000FFF780FD00900FE0306840F00100F4E7A1
:1009C00040F004003060F7E7FFF774FD0099411A2A
:1009D00041F28830814266D830688007F4D50EE055
:1009E000FFF768FD009007E0FFF764FD0099411AEA
:1009F00041F28830814256D830688007F4D42FB154
:100A0000DBF8001021F08051CBF80010A069C8B3CA
:100A10003D49091D0968C1F3810102294AD0022814
:100A2000504607D0C8F8600000E03CE0FFF742FD08
:100A300004463BE04746C8F86000FFF73BFD06462A
:100A400005E000BFFFF736FD801B02282BD8286881
:100A50008001F7D4D4E907010843A16A2E4A490866
:100A600002EB0141626A41EA8211084394F82C10BA
:100A700040EA0161C9F8001001203866FFF71AFD4D
:100A8000044606E03EE000BFFFF714FD001B02280D
:100A900009D828688001F7D534E000BFFFF70AFDC8
:100AA000001B022802D90320BDE8F88F28688001C6
:100AB000F4D427E00128F7D0D9F80000E26900F467
:100AC000800191421CD1226A00F03F01914217D16E
:100AD00047F6C071626A0140B1EB821F10D1A26A71
:100AE0004FF0FF3300F4403103EB5202B1EB024F01
:100AF00006D194F82C1000F07060B0EB016F01D0BB
:100B00000120D1E70020CFE704380240000047422F
:100B1000800E4742007000400000FFFF10B5401EED
:100B2000B0F1807F01D3012010BD4FF0E02460615F
:100B30000F21601700F04CFA0020A061072020610F
:100B4000002010BD70B5040004D094F83D000025CD
:100B500010B106E0012070BD84F83C50204600F042
:100B600023F8242084F83D002068C16821F4005156
:100B7000C160204600F060F92068016921F49041CD
:100B800001612068416921F02A0141612068C16842
:100B900041F40051C1602564202084F83D0084F8B0
:100BA0003E00002070BD000010B586B00446142140
:100BB0006846FFF747FB14492068884221D1134853
:100BC0000021026842F010020260006800F010008C
:100BD00005900E481438026842F001020260006875
:100BE00000F0010005904FF4C06000900220CDE9B4
:100BF0000101032003900720049069460448FFF791
:100C000069FB06B010BD00000010014044380240EE
:100C1000000002402DE9F843044690F83D001F46CD
:100C200016460D4620284CD1C5B1BEB194F83C0003
:100C3000012846D0012084F83C004FF00008C4F899
:100C40004080212084F83D00FFF734FCA6848146D3
:100C5000E684A068B0F5805F03D004E00120BDE821
:100C6000F883206928B12E465FF0000584F83C80A7
:100C70000EE00026FAE78021204600F063F9A0B9D3
:100C8000AEB116F8010B21684860E08C401EE0848C
:100C9000E08C4B464FF0000200970028EBD14FF05C
:100CA0004001204600F04EF930B10320D7E735F877
:100CB000020BC0F30800E6E7202084F83D00002086
:100CC000CDE70220CBE7FEE770B50E4C206800258B
:100CD00041F288360CA000F073F96D1CADB2B5423C
:100CE000F8D320680A490840B0F1005F08D1606875
:100CF00008490860216881F30888BDE87040004712
:100D000070BD0000009001086274200D0A00000010
:100D10000000FE2F000000200D4808B5016841F0DA
:100D200004010160016801F004010091016841F0D3
:100D300080010160016801F080010091016841F0CB
:100D400001010160006800F00100009008BD000092
:100D5000303802400C4810B50A4901604FF4E131C7
:100D60004160002181600C22C160C0E904128161F0
:100D7000C161FFF7E7FE002803D0BDE81040FFF790
:100D8000A7BA10BD0010014018000020FEE7FEE7E2
:100D900070477047FFF794BB30B593B03021684679
:100DA000FFF750FA14210CA8FFF74CFA1C48002456
:100DB000016841F080510160006800F0805011909E
:100DC0001848016841F4404101600068022500F4C0
:100DD000404011900120039010200490009506954A
:100DE0000820CDE907406420CDE9090504200B90D7
:100DF0006846FFF7DDFC08B172B6FEE70F20CDE9CB
:100E00000C054FF48050CDE90E4003210CA810943E
:100E1000FFF7E2FB002801D072B6FEE713B030BD49
:100E200040380240007000400248016841F47001FF
:100E30000160704788ED00E070B504460068016904
:100E4000E26821F44051114301612169A068E2691F
:100E500008436169114308432168CA6849F20C6379
:100E60009A430243CA6020684169A26921F4407133
:100E70001143416131492068884202D0304988429B
:100E800002D1FFF753FC01E0FFF740FCE2690023C9
:100E9000192164253226B2F5004F626828D0A0FBE4
:100EA0000101930F9200FFF795F90146B0FBF5F0B1
:100EB0006FF01802504301EB800006EB0010B0FB0E
:100EC000F5F000F0F002B1FBF5F002EB0012B1FB1F
:100ED000F5F06FF01803584301EB800006EB0010AB
:100EE000B0FBF5F000F00F0021681044886070BD81
:100EF000A0FB010192185B41FFF76CF90146B0FBC2
:100F0000F5F00201B1FBF5F06FF01803584301EB67
:100F1000800006EBC000B0FBF5F000F0F80002EB3B
:100F20004002B1FBF5F0584301EB800006EBC00036
:100F3000B0FBF5F000F00700D6E70000001001401C
:100F4000001401402DE9F041984617460E4604462C
:100F5000069D27E0681C25D02DB1FFF7ABFAA0EB6A
:100F60000800A8421ED920680C3050E8001F21F468
:100F7000D07140E80012002AF5D12068143050E802
:100F8000001F21F0010140E80012002AF5D12020C5
:100F900084F83D0084F83E00002084F83C000320E3
:100FA000BDE8F0812068006836EA000004D0002027
:100FB000B842CFD00020F3E70120F9E7FEE70000B8
:100FC000014A024900F023B8311000081400002043
:100FD0000907090E002804DB00F1E02080F8001466
:100FE000704700F00F0000F1E02080F8141D7047FA
:100FF00002E008C8121F08C1002AFAD170477047E2
:10100000002001E001C1121F002AFBD170472DE929
:10101000F04116460F460446002503E03946B04726
:10102000641C6D1C20780028F8D12846BDE8F081AA
:1010300013B54FF0FF33012269460248FFF7EAFD7E
:1010400000981CBD180000200D494FF0006008609A
:10105000FFF73EFAFFF7A0FEFFF75EFEFFF77AFE0E
:10106000FFF72EF9FFF730FE42F2107505A0FFF7EB
:10107000A7FF2C460220401CA042FCDBF6E7000044
:1010800008ED00E068656C6C6F0D0A000000000060
:101090000000000001020304060708090000000028
:1010A00001020304C4100008000000201800000022
:1010B000F00F0008DC1000081800002048040000B1
:1010C00000100008000000000100000010000000F7
:0C10D000000000000024F40000000000FC
:040000050800019955
:00000001FF
