:020000040800F2
:10000000E04F00208102000863110008A5020008EB
:1000100061110008D50300089114000800000000D9
:10002000000000000000000000000000B101000816
:10003000D7030008000000000D020008AD11000801
:100040009B0200089B0200089B0200089B0200081C
:100050009B0200089B0200089B0200089B0200080C
:100060009B0200089B0200089B0200089B020008FC
:100070009B0200089B0200089B0200089B020008EC
:100080009B0200089B0200089B0200080000000081
:100090000000000000000000000000009B020008BB
:1000A0009B020008691200089B0200089B020008DE
:1000B0009B0200089B0200089B0200089B020008AC
:1000C0009B0200089B0200089B0200089B0200089C
:1000D0009B0200089B0200089B0200080000000031
:1000E0009B0200089B0200089B0200080000000021
:1000F0000000000000000000000000009B0200085B
:10010000000000009B0200089B0200089B02000800
:1001100000000000000000000000000000000000DF
:100120009B0200089B0200089B0200089B0200083B
:100130009B0200080000000000000000000000001A
:100140000000000000000000000000009B0200080A
:100150009B0200089B0200089B0200089B0200080B
:100160009B0200089B020008000000000000000045
:10017000000000000000000000000000000000007F
:10018000000000009B0200080000000000000000CA
:100190009B0200089B020008DFF810D000F008F96D
:1001A0000048004745210008AFF30080E04F0020E1
:1001B0002C4B19680868B0E8F04F80F30988BFF34A
:1001C0006F8F4FF0000080F311887047000000002F
:1001D00008480068006880F308884FF0000080F34A
:1001E000148862B661B6BFF34F8FBFF36F8F00DF25
:1001F00000BF00BF08ED00E0DFF80C00016841F42B
:1002000070010160704700BF88ED00E0EFF30980E6
:10021000BFF36F8F134B1A681EF0100F08BF20ED4D
:10022000108A20E9F04F106009B44FF0500080F3BD
:100230001188BFF34F8FBFF36F8F02F0B5FE4FF001
:10024000000080F3118809BC19680868B0E8F04F15
:100250001EF0100F08BFB0EC108A80F30988BFF3BE
:100260006F8F704714000020EFF305807047000087
:10027000EFF308807047EFF30980704768467047D6
:100280000648804706480047FEE7FEE7FEE7FEE730
:10029000FEE7FEE7FEE7FEE7FEE7FEE7591200088D
:1002A000990100087046694601F0CEFBFFF7FEFF9A
:1002B0002DE9F05F0546002092469B46884606469B
:1002C000814640241BE0284641464746224600F02E
:1002D0005FF853465A46C01A914110D3114618464A
:1002E000224600F046F82D1A67EB01084F462246D9
:1002F0000120002100F03DF817EB00094E41201EBF
:10030000A4F10104DFDC484631462A464346BDE8F5
:10031000F09F40EA01039B0703D009E008C9121FC0
:1003200008C0042AFAD203E011F8013B00F8013BAF
:10033000521EF9D27047D2B201E000F8012B491EDB
:10034000FBD270470022F6E710B513460A46044672
:100350001946FFF7F0FF204610BD10B5044604E033
:100360000B7800F8013B03B1491C521EF8D220461D
:1003700010BD202A04DB203A00FA02F10020704769
:100380009140C2F1200320FA03F3194390407047D3
:10039000202A04DB203A21FA02F00021704721FADA
:1003A00002F3D040C2F12002914008431946704741
:1003B000064C074D06E0E06840F0010394E80700B2
:1003C00098471034AC42F6D3FFF7EAFE1C4400080D
:1003D0003C440008FEE7704772B6FEE70548016836
:1003E00041F0100101600A21002091FBF0F102A010
:1003F00001F050B814ED00E0526573756C743A204A
:1004000025640A002DE9F84FDFF8B8A10022012485
:1004100003254FF00F090AF1040BAAF1040E00BFE7
:100420000B6804FA02F63340B34273D10F7907F038
:100430000307012F01D0022F16D187684FEA420827
:1004400005FA08FC27EA0C07D1F80CC00CFA08FCE6
:100450004CEA070CC0F808C04768B7430E79C6F3EA
:10046000001696403E4346600E79F643B6070DD01F
:10047000C768560005FA06FC27EA0C07D1F808C041
:100480000CFA06FC4CEA070CC0F80CC00E7906F01A
:100490000306022E10D1D60800EB8608D8F820609B
:1004A00057074FEAD76C09FA0CF7BE430F6907FAF2
:1004B0000CF73743C8F8207006684FEA420C05FA7B
:1004C0000CF7BE430F7907F0030707FA0CF7374321
:1004D00007604E6816F4403F6DD03B4E376847F4D6
:1004E00080473760366822F0030706F4804600969E
:1004F000364E07EB060CDCF8086897073F0F09FA41
:1005000007F826EA0806DFF8C880404503D14FF017
:1005100000081EE04FE0DFF8BC80404502D14FF0FC
:10052000010816E0DFF8B080404502D14FF0020824
:100530000FE0DFF8A880404502D14FF0030808E043
:10054000DFF89C80404502D14FF0040801E04FF0F5
:10055000070808FA07F848EA0608CCF80888DAF825
:1005600000605746D1F804C09E435FEACC2C00D50A
:100570001E433E60DBF800605F46D1F804C09E4336
:100580005FEA8C2C00D51E433E60DEF800607746A3
:10059000D1F804C09E435FEA8C3C00D51E433E6008
:1005A000084F083F3E68D1F804C09E435FEACC3C48
:1005B00000D51E433E60521C102AFFF431AFBDE847
:1005C000F88F0000083C01404438024000300140F0
:1005D000000002400004024000080240000C0240FB
:1005E00000100240014880687047000004000020AD
:1005F000024881680278114481607047040000203D
:100600000B4810B5016841F400710160016841F4C4
:1006100080610160016841F480710160032000F095
:1006200099F80F2000F006F800F04AF8002010BDFD
:10063000003C024030B505461C4887B000240168E4
:1006400041F001010160006806A900F0010000907E
:1006500001A800F02BF900F059F91549154AB0FB33
:10066000F1F11548491E026040F2E732C0E9032467
:10067000C0E90114846100F043FB040012D10E486C
:1006800000F06CFB04000DD1192000F035F8102D9E
:1006900007D200222946192000F03CF807480560DF
:1006A00000E0012407B0204630BD0000443802407D
:1006B00040420F0000000140F4000020080000202C
:1006C0000C4882B0016841F480410160006800F488
:1006D000804000900748001F016841F08051016090
:1006E0000068002200F0805000900F21901E02B0A0
:1006F00000F010B844380240002809DB00F01F0267
:10070000012191404009800000F1E020C0F8001173
:1007100070470000F0B40E4B1B680C46C3F3022375
:10072000C3F10705042D00D90425191D072901D29D
:10073000002300E0DB1E012606FA05F1491E2140D8
:1007400099409E40761E16403143F0BC00F0C6BE74
:100750000CED00E0064900F0070208684FF6FF03C1
:10076000184040EA0220034A104308607047000026
:100770000CED00E00000FA052DE9F0470E460500FB
:1007800065D0DFF81481D8F80000F7B200F0070058
:10079000B04207D288F80070D8F8000000F00700D7
:1007A000B04254D128683D4C810712D5400703D58B
:1007B000206840F4E05020602878000703D52068C6
:1007C00040F4604020602068A96820F0F0000843F1
:1007D00020602878C0072DD0304968680839012882
:1007E00012D0022813D0032811D0096889070029E4
:1007F0002DDA216821F0030101432160FFF7F2FEA9
:10080000814641F2883A0EE009688903EFE70968FA
:100810008901ECE7FFF7E6FEA0EB0901514502D99B
:100820000320BDE8F0872068696800F00C00B0EB99
:10083000810FEFD1D8F80010404601F00701B14216
:1008400007D90770006800F00700B04201D001200E
:10085000E7E72878400705D52068E96820F4E050EC
:10086000084320602878000706D52068296920F40D
:10087000604040EAC100206000F058F82168084A52
:10088000C1F30311515CC84006490860064800687E
:10089000FFF7D0FE0020C4E7003C024008380240C9
:1008A000383A000810000020080000200F220260E3
:1008B0000C4A136803F003034360136803F0F0036A
:1008C0008360136803F4E053C36012684FF4E0538D
:1008D00003EAD20202610448006800F007000860E1
:1008E0007047000008380240003C024004480549B7
:1008F00000680968044AC1F38221515CC84070470E
:100900001000002008380240483A00080448054911
:1009100000680968044AC1F34231515CC84070471D
:100920001000002008380240483A0008154810B569
:10093000006810F00C02144813D01449042A0FD098
:10094000082A0ED10F4C241F2268236802F03F02B0
:100950005B0207D52068C0F38810A0FB010106E008
:10096000084610BD2168C1F38811A1FB00010023D6
:10097000FFF79EFC2168C1F30141491C4900B0FB0F
:10098000F1F010BD083802400024F40040787D01E9
:100990002DE9F84F04006ED02078DFF84C93C007A3
:1009A000A9F104054AD009F104000168C1F38101ED
:1009B000012908D00068C0F3810002280AD1D9F8C3
:1009C0000000400206D52868800337D560680028FB
:1009D000E1D033E06068B0F5803F10D0B0F5A02FD3
:1009E000286810D020F480302860286820F4802007
:1009F00028606068A8B1FFF7F5FD06460DE028689D
:100A000040F48030F4E740F480202860F7E700BF2E
:100A1000FFF7E8FD801B642873D828688003F7D5AA
:100A20000CE0FFF7DFFD064605E000BFFFF7DAFD4B
:100A3000801B6428F0D828688003F7D42078DFF87A
:100A4000AC8280074FF0000A3ED5A748001D016820
:100A500011F00C0F08D00068C0F3810002280BD100
:100A6000D9F80000400207D42868800716D5E0684E
:100A7000012800D112E033E1E068B8B10120C8F8E4
:100A80000000FFF7AFFD064605E000BFFFF7AAFD37
:100A9000801B0228C0D828688007F7D528682169FC
:100AA00020F0F80040EAC10028600DE0C8F800A07E
:100AB000FFF798FD064604E0FFF794FD801B02282F
:100AC0001FD828688007F7D42078000722D5864FE2
:100AD00087486169703771B101210160FFF782FDBC
:100AE000064604E0FFF77EFD801B022809D838681F
:100AF0008007F7D50EE0C0F800A0FFF773FD0646AB
:100B000005E082E0FFF76EFD801B02287DD8386883
:100B10008007F7D42078400768D5DFF8CCB10027EC
:100B20000BF13C0BDBF80000C0000BD4DBF800102D
:100B300041F08051CBF80010DBF80000012700F0F5
:100B4000805000906B4E3068C00510D4306840F47F
:100B500080703060FFF746FD009005E0FFF742FD32
:100B60000099401A022850D83068C005F6D55E4E6C
:100B7000A0686C3601280FD00528306810D020F00E
:100B800001003060306820F004003060A068B8B127
:100B9000FFF728FD00900FE0306840F00100F4E717
:100BA00040F004003060F7E7FFF71CFD0099411AA0
:100BB00041F28830814266D830688007F4D50EE073
:100BC000FFF710FD009007E0FFF70CFD0099411AB8
:100BD00041F28830814256D830688007F4D42FB172
:100BE000DBF8001021F08051CBF80010A069C8B3E9
:100BF0003D49091D0968C1F3810102294AD0022833
:100C0000504607D0C8F8600000E03CE0FFF7EAFC7F
:100C100004463BE04746C8F86000FFF7E3FC0646A1
:100C200005E000BFFFF7DEFC801B02282BD82868F8
:100C30008001F7D4D4E907010843A16A2E4A490884
:100C400002EB0141626A41EA8211084394F82C10D8
:100C500040EA0161C9F8001001203866FFF7C2FCC4
:100C6000044606E03EE000BFFFF7BCFC001B022884
:100C700009D828688001F7D534E000BFFFF7B2FC3F
:100C8000001B022802D90320BDE8F88F28688001E4
:100C9000F4D427E00128F7D0D9F80000E26900F485
:100CA000800191421CD1226A00F03F01914217D18C
:100CB00047F6C071626A0140B1EB821F10D1A26A8F
:100CC0004FF0FF3300F4403103EB5202B1EB024F1F
:100CD00006D194F82C1000F07060B0EB016F01D0D9
:100CE0000120D1E70020CFE704380240000047424E
:100CF000800E4742007000400000FFFF70477047C1
:100D000010B5040003D094F83D0010B107E00120B5
:100D100010BD002084F83C00204600F01EF80220A0
:100D200084F83D00211D206800F0A4FA012084F819
:100D3000460084F83E0084F83F0084F8400084F8C0
:100D4000410084F8420084F8430084F8440084F8A9
:100D5000450084F83D00002010BD704790F83D101C
:100D6000012901D001207047022180F83D1001685F
:100D7000CA6842F00102CA6000680E4988420ED07B
:100D8000B0F1804F0BD00C49884208D00B49884203
:100D900005D00B49884202D00A49884204D18168B3
:100DA00001F00701062903D0016841F0010101604B
:100DB000002070470000014000040040000800408F
:100DC000000C004000400140704770B504460068C8
:100DD00001694FF00005C943890715D4C168C943AB
:100DE000890711D4E91E01610120207720688069FC
:100DF0008007204602D0FFF7E7FF04E000F098F8F4
:100E0000204600F096F8257720680169C943490714
:100E100017D4C168C943490713D46FF004010161B5
:100E2000022020772068806910F4407F204602D09D
:100E3000FFF7CAFF04E000F07BF8204600F079F8E5
:100E4000257720680169C943090716D4C168C943D9
:100E5000090712D46FF0080101610420207720688F
:100E6000C0698007204602D0FFF7AEFF04E000F023
:100E70005FF8204600F05DF8257720680169C943D6
:100E8000C90617D4C168C943C90613D46FF010014D
:100E90000161082020772068C06910F4407F204657
:100EA00002D0FFF791FF04E000F042F8204600F086
:100EB00040F8257720680169C943C90708D1C1688E
:100EC000C943C90704D1891E0161204600F032F8E8
:100ED00020680169C943090609D4C168C9430906E4
:100EE00005D46FF0800101612046FFF707FF2068FD
:100EF0000169C943490609D4C168C943490605D4F3
:100F00006FF040010161204600F01EF82068016981
:100F1000C94389060BD4C168C943890607D46FF059
:100F2000200101612046BDE87040FFF7E8BE70BDBA
:100F30007047704700680349884201D1FFF758BBEA
:100F40007047000000000140704770B5040004D0F5
:100F500094F83D00002510B106E0012070BD84F832
:100F60003C50204600F022F8242084F83D00206800
:100F7000C16821F40051C160204600F0C7F9206823
:100F8000016921F4904101612068416921F02A0141
:100F900041612068C16841F40051C160256420208E
:100FA00084F83D0084F83E00002070BD10B586B086
:100FB000044614216846FFF7C5F9144920688842A1
:100FC00021D113480021026842F01002026000683B
:100FD00000F0100005900E481438026842F001023B
:100FE0000260006800F0010005904FF4C0600090BE
:100FF0000220CDE9010103200390072004906946F7
:101000000448FFF7FFF906B010BD000000100140D2
:1010100044380240000002402DE9F843044690F8AD
:101020003D001F4616460D4620284CD1C5B1BEB125
:1010300094F83C00012846D0012084F83C004FF091
:101040000008C4F84080212084F83D00FFF7CAFA68
:10105000A6848146E684A068B0F5805F03D004E0F2
:101060000120BDE8F883206928B12E465FF0000515
:1010700084F83C800EE00026FAE78021204600F04C
:10108000CBF9A0B9AEB116F8010B21684860E08C2D
:10109000401EE084E08C4B464FF000020097002891
:1010A000EBD14FF04001204600F0B6F930B10320FB
:1010B000D7E735F8020BC0F30800E6E7202084F8F4
:1010C0003D000020CDE70220CBE7000010B5044A28
:1010D0000021044801F094F80349086010BD0000A5
:1010E000143A000865110008000000200D4808B5FA
:1010F000016841F004010160016801F00401009100
:10110000016841F080010160016801F080010091F7
:10111000016841F001010160006800F001000090E9
:1011200008BD0000303802400C4810B50A49016083
:101130004FF4E1314160002181600C22C160C0E9BF
:1011400004128161C161FFF700FF002803D0BDE8F0
:101150001040FFF741B910BD00100140B000002061
:10116000FEE7FEE705A000F095F9FFF737F909A0C3
:1011700000F090F9012001F007F8FBE75374617269
:1011800074696E67204661756C7420546573742EA3
:101190002E2E0A004661756C7420546573742043CA
:1011A0006F6D706C657465642E0A000010B54FF0A9
:1011B000E020006902F070FA012803D0BDE8104079
:1011C00001F09EBF10BD000030B593B030216846DD
:1011D000FFF7B8F814210CA8FFF7B4F81C48002456
:1011E000016841F080510160006800F0805011906A
:1011F0001848016841F4404101600068022500F48C
:101200004040119001200390102004900095069515
:101210000820CDE907406420CDE9090504200B90A2
:101220006846FFF7B5FB08B172B6FEE70F20CDE9BF
:101230000C054FF48050CDE90E4003210CA810940A
:10124000FFF79AFA002801D072B6FEE713B030BD5E
:1012500040380240007000400248016841F47001CB
:101260000160704788ED00E00148FFF7AEBD000067
:10127000F4000020F0B502681D4B1E4C9F031E4D6C
:101280001E4E984207D0B84205D0A04203D0A842D3
:1012900001D0B04204D122F0700C4A6842EA0C023C
:1012A000984210D0B8420ED0A0420CD0A8420AD02A
:1012B000B04208D0124CA04205D0124CA04202D03D
:1012C000114CA04203D122F44074CA6822434C69F5
:1012D00022F08002224302608A68C2620A68826247
:1012E000984201D10969016301214161F0BD00000B
:1012F000000001400004004000080040000C0040D5
:1013000000400140004401400048014070B50446DF
:1013100000680169E26821F44051114301612169CB
:10132000A068E26908436169114308432168CA68FB
:1013300049F20C639A430243CA6020684169A2697A
:1013400021F440711143416131492068884202D043
:101350003049884202D1FFF7D9FA01E0FFF7C6FA17
:10136000E2690023192164253226B2F5004F626834
:1013700028D0A0FB0101930F9200FEF799FF0146D0
:10138000B0FBF5F06FF01802504301EB800006EB64
:101390000010B0FBF5F000F0F002B1FBF5F002EB4D
:1013A0000012B1FBF5F06FF01803584301EB800019
:1013B00006EB0010B0FBF5F000F00F0021681044C0
:1013C000886070BDA0FB010192185B41FEF770FFC1
:1013D0000146B0FBF5F00201B1FBF5F06FF0180328
:1013E000584301EB800006EBC000B0FBF5F000F0C5
:1013F000F80002EB4002B1FBF5F0584301EB80002E
:1014000006EBC000B0FBF5F000F00700D6E70000E7
:1014100000100140001401402DE9F04198461746A4
:101420000E460446069D27E0681C25D02DB1FFF727
:10143000D9F8A0EB0800A8421ED920680C3050E86B
:10144000001F21F4D07140E80012002AF5D1206875
:10145000143050E8001F21F0010140E80012002A7A
:10146000F5D1202084F83D0084F83E00002084F867
:101470003C000320BDE8F0812068006836EA0000E7
:1014800004D00020B842CFD00020F3E70120F9E7D4
:10149000FEE700000FB4054B10B503A9044A0298FB
:1014A00000F03CF810BC5DF814FB0000B12000080F
:1014B000AC0000200FB4084B10B504A902AA039891
:1014C00000F02CF8044602A9002000F052FA204651
:1014D00010BC5DF814FB0000731900080907090E21
:1014E000002804DB00F1E02080F80014704700F0D1
:1014F0000F0000F1E02080F8141D704702E008C8DA
:10150000121F08C1002AFAD170477047002001E07D
:1015100001C1121F002AFBD1704700002DE9FF4FC7
:101520008DB00F460546002606E025280BD0DDE9E4
:101530000F1290476D1C761C28780028F5D111B049
:101540003046BDE8F08F0024A246A1460122E949B9
:1015500000E0044315F8013F203B02FA03F0084283
:10156000F7D128782A2810D06FF02F022878A0F120
:101570003001092914D80AEB8A0102EB410144F039
:10158000020400EB010A6D1CF0E701CF5FEA000ADC
:1015900003D544F40054CAF1000A44F002046D1C5F
:1015A00028782E2817D115F8010F44F004042A28B2
:1015B0000ED06FF02F022878A0F1300109290AD847
:1015C00009EB890102EB410100EB01096D1CF2E717
:1015D00057F8049B6D1C28786C280FD006DC4C282B
:1015E00017D068280DD06A2814D104E0742810D0D0
:1015F0007A280FD10DE044F400140AE044F480147A
:1016000001E044F440146978814202D104F5801469
:101610006D1C6D1C28786E281ED00CDC632830D021
:1016200004DC00288BD0582811D19FE0642867D0B3
:1016300069280CD164E073282DD004DC6F2872D0A7
:10164000702804D194E075286ED078286DD0DDE93B
:101650000F129047761C4BE1C4F30250022806D0CB
:10166000032809D0042801CF09D0066040E101CF4A
:10167000F117C0E900613BE101CF068038E1067057
:1016800036E117F8040B8DF8000000208DF80100FA
:10169000EB46012003E057F804BB4FF0FF30610731
:1016A0004FF0000102D40DE008F1010188464945E0
:1016B0000FDA8045F8DB1BF808100029F4D108E0A8
:1016C00008F1010188468142FADB1BF80810002965
:1016D000F6D1DDE90F23AAEB08008146214600F090
:1016E00031F9304400EB080604E0DDE90F121BF885
:1016F000010B9047B8F10108F7D221464846F2E0C5
:101700000A21C4F302524FF0000B0891022A04D0C0
:1017100001CFC117032A09D00AE0FF1D27F00707F0
:10172000F7E8020108E02CE01EE01FE000B2C1175C
:10173000042A01D140B2C117021E71F1000206DA7B
:101740000023D0EB030063EB01012D2202E0220510
:1017500004D52B228DF82420012203E0E20701D0DA
:101760002022F7E7904653E00A210BE0102109E020
:1017700010214FF0000B44F004044FF008090891C9
:1017800003E008214FF0000B0891C4F30252022A33
:1017900004D001CF0021032A06D006E0FF1D27F068
:1017A0000707F7E8020103E080B2042A00D1C0B2C3
:1017B0004FF0000822072BD52A78702A07D0DDF8D1
:1017C00020C08CF0100C5CEA0B0C05D00EE040221F
:1017D0008DF82420012208E050EA010306D03023CE
:1017E0008DF824308DF8252002229046089B83F046
:1017F000080353EA0B030BD150EA010201D162073F
:1018000006D530228DF824204FF00108A9F10109F6
:101810002A78582A04D038A20B9208AA0A920BE020
:101820003AA2F9E75B46089AFEF742FD0B9B9B5CE8
:101830000A9A521E0A92137050EA0102F2D10A98D3
:10184000ADEB000000F1200B600702D524F48034DA
:1018500001E04FF00109D94502DDA9EB0B0000E0E2
:10186000002000EB0B0141440890AAEB010AE003C1
:1018700006D4DDE90F232146504600F063F8064404
:101880004FF0000908E009A911F80900DDE90F127D
:10189000904709F10109761CC145F4DBE0030CD542
:1018A000DDE90F232146504600F04CF8064404E0E1
:1018B000DDE90F1230209047761C0899481E0890E9
:1018C0000029F5DC08E00A980A990078491C0A9179
:1018D000DDE90F129047761CBBF10001ABF1010B63
:1018E000F1DC21465046DDE90F2300F019F80644EB
:1018F0006D1C21E60928010030313233343536378A
:10190000383961626364656600000000303132334B
:1019100034353637383941424344454600000000EB
:101920002DE9F041044600251E461746880404D4DC
:1019300005E039462020B0476D1C641EF9D52846C5
:10194000BDE8F0812DE9F041044600251E46904691
:10195000C80301D5302700E02027880404D505E01E
:1019600041463846B0476D1C641EF9D52846BDE88F
:10197000F0810A68531C0B60107070472DE9FE4F10
:101980002F4C80460025A0680090E06801906078A8
:1019900016468A46A946D0B1A078A8B9294901259A
:1019A0008869C8F8000048692169401E88420BD345
:1019B00062691144814207D3BAF1010F04D90225AB
:1019C0004FF00109C8F80400207938B90BE0FEF7A0
:1019D00055FC0746FEF74FFC874204D101AA694631
:1019E00002A800F071FBA07810B3009E20E03768D9
:1019F000F8071CD020697F1E011D8F4217D3616933
:101A00000844B84213D3202D11D2381F00F0B8F982
:101A100068B155450BD2022D06D1B9F1000F03D0A4
:101A2000D8F80400B84202D048F825706D1C361D65
:101A3000DDE900100844B042D9D82846BDE8FE8F41
:101A4000940000209C4B00202DE9F04391B080468B
:101A500000200C460F9020226E4907A8FEF759FC83
:101A60006D4EB0680690F0680590307858B1707887
:101A700098B1684A69A1163A6BA0FFF70BFD72A0F6
:101A8000FFF708FDFEE7634A70A1163A66A0FFF76C
:101A900001FD6DA0FFF7FEFCFEE74FF0010986F89F
:101AA00001906CA0FFF7F6FC67A0FFF7F3FC00F0D5
:101AB00013F9584FC8F380003071DC3FB8B101F022
:101AC000E1F910B101F0DEF900E063A0BA6A014665
:101AD0001046FFF7DFFC5CA0FFF7DCFCFEF7CBFB5A
:101AE000044605AA06A90FA800F0EEFA05E0F86A78
:101AF000FFF7D0FC54A0FFF7CDFC48F30010401CCA
:101B000004F12005F07000D04835069A954203D3C1
:101B100005981044A8420AD205982946131850483F
:101B2000FFF7B8FC48A0FFF7B5FC86F80290DDE9A6
:101B300005102A4600F036F9386BFFF7ABFC42A0DF
:101B4000FFF7A8FC474E2768376060687060A1689F
:101B5000B160E268F2602369336163697361A3690C
:101B6000B361E369F361DDE90934CDE90003CDE94F
:101B700002140492DDE907133A463BA0FFF78AFC02
:101B800031A0FFF787FC0DF104080D98F3690E9A58
:101B9000B16988E80F00706900900C9B326932A02F
:101BA0000B99FFF777FC28A0FFF774FC39A0FFF72B
:101BB00071FC25A0FFF76EFC46480068306245487E
:101BC000001D007886F82400424810300068B0629A
:101BD0004048401D007886F82C003E4814300068CC
:101BE00030633C48801D0088B0863A480830006861
:101BF000B06338480C300088F063364818300088ED
:101C0000306400F035F9284600F040FB11B0BDE823
:101C1000F08300002C3B000894000020216F6E5FD1
:101C20006661756C74000000282573292068617353
:101C300020617373657274206661696C65642061EC
:101C4000742025732E0000000D0A0000696E69746F
:101C50005F6F6B00000000004E4F5F4E414D45002E
:101C6000D44300089C4B0020202025733A202530C7
:101C70003878202025733A202530387820202573A5
:101C80003A2025303878202025733A2025303878BE
:101C9000000000003D3D3D3D3D3D3D3D3D3D3D3D68
:101CA0003D3D3D3D3D3D3D3D3D3D3D3D3D3D3D3D64
:101CB0003D3D3D3D3D3D3D3D3D3D3D3D3D3D3D3D54
:101CC0003D3D3D3D3D3D3D3D3D3D3D3D3D3D3D3D44
:101CD0003D3D000024ED00E010B50748074BA3F19F
:101CE00021024068A2F12101FFF7D4FBBDE81040BA
:101CF00003A0FFF7CFBB0000503A00085A4A00206B
:101D00000D0A000070B50C46154601462022144805
:101D1000FEF723FB1248202221462130FEF71DFB4F
:101D20000F48202229464230FEF717FB0E480D4986
:101D30000E4A8160521A0E490E4BC0E90321A3EBF3
:101D40000101416102D00121017070BD0A480068A3
:101D5000FFF7A0FBBDE8704008A0FFF79BBB0000A9
:101D6000184A0020E04B002094000020E04F0020A3
:101D7000000000083C440008503A00080D0A00002A
:101D8000018840881F22B2EBD02F03D11E22B2EB74
:101D9000D12F03D04721B1EB102F01D10120704783
:101DA000002070472DE9F04106461D4814461027D3
:101DB0008278DFF8708075189AB1007910B1D8F880
:101DC000180001E0D8F81C002146FFF763FB16A0BD
:101DD000FFF760FBB44201D2344602E0A54200D2D4
:101DE0002C46D8F81000FFF755FB0FA0FFF752FB69
:101DF00009E021460DA02268FFF74CFB0AA0FFF77F
:101E000049FB241D7F1EA54201D9002FF1D10EA050
:101E1000FFF740FBBDE8F04103A0FFF73BBB00002C
:101E200094000020503A00080D0A00002020616450
:101E300064723A2025303878202020206461746153
:101E40003A202530387800003D3D3D3D3D3D3D3D4B
:101E50003D3D3D3D3D3D3D3D3D3D3D3D3D3D3D3DB2
:101E60003D3D3D3D3D3D3D3D3D3D3D3D0000000096
:101E700070B58C4D8C4C95F83800800705D5606B9B
:101E8000FFF708FB89A0FFF705FBA86B40007DD595
:101E900095F82400F0B3C00705D0A06BFFF7FAFA5D
:101EA00082A0FFF7F7FA95F82400800705D5E06BCC
:101EB000FFF7F0FA7DA0FFF7EDFA95F82400000790
:101EC00005D5206CFFF7E6FA78A0FFF7E3FA95F85E
:101ED0002400C00605D5606CFFF7DCFA73A0FFF79D
:101EE000D9FA95F82400800605D5A06CFFF7D2FA40
:101EF0006EA0FFF7CFFA95F8240001060DD5C107B3
:101F000001D1800709D5A96AD4F89000FFF7C2FA79
:101F100066A000E001E0FFF7BDFA95F82C00B0B331
:101F2000C00705D0E06CFFF7B5FA60A0FFF7B2FA82
:101F300095F82C00800705D5206DFFF7ABFA5BA064
:101F4000FFF7A8FA95F82C00400705D5606DFFF75C
:101F5000A1FA56A0FFF79EFA95F82C00000705D5C8
:101F6000A06DFFF797FA51A0FFF794FA95F82C00AF
:101F7000C00605D5E06DFFF78DFA4CA0FFF78AFA91
:101F800095F82C00800608D5206E01E04DE012E0A7
:101F9000FFF780FA45A0FFF77DFA95F82C000106BF
:101FA00009D5800707D5296BD4F89400FFF772FA9A
:101FB0003EA0FFF76FFAA88EB8B3C00705D0606ED9
:101FC000FFF768FA39A0FFF765FA95F83400800743
:101FD00005D5A06EFFF75EFA34A0FFF75BFA95F81F
:101FE0003400400705D5E06EFFF754FA2FA0FFF745
:101FF00051FA95F83400000705D5206FFFF74AFA2B
:102000002AA0FFF747FAA88EC00505D5606FFFF735
:1020100041FA26A0FFF73EFAA88E800505D5A06FED
:10202000FFF738FA21A0FFF735FAA86B002838DA55
:10203000E86B002835D0C00705D0E06FFFF72AFA1B
:102040001AA0FFF727FA95F83C00800706D5D4F8C8
:102050008000FFF71FFA15A0FFF71CFA95F83C0067
:10206000400706D5D4F88400FFF714FA0FA0FFF755
:1020700011FA95F83C00000706D5D4F88800FFF760
:1020800009FA0AA0FFF706FA95F83C00C00608D541
:10209000D4F88C00FFF7FEF9BDE8704003A0FFF70D
:1020A000F9B970BD9C4B0020503A00080D0A0000A1
:1020B00013B54FF6FF73012269460248FEF7ACFFE5
:1020C00000981CBDB000002070B514460D0008D06B
:1020D00084B100F011FF286000F014FF8000206040
:1020E00070BD094A09A10CA0FFF7D4F912A0FFF7AF
:1020F000D1F9FEE7044A11A107A0FFF7CBF90EA022
:10210000FFF7C8F9FEE70000E83A0008737461724F
:10211000745F61646472000028257329206861730C
:1021200020617373657274206661696C65642061F7
:10213000742025732E0000000D0A000073697A6573
:1021400000000000FEF75CFAFFF73EF8FEF7CEFF56
:10215000FEF7EAFF05A207A108A0FFF7D3FD00F0F4
:1021600021F8FEF7B3FF00F02FF8FEE756302E31CE
:102170002E30000056312E302E300000436D42616B
:10218000636B74726163650010B5EFF3058111B183
:102190006FF0050403E0002408B100F03FFE204684
:1021A00010BD0000EFF3058010B16FF0050070471F
:1021B0000448016811B14FF0FF3070470121016000
:1021C000002070476400002010B5EFF3058010B1C7
:1021D0006FF0050010BD08480168012902D04FF0DA
:1021E000FF3010BD054A002182F8141D0221016054
:1021F00000F08EFE002010BD640000200BE000E027
:102200002DE9FF414FEA01034FF00005EFF305818F
:10221000039549BB40B38027182100244AB31668B0
:1022200006B1344696691EB13146761E382E02D26A
:102230001679F60703D0002004B0BDE8F081566996
:1022400006B1B708D2F808C0BCF1000F0DD0D568B0
:10225000602D18D312693AB136B18DE806103A46AE
:10226000214601F0EEF903900DE0D6685EB91269DF
:102270004AB903AACDE90012BAB2214601F0B4F975
:10228000012800D003950398D6E700002DE9F0431C
:10229000A1B00446802101A8FEF754F8224620216F
:1022A00001A8FFF76BFB05460024154F0DF104084C
:1022B0004FF020090CE000BF04EBC400384458F88C
:1022C000242006460FA1FFF7F5F886F80890641C55
:1022D000AC42F1D30D484DB10949009705EBC50358
:1022E000006A0BA26339FFF7D5F802E0406AFFF7F6
:1022F000D1F809A0FFF7CEF821B0BDE8F0830000C7
:102300007B4A00202530386C78000000503A0008E5
:102310002E617866000000000D0A00002DE9F041F2
:10232000134C0F460546E6682068083000F042FC72
:10233000681C07D137B12168BDE8F0410D4808316C
:1023400000F088BC20683544B5428560216805D21C
:10235000A06BBDE8F041083100F064BC606B08314F
:1023600000F060FCA06A854200D2A562BDE8F08161
:10237000140000202C0600202DE9F041054600F055
:1023800075FC2D4CA068401CA06020682B4F10B13C
:10239000606930B32BE02560A068012827D10026B2
:1023A00006EB860007EB800000F02EFC761C382E32
:1023B000F6D3234800F028FC2148143000F024FC18
:1023C0001F48283000F020FC1D483C3000F01CFC69
:1023D0001B48503000F018FC194860631430A063AB
:1023E00005E02068296B006B884200D82560606A90
:1023F000401C6062A864286B2169884200D9206172
:1024000000EB800007EB800005F1080100F022FCE2
:1024100000F04CFC606900280CD02068296B006B30
:10242000884207D207494FF080500860BFF34F8FB2
:10243000BFF36F8FBDE8F081140000207C01002005
:10244000DC05002004ED00E038B500F00FFC104C76
:102450002068C8B90F4800F0D7FB0E48143000F0D0
:10246000D3FB0C48E060143020610A4B0020F03BA5
:10247000009003F1500210210A2000F057FE206066
:1024800010B105A100F094FCBDE8384000F00EBC8E
:102490005000002030070020546D725100000000F1
:1024A00030B4026C0B46002A0BD0C1681144C160E5
:1024B0008468A14201D30168C16030BC1846FDF7B1
:1024C00028BF30BC70472DE9F041856B17460446A4
:1024D0000026026C82B1C7B1E068FDF71AFFE1681F
:1024E000206C091AE1602268914202D2A168081AA0
:1024F000E060022F16D017E02068A8B9A06801F0AC
:1025000045F906460020A0600EE06068FDF701FF77
:10251000216C606808446060A168884204D3206828
:10252000606001E005B16D1E6D1CA5633046BDE81D
:10253000F08110B5044690F85D0058B101280CD028
:1025400002280FD0502080F31188BFF34F8FBFF3C4
:102550006F8FFEE7606B00F0BDFB2046BDE81040CA
:1025600000F0B8BB10BD000010484FF47051420796
:1025700006D0C01D0D4920F00700411AC1F5705169
:102580000B4A00230144C2E900030839183A21F03C
:10259000070111604B600B600B1AC0E900139360D8
:1025A0004FF000405360506170470000180E00204B
:1025B00080000020144E154CA6F29C474FF0805826
:1025C000DFF84C9013E000BF00F050FBF068C568E6
:1025D00005F1080000F0EEFAA068401EA0606068F7
:1025E000401E606000F062FB2846FFF7A2FF6068B3
:1025F0000028E9D138680128F9D9C9F80080BFF36B
:102600004F8FBFF36F8FF2E71806002014000020F1
:1026100004ED00E070B51D46049C51B1C4F80020E3
:10262000C4E90F010121204600F0B4FD84F84C50AC
:1026300070BD2460F4E72DE9F05F0F46DDE90B94EF
:102640001546834691009A460A9EA522606BFDF7C7
:1026500072FE6FF00301606B01EB8501084420F00E
:10266000070865605FEA487007D0502080F3118842
:10267000BFF34F8FBFF36F8FFEE7002567B10020D8
:102680002218395C82F83810395C11B1401C1028CE
:10269000F6D384F8475001E084F83850382E00D340
:1026A00037262663C4E9146504F1080000F0B7FA80
:1026B00004F11C0000F0B3FA6461C6F13800A462B2
:1026C000E061A56584F85C5052465946404600F0EA
:1026D0005BFA2060B9F1000F01D0C9F80040BDE8F5
:1026E000F09F000030B5114900E011460A688242AF
:1026F000FBD34B685C18844203D14068184448609F
:10270000084643681C18944209D1084C183C2468B8
:10271000A24209D052681A4442600A6812680260F4
:10272000814200D0086030BD0460F9E780000020DD
:1027300070B5002441600B4D0061914206D8D11A5A
:102740008269914206D2011D286907E09A4203D2AC
:10275000994201D3012403E0011DE86800F062FA08
:10276000204670BD5000002010B5044600F07EFAEF
:10277000A06B28B15FF0000400F098FA204610BD6D
:102780000124F9E730B589B03C4D6EE0049800288B
:1027900006DADDE90601059A90470498002864DB13
:1027A000069C606910B1201D00F004FA03A800F037
:1027B000D7F8024604980A2857D2DFE800F005054A
:1027C000052D334A05052D3394F8280040F001000B
:1027D00084F828000599A069059B01442046FFF76D
:1027E000A7FF68B3216A2046884794F8280040076D
:1027F0003BD5002000900598A16900234218194696
:10280000204601F0D3F8D8B9502080F31188BFF3E7
:102810004F8FBFF36F8FFEE714F8280F20F00100F1
:10282000207022E094F8280040F0010084F828008D
:102830000598A06128B1811813462046FFF778FF5C
:1028400013E0502080F31188BFF34F8FBFF36F8FD9
:10285000FEE794F82800810703D4204600F03AFAF6
:1028600003E020F0010084F82800002204A9286871
:1028700000F0E4FD002889D109B030BD50000020EF
:102880002DE9FC410F46054600F086FB01A800F04B
:1028900067F80446019818B100F0F4FFBDE8FC8128
:1028A000254EAFB130690068D0B30027291B3A46E6
:1028B000306800F091FA00F0E5FF0028EED11F49E2
:1028C0004FF080500860BFF34F8FBFF36F8FE5E785
:1028D000A542EBD800F0D6FFF0682746C068C46870
:1028E000201D00F067F994F82800410719D5A06968
:1028F0002B4641193A462046FFF71AFFA8B100209F
:102900000346014600902A46204601F04FF860B980
:10291000502080F31188BFF34F8FBFF36F8FFEE716
:1029200007E020F0010084F82800216A204688474B
:10293000B4E70127BAE700005000002004ED00E0F2
:102940000648416B096829B1416BC968C968896843
:10295000816270474FF0FF31FAE700001400002059
:1029600070B5054600F0A6FE064E0446B0688442E7
:1029700003D200F009F8012000E000202860204682
:10298000B46070BD50000020F8B5194D20E0C0685B
:10299000C4680668201D00F00DF9216A20468847AA
:1029A00094F82800400713D5A0693044B04206D9F6
:1029B00024616060211DE86800F034F908E000201F
:1029C0000346014600903246204600F0EFFF38B142
:1029D000E86801680029DAD12969C5E90310F8BD62
:1029E000502080F31188BFF34F8FBFF36F8FFEE746
:1029F0005000002008484068401C4FF0500080F311
:102A0000118804D0BFF34F8FBFF36F8FFEE7BFF382
:102A10004F8FBFF36F8FFEE788000020074CE06800
:102A2000016841B1C0680021D0F80000FFF728FF1D
:102A3000FFF7A8FEF3E701210020F7E75000002090
:102A40002DE9F041044600F011F994F9455004F1E4
:102A5000240609E0606A48B1304600F0D9FE08B1AA
:102A600000F00AFA6D1E6DB2002DF3DC4FF0FF3658
:102A700084F8456000F01AF900F0F8F894F9445031
:102A800004F1100709E0206948B1384600F0C0FEA3
:102A900008B100F0F1F96D1E6DB2002DF3DC84F881
:102AA0004460BDE8F04100F001B900002DE9F041BB
:102AB0000546002700F070FA324E306808B9FFF77B
:102AC00053FD706905424ED1C5B3083568070ED075
:102AD00005F00700C0F108000544680707D0502042
:102AE00080F31188BFF34F8FBFF36F8FFEE72DB3D5
:102AF0007068854237D82348183001460C6801E0D9
:102B000020460C466168A94202D221680029F7D10B
:102B100031688C4227D007682168016060680837F7
:102B2000411B10290FD96019420708D0502080F3AB
:102B30001188BFF34F8FBFF36F8FFEE713E0416043
:102B40006560FFF7CFFD61687068401A7060B26819
:102B5000904200D2B060706901430020C4E90001D6
:102B6000F068401CF06000F08DFE780707D0502020
:102B700080F31188BFF34F8FBFF36F8FFEE73846A6
:102B8000BDE8F0816800002010B5031F4FF080748D
:102B90001C601B1F21F001011960191F044B0B6001
:102BA00014390A60091F6FF0020244380A6010BD30
:102BB000F5290008D0E9013201699A60D0E90123C2
:102BC0005A604A68824201D182684A6000220261EA
:102BD0000868401E0860086870470000034B0360E7
:102BE00003F16000086080201060704758070020E3
:102BF000044B036003F1600008604FF480701060C4
:102C000070470000B809002000F108014FF0FF32C2
:102C1000C0E90112C160016100210160704700211B
:102C20000161704730B50B685A1C02D000F10802F0
:102C300002E0026904E02246546825689D42FAD900
:102C400053684B6099608A60516008610168491C53
:102C5000016030BD42684A6093688B609368596038
:102C6000916008610168491C01607047502080F341
:102C70001188BFF34F8FBFF36F8F0A494868401C1C
:102C8000486001280CD10848006810F0FF0F07D0F9
:102C9000502080F31188BFF34F8FBFF36F8FFEE793
:102CA000704700008800002004ED00E008494868F3
:102CB00028B1401E486001D180F311887047502030
:102CC00080F31188BFF34F8FBFF36F8FFEE70000D3
:102CD0008800002070B500282AD0164DA0F1080405
:102CE00060686969084207D1502080F31188BFF3FA
:102CF0004F8FBFF36F8FFEE722683AB1502080F309
:102D00001188BFF34F8FBFF36F8FFEE7884360607A
:102D100000F042F960686968084468602046FFF77F
:102D2000E1FC2869401C2861BDE8704000F0AABDA4
:102D300070BD0000680000204FF0E020002101611C
:102D4000816105494FF47A720968B1FBF2F1491EBD
:102D500041610721016170471000002010B5FDF7A7
:102D600083FA114910280ED300F1E02090F8F00307
:102D70000A78904207D2502080F31188BFF34F8F1A
:102D8000BFF36F8FFEE709480068896800F4E060D0
:102D9000884207D9502080F31188BFF34F8FBFF3CB
:102DA0006F8FFEE710BD0000880000200CED00E0F2
:102DB00010B5084B002200BF53F832401CB1521C22
:102DC000082AF9D310BD43F8321003EBC201486062
:102DD00010BD00003C01002070B515460E460446AB
:102DE000FFF744FF94F944100020491C01D184F8F6
:102DF000440094F94510491C01D184F84500FFF7BF
:102E000055FFA06B28B92A46314604F1240000F092
:102E100057F82046BDE87040FFF712BE10B502001B
:102E200014D00F48006B38B1502080F31188BFF3E5
:102E30004F8FBFF36F8FFEE700F0AEF80021104612
:102E4000FFF76CFA00F01EFD002807D105494FF08E
:102E500080500860BFF34F8FBFF36F8F10BD00002D
:102E60001400002004ED00E002490A6A0260C9680B
:102E7000416070471400002001490120C86170477B
:102E8000140000200148006838307047140000200A
:102E900010B50C4650B1094909681C31FFF7C2FE54
:102EA0002046BDE810400121FFF738BA502080F3DA
:102EB0001188BFF34F8FBFF36F8FFEE71400002020
:102EC00070B514460D4668B10A4909681C31FFF710
:102ED000C1FE0CB14FF0FF3521462846BDE87040D9
:102EE000FFF71CBA502080F31188BFF34F8FBFF358
:102EF0006F8FFEE71400002001480068406B7047A8
:102F00001400002001480068406870471400002049
:102F100030B587B00024039405AA04A903A804943B
:102F2000FFF75CFEDDE903010094CDE90110002309
:102F300015A11748059A00F084FB164D0028E86299
:102F40001FD000F003FD012809D0401C19D15020EA
:102F500080F31188BFF34F8FBFF36F8FFEE75020D0
:102F600080F31188BFF34F8FBFF36F8F4FF0FF30A7
:102F7000A86201206861EC6007B0BDE8304000F055
:102F800045B807B030BD000049444C450000000082
:102F9000B5250008140000200248016B491C01639C
:102FA0007047000014000020164810B5016B11B1E5
:102FB0000121C16110BD0021C1610169124A01E016
:102FC000B9B1491E01EB810352F82330002BF7D031
:102FD00001EB810302EB830202F1080453685B6892
:102FE0005360A34201D15B685360DA6802600161FB
:102FF00010BD502080F31188BFF34F8FBFF36F8F48
:10300000FEE70000140000207C0100201CB53748BA
:103010000168374A914207D1502080F31188BFF3ED
:103020004F8FBFF36F8FFEE700683149491E88421A
:1030300007D1502080F31188BFF34F8FBFF36F8FFC
:10304000FEE72C4908780190FF20087008788DF879
:1030500000009DF800009DF8002000F0F000904274
:1030600007D0502080F31188BFF34F8FBFF36F8FCD
:10307000FEE79DF80000204C00F050002070072073
:10308000A06005E09DF8002052008DF80020401E51
:103090009DF800201206F5D4A060032807D0502028
:1030A00080F31188BFF34F8FBFF36F8FFEE74FF4AC
:1030B0004070A060019808700C482030016841F40D
:1030C00070010160016841F070410160FFF734FE5A
:1030D00000206060FDF790F80848016841F0404129
:1030E0000160FDF775F800201CBD000000ED00E058
:1030F00071C20F4100E400E08800002034EF00E0DE
:1031000010B5502080F31188BFF34F8FBFF36F8F3E
:1031100000F0D6FA18B104494FF080500860002042
:1031200080F3118810BD000004ED00E038B5049D67
:1031300018B153B1CAB181B120E0502080F3118899
:10314000BFF34F8FBFF36F8FFEE7502080F31188DE
:10315000BFF34F8FBFF36F8FFEE7502080F31188CE
:10316000BFF34F8FBFF36F8FFEE739B1502080F36D
:103170001188BFF34F8FBFF36F8FFEE750241C46BB
:10318000012384F846302B460094FFF743FA20468B
:1031900038BD000070B50D46040025D0FFF766FD70
:1031A000D4E90F20216802FB0011A1600021A16376
:1031B000216861600A46D4E90F01401E00FB01212D
:1031C000E16021464FF0FF3001F8440F487004F1F0
:1031D00010008DB1FFF718FD04F12400FFF714FD76
:1031E000FFF764FD012070BD502080F31188BFF30C
:1031F0004F8FBFF36F8FFEE721690029F0D000F0F9
:1032000007FB0028ECD004494FF080500860BFF362
:103210004F8FBFF36F8FE3E704ED00E02DE9FF4729
:1032200082B01D468A464FF00008040003D0BAF170
:10323000000F08D011E0502080F31188BFF34F8FAA
:10324000BFF36F8FFEE7206C38B1502080F31188F8
:10325000BFF34F8FBFF36F8FFEE7022D0AD1E06BF4
:10326000012807D0502080F31188BFF34F8FBFF3A0
:103270006F8FFEE700F010FA3F4F4FF000094FF05C
:10328000805648B9049838B1502080F31188BFF3B4
:103290004F8FBFF36F8FFEE7FFF7E8FCA06BE16B8A
:1032A000884207D3022D05D00498D0B1B8F1000FA1
:1032B0001AD01EE02A4651462046FFF704F9616AFB
:1032C00019B104F1240000F0A3FA20B13E60BFF36D
:1032D0004F8FBFF36F8FFFF7E9FC012006B0BDE809
:1032E000F087FFF7E3FC22E06846FFF7BDFD4FF0F3
:1032F0000108FFF7DBFCFFF74FFEFFF7B7FC94F97F
:103300004400401C01D184F8449094F94500401CCD
:1033100001D184F84590FFF7C9FC04A9684600F084
:1033200029F930B12046FFF78BFB00F0ABFA002003
:10333000D4E7FFF79BFCA06BE16B884213D1FFF74A
:10334000B5FC04F110000499FFF7A2FD2046FFF739
:1033500077FB00F097FA00289ED13E60BFF34F8FB5
:10336000BFF36F8F98E7FFF7A1FC2046FFF768FBDC
:1033700000F088FA90E7000004ED00E02DE9F04746
:103380001F4690468946040003D0B9F1000F08D0CB
:1033900011E0502080F31188BFF34F8FBFF36F8F80
:1033A000FEE7206C38B1502080F31188BFF34F8FB7
:1033B000BFF36F8FFEE7022F0AD1E06B012807D021
:1033C000502080F31188BFF34F8FBFF36F8FFEE75C
:1033D000FFF7C4FC5020EFF3118680F31188BFF390
:1033E0004F8FBFF36F8FA06BE16B884206D3022F24
:1033F00004D0002086F31188BDE8F08794F9455089
:10340000A06B3A4649462046FFF75DF8681C04D099
:103410006D1C84F845500120ECE7606A0028FAD062
:1034200004F1240000F0F4F90028F4D0B8F1000F02
:10343000F1D00121C8F80010EDE700002DE9F747B1
:10344000002683B08A46040003D0BAF1000F08D0EA
:1034500011E0502080F31188BFF34F8FBFF36F8FBF
:10346000FEE7206C38B1502080F31188BFF34F8FF6
:10347000BFF36F8FFEE700F00FF9DFF8F4804FF035
:1034800000094FF0805748B9059838B1502080F3B3
:103490001188BFF34F8FBFF36F8FFEE7FFF7E6FB97
:1034A000A56BC5B151462046FEF7FAFF6D1EA56318
:1034B000206950B104F1100000F0AAF928B1C8F851
:1034C0000070BFF34F8FBFF36F8FFFF7EFFB01204B
:1034D00006B0BDE8F087059808B11EB106E0FFF719
:1034E000E5FB27E06846FFF7BFFC0126FFF7DEFBA0
:1034F000FFF752FDFFF7BAFB94F94400401C01D1DD
:1035000084F8449094F94500401C01D184F845901A
:10351000FFF7CCFB05A9684600F02CF800282046F0
:103520000AD0FFF78DFA00F0ADF92046FFF71CF93D
:103530000028B3D00020CBE7FFF716F990B104F1D3
:1035400024000599FFF7A4FC2046FFF779FA00F064
:1035500099F90028A2D1C8F80070BFF34F8FBFF3CC
:103560006F8F9BE72046FFF76BFA00F08BF995E72A
:1035700004ED00E02DE9F0410C46050011D0C4B186
:10358000FFF774FB174BDA686E682068911B471CC5
:1035900017D02F681B6A9F4219D0964217D8012472
:1035A00010E0502080F31188BFF34F8FBFF36F8F6F
:1035B000FEE7502080F31188BFF34F8FBFF36F8F6A
:1035C000FEE70024FFF772FB2046BDE8F081884249
:1035D00005D9401A20602846FFF746FCF1E7002095
:1035E0002060DCE7140000202DE9FF5F8346DDE961
:1035F0000E87994616468A469000FFF757FA05004F
:103600001CD06020FFF752FA040014D0002065633C
:1036100084F85D00CDE90240CDE900874B46324693
:1036200051465846FFF707F82046FEF7A5FE012051
:1036300004B0BDE8F09F2846FFF74CFB4FF0FF3089
:10364000F6E7F0B585B0DDE90B640A9DA6B1DCB103
:10365000602700976663022684F85D60002604AF49
:10366000CDE90246CDE90057FEF7E5FF2046FEF71B
:1036700083FE049805B0F0BD502080F31188BFF39D
:103680004F8FBFF36F8FFEE7502080F31188BFF399
:103690004F8FBFF36F8FFEE70548416919B1006B8B
:1036A00018B10020704701207047022070470000C9
:1036B000140000200148C06870470000140000207A
:1036C0002DE9F0472F4C0026206B28B1A069401C43
:1036D000A0613046BDE8F087E5686D1CE56013D158
:1036E000606B006838B1502080F31188BFF34F8FB2
:1036F000BFF36F8FFEE7606BA16B6163A063206A0D
:10370000401C2062FFF71CF9A06ADFF87C8085422C
:1037100009D3606B0068A0B1606BC068C768B86807
:10372000854211D2A0622068006B00EB800158F83E
:103730002100012800D90126E0690028C9D001260E
:10374000C7E74FF0FF30EDE707F108008146FFF7CC
:1037500031FAF86A18B107F11C00FFF72BFA386B41
:103760002169884200D9206100EB800108EB8100CB
:103770004946FFF76FFA386B2168096B8842C8D356
:103780000126C6E7140000207C01002070B504006B
:103790004FF0000135D01C4D2868844207D05020DE
:1037A00080F31188BFF34F8FBFF36F8FFEE7606D1B
:1037B00038B1401E6065236D226B9A4221D040B122
:1037C0001FE0502080F31188BFF34F8FBFF36F8F3E
:1037D000FEE704F108000646FFF7ECF9206D2063D0
:1037E000C0F13800E061206B2969884200D9286166
:1037F000064900EB800001EB80003146FFF72AFA12
:103800000121084670BD0000140000207C0100204A
:1038100070B5C068C46854B104F11C000646FFF7D7
:10382000C9F9154D286B50B13146144817E05020A6
:1038300080F31188BFF34F8FBFF36F8FFEE704F162
:1038400008000646FFF7B6F9206B2969884200D9BF
:1038500028610B4900EB800001EB80003146FFF747
:10386000F9F9206B2968096B884202D90120E861C7
:1038700070BD002070BD0000140000200406002070
:103880007C0100202DE9F0472D4C00252F46206BB0
:1038900038B1FFF7EBF9206B401E2063206B40B17D
:1038A00048E0502080F31188BFF34F8FBFF36F8F34
:1038B000FEE7A168234E0120E1B3A6F59169804699
:1038C0003068F0B1F068C56805F11C00FFF772F9C7
:1038D00005F108008246FFF76DF9286B21698842DF
:1038E00000D9206100EB800109EB81005146FFF710
:1038F000B1F9286B2168096B8842E1D3C4F81C80B8
:10390000DEE70DB1FFF71CF8A5694DB14FEA0806D7
:10391000FFF7D6FE00B1E6616D1EF9D10020A0616F
:10392000E06938B10849012738070860BFF34F8FB5
:10393000BFF36F8FFFF7BAF93846BDE8F087000094
:10394000140000200406002004ED00E010B586B04D
:10395000FEF77AFD114C2068B8B100200390049066
:1039600005AA04A903A8FFF743F9DDE90321022012
:103970008DE8070000230AA10B48059AFFF761FEB6
:10398000606010B106B0012010BD502080F3118896
:10399000BFF34F8FBFF36F8FFEE700005000002092
:1039A000546D7220537663001D2A00082DE9FF41F3
:1039B0001E46134602000A9D4FF0000016D0144C1C
:1039C0002768002F0FD0CDE900130292062917DADD
:1039D000FFF762FE02284FF000030FD00022694675
:1039E0002068FFF71BFC04B0BDE8F081502080F395
:1039F0001188BFF34F8FBFF36F8FFEE72A46EEE7C4
:103A00000023324669463846FFF7B8FCEBE7000072
:103A1000500000204C3B00080000000000000000A7
:103A2000000000000000000000020000180000007C
:103A30000000000000000000000000000000000086
:103A40000102030406070809000000000102030444
:103A5000303E00081042000864420008EC420008B2
:103A60002C3C0008543C0008244300084C43000848
:103A700078420008F041000850420008B8420008AF
:103A80007C3C0008043E0008743F0008043F000826
:103A9000B84100085C410008F83F0008403F0008BA
:103AA000943E0008CC3E00089041000834410008D4
:103AB000B83F000844400008703B0008D4400008AC
:103AC0008C400008B03D0008BC3B0008BC3C00082E
:103AD0007C3D0008F03C00081C3D00084C3D0008FF
:103AE0009C430008744300086765745F6375725FE8
:103AF0007468726561645F737461636B5F696E663D
:103B00006F00636D5F6261636B74726163655F61B7
:103B1000737365727400636D5F6261636B7472616D
:103B200063655F6661756C7400000000583B0008B7
:103B30005C3B0008603B0008643B0008283C000830
:103B40006C3B0008683B0008EC3C0008646566615B
:103B5000756C745461736B00523020005231200038
:103B60005232200052332000504320004C5220009B
:103B70005573616765206661756C74206973206395
:103B8000617573656420627920617474656D707409
:103B90007320746F2073776974636820746F206179
:103BA0006E20696E76616C6964207374617465203F
:103BB00028652E672E2C2041524D290055736167D0
:103BC00065206661756C7420697320636175736527
:103BD0006420627920496E64696361746573206151
:103BE00020646976696465206279207A65726F2045
:103BF0006861732074616B656E20706C6163652011
:103C00002863616E20626520736574206F6E6C7925
:103C1000206966204449565F305F545250206973D2
:103C20002073657429000000523132003D3D3D3D56
:103C30003D2054687265616420737461636B206910
:103C40006E666F726D6174696F6E203D3D3D3D3DE6
:103C5000000000003D3D3D3D3D3D204D61696E2031
:103C6000737461636B20696E666F726D6174696FE6
:103C70006E203D3D3D3D3D3D000000003D3D3D3D54
:103C80003D3D3D3D3D3D3D3D3D3D3D3D3D3D3D2081
:103C900052656769737465727320696E666F726DC1
:103CA0006174696F6E203D3D3D3D3D3D3D3D3D3D77
:103CB0003D3D3D3D3D3D3D3D3D3D00004465627522
:103CC00067206661756C7420697320636175736524
:103CD000642062792068616C742072657175657307
:103CE00074656420696E204E56494300505352005B
:103CF0004465627567206661756C74206973206322
:103D0000617573656420627920445754206D617435
:103D10006368206F636375727265640044656275E1
:103D200067206661756C74206973206361757365C3
:103D30006420627920566563746F722066657463CF
:103D400068206F6363757272656400004465627514
:103D500067206661756C7420697320636175736593
:103D60006420627920454442475251207369676E4E
:103D7000616C20617373657274656400446562757B
:103D800067206661756C7420697320636175736563
:103D90006420627920424B505420696E73747275AE
:103DA0006374696F6E20657865637574656400007F
:103DB0005573616765206661756C74206973206353
:103DC000617573656420627920696E6469636174EA
:103DD0006573207468617420616E20756E616C6912
:103DE000676E656420616363657373206661756CDB
:103DF00074206861732074616B656E20706C616300
:103E00006500000048617264206661756C74206909
:103E10007320636175736564206279206661696CE3
:103E2000656420766563746F7220666574636800EC
:103E30004552524F523A20556E61626C6520746F44
:103E40002067657420746865206D61696E207374E5
:103E500061636B20696E666F726D6174696F6E2C41
:103E600020706C6561736520636865636B2074689E
:103E70006520636F6E66696775726174696F6E2025
:103E80006F6620746865206D61696E20737461636C
:103E90006B000000427573206661756C7420697355
:103EA000206361757365642062792070726563694F
:103EB0007365206461746120616363657373207648
:103EC000696F6C6174696F6E000000004275732049
:103ED0006661756C74206973206361757365642015
:103EE000627920696D7072656369736520646174BD
:103EF00061206163636573732076696F6C617469B7
:103F00006F6E00004D656D6F7279206D616E616737
:103F1000656D656E74206661756C742069732063CD
:103F200061757365642062792064617461206163E6
:103F3000636573732076696F6C6174696F6E0000DE
:103F4000427573206661756C7420697320636175B6
:103F500073656420627920696E7374727563746925
:103F60006F6E206163636573732076696F6C617433
:103F7000696F6E004D656D6F7279206D616E61675E
:103F8000656D656E74206661756C7420697320635D
:103F9000617573656420627920696E7374727563EC
:103FA00074696F6E206163636573732076696F6CEB
:103FB0006174696F6E000000427573206661756CF4
:103FC000742069732063617573656420627920666B
:103FD0006C6F6174696E672D706F696E74206C61AF
:103FE0007A79207374617465207072657365727676
:103FF0006174696F6E0000004D656D6F7279206DA0
:10400000616E6167656D656E74206661756C7420A4
:1040100069732063617573656420627920666C6FD3
:104020006174696E672D706F696E74206C617A7946
:104030002073746174652070726573657276617443
:10404000696F6E005573616765206661756C7420D9
:10405000697320636175736564206279206174748B
:10406000656D70747320746F206578656375746511
:1040700020616E20756E646566696E656420696E88
:10408000737472756374696F6E00000055736167B5
:1040900065206661756C7420697320636175736552
:1040A0006420627920617474656D70747320746F1C
:1040B0002065786563757465206120636F70726F29
:1040C000636573736F7220696E737472756374695C
:1040D0006F6E00005573616765206661756C7420B2
:1040E00069732063617573656420627920617474FB
:1040F000656D70747320746F20646F20616E20652D
:104100007863657074696F6E2077697468206120C8
:104110006261642076616C756520696E20746865E3
:10412000204558435F52455455524E206E756D627E
:1041300065720000427573206661756C7420697346
:104140002063617573656420627920737461636BA9
:10415000696E67206572726F720000004D656D6F49
:104160007279206D616E6167656D656E7420666140
:10417000756C74206973206361757365642062795E
:1041800020737461636B696E67206572726F720071
:10419000427573206661756C742069732063617564
:1041A00073656420627920756E737461636B696EE8
:1041B00067206572726F72004D656D6F7279206D48
:1041C000616E6167656D656E74206661756C7420E3
:1041D00069732063617573656420627920756E73FD
:1041E0007461636B696E67206572726F72000000A4
:1041F00044756D702063616C6C20737461636B2017
:1042000068617320616E206572726F720000000039
:104210004669726D77617265206E616D653A202521
:10422000732C2068617264776172652076657273A1
:10423000696F6E3A2025732C20736F6674776172F4
:10424000652076657273696F6E3A202573000000F1
:104250004661756C74206F6E2074687265616420AD
:1042600025730000417373657274206F6E2074684B
:10427000726561642025730053686F77206D6F72DB
:10428000652063616C6C20737461636B20696E667A
:104290006F2062792072756E3A2061646472326CAC
:1042A000696E65202D652025732573202D6166704C
:1042B000694320252E2A73004661756C74206F6E49
:1042C00020696E74657272757074206F72206261FD
:1042D0007265206D6574616C286E6F204F532920C4
:1042E000656E7669726F6E6D656E7400417373658D
:1042F0007274206F6E20696E7465727275707420AE
:104300006F722062617265206D6574616C286E6FDA
:10431000204F532920656E7669726F6E6D656E74DD
:10432000000000004572726F723A20546872656135
:104330006420737461636B28253038782920776195
:1043400073206F766572666C6F7700004572726FCE
:10435000723A204D61696E20737461636B28253059
:1043600038782920776173206F766572666C6F7775
:104370000000000054686520627573206661756CEA
:1043800074206F6363757272656420616464726522
:1043900073732069732025303878000054686520D5
:1043A0006D656D6F7279206D616E6167656D656EAB
:1043B00074206661756C74206F63637572726564D6
:1043C00020616464726573732069732025303878C6
:1043D00000000000737461636B5F706F696E7465D9
:1043E000723A203078253038782C20737461636BF2
:1043F0005F73746172745F616464723A203078250F
:104400003038782C20737461636B5F656E645F6114
:104410006464723A20307825303878003C440008D3
:1044200000000020B0000000FC140008EC4400086C
:10443000B0000020304F00000C1500080000000004
:104440000100000010000000000000000024F40043
:10445000000000000000000000000000000000005C
:10446000000000000000000000000000000000004C
:10447000000000000000000000000000000000003C
:10448000000000000000000000000000000000002C
:10449000000000000000000000000000000000001C
:1044A000000000000000000000000000000000000C
:1044B00000000000000000000000000000000000FC
:1044C0000000000000000000AAAAAAAA0000000044
:1044D00000000000000000000000000000000000DC
:0C44E000000000000000000000000000D0
:040000050800019955
:00000001FF
