:020000040800F2
:100000001814002071020008911B0008451A00080E
:100010008D1B00087F080008AD20000800000000CC
:10002000000000000000000000000000B101000816
:1000300083080008000000000D020008E11C000811
:100040008B0200088B0200088B0200088B0200085C
:100050008B0200088B020008850800088B0200084C
:100060008B0200088B0200088B0200088B0200083C
:100070008B0200088B0200088B0200088B0200082C
:100080008B0200088B0200088B02000800000000B1
:100090000000000000000000000000008B020008CB
:1000A0008B020008BD1D00088B0200088B020008AF
:1000B000CD1D00088B0200088B0200088B0200088F
:1000C0008B0200088B0200088B0200088B020008DC
:1000D0008B0200088B0200088B0200080000000061
:1000E0008B0200088B0200088B0200080000000051
:1000F0000000000000000000000000008B0200086B
:10010000000000008B0200088B0200088B02000830
:1001100000000000000000000000000000000000DF
:100120008B0200088B0200088B0200088B0200087B
:100130008B0200080000000000000000000000002A
:100140000000000000000000000000008B0200081A
:100150008B0200088B0200088B0200088B0200084B
:100160008B0200088B020008000000000000000065
:10017000000000000000000000000000000000007F
:10018000000000008B0200080000000000000000DA
:100190008B0200088B020008DFF810D000F0EEFAA6
:1001A0000048004721390008AFF3008018140020F0
:1001B0002C4B19680868B0E8F04F80F30988BFF34A
:1001C0006F8F4FF0000080F311887047000000002F
:1001D00008480068006880F308884FF0000080F34A
:1001E000148862B661B6BFF34F8FBFF36F8F00DF25
:1001F00000BF00BF08ED00E0DFF80C00016841F42B
:1002000070010160704700BF88ED00E0EFF30980E6
:10021000BFF36F8F134B1A681EF0100F08BF20ED4D
:10022000108A20E9F04F106009B44FF0500080F3BD
:100230001188BFF34F8FBFF36F8F03F091FC4FF026
:10024000000080F3118809BC19680868B0E8F04F15
:100250001EF0100F08BFB0EC108A80F30988BFF3BE
:100260006F8F704738000020EFF305807047000063
:100270000648804706480047FEE7FEE7FEE7FEE740
:10028000FEE7FEE7FEE7FEE7FEE7FEE7A91D000842
:10029000990100082DE9F05F0546002092469B4633
:1002A00088460646814640241BE02846414647468C
:1002B000224600F09AF853465A46C01A914110D38C
:1002C00011461846224600F081F82D1A67EB010806
:1002D0004F4622460120002100F078F817EB000974
:1002E0004E41201EA4F10104DFDC484631462A4677
:1002F0004346BDE8F09F40EA01039B0703D009E0B5
:1003000008C9121F08C0042AFAD203E011F8013B01
:1003100000F8013B521EF9D27047D2B201E000F85A
:10032000012B491EFBD270470022F6E710B5134699
:100330000A4604461946FFF7F0FF204610BD30B5C7
:1003400005462A460B4612F8010B13F8014B08B17B
:10035000A042F8D01CB1002802D06D1CF1E728465D
:1003600030BD421C10F8011B0029FBD1801A7047D8
:10037000034611F8012B00F8012B002AF9D1184689
:10038000704730B505460020034600E05B1C9342F1
:1003900005D2EC5CC85C201A01D1002CF6D130BD2E
:1003A00030B50B46014600202022012409E021FA45
:1003B00002F59D4205D303FA02F5491B04FA02F542
:1003C0002844151EA2F10102F1DC30BD202A04DB15
:1003D000203A00FA02F1002070479140C2F1200358
:1003E00020FA03F3194390407047202A04DB203A97
:1003F00021FA02F00021704721FA02F3D040C2F145
:10040000200291400843194670472DE9FE4F80466F
:1004100081EA0300C00F0C46009021F0004123F058
:100420000045B8EB0200A94105D24046214690465E
:100430001C460B46024623F00040104347D0270DD0
:10044000C7F30A00C3F30A510290401A01904028F2
:100450006BDAC3F3130040F4801B0098924620B17E
:100460000023D2EB030A63EB0B0B01985946C0F152
:1004700040025046FFF7AAFF06460D465046594631
:10048000019A00F08DF910EB08006141002487EA21
:10049000115284EAE7731A4340D0009A62B3019A7A
:1004A000012A4FEA075215DC001B61EB02014FF0F5
:1004B000004202EA0752CDE90042001C41F58011DA
:1004C00032462B4600F08DF903B0BDE8F08F404670
:1004D0002146F9E7001B61EB0201001C41F5801386
:1004E00000185B412018A2F5001747EB030140EA12
:1004F000D570B6196D4111E06D084FEA360645EA30
:10050000C0754FEA0752001B61EB0201001C41F568
:10051000801149084FEA30000019514132462B46FC
:1005200003B0BDE8F04F00F04DB900980122400043
:100530000023D0EB020263EBE073009821464FEA00
:10054000E074B8EB000061EB0401E9E783F00043DD
:100550005BE781F0004158E72DE9FE4F81EA030493
:1005600004F0004421F0004100944FF0000B23F010
:10057000004350EA01045ED052EA03045BD0C3F3A7
:100580000A54C1F30A552C44A4F2F3340194A0FB9D
:100590000254C1F3130141F48011C3F3130343F474
:1005A000801301FB024400FB034E840A970A44EACD
:1005B000815447EA8357A4FB076802958D0A05FB1F
:1005C00007854FEA932C04FB0C542705029D4FEA44
:1005D000065847EA1637B5EB08056EEB070C870E91
:1005E000920E47EA811742EA8312A7FB0201B6EB9B
:1005F0000B0164EB00042B0D43EA0C335E1844EB53
:100600001C50DA465146E7FB0201C5F313044FEADA
:100610000B3343EA14534FEA0432019C43EA0603C6
:10062000A4F10C040294009CCDE900B400F0D9F8C8
:1006300003B0BDE8F08F00200146F9E72DE9F04D49
:1006400081EA030404F0004B21F0004514464FF00A
:10065000000A23F0004150EA050220D054EA0102CA
:100660001DD0C5F30A570246C5F31303C1F31300A7
:10067000C1F30A5640F4801543F48013A7EB060833
:10068000101BD64608F2FD3873EB050002D308F1C3
:10069000010801E092185B41B8F1000F03DA002075
:1006A0000146BDE8F08D00204FF4801106468446D7
:1006B0000EE0171B73EB050705D3121B63EB050355
:1006C00006434CEA010C49084FEA300092185B419E
:1006D00050EA0107EDD152EA030012D082EA040089
:1006E00083EA0501084305D0101BAB4106D2012265
:1006F000002306E000224FF0004302E06FF0010209
:1007000053101AEB06004CEB085110EB0A0041EBBA
:100710000B01BDE8F04D00F055B8C1F30A52C1F32A
:10072000130140F2FF3341F480119A4202DA0020B3
:100730000146704740F233439A42A2F2334202DC50
:100740005242FFF752BEFFF741BE000030B5041E13
:1007500071F1000404DB4FF00044404264EB0101FE
:10076000141E73F1000405DB1C464FF00043524297
:1007700063EB0403994208BF904230BD064C074D1D
:1007800006E0E06840F0010394E807009847103461
:10079000AC42F6D3FFF704FD304100085041000899
:1007A000202A06DBCB17203A41FA02F043EAE07335
:1007B00006E041FA02F3D040C2F120029140084322
:1007C0001946704710B5141E73F1000408DA401C76
:1007D00041F1000192185B411A4301D120F0010060
:1007E00010BD2DE9F04D92469B4611B1B1FA81F250
:1007F00002E0B0FA80F220329046FFF7E7FD0446AF
:100800000F4640EA0A0041EA0B0153465A460843A4
:1008100013D0114653EA010019D0C8F140025046E6
:10082000FFF7E3FD05460E46504659464246FFF7A0
:10083000CDFD084305D0012004E020463946BDE83F
:10084000F08D0020054346EAE0762C4337430A98B2
:100850006305E40AA0EB08000022FD0A44EA4754BD
:100860000A3002D500200146E9E701051019694167
:10087000DDE9084500196941BDE8F04DA2E700BF78
:10088000FEE7704710B5012000F020F910BD72B6E8
:1008900000BFFEE770B5044600F01AFA064625468A
:1008A000681C10B104480078054400BF00F010FA3D
:1008B000801BA842FAD370BD3000002030B589B04B
:1008C000054601221103584800F0FCF900224FF4BC
:1008D0008051554800F0F6F9544808905448079064
:1008E00001221103504800F0EDF900224FF480512D
:1008F0004D4800F0E7F94F480068002846D14E48BF
:10090000006830B900F0E4F9044621464BA001F03C
:100910007DFC00F0DDF945494860012306AA08A9DD
:100920004548006803F07EF9012811D100F0D0F9A4
:10093000044621464CA001F069FC012211033A480B
:1009400000F0C0F900224FF48051374800F0BAF9A6
:10095000012038490860142101A8FFF7E5FC0120B7
:1009600001904FF4881002900120039001A94A4899
:1009700000F0BAF8012211032B4800F0A3F900227D
:100980004FF48051284800F09DF93FE02948006865
:1009900001283BD12848006830B900F099F9044695
:1009A000214626A001F032FC00F092F9204948606F
:1009B000012306AA07A92048006803F033F901289B
:1009C00011D100F085F90446214634A001F01EFC47
:1009D00001221103144800F075F900224FF48051F0
:1009E000114800F06FF9002012490860142101A895
:1009F000FFF79AFC012001904FF4041002900120AF
:100A0000039001A9244800F06FF800BF01221103F0
:100A1000054800F057F900224FF48051024800F0D9
:100A200051F909B030BD0000000402401800002058
:100A300020000020100000200C000020696E74656A
:100A4000725F6B65795F7175657565206E6F742077
:100A500063726561746564206174205B25645D2048
:100A60007469636B200D0A0073656E642046414C07
:100A7000494E475F6576656E742073756363657371
:100A80007366756C6C79206174205B25645D2074DD
:100A900069636B200D0A00000000024073656E64FC
:100AA00020524153494E475F6576656E74207375D9
:100AB000636365737366756C6C79206174205B2564
:100AC000645D207469636B200D0A000010B5044654
:100AD00004480068204020B1024804602046FFF727
:100AE000EDFE10BD143C0140F8B502460B46002552
:100AF000002400200021C7E0012606FA01F51E6847
:100B000006EA0504AC4274D11E7906F00306012EF4
:100B100004D01E7906F00306022E13D190684F0010
:100B20000326BE40B0434F00DE68BE4030439060B5
:100B3000506801268E40B0431E79C6F300168E40E1
:100B4000304350601E7906F00306032E09D0D068AA
:100B50004F000326BE40B0434F009E68BE40304366
:100B6000D0601E7906F00306022E13D1CF0802F1E1
:100B7000200656F827004E07F70E0F26BE40B0435A
:100B80004F07FF0E1E69BE403043CF0802F120061A
:100B900046F8270010684F000326BE40B0431E7978
:100BA00006F003064F00BE40304310605E6806F456
:100BB0004036002E67D000BF00260096344E3668BF
:100BC00046F48046324F3E603E46366806F4804624
:100BD000009600BF00BF2F4E8F0856F827008E07E3
:100BE000370F0F26BE40B0432B4EB24202D1002633
:100BF00015E048E0294EB24201D101260FE0284E0F
:100C0000B24201D102260AE0264EB24201D10326A9
:100C100005E0254EB24201D1042600E007268F07E9
:100C20003F0FBE4030431B4E8F0846F827001F4E33
:100C30003068A0435E6806F4801606B120431B4E60
:100C40003060361D3068A0435E6806F4001606B1B9
:100C50002043164E361D3060144E361F3068A043B8
:100C60005E6806F4003606B12043104E361F306031
:100C7000361F3068A0435E6806F4803606B1204314
:100C80000A4E083E3060491C1029FFF435AFF8BD0C
:100C9000443802400838014000000240000402408D
:100CA00000080240000C024000100240083C0140D5
:100CB00010B5426921EA020302EA010443EA04434F
:100CC000836110BD0AB1816101E00B04836170474B
:100CD00001480068704700002800002003480068B1
:100CE000034909780844014908607047280000203A
:100CF0003000002010B50D48006840F400700B492A
:100D000008600846006840F4806008600846006893
:100D100040F480700860032000F0D2F80F2000F04B
:100D200007F800F055F8002010BD0000003C02401C
:100D3000F0B587B004460026002700BF00200090D1
:100D40001E48006840F001001C4908600846006821
:100D500000F00100009000BF00BF01A902A800F050
:100D600085F900F0BBF906461548B6FBF0F0471EC2
:100D700014481549086040F2E7311348C1604760E4
:100D8000002101618160816100F060FC054695B938
:100D90000D4800F0B1FC05466DB9192000F042F88D
:100DA000102C07D200222146192000F04BF80748EA
:100DB000046000E00125284607B0F0BD4438024039
:100DC00040420F00000001404C0100202C00002098
:100DD00008B500BF002000901148006840F4804032
:100DE0000F4908600846006800F48040009000BF8A
:100DF00000BF00BF00200090081F006840F0805036
:100E0000091F08600846006800F08050009000BF8D
:100E100000BF00220F21901E00F014F808BD000052
:100E20004438024001460846002809DB00F01F0351
:100E300001229A4043099B0003F1E023C3F80021FB
:100E400000BF70472DE9F05F80460D46164600272B
:100E500001F020FA074639462A46334601F00700DA
:100E6000C0F1070ABAF1040F02D94FF0040A01E0F9
:100E7000C0F1070AD14600F1040ABAF1070F02D205
:100E80004FF0000A01E0A0F1030AD4464FF0010A36
:100E90000AFA09FAAAF1010A0AEA020A0AFA0CFA9B
:100EA0004FF0010B0BFA0CFBABF1010B0BEA030B40
:100EB0004AEA0B042146404601F0F4F9BDE8F09FF0
:100EC00000BF00F00702064B19684FF6FF031940F8
:100ED000044B0B4343EA0221014B196000BF7047EA
:100EE0000CED00E00000FA0570B504460D460CB9A3
:100EF000012070BD5848006800F00700A84209D2E0
:100F000055490D700846006800F00700A84201D05E
:100F10000120EEE7207800F0020002281DD12078A1
:100F200000F00400042805D14C48006840F4E0506B
:100F30004A490860207800F00800082805D1474891
:100F4000006840F46040454908604448006820F06B
:100F5000F000A168084341490860207800F00100D2
:100F6000A8B36068012807D13C4808380068C0F37E
:100F70004040B8B90120BCE76068022802D0606830
:100F8000032807D1354808380068C0F3406048B9E5
:100F90000120AEE7314808380068C0F3400008B9C6
:100FA0000120A6E72D48006820F00300616808438F
:100FB0002A490860FFF78CFE064609E0FFF788FE25
:100FC000801B41F28831884202D9032091E707E073
:100FD0002248006800F00C006168B0EB810FEDD191
:100FE0001D48006800F00700A84209D91A490D7091
:100FF0000846006800F00700A84201D0012078E709
:10100000207800F00400042807D11448006820F478
:10101000E050E168084311490860207800F00800BA
:10102000082808D10D48006820F46040216940EA92
:10103000C1000A49086000F061F808490968C1F375
:101040000311074A515CC840064908600648006819
:10105000FFF76EFE00204CE7003C024008380240DB
:10106000C93F0008340000202C0000200F2202603D
:101070000D4A126802F0030242600B4A126802F045
:10108000F0028260084A126802F4E052C260064A26
:10109000126802F46042D2080261044A126802F047
:1010A00007020A607047000008380240003C024016
:1010B00001480068704700003400002000B5FFF7C9
:1010C000F7FF04490968C1F38221034A515CC84013
:1010D00000BD000008380240D93F000800B5FFF706
:1010E000E7FF04490968C1F34231034A515CC84033
:1010F00000BD000008380240D93F00082DE9F04744
:10110000002400250026A1462548006800F00C00B8
:1011100020B1042805D008283AD105E0DFF88490F2
:1011200039E0DFF8849036E01D48001F006800F0C9
:101130003F041B48001F006800F4800078B11A4883
:101140001749091F0968C1F38811A0FB0170014606
:10115000224600233846FFF79DF805460EE0114869
:101160000F49091F0968C1F38811A0FB01700146EE
:10117000224600233846FFF78DF805460848001F31
:101180000068C0F30140401C4600B5FBF6F902E0E0
:10119000DFF8109000BF00BF4846BDE8F0870000B0
:1011A000083802400024F40040787D01F8B5044678
:1011B0000CB90120F8BD207800F00100002874D09F
:1011C000F948006800F00C0004280DD0F6480068CB
:1011D00000F00C00082813D1F348001F006800F449
:1011E0008000B0F5800F0BD1EF4808380068C0F3DD
:1011F0004040002859D06068002856D10120D9E726
:1012000000BF6068B0F5803F08D1E7480838006843
:1012100040F48030E449083908601EE06068B0F5A9
:10122000A02F0DD1E0480838006840F48020DE4946
:10123000083908600846006840F4803008600CE017
:10124000D9480838006820F48030D7490839086048
:101250000846006820F48020086000BF606890B1F4
:10126000FFF736FD054606E0FFF732FD401B642818
:1012700001D903209EE7CC4808380068C0F34040FD
:101280000028F1D011E0FFF723FD054606E0FFF747
:101290001FFD401B642801D903208BE7C248083892
:1012A0000068C0F340400028F1D1207800F002002F
:1012B00002285FD1BC48006800F00C0058B1BA4861
:1012C000006800F00C0008281CD1B748001F006817
:1012D00000F48000B0B9B44808380068C0F340009A
:1012E00020B1E068012801D0012063E7AE4808384A
:1012F000006820F0F800216940EAC100AA490839D5
:10130000086037E0E06800B30120A8490860FFF7F3
:10131000DFFC054606E0FFF7DBFC401B022801D995
:10132000032047E7A04808380068C0F340000028C1
:10133000F1D09D480838006820F0F800216940EAA3
:10134000C10099490839086014E0002097490860F5
:10135000FFF7BEFC054606E0FFF7BAFC401B02287B
:1013600001D9032026E7904808380068C0F3400000
:101370000028F1D1207800F0080008282CD16069FD
:10138000A8B101208A490860FFF7A2FC054606E0E3
:10139000FFF79EFC401B022801D903200AE7824880
:1013A0006C300068C0F340000028F1D014E0002049
:1013B0007F490860FFF78CFC054606E0FFF788FCD4
:1013C000401B022801D90320F4E677486C300068FE
:1013D000C0F340000028F1D1207800F00400042878
:1013E00070D1002770483830006800F0805090B904
:1013F00000BF002000906C483830006840F08050FA
:101400006949383108600846006800F08050009053
:1014100000BF00BF01276748006800F48070B0B9C2
:101420006448006840F4807062490860FFF750FC2F
:10143000054606E0FFF74CFC401B022801D90320BB
:10144000B8E65C48006800F480700028F2D000BF65
:10145000A068012808D154486830006840F00100B5
:101460005149683108601DE0A06805280DD14E483B
:101470006830006840F004004B4968310860084655
:10148000006840F0010008600CE0474868300068E0
:1014900020F001004449683108600846006820F0E7
:1014A0000400086000BFA068A8B1FFF711FC054662
:1014B00009E0FFF70DFC401B41F28831884202D958
:1014C000032077E626E0384868300068C0F3400023
:1014D0000028EED013E0FFF7FBFB054608E0FFF71E
:1014E000F7FB401B41F28831884201D9032061E6B5
:1014F0002D4868300068C0F340000028EFD1012F6C
:1015000007D129483830006820F08050264938310A
:10151000086000BFA069002845D02348006800F09B
:101520000C0008285DD0A069022845D100201F4981
:101530000866FFF7CDFB054606E0FFF7C9FB401B39
:10154000022801D9032035E6174808380068C0F39F
:1015500040600028F1D1D4E907010843616A40EAFC
:1015600081110122A06AC2EB500041EA00412C2007
:10157000005D41EA00600C49091F086001200B4929
:101580000866FFF7A5FB054606E0FFF7A1FB401B39
:10159000022801D903200DE6034808380068C0F38B
:1015A00040600028F1D049E008380240000047427E
:1015B000800E474200700040002021490866FFF776
:1015C00087FB054606E0FFF783FB401B022801D995
:1015D0000320EFE51B480068C0F340600028F2D10B
:1015E0002CE0A069012800D1E4E51648001D06683A
:1015F000A069012820D006F48001E06981421BD156
:1016000006F03F01206A814216D147F6C070304093
:10161000616AB0EB811F0FD106F440310122A06A4C
:10162000C2EB5000B1EB004F06D106F070612C20E8
:10163000005DB1EB006F01D00120BBE50020B9E5F2
:1016400000004742003802407047704710B504461A
:101650000CB9012010BD94F83D0028B9002084F891
:101660003C00204600F026F8022084F83D00211DB1
:10167000206800F0B3FB012084F8460000BF84F826
:101680003E0001213F2001554020015541200155D8
:1016900000BF00BF012084F84200432001554420D0
:1016A00001554520015500BF012084F83D00002070
:1016B000D0E7000038B504462068B0F1804F17D15C
:1016C00000BF002000900B48006840F0010009496D
:1016D00008600846006800F00100009000BF00BFED
:1016E000002205211C20FFF7ADFB1C20FFF79AFB11
:1016F00038BD000040380240014691F83D00012805
:1017000001D001207047022081F83D000868C068C0
:1017100040F001000B68D860164B0868984213D05F
:101720000868B0F1804F0FD0134B086898420BD077
:10173000124B0868984207D0114B0868984203D0B2
:10174000104B086898420CD10868806800F00702C6
:10175000062A0CD00868006840F001000B68186089
:1017600005E00868006840F001000B681860002080
:10177000C8E70000000001400004004000080040ED
:10178000000C004000400140704710B5044620683E
:101790000069C0F34000D8B12068C068C0F34000C1
:1017A000B0B16FF002002168086101202077206845
:1017B000806900F0030018B12046FFF7E5FF05E05F
:1017C000204600F0ADF8204600F0ABF8002020776E
:1017D00020680069C0F38000D8B12068C068C0F3F9
:1017E0008000B0B16FF0040021680861022020770A
:1017F0002068806900F4407018B12046FFF7C4FFEC
:1018000005E0204600F08CF8204600F08AF8002021
:10181000207720680069C0F3C000D8B12068C06894
:10182000C0F3C000B0B16FF0080021680861042067
:1018300020772068C06900F0030018B12046FFF748
:10184000A3FF05E0204600F06BF8204600F069F8A1
:101850000020207720680069C0F30010D8B120680C
:10186000C068C0F30010B0B16FF0100021680861CB
:10187000082020772068C06900F4407018B1204625
:10188000FFF782FF05E0204600F04AF8204600F00E
:1018900048F8002020772068006900F0010058B166
:1018A0002068C06800F0010030B16FF001002168CD
:1018B0000861204600F036F820680069C0F3C010C7
:1018C00058B12068C068C0F3C01030B16FF080001C
:1018D000216808612046FFF7B7FE20680069C0F361
:1018E000801058B12068C068C0F3801030B16FF02C
:1018F000400021680861204600F026F82068006951
:10190000C0F3401058B12068C068C0F3401030B137
:101910006FF02000216808612046FFF796FE10BD99
:101920007047704710B5044606492068884201D1C7
:10193000FFF7D4F92068B0F1804F01D101F09EFF8C
:1019400010BD000000000140704710B504460CB9FE
:10195000012010BDA06900B100E000BF94F83D0077
:1019600028B9002084F83C00204600F027F8242005
:1019700084F83D002068C06820F400502168C860E9
:10198000204600F07DFA2068006920F4904021682C
:1019900008612068406920F02A00216848612068B9
:1019A000C06840F400502168C860002020642020F6
:1019B00084F83D0084F83E000020CAE710B586B0E8
:1019C0000446142101A8FEF7AFFC1B492068884299
:1019D00030D100BF002000901848006840F010008F
:1019E000164908600846006800F01000009000BF2B
:1019F00000BF00BF0020009010481438006840F07D
:101A000001000E49143908600846006800F0010022
:101A1000009000BF00BF4FF4C06001900220029010
:101A200000200390032004900720059001A904489A
:101A3000FFF75AF806B010BD0010014044380240CC
:101A40000000024000BFFEE700B587B0142102A8E5
:101A5000FEF76AFC00BF002001903A48006840F0A1
:101A60000400384908600846006800F0040001904E
:101A700000BF00BF00BF002001900846006840F092
:101A8000800008600846006800F08000019000BFF8
:101A900000BF00BF002001900846006840F0010030
:101AA00008600846006800F00100019000BF00BF18
:101AB00000BF002001900846006840F00200086066
:101AC0000846006800F00200019000BF00BF00223D
:101AD0004FF400511C48FFF7F5F800224FF48051F5
:101AE0001A48FFF7EFF84FF40050029001200390DE
:101AF00000200490059002A91348FEF7F5FF01208D
:101B000002904FF4041003900120049002A91048A1
:101B1000FEF7EAFF4FF4805002900120039002206C
:101B200004900320059002A90848FEF7DDFF00227B
:101B300005210620FFF786F90620FFF773F907B0A5
:101B400000BD00003038024000080240000402409E
:101B50000000024010B50B480B4908604FF4E1301B
:101B60004860002108488160C16001610C21416129
:101B700000218161C161FFF7E8FE08B1FEF787FE31
:101B800010BD0000001001400801002000BFFEE76A
:101B900000BFFEE72DE9F04707468846DFF870A052
:101BA00000BF9AF8000008B900F082FA00BFEFF316
:101BB00011810846202181F3118800BF00BF07EB87
:101BC00047021349183101EBC204E1684D1CA168BA
:101BD000A94200D100256169022903D100BF216912
:101BE000A942FCD02169A94208D0E268616801EBF2
:101BF000020989F80080E560012600E00026C1B2F4
:101C000081F3118800BF00BF3046BDE8F0870000B7
:101C1000580600202DE9F04104460D4616460E4FA9
:101C200000BF387808B900F043FA00BFEFF3118025
:101C30000746202080F3118800BF00BF32462946A6
:101C4000204600F00BF88046F8B280F3118800BF00
:101C500000BF4046BDE8F081580600202DE9F0475E
:101C6000074688461646C24607EB47011B4800EB6D
:101C7000C109D9F8140020B1012811D0022826D1B9
:101C80001EE0484600F04CFA0546B54201D2002459
:101C900005E0344632465146484600F08AFA18E0DC
:101CA000484600F03DFA0546B54201D2284600E01C
:101CB0003046044622465146484600F07AFA08E08B
:101CC00032465146484600F039FA044601E0002405
:101CD00000BF00BF2046BDE8F0870000700600206E
:101CE00010B54FF0E020006902F01AF8012801D089
:101CF00001F07EFF10BD000000B593B0302107A8B1
:101D0000FEF712FB142102A8FEF70EFB00BF002015
:101D100001902348006840F080502149086008463F
:101D2000006800F08050019000BF00BF00BF00209D
:101D300001901C48006840F440401A490860084679
:101D4000006800F44040019000BF00BF01200790F0
:101D50000004089002200D9041050E910C210F9176
:101D600060211091022111910421129107A8FFF71F
:101D70001DFA08B1FEF78BFD0F20029002200390A0
:101D8000002004904FF4805005900020069003211D
:101D900002A8FFF7A9F808B1FEF779FD13B000BD5E
:101DA00040380240007000400348006840F4700072
:101DB000014908607047000088ED00E010B5024856
:101DC000FFF7E3FC10BD00004C01002010B50248F5
:101DD000FFF7DBFC10BD0000C000002010B502685A
:101DE000204B98420BD0B0F1804F08D01E4B984248
:101DF00005D01E4B984202D01D4B984203D122F0D1
:101E000070024B681A43174B984214D0B0F1804FC0
:101E100011D0154B98420ED0144B98420BD0144B56
:101E2000984208D0134B984205D0134B984202D0E9
:101E3000124B984203D122F44072CB681A4322F02D
:101E400080034C6943EA040202608B68C3620B683A
:101E50008362044B984201D10B6903630123436100
:101E600010BD0000000001400004004000080040D8
:101E7000000C004000400140004401400048014087
:101E80002DE9F84F04462068006920F44050E168CD
:101E90000843216808612169A06808436169084313
:101EA000E169084300902068C06849F20C618843EA
:101EB000009908432168C8602068406920F4407098
:101EC000A16908432168486176492068884203D0A7
:101ED00075492068884203D1FFF700F9814602E086
:101EE000FFF7ECF88146E069B0F5004F6CD10220B5
:101EF0006168A0FB015003461920A9FB0070014650
:101F00002A463846FEF7C6F96421B0FBF1F04FEAE5
:101F1000001A02206168A0FB01510B461920A9FBA1
:101F200000712A463846FEF7B5F9834602206168FB
:101F3000A0FB015003461920A9FB00712A46384630
:101F4000FEF7A8F96421B0FBF1F000EBC00101EB52
:101F50000010ABEB8000322101EBC0006421B0FB2C
:101F6000F1F000F0F8000AEB400A02206168A0FBE3
:101F7000015003461920A9FB007001462A46384645
:101F8000FEF788F9834602206168A0FB01500346F2
:101F90001920A9FB00712A463846FEF77BF9642117
:101FA000B0FBF1F000EBC00101EB0010ABEB8000E7
:101FB000322101EBC0006421B0FBF1F000F007001A
:101FC0005044216888606AE004206168A0FB0150E9
:101FD00003461920A9FB007001462A463846FEF741
:101FE00059F9824604206168A0FB0150034619207C
:101FF000A9FB007001462A463846FEF74BF96421DA
:10200000B0FBF1F000EBC00101EB0010AAEB800087
:10201000322101EB00106421B0FBF1F000F0F00A76
:1020200004206168A0FB017003461920A9FB005140
:102030003A462846FEF72EF96421B0FBF1F00AEB90
:10204000001A04206168A0FB01510B461920A9FB6E
:1020500000712A463846FEF71DF983460420616860
:10206000A0FB015003461920A9FB007001462A4637
:102070003846FEF70FF96421B0FBF1F000EBC00128
:1020800001EB0010ABEB8000322101EB001064216A
:10209000B0FBF1F000F00F00504421688860BDE80B
:1020A000F88F0000001001400014014000BFFEE75F
:1020B00010B5124C03202061606111A0A06113498A
:1020C000E1614FF4806121620021A1626162E162FD
:1020D0000BA020660E4961661021A16600212167D0
:1020E000E16661670BA1E01DFEF742F90AA12046F7
:1020F000FEF73EF92020A07110BD00005806002018
:102100005465726D696E616C00000000000700206C
:10211000000B0020525454005345474745520000DD
:1021200010B501460A69CB689A4204D88C68641ECF
:10213000E41AA01801E0D41A601E10BD2DE9F05F6A
:102140000446894617464FF0000AE56800BFD4F8F8
:102150001080A84503D9A8EB0500461E04E0A5EBB6
:102160000800401CA1680E1AA068401BB04201D9AB
:10217000304601E0A068401B0646BE4201D2304610
:1021800000E038460646606800EB050B32464946DB
:102190005846FEF7B0F8B244B144BF1B3544A068BE
:1021A000A84200D10025E560002FD0D15046BDE8FF
:1021B000F09F2DE9F047044689461546E668A06879
:1021C000871BAF420AD9606800EB060A2A464946D7
:1021D0005046FEF790F87019E06014E0B846606869
:1021E00000EB060A424649465046FEF784F8A5EB46
:1021F0000708D4F804A009EB070142465046FEF751
:102200007AF8C4F80C80BDE8F08700000FB4054BE5
:1022100010B503A9044A029800F02AF910BC5DF831
:1022200014FB000059370008BC0000200FB47CB537
:102230000C0009AD01D0611E00E00021CDE90001D4
:10224000064B6A462946089800F012F9002C02D085
:10225000009A002111707CBC5DF814FB772B0008FC
:102260007CB50C001D461646014601D0601E00E0FC
:102270000020CDE90010064B6A462946304600F0A2
:10228000F7F8002C02D0009A002111707CBD0000EC
:10229000772B000802480068C0F302207047000056
:1022A0000CED00E010B5002804DB0A07130E054A08
:1022B000135406E00A07140E034A00F00F031B1F15
:1022C000D45410BD00E400E018ED00E002E008C8BE
:1022D000121F08C1002AFAD170477047002001E0A0
:1022E00001C1121F002AFBD1704700002DE9FF5FDA
:1022F00082B00021DDE90430020DDDF840B0034377
:1023000018D044F61050A2F2FF324243151411982F
:1023100001281FD0A5EB0B00401C5FEA000A4FF01C
:1023200000064E4FDFF83891B046504615D5CAF139
:10233000000413E0119801244AA3012801D16FEA97
:102340000B010298119AC0E90031C0E9024206B0BF
:10235000BDE8F09FCBF10000DFE704460021404AD2
:10236000491842EB0450CDE9001012E0E00707D015
:1023700032463B4640464946FEF7EEF880468946DF
:1023800032463B4610461946FEF7E6F806460F462B
:102390006410002CEAD1DDE90401DDE90023BAF183
:1023A000000F06DAFEF7D8F842464B46FEF7D4F89F
:1023B00005E0FEF743F942464B46FEF73FF9044677
:1023C0000E460022284BFEF7C1F903D84FF0FF302C
:1023D000014607E00022254B20463146FEF715F85E
:1023E000FEF79BF9102409E0002C0ADB0A220023E7
:1023F000FDF750FF039B30321A55641E50EA01026C
:10240000F2D1641C039AC4F111031444119A012AF5
:1024100003D0012208430DD10AE0084304D0002074
:102420004FF0110B119072E7A3EB0B056D1E0DE041
:102430005B4504DD4FF0000205F1010504E003DA1D
:102440004FF00002A5F10105002AECD00298119985
:10245000C0E90231C0E9004579E7000000001440FE
:102460000000F03F300000000000F0430000E03FBB
:102470002DE9FF4F95B09A46884606460025EEE1C5
:10248000252877D100242746F94A0121039400E04A
:10249000044316F8013F203B01FA03F01042F7D144
:1024A00030782A2811D06FF02F033078A0F1300255
:1024B000092A16D8039A44F0020402EB820203EBC5
:1024C00042021044761C0390EFE758F8042B039265
:1024D000002A03DA504244F40054039044F002040A
:1024E000761C30782E2816D116F8010F44F004041B
:1024F0002A280DD06FF02F023078A0F13003092B7D
:1025000009D807EB870302EB4303C718761CF3E7F0
:1025100058F8047B761C30786C280FD006DC4C28E9
:1025200017D068280DD06A2814D104E0742810D080
:102530007A280FD10DE044F400140AE044F480142A
:1025400001E044F440147278824202D104F5801410
:10255000761C761C307866280BD013DC582877D090
:1025600009DC002875D04528F6D04628F4D0472845
:102570001AD193E118E0632835D0642879D0652812
:1025800012D18BE1702873D008DC6728F1D069285C
:102590006FD06E280DD06F2806D1ACE073282CD0F8
:1025A000752874D0782853D05246179990476D1CDF
:1025B00054E1C4F30250022809D003280DD0D8F802
:1025C000001004280DD00D6008F1040846E1D8F889
:1025D0000010EA17C1E90052F6E7D8F800100D80A4
:1025E000F2E70D70F0E718F8041B8DF800100020DA
:1025F0008DF80100EB46012003E058F804BB4FF0D2
:10260000FF3061074FF0000102D40DE009F1010134
:102610008946B9420FDA8145F8DB1BF80910002919
:10262000F4D108E009F1010189468142FADB1BF887
:1026300009100029F6D103985346A0EB090721465B
:102640003846179A00F080FA284400EB090507E0A5
:1026500044E008E10DE01BF8010B52461799904742
:10266000B9F10109F7D2534621463846179AF2E0EC
:1026700039E00A21C4F302524FF0000B0091022A04
:1026800006D058F8040BC117032A09D00AE023E04A
:1026900008F1070020F00702F2E80201904605E089
:1026A00000B2C117042A01D140B2C117002906DACD
:1026B0000A460021404261EB02012D2202E0220580
:1026C00004D52B228DF80420012203E0E20701D07B
:1026D0002022F7E7914657E00A2100E010214FF051
:1026E000000B00910BE010214FF0000B44F00404AC
:1026F0000827009103E008204FF0000B0090C4F37E
:102700000252022A05D058F8040B0021032A08D0EF
:1027100008E008F1070020F00702F2E80201904605
:1027200003E080B2042A00D1C0B24FF000092207B2
:102730002AD53278702A07D0DDF800C08CF0100C52
:102740005CEA0B0C05D00EE040228DF8042001223B
:1027500008E050EA010306D030238DF804308DF8EC
:10276000052002229146009B83F0080353EA0B03E5
:102770000AD150EA010201D1620705D530228DF855
:1027800004204FF001097F1E3278582A04D039A264
:102790000C920CAA02920BE03BA2F9E75B46009A6E
:1027A000FDF778FD0C9B9B5C029A521E02921370FF
:1027B00050EA0102F2D1029804A9081A00F1200B94
:1027C000600702D524F4803400E001275F4502DD74
:1027D000A7EB0B0000E0002000EB0B01009003983A
:1027E0004944401A0390E00306D453462146179A01
:1027F000039800F0A9F90544002706E001A8524615
:10280000C05D179990476D1C7F1C4F45F6DBE003B8
:102810000CD553462146179A039800F095F90544C4
:1028200004E030205246179990476D1C0099481ECD
:1028300000900029F5DC08E00298029952460078E1
:10284000491C0291179990476D1CBBF10001ABF137
:10285000010BF1DC5BE100F065F90544761C307892
:1028600000287FF40DAE19B02846BDE8F08F0000B7
:102870000928010030313233343536373839616256
:10288000636465660000000030313233343536371A
:10289000383941424344454600000000600700D4F7
:1028A000062708F1070020F00700F0E80223804621
:1028B00003F0004C5FEA0C0001D097A009E020056E
:1028C00001D596A005E0E00701D095A001E0AFF2A8
:1028D0004C001390307823F0004365280CD006DCC0
:1028E000452809D046281DD047287FD13BE06628DF
:1028F00018D067287AD136E00021112F01DB112092
:1029000000E0781CCDE9000104A90CA8FFF7EEFC5B
:10291000DDE90D010C9A4FF0000B07F1010910924F
:1029200000914EE04FF000400097CDE9011004A95E
:102930000CA8FFF7DBFCDDE90D020C9B0F994FF0B3
:10294000000B91461093009211B9791C00EB01091C
:10295000B7EB090003D4C0F1FF3B07F10109A9EB74
:102960000700019042E0012F00DA01270021112F1A
:1029700001DD112000E03846CDE9000104A90CA8D2
:10298000FFF7B4FCDDE90D010C9A00914FF0000B4C
:10299000B946109221070FD4009A4A4503DA9146AE
:1029A00001E0A9F10109B9F1010F05DD109AA9F1C2
:1029B0000101515C3029F4D0B84202DA10F1040F61
:1029C00003DA0121CDE9011010E0002803DC834483
:1029D000A9EB000102E0411C494500DD8946A0EB5E
:1029E0000B00401C01904FF000400290200705D4DE
:1029F0000198484502DB4FF0FF30019000208DF830
:102A00004B0002980DF14B07B0F1004F25D002208A
:102A10000C902B200D90029800280CDA4042029076
:102A20002D200D9007E00A210298FDF7B9FC303106
:102A3000029007F8011D0C99481E0C900029F2DC49
:102A400002980028EFD1791E0D980870307800F0B8
:102A5000200040F0450007F8020D11A8C01BC01D62
:102A600002901398007800B1012000EB0901019851
:102A700001EBE071029801440398401A401E039054
:102A8000E00306D453462146179A039800F05CF8F9
:102A900005441398007818B15246179990476D1C59
:102AA000E00323D553462146179A039800F04CF8CB
:102AB00005441BE0BBF1000F07DB0098584504DD1F
:102AC0001098179910F80B0001E017993020524622
:102AD000904701980BF1010B401E05F10105019093
:102AE00004D12E205246179990476D1CB9F1000170
:102AF000A9F10109DEDC05E017F8010B5246179930
:102B000090476D1C0299481E02900029F4DC534640
:102B10002146179A03989EE62D0000002B00000026
:102B2000200000002DE9F041044600251E4617460E
:102B3000880404D405E039462020B0476D1C641E8B
:102B4000F9D52846BDE8F0812DE9F041044600257D
:102B50001E469046C80301D5302700E02027880490
:102B600004D505E041463846B0476D1C641EF9D5D2
:102B70002846BDE8F0814A68002A06D00A68531C3E
:102B80000B6010704868401E4860704710B500F038
:102B9000ABF8012000F0A0FCFF21002000F0C8FBF2
:102BA000FF21012000F0C4FBFF21022000F0C0FB48
:102BB000FF21032000F0BCFBFF21042000F0B8FB44
:102BC000FF21052000F0B4FB00F0F4FC10BD000074
:102BD00070B586B00546002D1CD126480068002837
:102BE00011D140F2E110244924A229A3CDE9031018
:102BF000CDE9013200900B462EA238A1002000F052
:102C00009BF800BFFEE740F2E1121B491BA0194BE5
:102C10001B68984700240526324890F8F00010B948
:102C2000304606B070BD00F093FA00241BE004EBC0
:102C300044112C483130084490F82000012810D16C
:102C400004EB4412274831301044411C1E22284610
:102C5000FDF797FB28B904EB441122483130465C5C
:102C600003E0601CC4B2052CE1DB00BF00F0A4FA55
:102C70003046D6E7B8000020734000087461672032
:102C8000213D202828766F6964202A2930290000F8
:102C9000282573292068617320617373657274201D
:102CA0006661696C65642061742025733A256C64E3
:102CB0002E0000002E2E5C4D6964646C6577617295
:102CC00065735C656173796C6F676765725C73725D
:102CD000635C656C6F672E6300000000656C6F6756
:102CE00000000000200B002010B50024114890F8CF
:102CF000F000012801D1204610BD00F089FA0446F9
:102D00000CB12046F8E7012000F036FA002009490E
:102D100081F8F30081F8F400012000F0DDFB0520CC
:102D200000F084FA00F0E6FA0120024981F8F00090
:102D30002046E1E7200B00200FB42DE9F04F8DB0C5
:102D400005460F469846DDF868903846FDF709FBC2
:102D5000824600244FF0020B00200B900C9007904D
:102D6000089009900A90052D1CDDCC4800680028C9
:102D700011D140F23F20CA49CAA2D1A3CDE9031024
:102D8000CDE9013200900B46D6A2E0A10020FFF76A
:102D9000D3FF00BFFEE740F23F22C149C1A0BF4BB5
:102DA0001B689847DB4890F8F10020B90DB0BDE8EA
:102DB000F00F5DF814FBD7480078A84204DB3846D2
:102DC000FFF706FFA84200DAF0E7D249491C38466F
:102DD000FDF7B5FA00B9E9E71CA8069000F0B8F9CC
:102DE000CC4890F8F50078B1CB480119CBA2204629
:102DF00000F02CFC0444CA4850F82520C6480119AC
:102E0000204600F023FC04440121284600F0AEFCDB
:102E100040B1C44850F82520BF480119204600F0B1
:102E200015FC04440221284600F0A0FCE8B1BA4891
:102E300001193A46204600F009FC0444BAF10F0F8C
:102E40000CD8CAF10F01202207A8FDF766FAB24894
:102E5000011907AA204600F0F9FB0444AE48011905
:102E6000B1A2204600F0F2FB04441C21284600F0E9
:102E70007DFC002852D0A8480119ACA2204600F0E1
:102E8000E5FB04440421284600F070FCA8B100F0E2
:102E9000AFF90590A04801192046059A00F0D6FB2D
:102EA00004441821284600F061FC30B19A48011909
:102EB0009DA2204600F0CAFB04440821284600F0E9
:102EC00055FCA8B100F08CF90590934801192046F3
:102ED000059A00F0BBFB04441021284600F046FC94
:102EE00030B18D48011990A2204600F0AFFB044498
:102EF0001021284600F03AFC48B100F075F9059021
:102F0000854801192046059A00F0A0FB0444824838
:102F1000011987A2204600F099FB0444202128468D
:102F2000189A00F08FFC60B942464021284600F014
:102F300089FC30B94A468021284600F091FC0028DF
:102F400062D0754801197BA2204600F07FFB044443
:102F500020212846189A00F075FC08B36E48011924
:102F60002046189A00F072FB04444246402128464D
:102F700000F068FC38B1684801196FA2204600F0E3
:102F800065FB04440CE04A468021284600F068FCBA
:102F900030B16148011964A2204600F057FB044497
:102FA0004A468021284600F05BFCC8B14B4663A22C
:102FB00005210BA8FFF73AF9574801190BAA20463B
:102FC00000F044FB044442464021284600F03AFC0D
:102FD00030B15148011954A2204600F037FB044497
:102FE00042464021284600F02DFC30B14A480119E4
:102FF0004246204600F02AFB04444748011950A2EB
:10300000204600F023FB0444C4F58061424A1019B5
:10301000069B1B9AFFF724F9064600200690A0198C
:10302000B0F5806F03D8002E01DB344401E04FF48B
:103030008064201D5844B0F5806F04D94FF480643B
:10304000241FA4EB0B04334890F8200058B1002053
:10305000314908552F4920312F48FDF770F910B933
:1030600000F0AAF8A2E62B4890F8F50030B12A4803
:10307000011934A2204600F0E9FA04442648011957
:1030800032A2204600F0E2FA04442146224800F031
:10309000C1F800F091F800BF88E60000B8000020F9
:1030A0008B4000086C6576656C203C3D20454C4F9C
:1030B000475F4C564C5F564552424F534500000007
:1030C00028257329206861732061737365727420E9
:1030D0006661696C65642061742025733A256C64AF
:1030E0002E0000002E2E5C4D6964646C6577617261
:1030F00065735C656173796C6F676765725C737229
:10310000635C656C6F672E6300000000656C6F6721
:1031100000000000200B0020180C00201B5B0000AA
:10312000A000002088000020200000005B000000BC
:103130005D200000280000003A000000256C6400BB
:10314000290000001B5B306D000000000D0A00002C
:1031500010B5084890F8F20030B100F064F8012092
:10316000044981F8F40003E00120024981F8F300EA
:1031700010BD0000200B002010B504460D4880F85B
:10318000F24090F8F200A0B10A4890F8F40030B98B
:10319000084890F8F30010B100F045F809E0054840
:1031A00090F8F40028B1034890F8F30008B900F053
:1031B0003BF810BD200B002010B5084890F8F20035
:1031C00030B100F031F80020044981F8F40003E048
:1031D0000020024981F8F30010BD0000200B002000
:1031E00000A070470000000000A070470000000031
:1031F00010B5FDF76DFD0446234603A210210348D8
:10320000FFF714F8014810BD256C7500100B002065
:103210000020704770B504460D462A46214600201E
:10322000FEF7F8FC70BD70477047000010B586B01F
:103230000446052C1CDD10480068002811D140F21E
:103240005B100E490EA215A3CDE90310CDE90132A2
:1032500000900B461AA224A10020FFF76DFD00BFCD
:10326000FEE740F25B12054905A0034B1B68984737
:103270001F48047006B010BDB80000204740000889
:103280006C6576656C203C3D20454C4F475F4C5645
:103290004C5F564552424F53450000002825732984
:1032A0002068617320617373657274206661696C54
:1032B00065642061742025733A256C642E0000003B
:1032C0002E2E5C4D6964646C6577617265735C6514
:1032D0006173796C6F676765725C7372635C656C50
:1032E0006F672E6300000000656C6F6700000000D0
:1032F000200B002010B5002400BF13E004EB4412A3
:103300000A491144481C1F21FDF70EF8002104EB67
:1033100044120648815404EB4412104480F82010F3
:10332000601CC4B2052CE9DB10BD0000510B00206D
:1033300030B585B004460D46052C1CDD10480068EC
:10334000002811D140F241100E490FA215A3CDE97A
:103350000310CDE9013200900B461BA224A10020EE
:10336000FFF7EAFC00BFFEE740F24112054906A064
:10337000034B1B689847204840F8245005B030BDE7
:10338000B80000202A4000086C6576656C203C3D42
:1033900020454C4F475F4C564C5F564552424F5369
:1033A000450000002825732920686173206173732C
:1033B000657274206661696C656420617420257390
:1033C0003A256C642E0000002E2E5C4D6964646CFE
:1033D0006577617265735C656173796C6F6767654A
:1033E000725C7372635C656C6F672E630000000033
:1033F000656C6F6700000000F80B002010B586B008
:103400000446002C1ED0012C1CD011480068002856
:1034100011D14FF48B700F490FA219A3CDE90310FE
:10342000CDE9013200900B461EA228A10020FFF733
:1034300083FC00BFFEE74FF48B72064906A0044BE5
:103440001B689847234880F8F14006B010BD000083
:10345000B8000020F63F000828656E61626C656464
:10346000203D3D2066616C736529207C7C202865A9
:103470006E61626C6564203D3D2074727565290043
:103480002825732920686173206173736572742025
:103490006661696C65642061742025733A256C64EB
:1034A0002E0000002E2E5C4D6964646C657761729D
:1034B00065735C656173796C6F676765725C737265
:1034C000635C656C6F672E6300000000656C6F675E
:1034D00000000000200B002010B586B00446002C30
:1034E0001ED0012C1CD011480068002811D14FF4C7
:1034F00091700F490FA219A3CDE90310CDE9013254
:1035000000900B461EA228A10020FFF715FC00BF6B
:10351000FEE74FF49172064906A0044B1B689847DA
:10352000234880F8F54006B010BD0000B800002028
:103530000E40000828656E61626C6564203D3D2088
:1035400066616C736529207C7C2028656E61626CE5
:103550006564203D3D207472756529002825732916
:103560002068617320617373657274206661696C91
:1035700065642061742025733A256C642E00000078
:103580002E2E5C4D6964646C6577617265735C6551
:103590006173796C6F676765725C7372635C656C8D
:1035A0006F672E6300000000656C6F67000000000D
:1035B000200B00200EB50B4890F8F00000B90EBDAE
:1035C0000120FFF71BFF08A009A1F722124BCDE94C
:1035D0000021029011A21BA10320FFF7ADFB00BF49
:1035E000EDE70000200B0020322E322E393900008A
:1035F000456173794C6F6767657220562573206942
:103600007320696E697469616C697A65207375638A
:10361000636573732E000000E13F00082E2E5C4DA1
:103620006964646C6577617265735C656173796CFC
:103630006F676765725C7372635C656C6F672E633E
:1036400000000000656C6F6700000000F0B585B0F9
:1036500006460D4614462746002D1AD12448006818
:10366000002810D12C20234923A224A3CDE9031044
:10367000CDE9013200900B4629A234A10020FFF7CA
:103680005BFB00BFFEE72C221A491BA0184B1B68EE
:103690009847002C19D11648006880B92D2015498B
:1036A0002CA216A3CDE90310CDE9013200900B4600
:1036B0001BA226A10020FFF73FFB00BFFEE72D2243
:1036C0000C4924A00A4B1B6898470AE03046761C38
:1036D000B0F5806F04D214F8010B05F8010B00E07F
:1036E00002E020780028F1D100BFE01B05B0F0BD5A
:1036F000B8000020C34000086473740028257329B3
:103700002068617320617373657274206661696CEF
:1037100065642061742025733A256C642E000000D6
:103720002E2E5C4D6964646C6577617265735C65AF
:103730006173796C6F676765725C7372635C656CEB
:103740006F675F7574696C732E630000656C6F67DB
:10375000000000007372630070B504460D46E1B2CC
:103760000020FEF717FA204670BD000030B585B086
:1037700004460D46052C1CDD13480068002811D1B5
:103780004FF43870114912A218A3CDE90310CDE906
:10379000013200900B461EA227A10020FFF7CCFAB1
:1037A00000BFFEE74FF43872084909A0064B1B68BA
:1037B0009847234850F82400284010B1012005B054
:1037C00030BD0020FBE70000B80000209740000853
:1037D0006C6576656C203C3D20454C4F475F4C56F0
:1037E0004C5F564552424F5345000000282573292F
:1037F0002068617320617373657274206661696CFF
:1038000065642061742025733A256C642E000000E5
:103810002E2E5C4D6964646C6577617265735C65BE
:103820006173796C6F676765725C7372635C656CFA
:103830006F672E6300000000656C6F67000000007A
:10384000F80B002070B505460E46144634B13146DB
:103850002846FFF78BFF08B1012070BD0020FCE770
:1038600070B505460E46144634B131462846FFF77A
:103870007DFF08B1012070BD0020FCE710B50F48A6
:103880000068B0B10E48007800F0010018B90020BF
:1038900000F018F807E0012000F014F8074800686D
:1038A000401E0649086006480068401C044908603C
:1038B00002E0002002490860002010BD80000020C6
:1038C0008400002070B5044601262CB90022710343
:1038D0001248FDF7F7F90026012C05D1012251030A
:1038E0000E48FDF7EFF90026022C04D121030B4806
:1038F000FDF7DEF90026032C0DD1002509E04FF479
:1039000000510648FDF7D4F94FF4FA70FCF7C2FFF6
:103910006D1C062DF3DB304670BD00000008024030
:10392000FDF7E8F9FEF7E8F9FEF78EF8FEF712F971
:10393000FFF72CF905E000F05FF84FF47A70FCF720
:10394000A9FFF8E72DE9F04104460F4615464FF070
:103950000008A66B206C48B9206800282CD1A0680C
:1039600000F090FA80460020A06025E07DB939463D
:10397000226C6068FCF7BFFC216C606808446060E2
:10398000D4E90101884217D32068606014E0394609
:10399000226CE068FCF7AFFC216CE068411AE16042
:1039A0002168E068884203D2216CA068411AE16076
:1039B000022D01D106B1761E701CA0634046BDE801
:1039C000F08100000A490968096809B9012100E08D
:1039D000002121B14FF0FF31064A116006E0044991
:1039E0000968C968C868034A4168116070470000E7
:1039F0003C000020680000201CB51EA05321224B73
:103A000022A2CDE9001026A10020FFF795F919A008
:103A100054211D4B1DA2CDE9001021A10120FFF76B
:103A20008BF914A05521184B18A2CDE900101CA148
:103A30000220FFF781F90FA05621134B13A2CDE905
:103A4000001017A10320FFF777F90AA057210E4BAA
:103A50000EA2CDE9001012A10420FFF76DF905A018
:103A60005821094B09A2CDE900100DA10520FFF74F
:103A700063F91CBD48656C6C6F20456173794C6FB0
:103A80006767657200000000C03F00082E2E2F43BC
:103A90006F72652F5372632F6D61696E2E63000024
:103AA0006D61696E0000000001460A69D1E90130CC
:103AB0009860D1E9010358605068884201D1886854
:103AC0005060002008611068401E10601068704748
:103AD00042684A6093688B6093685960916008619E
:103AE00003685B1C0360704770B5FCF7BDFB0446C0
:103AF000102C16D304F1E02090F8F053154800780C
:103B0000854201DB012000E0002050B900BF5020B9
:103B100080F31188BFF34F8FBFF36F8F00BF00BFDB
:103B2000FEE70D48006800F4E0600C49096888422F
:103B300001D8012000E0002050B900BF502080F3E0
:103B40001188BFF34F8FBFF36F8F00BF00BFFEE739
:103B500070BD0000780000200CED00E07C0000202B
:103B60001E48006818B101201D49086034E000209B
:103B70001B4908601B4801680CE051B900BF502088
:103B800080F31188BFF34F8FBFF36F8F00BF00BF6B
:103B9000FEE7491E01EB8100134A52F8200008B9E4
:103BA000012000E000200028E7D101EB81020E4B4C
:103BB00003EB820042685268426000F108024368E9
:103BC000934202D14268526842604268D268074B11
:103BD0001A600448016000BF7047000070000020B8
:103BE0005C000020500000209401002038000020DC
:103BF00010B500BF502080F31188BFF34F8FBFF383
:103C00006F8F00BF00F09CF818B14FF0805004494E
:103C1000086000BF002080F3118800BF10BD0000C5
:103C200004ED00E02DE9F84F07468A4690461E460F
:103C30003C4654B900BF502080F31188BFF34F8F2A
:103C4000BFF36F8F00BF00BFFEE7BAF1000F01D1D5
:103C5000206C08B9012000E0002050B900BF5020BE
:103C600080F31188BFF34F8FBFF36F8F00BF00BF8A
:103C7000FEE7022E02D1E06B012801D1012000E015
:103C8000002050B900BF502080F31188BFF34F8F40
:103C9000BFF36F8F00BF00BFFEE7FFF725FF00BF38
:103CA0005021EFF3118081F31188BFF34F8FBFF3E1
:103CB0006F8F00BF0546A06BE16B884201D3022ED7
:103CC00025D194F945B0A06B00903246514620466C
:103CD000FFF738FE0BF1010088B9606A08B90120CE
:103CE00000E0002050B904F1240000F01DF928B1D3
:103CF000B8F1000F02D00120C8F8000004E00BF179
:103D0000010040B284F845004FF0010901E04FF096
:103D1000000900BF85F3118800BF4846BDE8F88F51
:103D20000549096809B9012005E00449096809B98C
:103D3000022000E0002070475400002070000020A6
:103D40002DE9F0414FF000084348006800287BD17E
:103D500042480068451C4148056015BB4048006862
:103D6000006808B9012000E0002050B900BF5020D1
:103D700080F31188BFF34F8FBFF36F8F00BF00BF79
:103D8000FEE7374807683748006835490860354816
:103D9000076035480068401C33490860FFF712FE91
:103DA00000BF3248006885423BD300BF2C48006802
:103DB000006808B9012000E0002020B14FF0FF307A
:103DC0002A4908602CE026480068C068C468666814
:103DD000B54202D22548066022E0201DFFF764FEAE
:103DE000A06A18B104F11800FFF75EFE2049E06AEE
:103DF0000968884202D91E49E06A0860E16A01EB5D
:103E000081011C4A02EB8100211DFFF761FE1A4966
:103E1000E06A0968C96A8842C8D34FF00108C5E75B
:103E200000BF15480068C06A00EB8000114951F8D6
:103E30002000012801D94FF001081048006808B19E
:103E40004FF0010805E0FFE70D480068401C0C49F1
:103E500008604046BDE8F081700000204C00002062
:103E60003C0000204000002060000020680000208E
:103E70005000002094010020380000205C00002049
:103E80005800002070B505462C460026002D43D072
:103E900022480068844201D1012000E0002050B98E
:103EA00000BF502080F31188BFF34F8FBFF36F8F97
:103EB00000BF00BFFEE7206D50B900BF502080F367
:103EC0001188BFF34F8FBFF36F8F00BF00BFFEE7B6
:103ED000206D401E2065E16CE06A88421CD0206D98
:103EE000D0B9201DFFF7E0FDE06CE062E06AC0F1B0
:103EF0003800A0610A49E06A0968884202D9084985
:103F0000E06A0860E16A01EB8101064A02EB810088
:103F1000211DFFF7DDFD0126304670BD3800002071
:103F2000500000209401002070B50646F068C46877
:103F300054B900BF502080F31188BFF34F8FBFF3F7
:103F40006F8F00BF00BFFEE704F11800FFF7ACFD64
:103F500015480068A0B9201DFFF7A6FD1349E06AC7
:103F60000968884202D91149E06A0860E16A01EBF8
:103F700081010F4A02EB8100211DFFF7A9FD04E03A
:103F800004F118010B48FFF7A3FD0B49E06A09682B
:103F9000C96A884204D9012501200849086000E067
:103FA0000025284670BD0000700000205000002051
:103FB000940100201C060020380000205C00002036
:103FC000746573745F6C6F67000000000000000090
:103FD00000010203040607080900000000010203B3
:103FE00004656C6F675F737461727400656C6F67F2
:103FF0005F73746F7000656C6F675F7365745F6F7C
:1040000075747075745F656E61626C656400656C73
:104010006F675F7365745F746578745F636F6C6FEF
:10402000725F656E61626C656400656C6F675F737B
:1040300065745F666D7400656C6F675F7365745F50
:1040400066696C74657200656C6F675F7365745F39
:1040500066696C7465725F6C766C00656C6F675F27
:104060007365745F66696C7465725F7461675F6CB9
:10407000766C00656C6F675F6765745F66696C740A
:1040800065725F7461675F6C766C00656C6F675F0B
:104090006F7574707574006765745F666D745F65C5
:1040A0006E61626C656400656C6F675F66696E6403
:1040B0005F6C766C00656C6F675F66696E645F74D9
:1040C000616700656C6F675F737472637079006518
:1040D0006C6F675F6370796C6E00656C6F675F6DA6
:1040E000656D637079000000412F0000442F0000CF
:1040F000452F0000492F0000562F0000572F0000C9
:1041000033313B316D00000033323B316D00000034
:1041100033333B316D00000033343B316D00000020
:1041200033353B316D00000033363B316D0000000C
:104130005041000800000020C0000000CC22000810
:1041400010420008C000002058130000DC220008C4
:10415000000000000000000000000000000000005F
:10416000000000000000000001000000000000004E
:10417000000000000000000000000000100000002F
:10418000010000000024F400000000000000000016
:10419000000000000000000000000000000000001F
:1041A000000000000000000000000000000000000F
:1041B00000000000000000000000000000000000FF
:1041C00000000000AAAAAAAA000000000000000047
:1041D0000000000000000000E8400008F040000877
:1041E000FC400008F4400008EC400008F8400008DB
:1041F0002041000800410008104100082841000843
:1042000008410008184100080000000000000000FC
:040000050800019955
:00000001FF
