:020000040800F2
:10000000905A00207102000865240008352300087A
:10001000612400087F080008E52D000800000000AA
:10002000000000000000000000000000B101000816
:100030009F090008000000000D020008C12500080B
:100040008B0200088B0200088B0200088B0200085C
:100050008B0200088B0200088B0200088B0200084C
:100060008B0200088B0200088B0200088B0200083C
:100070008B0200088B0200088B0200088B0200082C
:100080008B0200088B0200088B02000800000000B1
:100090000000000000000000000000008B020008CB
:1000A0008B0200089D2600088B0200088B020008C6
:1000B0008B0200088B0200088B0200088B020008EC
:1000C0008B0200088B0200088B0200088B020008DC
:1000D0008B020008D52D00088B02000800000000EC
:1000E0008B0200088B0200088B0200080000000051
:1000F0000000000000000000000000008B0200086B
:10010000000000008B0200088B0200088B02000830
:1001100000000000000000000000000000000000DF
:100120008B0200088B020008850800088B0200087B
:100130008B0200080000000000000000000000002A
:100140000000000000000000000000008B0200081A
:100150008B0200088B0200088B0200088B0200084B
:100160008B0200088B020008000000000000000065
:10017000000000000000000000000000000000007F
:10018000000000008B0200080000000000000000DA
:100190008B0200088B020008DFF810D000F0EEFAA6
:1001A00000480047714D0008AFF30080905A0020CE
:1001B0002C4B19680868B0E8F04F80F30988BFF34A
:1001C0006F8F4FF0000080F311887047000000002F
:1001D00008480068006880F308884FF0000080F34A
:1001E000148862B661B6BFF34F8FBFF36F8F00DF25
:1001F00000BF00BF08ED00E0DFF80C00016841F42B
:1002000070010160704700BF88ED00E0EFF30980E6
:10021000BFF36F8F134B1A681EF0100F08BF20ED4D
:10022000108A20E9F04F106009B44FF0500080F3BD
:100230001188BFF34F8FBFF36F8F06F0C7FB4FF0EE
:10024000000080F3118809BC19680868B0E8F04F15
:100250001EF0100F08BFB0EC108A80F30988BFF3BE
:100260006F8F70471C000020EFF30580704700007F
:100270000648804706480047FEE7FEE7FEE7FEE740
:10028000FEE7FEE7FEE7FEE7FEE7FEE78926000859
:10029000990100082DE9F05F0546002092469B4633
:1002A00088460646814640241BE02846414647468C
:1002B000224600F09AF853465A46C01A914110D38C
:1002C00011461846224600F081F82D1A67EB010806
:1002D0004F4622460120002100F078F817EB000974
:1002E0004E41201EA4F10104DFDC484631462A4677
:1002F0004346BDE8F09F40EA01039B0703D009E0B5
:1003000008C9121F08C0042AFAD203E011F8013B01
:1003100000F8013B521EF9D27047D2B201E000F85A
:10032000012B491EFBD270470022F6E710B5134699
:100330000A4604461946FFF7F0FF204610BD30B5C7
:1003400005462A460B4612F8010B13F8014B08B17B
:10035000A042F8D01CB1002802D06D1CF1E728465D
:1003600030BD421C10F8011B0029FBD1801A7047D8
:10037000034611F8012B00F8012B002AF9D1184689
:10038000704730B505460020034600E05B1C9342F1
:1003900005D2EC5CC85C201A01D1002CF6D130BD2E
:1003A00030B50B46014600202022012409E021FA45
:1003B00002F59D4205D303FA02F5491B04FA02F542
:1003C0002844151EA2F10102F1DC30BD202A04DB15
:1003D000203A00FA02F1002070479140C2F1200358
:1003E00020FA03F3194390407047202A04DB203A97
:1003F00021FA02F00021704721FA02F3D040C2F145
:10040000200291400843194670472DE9FE4F80466F
:1004100081EA0300C00F0C46009021F0004123F058
:100420000045B8EB0200A94105D24046214690465E
:100430001C460B46024623F00040104347D0270DD0
:10044000C7F30A00C3F30A510290401A01904028F2
:100450006BDAC3F3130040F4801B0098924620B17E
:100460000023D2EB030A63EB0B0B01985946C0F152
:1004700040025046FFF7AAFF06460D465046594631
:10048000019A00F08DF910EB08006141002487EA21
:10049000115284EAE7731A4340D0009A62B3019A7A
:1004A000012A4FEA075215DC001B61EB02014FF0F5
:1004B000004202EA0752CDE90042001C41F58011DA
:1004C00032462B4600F08DF903B0BDE8F08F404670
:1004D0002146F9E7001B61EB0201001C41F5801386
:1004E00000185B412018A2F5001747EB030140EA12
:1004F000D570B6196D4111E06D084FEA360645EA30
:10050000C0754FEA0752001B61EB0201001C41F568
:10051000801149084FEA30000019514132462B46FC
:1005200003B0BDE8F04F00F04DB900980122400043
:100530000023D0EB020263EBE073009821464FEA00
:10054000E074B8EB000061EB0401E9E783F00043DD
:100550005BE781F0004158E72DE9FE4F81EA030493
:1005600004F0004421F0004100944FF0000B23F010
:10057000004350EA01045ED052EA03045BD0C3F3A7
:100580000A54C1F30A552C44A4F2F3340194A0FB9D
:100590000254C1F3130141F48011C3F3130343F474
:1005A000801301FB024400FB034E840A970A44EACD
:1005B000815447EA8357A4FB076802958D0A05FB1F
:1005C00007854FEA932C04FB0C542705029D4FEA44
:1005D000065847EA1637B5EB08056EEB070C870E91
:1005E000920E47EA811742EA8312A7FB0201B6EB9B
:1005F0000B0164EB00042B0D43EA0C335E1844EB53
:100600001C50DA465146E7FB0201C5F313044FEADA
:100610000B3343EA14534FEA0432019C43EA0603C6
:10062000A4F10C040294009CCDE900B400F0D9F8C8
:1006300003B0BDE8F08F00200146F9E72DE9F04D49
:1006400081EA030404F0004B21F0004514464FF00A
:10065000000A23F0004150EA050220D054EA0102CA
:100660001DD0C5F30A570246C5F31303C1F31300A7
:10067000C1F30A5640F4801543F48013A7EB060833
:10068000101BD64608F2FD3873EB050002D308F1C3
:10069000010801E092185B41B8F1000F03DA002075
:1006A0000146BDE8F08D00204FF4801106468446D7
:1006B0000EE0171B73EB050705D3121B63EB050355
:1006C00006434CEA010C49084FEA300092185B419E
:1006D00050EA0107EDD152EA030012D082EA040089
:1006E00083EA0501084305D0101BAB4106D2012265
:1006F000002306E000224FF0004302E06FF0010209
:1007000053101AEB06004CEB085110EB0A0041EBBA
:100710000B01BDE8F04D00F055B8C1F30A52C1F32A
:10072000130140F2FF3341F480119A4202DA0020B3
:100730000146704740F233439A42A2F2334202DC50
:100740005242FFF752BEFFF741BE000030B5041E13
:1007500071F1000404DB4FF00044404264EB0101FE
:10076000141E73F1000405DB1C464FF00043524297
:1007700063EB0403994208BF904230BD064C074D1D
:1007800006E0E06840F0010394E807009847103461
:10079000AC42F6D3FFF704FD607B0008807B0008C5
:1007A000202A06DBCB17203A41FA02F043EAE07335
:1007B00006E041FA02F3D040C2F120029140084322
:1007C0001946704710B5141E73F1000408DA401C76
:1007D00041F1000192185B411A4301D120F0010060
:1007E00010BD2DE9F04D92469B4611B1B1FA81F250
:1007F00002E0B0FA80F220329046FFF7E7FD0446AF
:100800000F4640EA0A0041EA0B0153465A460843A4
:1008100013D0114653EA010019D0C8F140025046E6
:10082000FFF7E3FD05460E46504659464246FFF7A0
:10083000CDFD084305D0012004E020463946BDE83F
:10084000F08D0020054346EAE0762C4337430A98B2
:100850006305E40AA0EB08000022FD0A44EA4754BD
:100860000A3002D500200146E9E701051019694167
:10087000DDE9084500196941BDE8F04DA2E700BF78
:10088000FEE7000010B5024800F0F8F810BD0000C7
:100890003C0100200146087810381823B0FBF3F221
:1008A0000848805CC865032A05D908686FF3090009
:1008B000001D886503E008686FF309008865886D8E
:1008C000704700009C780008014600208A6A8B6906
:1008D000CBB932B1012A0DD0022A03D0032A10D19C
:1008E0000EE000BFCB6A03F08073B3F1807F00D1CC
:1008F000012007E0CB6AB3F1C07F00D1012001E005
:1009000000E000BF34E08B69B3F5005F1AD132B16B
:10091000012A07D0022A03D0032A11D10AE000BF1E
:1009200001200EE0CB6A03F08073B3F1807F00D129
:10093000012006E0CB6AB3F1C07F00D1012000E0C6
:1009400000BF15E032B1012A05D0022A04D0032AE3
:100950000CD103E000BF00BF012008E0CB6A03F028
:100960008073B3F1807F00D1012000E000BF00BFA1
:10097000704730B50468246824F4802405682C602E
:10098000046863608468402C04D10468A260046831
:10099000E16003E00468A1600468E26030BD704774
:1009A00072B600BFFEE770B50446A56D00F02AFBE5
:1009B000064694F83500022808D08020606500BF04
:1009C000002084F8340000BF012070BD206800685A
:1009D00020F01600216808602068406920F080003F
:1009E00021684861206C08B9A06C28B120680068B3
:1009F00020F00800216808602068006820F00100ED
:100A00002168086010E000F0FDFA801B05280BD972
:100A100020206065032084F8350000BF002084F8A2
:100A2000340000BF0320D0E72068006800F0010018
:100A30000028E8D194F85C103F208840A86001208D
:100A400084F8350000BF002084F8340000BF00BFE8
:100A5000BBE7014691F83500022803D080204865A5
:100A600001207047052081F835000868006820F0F3
:100A700001000A6810600020F3E70000F8B50446A2
:100A8000002000908C4800684FF41651B0FBF1F73D
:100A9000A56D2E6894F85C1008208840304098B10D
:100AA0002068006800F0040070B12068006820F041
:100AB00004002168086094F85C1008208840A86051
:100AC000606D40F00100606594F85C100120884082
:100AD000304068B12068406900F0800040B194F86F
:100AE0005C1001208840A860606D40F002006065E5
:100AF00094F85C1004208840304068B12068006899
:100B000000F0020040B194F85C1004208840A86016
:100B1000606D40F00400606594F85C10102088401F
:100B2000304078B32068006800F0080050B394F8B3
:100B30005C1010208840A8602068006800F48020C5
:100B400080B12068006800F4002028B9206CC8B18A
:100B50002046216C884715E0A06C98B12046A16C16
:100B600088470FE02068006800F4807028B920688A
:100B7000006820F0080021680860206C10B1204651
:100B8000216C884794F85C10202088403040002871
:100B900065D02068006800F0100000285FD094F84D
:100BA0005C1020208840A86094F83500052828D1E2
:100BB0002068006820F016002168086020684069FD
:100BC00020F0800021684861206C08B9A06C28B131
:100BD0002068006820F008002168086094F85C1024
:100BE0003F208840A860012084F8350000BF002025
:100BF00084F8340000BF206D10B12046216D884775
:100C0000F8BD2068006800F4802080B1206800688A
:100C100000F4002028B9606C10B12046616C884750
:100C20001DE0E06BD8B12046E16B884717E02068F3
:100C3000006800F4807068B92068006820F0100037
:100C400021680860012084F8350000BF002084F886
:100C5000340000BFE06B10B12046E16B8847606D47
:100C600038B3606D00F00100F0B1052084F8350064
:100C70002068006820F001002168086000BF00982B
:100C8000401C0090B84200D905E02068006800F0E0
:100C900001000028F3D100BF012084F8350000BF17
:100CA000002084F8340000BFE06C10B12046E16CF5
:100CB000884700BFA4E70000180000202DE9F0419C
:100CC0000446002500F09EF9074614B90120BDE84E
:100CD000F081606A00B100BF022084F8350000BFD7
:100CE000002084F8340000BF2068006820F0010074
:100CF000216808600AE000F085F9C01B052805D9C5
:100D000020206065032084F83500E0E72068006853
:100D100000F001000028EED1206805682148054058
:100D2000D4E901010843E168084321690843616986
:100D30000843A1690843E1690843216A0843054360
:100D4000606A042803D1D4E90B01084305432068F5
:100D500005602068456925F00705606A0543606AFB
:100D600004280DD1A06A0543E06A48B12046FFF788
:100D7000ABFD28B140206065012084F83500A6E76E
:100D8000206845612046FFF785FD064694F85C1013
:100D90003F208840B06000206065012084F8350065
:100DA000002094E73F8010F02DE9F04704460D46FF
:100DB00016461F464FF00008D4F8589000BF94F82C
:100DC0003400012802D10220BDE8F087012084F818
:100DD000340000BF94F83500012825D1022084F8A2
:100DE0003500002060653B46324629462046FFF725
:100DF000C0FD94F85C103F208840C9F808002068C6
:100E0000006840F0160021680860206C28B1206856
:100E1000006840F00800216808602068006840F021
:100E200001002168086006E000BF002084F834005B
:100E300000BF4FF002084046C6E70000F8B5024682
:100E40000B460025002400200021C7E0012606FAF9
:100E500001F51E6806EA0504AC4274D11E7906F05D
:100E60000306012E04D01E7906F00306022E13D1CC
:100E700090684F000326BE40B0434F00DE68BE407E
:100E800030439060506801268E40B0431E79C6F30F
:100E900000168E40304350601E7906F00306032E84
:100EA00009D0D0684F000326BE40B0434F009E6873
:100EB000BE403043D0601E7906F00306022E13D1E7
:100EC000CF0802F1200656F827004E07F70E0F262E
:100ED000BE40B0434F07FF0E1E69BE403043CF08EF
:100EE00002F1200646F8270010684F000326BE4096
:100EF000B0431E7906F003064F00BE403043106039
:100F00005E6806F44036002E67D000BF00260096CB
:100F1000344E366846F48046324F3E603E46366870
:100F200006F48046009600BF00BF2F4E8F0856F88B
:100F300027008E07370F0F26BE40B0432B4EB2421C
:100F400002D1002615E048E0294EB24201D1012627
:100F50000FE0284EB24201D102260AE0264EB242EC
:100F600001D1032605E0254EB24201D1042600E05E
:100F700007268F073F0FBE4030431B4E8F0846F8B1
:100F800027001F4E3068A0435E6806F4801606B145
:100F900020431B4E3060361D3068A0435E6806F467
:100FA000001606B12043164E361D3060144E361F13
:100FB0003068A0435E6806F4003606B12043104E48
:100FC000361F3060361F3068A0435E6806F48036F6
:100FD00006B120430A4E083E3060491C1029FFF438
:100FE00035AFF8BD443802400838014000000240E7
:100FF0000004024000080240000C024000100240C1
:10100000083C014001480068704700000C000020C7
:10101000034800680349097808440149086070479B
:101020000C0000201400002010B50D48006840F4AA
:1010300000700B4908600846006840F48060086052
:101040000846006840F480700860032000F0D2F881
:101050000F2000F007F800F055F8002010BD000048
:10106000003C0240F0B587B004460026002700BFD0
:10107000002000901E48006840F001001C490860F4
:101080000846006800F00100009000BF00BF01A901
:1010900002A800F085F900F0BBF906461548B6FB3A
:1010A000F0F0471E14481549086040F2E731134834
:1010B000C1604760002101618160816100F060FCD6
:1010C000054695B90D4800F08FFC05466DB919200D
:1010D00000F042F8102C07D200222146192000F01F
:1010E0004BF80748046000E00125284607B0F0BD32
:1010F0004438024040420F00000001409C010020A3
:101100001000002008B500BF0020009011480068C2
:1011100040F480400F4908600846006800F48040B1
:10112000009000BF00BF00BF00200090081F0068B3
:1011300040F08050091F08600846006800F08050A9
:10114000009000BF00BF00220F21901E00F014F895
:1011500008BD00004438024001460846002809DB6B
:1011600000F01F0301229A4043099B0003F1E02392
:10117000C3F8002100BF70472DE9F05F80460D469F
:101180001646002701F022FF074639462A46334615
:1011900001F00700C0F1070ABAF1040F02D94FF0BD
:1011A000040A01E0C0F1070AD14600F1040ABAF1CD
:1011B000070F02D24FF0000A01E0A0F1030AD44663
:1011C0004FF0010A0AFA09FAAAF1010A0AEA020A28
:1011D0000AFA0CFA4FF0010B0BFA0CFBABF1010B06
:1011E0000BEA030B4AEA0B042146404601F0F6FEE7
:1011F000BDE8F09F00BF00F00702064B19684FF6EC
:10120000FF031940044B0B4343EA0221014B1960D1
:1012100000BF70470CED00E00000FA0570B5044611
:101220000D460CB9012070BD5848006800F0070059
:10123000A84209D255490D700846006800F0070021
:10124000A84201D00120EEE7207800F00200022839
:101250001DD1207800F00400042805D14C48006816
:1012600040F4E0504A490860207800F0080008285F
:1012700005D14748006840F460404549086044484B
:10128000006820F0F000A168084341490860207818
:1012900000F00100A8B36068012807D13C48083875
:1012A0000068C0F34040B8B90120BCE7606802287C
:1012B00002D06068032807D1354808380068C0F3B9
:1012C000406048B90120AEE7314808380068C0F3F3
:1012D000400008B90120A6E72D48006820F003006F
:1012E000616808432A490860FFF78CFE064609E05A
:1012F000FFF788FE801B41F28831884202D9032023
:1013000091E707E02248006800F00C006168B0EB4C
:10131000810FEDD11D48006800F00700A84209D9EF
:101320001A490D700846006800F00700A84201D075
:10133000012078E7207800F00400042807D1144841
:10134000006820F4E050E168084311490860207803
:1013500000F00800082808D10D48006820F460401B
:10136000216940EAC1000A49086000F061F80849B3
:101370000968C1F30311074A515CC8400649086077
:1013800006480068FFF76EFE00204CE7003C024074
:1013900008380240A478000818000020100000203F
:1013A0000F2202600D4A126802F0030242600B4AEB
:1013B000126802F0F0028260084A126802F4E052F9
:1013C000C260064A126802F46042D2080261044A0E
:1013D000126802F007020A607047000008380240F5
:1013E000003C0240014800687047000018000020DF
:1013F00000B5FFF7F7FF04490968C1F38221034AEA
:10140000515CC84000BD000008380240B4780008B4
:1014100000B5FFF7E7FF04490968C1F34231034A09
:10142000515CC84000BD000008380240B478000894
:101430002DE9F047002400250026A1462548006834
:1014400000F00C0020B1042805D008283AD105E0AE
:10145000DFF8849039E0DFF8849036E01D48001F03
:10146000006800F03F041B48001F006800F4800083
:1014700078B11A481749091F0968C1F38811A0FB00
:1014800001700146224600233846FEF703FF054659
:101490000EE011480F49091F0968C1F38811A0FB2C
:1014A00001700146224600233846FEF7F3FE05464A
:1014B0000848001F0068C0F30140401C4600B5FB0F
:1014C000F6F902E0DFF8109000BF00BF4846BDE823
:1014D000F0870000083802400024F40040787D01C5
:1014E000F8B504460CB90120F8BD207800F00100E1
:1014F000002874D0F948006800F00C0004280DD0D2
:10150000F648006800F00C00082813D1F348001FCB
:10151000006800F48000B0F5800F0BD1EF48083868
:101520000068C0F34040002859D06068002856D1B8
:101530000120D9E700BF6068B0F5803F08D1E748D7
:101540000838006840F48030E449083908601EE03B
:101550006068B0F5A02F0DD1E0480838006840F46D
:101560008020DE49083908600846006840F4803071
:1015700008600CE0D9480838006820F48030D7496A
:10158000083908600846006820F48020086000BF21
:10159000606890B1FFF736FD054606E0FFF732FDC3
:1015A000401B642801D903209EE7CC480838006816
:1015B000C0F340400028F1D011E0FFF723FD0546BD
:1015C00006E0FFF71FFD401B642801D903208BE7CD
:1015D000C24808380068C0F340400028F1D12078A4
:1015E00000F0020002285FD1BC48006800F00C0047
:1015F00058B1BA48006800F00C0008281CD1B74860
:10160000001F006800F48000B0B9B44808380068D2
:10161000C0F3400020B1E068012801D0012063E759
:10162000AE480838006820F0F800216940EAC1009F
:10163000AA490839086037E0E06800B30120A849EA
:101640000860FFF7DFFC054606E0FFF7DBFC401B08
:10165000022801D9032047E7A04808380068C0F3F2
:1016600040000028F1D09D480838006820F0F800BC
:10167000216940EAC10099490839086014E0002056
:1016800097490860FFF7BEFC054606E0FFF7BAFC85
:10169000401B022801D9032026E79048083800683B
:1016A000C0F340000028F1D1207800F0080008289D
:1016B0002CD16069A8B101208A490860FFF7A2FC1B
:1016C000054606E0FFF79EFC401B022801D90320D7
:1016D0000AE782486C300068C0F340000028F1D06F
:1016E00014E000207F490860FFF78CFC054606E007
:1016F000FFF788FC401B022801D90320F4E6774855
:101700006C300068C0F340000028F1D1207800F070
:101710000400042870D1002770483830006800F0B9
:10172000805090B900BF002000906C4838300068AD
:1017300040F080506949383108600846006800F080
:101740008050009000BF00BF01276748006800F488
:101750008070B0B96448006840F4807062490860E5
:10176000FFF750FC054606E0FFF74CFC401B022843
:1017700001D90320B8E65C48006800F480700028B6
:10178000F2D000BFA068012808D154486830006832
:1017900040F001005149683108601DE0A06805284B
:1017A0000DD14E486830006840F004004B49683164
:1017B00008600846006840F0010008600CE04748F7
:1017C0006830006820F0010044496831086008462C
:1017D000006820F00400086000BFA068A8B1FFF70F
:1017E00011FC054609E0FFF70DFC401B41F2883172
:1017F000884202D9032077E626E03848683000683E
:10180000C0F340000028EED013E0FFF7FBFB0546D5
:1018100008E0FFF7F7FB401B41F28831884201D90D
:10182000032061E62D4868300068C0F340000028BE
:10183000EFD1012F07D129483830006820F08050BF
:1018400026493831086000BFA069002845D02348E8
:10185000006800F00C0008285DD0A069022845D17E
:1018600000201F490866FFF7CDFB054606E0FFF79D
:10187000C9FB401B022801D9032035E61748083868
:101880000068C0F340600028F1D1D4E907010843A3
:10189000616A40EA81110122A06AC2EB500041EA6C
:1018A00000412C20005D41EA00600C49091F0860DE
:1018B00001200B490866FFF7A5FB054606E0FFF788
:1018C000A1FB401B022801D903200DE6034808387C
:1018D0000068C0F340600028F1D049E008380240B9
:1018E00000004742800E474200700040002021491E
:1018F0000866FFF787FB054606E0FFF783FB401B02
:10190000022801D90320EFE51B480068C0F34060BE
:101910000028F2D12CE0A069012800D1E4E51648A6
:10192000001D0668A069012820D006F48001E06946
:1019300081421BD106F03F01206A814216D147F651
:10194000C0703040616AB0EB811F0FD106F44031A6
:101950000122A06AC2EB5000B1EB004F06D106F0A5
:1019600070612C20005DB1EB006F01D00120BBE560
:101970000020B9E500004742003802407047704738
:1019800010B504460CB9012010BD94F83D0028B9EB
:10199000002084F83C00204600F025F8022084F85E
:1019A0003D00211D206800F081FE012084F84600E2
:1019B00000BF84F83E0001213F2001554020015521
:1019C0004120015500BF00BF012084F842004320A0
:1019D0000155442001554520015500BF012084F8E0
:1019E0003D000020D0E77047014691F83D000128F6
:1019F00001D001207047022081F83D000868C068CE
:101A000040F001000B68D860164B0868984213D06C
:101A10000868B0F1804F0FD0134B086898420BD084
:101A2000124B0868984207D0114B0868984203D0BF
:101A3000104B086898420CD10868806800F00702D3
:101A4000062A0CD00868006840F001000B68186096
:101A500005E00868006840F001000B68186000208D
:101A6000C8E70000000001400004004000080040FA
:101A7000000C004000400140704710B5044620684B
:101A80000069C0F34000D8B12068C068C0F34000CE
:101A9000B0B16FF002002168086101202077206852
:101AA000806900F0030018B12046FFF7E5FF05E06C
:101AB000204600F0ADF8204600F0ABF8002020777B
:101AC00020680069C0F38000D8B12068C068C0F306
:101AD0008000B0B16FF00400216808610220207717
:101AE0002068806900F4407018B12046FFF7C4FFF9
:101AF00005E0204600F08CF8204600F08AF800202F
:101B0000207720680069C0F3C000D8B12068C068A1
:101B1000C0F3C000B0B16FF0080021680861042074
:101B200020772068C06900F0030018B12046FFF755
:101B3000A3FF05E0204600F06BF8204600F069F8AE
:101B40000020207720680069C0F30010D8B1206819
:101B5000C068C0F30010B0B16FF0100021680861D8
:101B6000082020772068C06900F4407018B1204632
:101B7000FFF782FF05E0204600F04AF8204600F01B
:101B800048F8002020772068006900F0010058B173
:101B90002068C06800F0010030B16FF001002168DA
:101BA0000861204600F036F820680069C0F3C010D4
:101BB00058B12068C068C0F3C01030B16FF0800029
:101BC000216808612046FFF7D9FE20680069C0F34C
:101BD000801058B12068C068C0F3801030B16FF039
:101BE000400021680861204600F020F82068006964
:101BF000C0F3401058B12068C068C0F3401030B145
:101C00006FF02000216808612046FFF7B8FE10BD84
:101C10007047704710B5044603492068884201D1D7
:101C2000FFF7F6F910BD0000000001407047F8B55D
:101C300004460E46174694F83E00202836D106B1D9
:101C40000FB90120F8BD00BF94F83C00012801D174
:101C50000220F7E7012084F83C0000BF20633A46E9
:101C60003146204600F0F8FF0546EDB9206B01280B
:101C700019D100BF00200090206800680090206803
:101C80004068009000BF00BF00BF00BF21680C315A
:101C900051E8001F41F0100021680C3141E80002BA
:101CA000002AF3D100E001252846CBE70220C9E74E
:101CB0003EB505460C461248006850B911A0DB211C
:101CC0001A4B1BA2CDE9001021A1012002F0ACF8B3
:101CD0003EBD23A0DF21154B15A2CDE900101CA1AC
:101CE000042002F0A1F825A0E021104B10A2CDE9BC
:101CF0000104009116A1042002F096F800BFE7E766
:101D0000E4000020476C6F62616C20636972637548
:101D10006C61722062756666657220706F696E74A0
:101D20006572206973204E554C4C0000157A0008EE
:101D30002E2E5C4253505C55534152545C6273707A
:101D40005F756172745F6472697665722E630000FC
:101D50006273705F756172745F6472697665720038
:101D600048414C5F5541525445785F5278457665FD
:101D70006E7443616C6C6261636B000073697A65B9
:101D8000203D205B25645D00704700002DE9F84F81
:101D90000446206805682068C668206847694FF0D7
:101DA0000009CA4605F00F09B9F1000F0AD105F084
:101DB000200038B106F0200020B1204600F0B9FD27
:101DC000BDE8F88FB9F1000F7CD007F0010018B919
:101DD00006F49070002875D005F0010030B106F4CB
:101DE000807018B1206C40F00100206405F0040000
:101DF00030B107F0010018B1206C40F002002064FF
:101E000005F0020030B107F0010018B1206C40F07D
:101E10000400206405F0080048B106F0200010B965
:101E200007F0010018B1206C40F008002064206C1D
:101E3000002846D005F0200028B106F0200010B19F
:101E4000204600F076FD20684069C0F3801A206CBF
:101E500000F0080010B9BAF1000F2DD0204600F0B4
:101E60000FFD2068406900F04000402820D100BFED
:101E700000BF2168143151E8001F21F040002168A3
:101E8000143141E80002002AF3D100BFA06B50B129
:101E90007448A16B0865A06BFEF7DBFD88B1A06BF1
:101EA000016D88470DE02046FFF76EFF09E009E06D
:101EB0002046FFF769FF04E02046FFF765FF00209A
:101EC00020647DE7206B012874D105F01000002804
:101ED00070D006F010000028FAD000BF002000905B
:101EE00020680068009020684068009000BF00BF34
:101EF0002068406900F0400040285CD1A06B006879
:101F000040681FFA80F8B8F1000F52D0A08D40450C
:101F10004FDDA4F82E80A06BC069B0F5807F43D060
:101F200000BF00BF21680C3151E8001F21F4807010
:101F300021680C3141E80002002AF3D100BF00BF44
:101F400000BF2168143151E8001F21F00100216811
:101F5000143141E80002002AF3D100BF00BF00BFE6
:101F60002168143151E8001F21F04000216814312C
:101F700041E80002002AF3D100BF202084F83E008F
:101F80000020206300BF00BF21680C3151E8001F12
:101F900021F0100021680C3141E80002002AF3D141
:101FA00000BFA06BFEF7FFFCA18DE28D881A03F045
:101FB0003DFF05E740E0A08DE18D401A1FFA80F853
:101FC000E08DC0B3B8F1000F35D000BF00BF21686D
:101FD0000C3151E8001F21F4907021680C3141E868
:101FE0000002002AF3D100BF00BF00BF21681431F6
:101FF00051E8001F21F001002168143141E800027E
:10200000002AF3D100BF202084F83E000020206386
:1020100000BF00BF21680C3151E8001F21F0100003
:1020200021680C3141E80002002AF3D100BF41468B
:102030002046FFF73DFEC3E605F0800030B106F014
:10204000800018B1204600F094FEB9E605F040008B
:1020500030B106F0400018B1204600F047FCAFE672
:1020600000BFADE65127000810B504460CB90120A9
:1020700010BDA06900B100E000BF94F83D0028B990
:10208000002084F83C00204600F028F8242084F842
:102090003D002068C06820F400502168C8602046D8
:1020A00000F0C4FC2068006920F4904021680861B9
:1020B0002068406920F02A00216848612068C068D3
:1020C00040F400502168C86000202064202084F87B
:1020D0003D0084F83E000020CAE7000010B586B03D
:1020E0000446142101A8FEF71FF92F4920688842F1
:1020F00058D100BF002000902C48006840F010002C
:102100002A4908600846006800F01000009000BFEF
:1021100000BF00BF0020009024481438006840F041
:1021200001002249143908600846006800F00100E7
:10213000009000BF00BF4FF4C060019002200290E9
:1021400000200390032004900720059001A918485F
:10215000FEF774FE1748184908604FF000604860A9
:10216000002115488160C1604FF480610161002148
:10217000416181614FF48071C1610021016241625E
:10218000FEF79CFD08B1FEF70BFC00BF0A48A063F8
:10219000846300BF002205212520FEF7EDFF2520E6
:1021A000FEF7DAFF06B010BD0010014044380240CF
:1021B00000000240406402403C01002070B504462B
:1021C0000D46164694F83E00202816D105B10EB9EA
:1021D000012070BD00BF94F83C00012801D102200D
:1021E000F7E7012084F83C0000BF0020206332465E
:1021F0002946204600F098FDEBE70220E9E70000C1
:102200007FB505461FA07E21244B25A2CDE90010F5
:102210002BA1032001F008FE2D48006850B92DA025
:10222000C0211E4B1EA2CDE9001025A1012001F006
:10223000FBFD7FBD0024314801782548006802F08D
:1022400077FC0446012C11D12C4800782CA1C8221F
:10225000124BCDE90021029011A219A1042001F036
:10226000E3FD012225493048FFF7A8FFA120039094
:102270000223002203A92D48006804F07BFE00BF62
:10228000D7E7000048414C5F554152545F527843B4
:10229000706C7443616C6C6261636B00FD79000863
:1022A0002E2E5C4253505C55534152545C62737005
:1022B0005F756172745F6472697665722E63000087
:1022C0006273705F756172745F64726976657200C3
:1022D000E4000020476C6F62616C20636972637573
:1022E0006C61722062756666657220706F696E74CB
:1022F0006572206973204E554C4C0000E8000020A8
:10230000496E73657274656420646174613A202556
:102310006320696E746F2063697263756C617220EB
:102320006275666665720000F8000020E00000201B
:102330007047704700BFFEE708B500BF002000905F
:102340000A48006840F480000849086008460068B0
:1023500000F48000009000BF00BF002205213A2059
:10236000FEF70AFF3A20FEF7F7FE08BD30380240BC
:1023700010B50B4A00210B4802F09AFD0A4908608B
:102380000A4A00210A4802F093FD0A4908600A4AF5
:1023900000210A4802F08CFD0949086010BD0000C8
:1023A00030780008B52500080000002054780008A7
:1023B000A55F00080400002078780008FD5B000895
:1023C0000800002008B500BF0020009015480068F4
:1023D00040F00400134908600846006800F004005B
:1023E000009000BF00BF00BF0020009008460068BA
:1023F00040F0800008600846006800F0800000900F
:1024000000BF00BF00BF002000900846006840F0F9
:10241000010008600846006800F00100009000BF5D
:1024200000BF08BD3038024010B50B480B490860AA
:102430004FF496404860002108488160C160016106
:102440000C21416100218161C161FFF70DFE08B1DE
:10245000FEF7A6FA10BD000000100140F8000020B1
:1024600000BFFEE700BFFEE72DE9F04707468846BC
:10247000DFF870A000BF9AF8000008B900F0B4FCC3
:1024800000BFEFF311810846202181F3118800BFBE
:1024900000BF07EB47021349183101EBC204E168A2
:1024A0004D1CA168A94200D100256169022903D110
:1024B00000BF2169A942FCD02169A94208D0E26885
:1024C000616801EB020989F80080E560012600E0FF
:1024D0000026C1B281F3118800BF00BF3046BDE8BD
:1024E000F0870000B84A00202DE9F04104460D466F
:1024F00016460E4F00BF387808B900F075FC00BFD3
:10250000EFF311800746202080F3118800BF00BF41
:1025100032462946204600F00BF88046F8B280F398
:10252000118800BF00BF4046BDE8F081B84A0020D6
:102530002DE9F047074688461646C24607EB470195
:102540001B4800EBC109D9F8140020B1012811D0B3
:10255000022826D11EE0484600F07EFC0546B54222
:1025600001D2002405E0344632465146484600F088
:10257000BCFC18E0484600F06FFC0546B54201D2AD
:10258000284600E03046044622465146484600F0C0
:10259000ACFC08E032465146484600F06BFC04466D
:1025A00001E0002400BF00BF2046BDE8F087000026
:1025B000D04A002000BF4FF47A7002F023FCFAE703
:1025C00010B54FF0E020006904F0DCFE012801D0D6
:1025D00004F0F8FA10BD000000B593B0302107A850
:1025E000FDF7A2FE142102A8FDF79EFE00BF002009
:1025F00001902348006840F0805021490860084657
:10260000006800F08050019000BF00BF00BF0020B4
:1026100001901C48006840F440401A490860084690
:10262000006800F44040019000BF00BF0120079007
:102630000004089002200D9041050E910C210F918D
:1026400060211091022111910421129107A8FEF737
:1026500047FF08B1FEF7A4F90F2002900220039073
:10266000002004904FF48050059000200690032134
:1026700002A8FEF7D3FD08B1FEF792F913B000BD32
:1026800040380240007000400348006840F4700089
:10269000014908607047000088ED00E010B502486D
:1026A000FFF7EBF910BD00009C01002010B5026897
:1026B000204B98420BD0B0F1804F08D01E4B98426F
:1026C00005D01E4B984202D01D4B984203D122F0F8
:1026D00070024B681A43174B984214D0B0F1804FE8
:1026E00011D0154B98420ED0144B98420BD0144B7E
:1026F000984208D0134B984205D0134B984202D011
:10270000124B984203D122F44072CB681A4322F054
:1027100080034C6943EA040202608B68C3620B6861
:102720008362044B984201D10B6903630123436127
:1027300010BD0000000001400004004000080040FF
:10274000000C0040004001400044014000480140AE
:1027500070B50546AC6B0020E085E0842046FFF7AD
:1027600013FB70BD70B506460025B46B2068406948
:10277000C0F3C01594F83D00212805D125B10020F3
:10278000E084204600F0C2F820684069C0F380155C
:1027900094F83E00222805D125B10020E08520468E
:1027A00000F06EF8206C40F0100020642046FFF727
:1027B000EBFA70BD70B50546AC6B2868006800F494
:1027C0008070002842D1E08500BF00BF21680C3135
:1027D00051E8001F21F4807021680C3141E80002AB
:1027E000002AF3D100BF00BF00BF2168143151E8B7
:1027F000001F21F001002168143141E80002002A85
:10280000F3D100BF00BF00BF2168143151E8001FA1
:1028100021F040002168143141E80002002AF3D180
:1028200000BF202084F83E00206B01280ED100BF9D
:1028300000BF21680C3151E8001F21F01000216811
:102840000C3141E80002002AF3D100BF206B0128BF
:1028500003D1A08D01F0B6F802E02046FFF7D0FCCE
:1028600070BD70B50546AC6B206B012804D1A18DFD
:10287000480801F065F902E02046FFF759FD70BDF8
:1028800000BF00BF02680C3252E8002F22F49071A2
:1028900002680C3242E80013002BF3D100BF00BFE6
:1028A00000BF0268143252E8002F22F001010268D2
:1028B000143242E80013002BF3D100BF016B012951
:1028C0000ED100BF00BF02680C3252E8002F22F088
:1028D000100102680C3242E80013002BF3D100BF54
:1028E000202180F83E1000210163704710B5044696
:1028F0002068C06820F040002168C860202084F86B
:102900003D002046FFF715FD002010BD00BF00BFB1
:1029100002680C3252E8002F22F0C00102680C322B
:1029200042E80013002BF3D100BF202180F83D10B6
:102930007047F8B5044694F83E00222873D1A06889
:10294000B0F5805F0CD1206950B90025A66A2068D7
:102950004068C0F308003080A06A801CA06215E0C7
:10296000A56A0026A068B0F5805F03D0A06828B9EA
:10297000206918B920684068287004E02068406821
:1029800000F07F002870A06A401CA062E08D401E0D
:1029900080B2E085002844D12068C06820F0200083
:1029A0002168C8602068C06820F480702168C86011
:1029B0002068406920F0010021684861202084F8E7
:1029C0003E00206B012826D10020206300BF00BFFD
:1029D00021680C3151E8001F21F0100021680C31F2
:1029E00041E80002002AF3D100BF2068006800F02F
:1029F000100010280AD100BF002000902068006855
:102A0000009020684068009000BF00BFA18D204664
:102A1000FFF74EF902E02046FFF7F2FB0020F8BD79
:102A200001E00020FBE70220F9E700002DE9F84F64
:102A300004462068006920F44050E168084321689A
:102A400008612169A068084361690843E169084396
:102A500000902068C06849F20C61884300990843DF
:102A60002168C8602068406920F44070A16908436B
:102A70002168486176492068884203D075492068FA
:102A8000884203D1FEF7C4FC814602E0FEF7B0FCA9
:102A90008146E069B0F5004F6CD102206168A0FB6F
:102AA000015003461920A9FB007001462A4638460A
:102AB000FDF7F0FB6421B0FBF1F04FEA001A0220B1
:102AC0006168A0FB01510B461920A9FB00712A4641
:102AD0003846FDF7DFFB834602206168A0FB01500A
:102AE00003461920A9FB00712A463846FDF7D2FBA0
:102AF0006421B0FBF1F000EBC00101EB0010ABEB87
:102B00008000322101EBC0006421B0FBF1F000F045
:102B1000F8000AEB400A02206168A0FB015003465E
:102B20001920A9FB007001462A463846FDF7B2FB82
:102B3000834602206168A0FB015003461920A9FBCF
:102B400000712A463846FDF7A5FB6421B0FBF1F081
:102B500000EBC00101EB0010ABEB8000322101EB78
:102B6000C0006421B0FBF1F000F007005044216880
:102B700088606AE004206168A0FB015003461920C8
:102B8000A9FB007001462A463846FDF783FB8246C2
:102B900004206168A0FB015003461920A9FB0070C6
:102BA00001462A463846FDF775FB6421B0FBF1F07B
:102BB00000EBC00101EB0010AAEB8000322101EB19
:102BC00000106421B0FBF1F000F0F00A042061680D
:102BD000A0FB017003461920A9FB00513A46284684
:102BE000FDF758FB6421B0FBF1F00AEB001A04205A
:102BF0006168A0FB01510B461920A9FB00712A4610
:102C00003846FDF747FB834604206168A0FB01506E
:102C100003461920A9FB007001462A463846FDF7F5
:102C200039FB6421B0FBF1F000EBC00101EB0010B7
:102C3000ABEB8000322101EB00106421B0FBF1F01E
:102C400000F00F00504421688860BDE8F88F000054
:102C5000001001400014014077B581B004461546CC
:102C60000298A062A58500202064222084F83E00FE
:102C70002A48A16BC8632A48A16B08642948A16B44
:102C8000C8640020A16B086502AE32682368191D74
:102C90002B46A06BFEF788F800BF0020009020684C
:102CA0000068009020684068009000BF00BF00BF2F
:102CB000002084F83C0000BF206970B100BF00BF55
:102CC00021680C3151E8001F41F4807021680C31FB
:102CD00041E80002002AF3D100BF00BF00BF216815
:102CE000143151E8001F41F001002168143141E81E
:102CF0000002002AF3D100BF00BF00BF21681431D9
:102D000051E8001F41F040002168143141E8000201
:102D1000002AF3D100BF002004B070BDB527000821
:102D2000632800086527000810B5034699629A8554
:102D3000DA8500201864222083F83E0000BF0020BE
:102D400083F83C0000BF186928B11868C06840F4D7
:102D500080701C68E0601868406940F001001C68E1
:102D600060611868C06840F020001C68E0600020C6
:102D700010BD014691F83D00212828D18868B0F5A2
:102D8000805F0BD1086948B90A6A1088C0F308004F
:102D90000B685860086A801C086205E00B6A581CC2
:102DA000086218780B685860C88C401E80B2C884CE
:102DB00058B90868C06820F080000B68D8600868BF
:102DC000C06840F040000B68D860002070470220C7
:102DD000FCE7000010B50248FEF7D8FF10BD000068
:102DE000F800002000BFFEE710B5124C0320206160
:102DF000606111A0A0611349E1614FF4806121621B
:102E00000021A1626162E1620BA020660E49616649
:102E10001021A16600212167E16661670BA1E01D19
:102E2000FDF7A6FA0AA12046FDF7A2FA2020A0711C
:102E300010BD0000B84A00205465726D696E616C67
:102E400000000000604B0020604F002052545400EE
:102E5000534547474552000010B501460A69CB6803
:102E60009A4204D88C68641EE41AA01801E0D41AAF
:102E7000601E10BD2DE9F05F0446894617464FF0ED
:102E8000000AE56800BFD4F81080A84503D9A8EB74
:102E90000500461E04E0A5EB0800401CA1680E1AC0
:102EA000A068401BB04201D9304601E0A068401B39
:102EB0000646BE4201D2304600E03846064660680B
:102EC00000EB050B324649465846FDF714FAB2446A
:102ED000B144BF1B3544A068A84200D10025E5607D
:102EE000002FD0D15046BDE8F09F2DE9F0470446B1
:102EF00089461546E668A068871BAF420AD9606814
:102F000000EB060A2A4649465046FDF7F4F97019C7
:102F1000E06014E0B846606800EB060A42464946A5
:102F20005046FDF7E8F9A5EB0708D4F804A009EB33
:102F3000070142465046FDF7DEF9C4F80C80BDE8B3
:102F4000F08700000FB4054B10B503A9044A02989E
:102F500000F02CF910BC5DF814FB00004948000893
:102F6000EC0000200FB47CB50C0009AD01D0611E4F
:102F700000E00021CDE90001064B6A462946089889
:102F800000F014F9002C02D0009A002111707CBCD2
:102F90005DF814FBB33800087CB50C001D461646DE
:102FA000014601D0601E00E00020CDE90010064B74
:102FB0006A462946304600F0F9F8002C02D0009A03
:102FC000002111707CBD0000B33800080248006881
:102FD000C0F30220704700000CED00E010B500289F
:102FE00004DB0A07130E054A135406E00A07140E01
:102FF000034A00F00F031B1FD45410BD00E400E08F
:1030000018ED00E0EFF30580704702E008C8121FDA
:1030100008C1002AFAD170477047002001E001C1C1
:10302000121F002AFBD170472DE9FF5F82B00021FB
:10303000DDE90430020DDDF840B0034318D044F65A
:103040001050A2F2FF3242431514119801281FD0EC
:10305000A5EB0B00401C5FEA000A4FF000064E4F44
:10306000DFF83891B046504615D5CAF1000413E098
:10307000119801244AA3012801D16FEA0B0102989B
:10308000119AC0E90031C0E9024206B0BDE8F09FE4
:10309000CBF10000DFE704460021404A491842EB2B
:1030A0000450CDE9001012E0E00707D032463B465D
:1030B00040464946FDF750FA8046894632463B462F
:1030C00010461946FDF748FA06460F466410002CD4
:1030D000EAD1DDE90401DDE90023BAF1000F06DAE7
:1030E000FDF73AFA42464B46FDF736FA05E0FDF7A2
:1030F000A5FA42464B46FDF7A1FA04460E460022C9
:10310000284BFDF723FB03D84FF0FF30014607E0C3
:103110000022254B20463146FDF777F9FDF7FDFAF1
:10312000102409E0002C0ADB0A220023FDF7B2F884
:10313000039B30321A55641E50EA0102F2D1641C1E
:10314000039AC4F111031444119A012A03D00122F5
:1031500008430DD10AE0084304D000204FF0110BC2
:10316000119072E7A3EB0B056D1E0DE05B4504DDCE
:103170004FF0000205F1010504E003DA4FF0000210
:10318000A5F10105002AECD002981199C0E902319D
:10319000C0E9004579E70000000014400000F03F5E
:1031A000300000000000F0430000E03F2DE9FF4F39
:1031B00095B09A46884606460025EEE1252877D147
:1031C00000242746F94A0121039400E0044316F83D
:1031D000013F203B01FA03F01042F7D130782A2852
:1031E00011D06FF02F033078A0F13002092A16D8E1
:1031F000039A44F0020402EB820203EB4202104401
:10320000761C0390EFE758F8042B0392002A03DAA8
:10321000504244F40054039044F00204761C307889
:103220002E2816D116F8010F44F004042A280DD0D8
:103230006FF02F023078A0F13003092B09D807EB8B
:10324000870302EB4303C718761CF3E758F8047BA7
:10325000761C30786C280FD006DC4C2817D06828F4
:103260000DD06A2814D104E0742810D07A280FD128
:103270000DE044F400140AE044F4801401E044F446
:1032800040147278824202D104F58014761C761CB8
:10329000307866280BD013DC582877D009DC00285A
:1032A00075D04528F6D04628F4D047281AD193E1A6
:1032B00018E0632835D0642879D0652812D18BE1D5
:1032C000702873D008DC6728F1D069286FD06E2889
:1032D0000DD06F2806D1ACE073282CD0752874D09F
:1032E000782853D05246179990476D1C54E1C4F387
:1032F0000250022809D003280DD0D8F80010042865
:103300000DD00D6008F1040846E1D8F80010EA1766
:10331000C1E90052F6E7D8F800100D80F2E70D7011
:10332000F0E718F8041B8DF8001000208DF801005C
:10333000EB46012003E058F804BB4FF0FF30610773
:103340004FF0000102D40DE009F101018946B942B4
:103350000FDA8145F8DB1BF809100029F4D108E0E9
:1033600009F1010189468142FADB1BF809100029A5
:10337000F6D103985346A0EB090721463846179A21
:1033800000F080FA284400EB090507E044E008E17A
:103390000DE01BF8010B524617999047B9F101094E
:1033A000F7D2534621463846179AF2E039E00A210F
:1033B000C4F302524FF0000B0091022A06D058F8D5
:1033C000040BC117032A09D00AE023E008F1070023
:1033D00020F00702F2E80201904605E000B2C117B2
:1033E000042A01D140B2C117002906DA0A46002199
:1033F000404261EB02012D2202E0220504D52B227E
:103400008DF80420012203E0E20701D02022F7E733
:10341000914657E00A2100E010214FF0000B009187
:103420000BE010214FF0000B44F00404082700913A
:1034300003E008204FF0000B0090C4F30252022A70
:1034400005D058F8040B0021032A08D008E008F141
:10345000070020F00702F2E80201904603E080B284
:10346000042A00D1C0B24FF0000922072AD53278D1
:10347000702A07D0DDF800C08CF0100C5CEA0B0C51
:1034800005D00EE040228DF80420012208E050EA29
:10349000010306D030238DF804308DF80520022278
:1034A0009146009B83F0080353EA0B030AD150EACC
:1034B000010201D1620705D530228DF804204FF0BA
:1034C00001097F1E3278582A04D039A20C920CAA26
:1034D00002920BE03BA2F9E75B46009AFCF7DAFEAA
:1034E0000C9B9B5C029A521E0292137050EA0102DE
:1034F000F2D1029804A9081A00F1200B600702D546
:1035000024F4803400E001275F4502DDA7EB0B00C7
:1035100000E0002000EB0B01009003984944401AA2
:103520000390E00306D453462146179A039800F00F
:10353000A9F90544002706E001A85246C05D179985
:1035400090476D1C7F1C4F45F6DBE0030CD55346BE
:103550002146179A039800F095F9054404E03020BD
:103560005246179990476D1C0099481E00900029FB
:10357000F5DC08E00298029952460078491C029155
:10358000179990476D1CBBF10001ABF1010BF1DC09
:103590005BE100F065F90544761C307800287FF483
:1035A0000DAE19B02846BDE8F08F000009280100D3
:1035B00030313233343536373839616263646566A9
:1035C000000000003031323334353637383941426B
:1035D0004344454600000000600700D4062708F178
:1035E000070020F00700F0E80223804603F0004CBB
:1035F0005FEA0C0001D097A009E0200501D596A054
:1036000005E0E00701D095A001E0AFF24C00139077
:10361000307823F0004365280CD006DC452809D01B
:1036200046281DD047287FD13BE0662818D0672860
:103630007AD136E00021112F01DB112000E0781C47
:10364000CDE9000104A90CA8FFF7EEFCDDE90D01AE
:103650000C9A4FF0000B07F10109109200914EE017
:103660004FF000400097CDE9011004A90CA8FFF726
:10367000DBFCDDE90D020C9B0F994FF0000B91462E
:103680001093009211B9791C00EB0109B7EB090006
:1036900003D4C0F1FF3B07F10109A9EB070001903A
:1036A00042E0012F00DA01270021112F01DD112056
:1036B00000E03846CDE9000104A90CA8FFF7B4FCEE
:1036C000DDE90D010C9A00914FF0000BB946109204
:1036D00021070FD4009A4A4503DA914601E0A9F187
:1036E0000109B9F1010F05DD109AA9F10101515C41
:1036F0003029F4D0B84202DA10F1040F03DA0121C4
:10370000CDE9011010E0002803DC8344A9EB00019F
:1037100002E0411C494500DD8946A0EB0B00401C3E
:1037200001904FF000400290200705D401984845D1
:1037300002DB4FF0FF30019000208DF84B00029823
:103740000DF14B07B0F1004F25D002200C902B203B
:103750000D90029800280CDA404202902D200D9026
:1037600007E00A210298FCF71BFE3031029007F8AF
:10377000011D0C99481E0C900029F2DC02980028CB
:10378000EFD1791E0D980870307800F0200040F0DD
:10379000450007F8020D11A8C01BC01D0290139828
:1037A000007800B1012000EB0901019801EBE07104
:1037B000029801440398401A401E0390E00306D487
:1037C00053462146179A039800F05CF80544139875
:1037D000007818B15246179990476D1CE00323D525
:1037E00053462146179A039800F04CF805441BE015
:1037F000BBF1000F07DB0098584504DD10981799BE
:1038000010F80B0001E017993020524690470198BC
:103810000BF1010B401E05F10105019004D12E2092
:103820005246179990476D1CB9F10001A9F10109A1
:10383000DEDC05E017F8010B5246179990476D1C26
:103840000299481E02900029F4DC53462146179A3B
:1038500003989EE62D0000002B00000020000000D1
:103860002DE9F041044600251E461746880404D47D
:1038700005E039462020B0476D1C641EF9D5284666
:10388000BDE8F0812DE9F041044600251E46904632
:10389000C80301D5302700E02027880404D505E0BF
:1038A00041463846B0476D1C641EF9D52846BDE830
:1038B000F0814A68002A06D00A68531C0B60107019
:1038C0004868401E4860704710B500F085FA012036
:1038D00000F07AFEFF21002000F0A2FDFF21012070
:1038E00000F09EFDFF21022000F09AFDFF21032041
:1038F00000F096FDFF21042000F092FDFF2105203D
:1039000000F08EFD00F0CEFE10BD00001CB50024BE
:103910001C2001F041FA0446002C0BD10BA00E2113
:10392000164B17A2CDE9001022A1012000F07CFA6D
:1039300000201CBD0A212046FCF7F6FC0A2060612D
:103940000020E0602061A0612046F2E74661696CDA
:10395000656420746F20616C6C6F63617465206DA9
:10396000656D6F727920666F722063697263756C22
:10397000617220627566666572000000777A0008E1
:103980002E2E5C4D6964646C6577617265735C634F
:10399000697263756C61725F6275666665725C639D
:1039A000697263756C61725F6275666665722E63BB
:1039B0000000000043697263756C6172427566664F
:1039C000657200002DE9FF410746002003902D4855
:1039D000006860B92CA04FF48F71354B35A2CDE94A
:1039E00000103CA1012000F01FFABDE8FF8103A9EF
:1039F0002448006800F0F8FF58B939A040F22711B8
:103A00002B4B2CA2CDE9001032A1012000F00CFAC2
:103A1000EBE709240A210398B0FBF1F201FB120540
:103A20000026AC4204D204F10A00401B461C01E00F
:103A3000601B461C56B131461248006801F024F85C
:103A400003A91048006800F0CFFF0BE02BA040F264
:103A50004111174B17A2CDE900101EA1012000F063
:103A6000E3F9C2E7A12002900223002202A92A481A
:103A7000006803F07FFA012802D128A0FFF762FA5C
:103A800000BFB2E7E4000020476C6F62616C206306
:103A9000697263756C61722062756666657220700A
:103AA0006F696E746572206973204E554C4C00002E
:103AB000467A00082E2E5C4253505C5553415254B6
:103AC0005C6273705F756172745F6472697665724F
:103AD0002E630000434F4D504C45544500000000FC
:103AE000476574206865616420706F736974696FDD
:103AF0006E206661696C65640000000048616E6458
:103B00006C65206E656761746976652073686966A7
:103B100074206572726F7200E0000020446174616D
:103B20002073656E7420746F2071756575652073E0
:103B300075636365737366756C6C790D0A000000BC
:103B40002DE9FF410746002003902C48006858B932
:103B50002BA0E921344B35A2CDE900103BA1012077
:103B600000F062F9BDE8FF8103A92448006800F075
:103B70003BFF50B937A0F2212B4B2CA2CDE900100E
:103B800032A1012000F050F9ECE704240A21039847
:103B9000B0FBF1F201FB12050026AC4204D204F1A5
:103BA0000A00401B461C01E0601B461C56B1314612
:103BB0001248006800F068FF03A91048006800F090
:103BC00013FF0BE02AA040F20D11174B17A2CDE90D
:103BD00000102EA1012000F027F9C3E7A1200290D8
:103BE0000223002202A92C48006803F0C3F901282F
:103BF00002D12AA0FFF7A6F900BFB3E7E400002036
:103C0000476C6F62616C2063697263756C617220CE
:103C100062756666657220706F696E746572206980
:103C200073204E554C4C0000307A00082E2E5C421A
:103C300053505C55534152545C6273705F756172AE
:103C4000745F6472697665722E63000048414C4669
:103C500000000000476574206865616420706F7320
:103C60006974696F6E206661696C656400000000AC
:103C700048616E646C65206E656761746976652065
:103C80007368696674206572726F7200434F4D509D
:103C90004C45544500000000E00000204461746180
:103CA0002073656E7420746F20717565756520735F
:103CB00075636365737366756C6C790D0A0000003B
:103CC00070B586B00546002D1CD126480068002836
:103CD00011D140F2E110244924A229A3CDE9031017
:103CE000CDE9013200900B462EA238A1002000F051
:103CF0009BF800BFFEE740F2E1121B491BA0194BE5
:103D00001B68984700240526324890F8F00010B947
:103D1000304606B070BD00F093FA00241BE004EBBF
:103D200044112C483130084490F82000012810D16B
:103D300004EB4412274831301044411C1E2228460F
:103D4000FCF71FFB28B904EB441122483130465CD4
:103D500003E0601CC4B2052CE1DB00BF00F0A4FA54
:103D60003046D6E7CC0000204E7900087461672009
:103D7000213D202828766F6964202A2930290000F7
:103D8000282573292068617320617373657274201C
:103D90006661696C65642061742025733A256C64E2
:103DA0002E0000002E2E5C4D6964646C6577617294
:103DB00065735C656173796C6F676765725C73725C
:103DC000635C656C6F672E6300000000656C6F6755
:103DD00000000000704F002010B50024114890F83A
:103DE000F000012801D1204610BD00F089FA0446F8
:103DF0000CB12046F8E7012000F036FA002009490E
:103E000081F8F30081F8F400012000F0DDFB0520CB
:103E100000F084FA00F0E6FA0120024981F8F0008F
:103E20002046E1E7704F00200FB42DE9F04F8DB030
:103E300005460F469846DDF868903846FCF791FA3B
:103E4000824600244FF0020B00200B900C9007904C
:103E5000089009900A90052D1CDDCC4800680028C8
:103E600011D140F23F20CA49CAA2D1A3CDE9031023
:103E7000CDE9013200900B46D6A2E0A10020FFF769
:103E8000D3FF00BFFEE740F23F22C149C1A0BF4BB4
:103E90001B689847DB4890F8F10020B90DB0BDE8E9
:103EA000F00F5DF814FBD7480078A84204DB3846D1
:103EB000FFF706FFA84200DAF0E7D249491C38466E
:103EC000FCF73DFA00B9E9E71CA8069000F0B8F944
:103ED000CC4890F8F50078B1CB480119CBA2204628
:103EE00000F02CFC0444CA4850F82520C6480119AB
:103EF000204600F023FC04440121284600F0ECFC9D
:103F000040B1C44850F82520BF480119204600F0B0
:103F100015FC04440221284600F0DEFCE8B1BA4852
:103F200001193A46204600F009FC0444BAF10F0F8B
:103F30000CD8CAF10F01202207A8FCF7EEF9B2480D
:103F4000011907AA204600F0F9FB0444AE48011904
:103F5000B1A2204600F0F2FB04441C21284600F0E8
:103F6000BBFC002852D0A8480119ACA2204600F0A2
:103F7000E5FB04440421284600F0AEFCA8B100F0A3
:103F8000AFF90590A04801192046059A00F0D6FB2C
:103F900004441821284600F09FFC30B19A480119CA
:103FA0009DA2204600F0CAFB04440821284600F0E8
:103FB00093FCA8B100F08CF90590934801192046B4
:103FC000059A00F0BBFB04441021284600F084FC55
:103FD00030B18D48011990A2204600F0AFFB044497
:103FE0001021284600F078FC48B100F075F90590E2
:103FF000854801192046059A00F0A0FB0444824838
:10400000011987A2204600F099FB0444202128468C
:10401000189A00F0CDFC60B942464021284600F0D5
:10402000C7FC30B94A468021284600F0CFFC002862
:1040300062D0754801197BA2204600F07FFB044442
:1040400020212846189A00F0B3FC08B36E480119E5
:104050002046189A00F072FB04444246402128464C
:1040600000F0A6FC38B1684801196FA2204600F0A4
:1040700065FB04440CE04A468021284600F0A6FC7B
:1040800030B16148011964A2204600F057FB044496
:104090004A468021284600F099FCC8B14B4663A2ED
:1040A00005210BA8FEF75EFF574801190BAA204611
:1040B00000F044FB044442464021284600F078FCCE
:1040C00030B15148011954A2204600F037FB044496
:1040D00042464021284600F06BFC30B14A480119A5
:1040E0004246204600F02AFB04444748011950A2EA
:1040F000204600F023FB0444C4F58061424A1019B5
:10410000069B1B9AFEF748FF064600200690A01962
:10411000B0F5806F03D8002E01DB344401E04FF48A
:104120008064201D5844B0F5806F04D94FF480643A
:10413000241FA4EB0B04334890F8200058B1002052
:10414000314908552F4920312F48FCF7F8F810B9AC
:1041500000F0AAF8A2E62B4890F8F50030B12A4802
:10416000011934A2204600F0E9FA04442648011956
:1041700032A2204600F0E2FA04442146224800F030
:10418000C1F800F091F800BF88E60000CC000020E4
:10419000667900086C6576656C203C3D20454C4F87
:1041A000475F4C564C5F564552424F534500000006
:1041B00028257329206861732061737365727420E8
:1041C0006661696C65642061742025733A256C64AE
:1041D0002E0000002E2E5C4D6964646C6577617260
:1041E00065735C656173796C6F676765725C737228
:1041F000635C656C6F672E6300000000656C6F6721
:1042000000000000704F0020685000201B5B000081
:10421000B40000209C000020200000005B00000093
:104220005D200000280000003A000000256C6400BA
:10423000290000001B5B306D000000000D0A00002B
:1042400010B5084890F8F20030B100F064F8012091
:10425000044981F8F40003E00120024981F8F300E9
:1042600010BD0000704F002010B504460D4880F8C6
:10427000F24090F8F200A0B10A4890F8F40030B98A
:10428000084890F8F30010B100F045F809E005483F
:1042900090F8F40028B1034890F8F30008B900F052
:1042A0003BF810BD704F002010B5084890F8F200A0
:1042B00030B100F031F80020044981F8F40003E047
:1042C0000020024981F8F30010BD0000704F00206B
:1042D00000A070470000000000A070470000000030
:1042E00010B5FCF78FFE0446234603A210210348B5
:1042F000FEF738FE014810BD256400006854002018
:104300000020704770B504460D462A46214600201D
:10431000FEF7EAF870BD70477047000010B586B030
:104320000446052C1CDD10480068002811D140F21D
:104330005B100E490EA215A3CDE90310CDE90132A1
:1043400000900B461AA224A10020FFF76DFD00BFCC
:10435000FEE740F25B12054905A0034B1B68984736
:104360001F48047006B010BDCC0000202279000860
:104370006C6576656C203C3D20454C4F475F4C5644
:104380004C5F564552424F53450000002825732983
:104390002068617320617373657274206661696C53
:1043A00065642061742025733A256C642E0000003A
:1043B0002E2E5C4D6964646C6577617265735C6513
:1043C0006173796C6F676765725C7372635C656C4F
:1043D0006F672E6300000000656C6F6700000000CF
:1043E000704F002010B5002400BF13E004EB44120E
:1043F0000A491144481C1F21FBF796FF002104EBDA
:1044000044120648815404EB4412104480F82010F2
:10441000601CC4B2052CE9DB10BD0000A14F0020D8
:1044200030B585B004460D46052C1CDD10480068EB
:10443000002811D140F241100E490FA215A3CDE979
:104440000310CDE9013200900B461BA224A10020ED
:10445000FFF7EAFC00BFFEE740F24112054906A063
:10446000034B1B689847204840F8245005B030BDE6
:10447000CC000020057900086C6576656C203C3D19
:1044800020454C4F475F4C564C5F564552424F5368
:10449000450000002825732920686173206173732B
:1044A000657274206661696C65642061742025738F
:1044B0003A256C642E0000002E2E5C4D6964646CFD
:1044C0006577617265735C656173796C6F67676549
:1044D000725C7372635C656C6F672E630000000032
:1044E000656C6F67000000004850002010B586B072
:1044F0000446002C1ED0012C1CD011480068002856
:1045000011D14FF48B700F490FA219A3CDE90310FD
:10451000CDE9013200900B461EA228A10020FFF732
:1045200083FC00BFFEE74FF48B72064906A0044BE4
:104530001B689847234880F8F14006B010BD000082
:10454000CC000020D178000828656E61626C65643B
:10455000203D3D2066616C736529207C7C202865A8
:104560006E61626C6564203D3D2074727565290042
:104570002825732920686173206173736572742024
:104580006661696C65642061742025733A256C64EA
:104590002E0000002E2E5C4D6964646C657761729C
:1045A00065735C656173796C6F676765725C737264
:1045B000635C656C6F672E6300000000656C6F675D
:1045C00000000000704F002010B586B00446002C9B
:1045D0001ED0012C1CD011480068002811D14FF4C6
:1045E00091700F490FA219A3CDE90310CDE9013253
:1045F00000900B461EA228A10020FFF715FC00BF6B
:10460000FEE74FF49172064906A0044B1B689847D9
:10461000234880F8F54006B010BD0000CC00002013
:10462000E978000828656E61626C6564203D3D2074
:1046300066616C736529207C7C2028656E61626CE4
:104640006564203D3D207472756529002825732915
:104650002068617320617373657274206661696C90
:1046600065642061742025733A256C642E00000077
:104670002E2E5C4D6964646C6577617265735C6550
:104680006173796C6F676765725C7372635C656C8C
:104690006F672E6300000000656C6F67000000000C
:1046A000704F00200EB50B4890F8F00000B90EBD19
:1046B0000120FFF71BFF08A009A1F722124BCDE94B
:1046C0000021029011A21BA10320FFF7ADFB00BF48
:1046D000EDE70000704F0020322E322E39390000F5
:1046E000456173794C6F6767657220562573206941
:1046F0007320696E697469616C697A65207375638A
:10470000636573732E000000BC7800082E2E5C4D8C
:104710006964646C6577617265735C656173796CFB
:104720006F676765725C7372635C656C6F672E633D
:1047300000000000656C6F6700000000F0B585B0F8
:1047400006460D4614462746002D1AD12448006817
:10475000002810D12C20234923A224A3CDE9031043
:10476000CDE9013200900B4629A234A10020FFF7C9
:104770005BFB00BFFEE72C221A491BA0184B1B68ED
:104780009847002C19D11648006880B92D2015498A
:104790002CA216A3CDE90310CDE9013200900B46FF
:1047A0001BA226A10020FFF73FFB00BFFEE72D2242
:1047B0000C4924A00A4B1B6898470AE03046761C37
:1047C000B0F5806F04D214F8010B05F8010B00E07E
:1047D00002E020780028F1D100BFE01B05B0F0BD59
:1047E000CC0000209E79000864737400282573298A
:1047F0002068617320617373657274206661696CEF
:1048000065642061742025733A256C642E000000D5
:104810002E2E5C4D6964646C6577617265735C65AE
:104820006173796C6F676765725C7372635C656CEA
:104830006F675F7574696C732E630000656C6F67DA
:10484000000000007372630070B504460D46E1B2CB
:104850000020FDF709FE204670BD00001CB504468F
:104860005CB908A074210E4B0EA2CDE9001015A171
:104870000120FFF7D9FA00201CBD1648006820600F
:104880000120F9E7506F696E74657220746F2070B3
:104890006F696E746572206973204E554C4C000030
:1048A000E27900082E2E5C4253505C55534152541D
:1048B0005C6273705F756172745F64726976657251
:1048C0002E6300006273705F756172745F64726959
:1048D00076657200E400002030B585B004460D46D0
:1048E000052C1CDD13480068002811D14FF43870E6
:1048F000114912A218A3CDE90310CDE901320090AD
:104900000B461EA227A10020FFF78EFA00BFFEE78C
:104910004FF43872084909A0064B1B689847234892
:1049200050F82400284010B1012005B030BD00200F
:10493000FBE70000CC000020727900086C6576650A
:104940006C203C3D20454C4F475F4C564C5F5645D4
:1049500052424F5345000000282573292068617397
:1049600020617373657274206661696C656420618F
:10497000742025733A256C642E0000002E2E5C4DA9
:104980006964646C6577617265735C656173796C89
:104990006F676765725C7372635C656C6F672E63CB
:1049A00000000000656C6F670000000048500020A8
:1049B00070B505460E46144634B131462846FFF719
:1049C0008BFF08B1012070BD0020FCE770B50546E3
:1049D0000E46144634B131462846FFF77DFF08B134
:1049E000012070BD0020FCE77CB505460C460DB1EA
:1049F000002C0BD107A09321114B12A2CDE900107E
:104A00001DA10120FFF710FA00207CBDE86820609E
:104A10000120FAE742756666657220706F696E74F0
:104A20006572206F7220686561645F706F732070BB
:104A30006F696E746572206973204E554C4C00008E
:104A4000C97A00082E2E5C4D6964646C65776172CA
:104A500065735C63697263756C61725F62756666CB
:104A600065725C63697263756C61725F62756666BC
:104A700065722E630000000043697263756C617299
:104A800042756666657200007CB504460D465CB9E9
:104A90000FA09F21144B15A2CDE9001020A10120E9
:104AA000FFF7C2F900207CBDE06828446169B0FBD3
:104AB000F1F201FB1200E060204600F0F5F810B1C1
:104AC0000120A06101E00020A0610120EBE70000CF
:104AD00042756666657220706F696E7465722069D2
:104AE00073204E554C4C0000D67A00082E2E5C4D9B
:104AF0006964646C6577617265735C636972637520
:104B00006C61725F6275666665725C63697263751B
:104B10006C61725F6275666665722E6300000000EC
:104B200043697263756C61724275666665720000F6
:104B30007CB504460D465CB916A065211B4B1CA232
:104B4000CDE9001027A10120FFF76EF9FF207CBD01
:104B5000204600F0A9F858B126A06B21134B14A2EF
:104B6000CDE900101FA10120FFF75EF90020EEE75C
:104B7000E0682554E068401C6169B0FBF1F201FB7C
:104B80001200E060204600F08FF808B10120A0611B
:104B90000120DCE742756666657220706F696E748D
:104BA0006572206973204E554C4C0000B37A0008A2
:104BB0002E2E5C4D6964646C6577617265735C630D
:104BC000697263756C61725F6275666665725C635B
:104BD000697263756C61725F6275666665722E6379
:104BE0000000000043697263756C6172427566660D
:104BF000657200004275666665722069732066758D
:104C00006C6C2C2063616E6E6F7420696E736572BC
:104C100074206461746100001CB504465CB90AA08C
:104C20002B210F4B0FA2CDE900101BA10120FFF794
:104C3000FBF8FF201CBDD4E90301884201D101200B
:104C4000F8E70020F6E7000042756666657220709E
:104C50006F696E746572206973204E554C4C00006C
:104C6000947A00082E2E5C4D6964646C65776172DD
:104C700065735C63697263756C61725F62756666A9
:104C800065725C63697263756C61725F627566669A
:104C900065722E630000000043697263756C617277
:104CA00042756666657200001CB504465CB914A0C6
:104CB0004421194B19A2CDE9001025A10120FFF7CD
:104CC000B3F8FF201CBDE068401C6169B0FBF1F245
:104CD00001FB1200D4E90412B1FBF2F302FB131141
:104CE00088420BD11EA04A210B4B0CA2CDE900102B
:104CF00017A10320FFF798F80120E3E70020E1E780
:104D000042756666657220706F696E74657220699F
:104D100073204E554C4C0000A47A00082E2E5C4D9A
:104D20006964646C6577617265735C6369726375ED
:104D30006C61725F6275666665725C6369726375E9
:104D40006C61725F6275666665722E6300000000BA
:104D500043697263756C61724275666665720000C4
:104D60004275666665722069732066756C6C00001A
:104D7000FCF75AF9FDF730FCFDF724FBFDF7DCFAF0
:104D8000FDF752FBFEF7A0FD00F04CF8FDF7F0FA3E
:104D900000F05EF800BFFEE7F0B50B30154D20F0D7
:104DA00007010024144A0FE003688B420BD38B42A7
:104DB00005D95E1A43184768C3E9006700E04368F5
:104DC000136002C004E0021D10680028ECD12046E8
:104DD000002802D1286808B10020F0BD064A074823
:104DE0001060074A121A22F00702C0E900240120CD
:104DF0002860D7E7F4000020F00000209454002041
:104E00009056002070B50546FEF7FCF810B16FF023
:104E1000050404E0002415B1284601F0F7FC204603
:104E200070BD000010B5FEF7EDF810B16FF005048D
:104E300009E00648006820B9012004490860002400
:104E400001E04FF0FF34204610BD00006C00002050
:104E500070B5FEF7D7F810B16FF005041FE01148E8
:104E60000068012819D100BF801F0021002804DB41
:104E70000A07130E0C4A135406E00A07150E0B4AD4
:104E800000F00F031B1FD55400BF00BF02200549CF
:104E9000086001F037FD002401E04FF0FF342046A8
:104EA00070BD00006C00002000E400E018ED00E0A0
:104EB0002DE9FF4780468946144600200390FEF7FF
:104EC000A1F800284ED1B8F1000F4BD0802618254C
:104ED0008246471E44B3206808B1D4F800A0A069F8
:104EE00000B1A5692DB1382D03D8207900F001005B
:104EF00018B1002004B0BDE8F087606908B16069AE
:104F00008608A06840B1E0685C2805D3206918B124
:104F1000606908B1012708E0A06830B9E06820B9ED
:104F2000206910B9002700E00027012F0CD121696A
:104F3000A0684B463246CDE90051029051464046AA
:104F400002F0C2F903900DE067B903A8B2B24B4674
:104F50005146CDE90050404602F084F9012801D0C5
:104F6000002003900398C5E72DE9F04105460E4661
:104F70001648076816480068001D01F0BFFA681C53
:104F800038B936B112480168091D124801F00CFB0E
:104F90001AE07C190E4800684460BC4207D20C48F5
:104FA0000168091D0C48006801F0E4FA0CE00848AB
:104FB0000168091D0948006801F0DCFA084800682A
:104FC000844201D206480460BDE8F0813000002030
:104FD0001C000020D4060020240000202000002017
:104FE0004C00002010B5044601F0EAFA244800689D
:104FF000401C234908602348006840B921480460E8
:105000000846006801280DD100F0FCF90AE01E48AE
:10501000006838B91B480068C06AE16A884201D854
:105020001848046019480068401C18490860084680
:10503000006860641649E06A0968884202D9144928
:10504000E06A0860E16A01EB8101124A02EB81002B
:10505000211D01F0A9FA01F0DDFA0B48006868B1E2
:1050600008480068C06AE16A884207D24FF0805061
:1050700009490860BFF34F8FBFF36F8F10BD000069
:105080002C0000201C0000203800002048000020D8
:10509000340000202402002004ED00E008B501F0F7
:1050A0008FFA12480068E8B9114801F053FA114824
:1050B00001F050FA0E48104908600E480F49086088
:1050C00000200F4B0F4A102100900A2001F0C1FD73
:1050D000064908600846006820B10BA10348006833
:1050E00001F058FB01F096FA08BD000060000020B6
:1050F000E8060020FC060020580000205C0000208C
:105100001007002060070020546D7251000000005D
:1051100010B516E001F054FA0C48C068C468201DB0
:1051200001F0ECF90A480068401E09490860094886
:105130000068401E0749086001F06CFA204600F044
:105140005FF8044800680028E4D110BDC0060020C4
:105150002C0000202800002070B504460D46206C6D
:1051600070B1216CE0680144E160D4E9021088422A
:1051700001D32168E1602846226CE168FBF7BBF8A7
:1051800070BD2DE9F04104460F4615464FF000086A
:10519000A66B206C48B9206800282CD1A06802F0CA
:1051A000A9F980460020A06025E07DB93946226C2F
:1051B0006068FBF7A0F8216C606808446060D4E97F
:1051C0000101884217D32068606014E03946226CE0
:1051D000E068FBF790F8216CE068411AE160216813
:1051E000E068884203D2216CA068411AE160022D78
:1051F00001D106B1761E701CA0634046BDE8F08167
:1052000010B5044694F8590030B9206B01F020FA2B
:10521000204601F01DFA1AE094F85900012803D144
:10522000204601F015FA12E094F85900022801D145
:10523000012000E0002050B900BF502080F3118809
:10524000BFF34F8FBFF36F8F00BF00BFFEE710BDEE
:105250000146084A126812680AB9012200E00022D9
:105260000A600A6822B9034A1268D268106800E02E
:10527000002070475800002030B54FF47053174895
:1052800000F007042CB1C01D20F00700134C041BD4
:105290001B1B0246124C22600024114D6C60D0187A
:1052A000083820F007000F4C206000240D4D2D68B9
:1052B0006C600C4D2D682C601146441A4C60094CF2
:1052C00024680C60084D4C682C60084D4C682C60BC
:1052D0004FF00044064D2C6030BD0000B80E002099
:1052E0007000002078000020800000207C0000205A
:1052F0008C00002000BFFFF70BFF06480068012864
:10530000F9D94FF0805004490860BFF34F8FBFF3C5
:105310006F8FF0E72402002004ED00E02DE9F0415A
:1053200006460D4617469846069C0DB9246000E0D7
:105330002760E66325640121204601F0FBFC84F828
:105340004C80BDE8F0812DE9F05F82460E46904624
:105350009B460A9F0C9C4FEA8801A522206BFAF716
:10536000DCFFA8F10100216B01EB800929F007099E
:1053700009F0070008B9012000E0002050B900BF83
:10538000502080F31188BFF34F8FBFF36F8F00BFA2
:1053900000BFFEE786B1002507E0715D04F134002F
:1053A0004155705D00B902E06D1C102DF5D300BFB2
:1053B00000214320015502E0002084F83400382FFA
:1053C00000D33727E762E76400202065201D01F045
:1053D000CEF804F1180001F0CAF82461C7F13800D2
:1053E000A06164620020606584F858005A46514606
:1053F000484600F071FB20600B9808B10B980460E0
:10540000BDE8F09F10B5002407E004EB84010F4ACB
:1054100002EB810001F09EF8641C382CF5D30C4897
:1054200001F098F80B4801F095F80B4801F092F85C
:105430000A4801F08FF80A4801F08CF8044809493D
:10544000086004480849086010BD000024020020DC
:105450008406002098060020AC060020C00600202C
:10546000D4060020200000202400002010B50146B2
:10547000164800E0006803688B42FBD3024643688D
:1054800013448B4204D143684C6823444360014673
:105490000A464B6813440468A34211D10C4C0368BC
:1054A0002468A34208D04B680468646823444B60B6
:1054B00003681B680B6005E0054B1B680B6001E08F
:1054C00003680B60884200D0016010BD70000020AE
:1054D000780000202DE9F04104460D4616461F468F
:1054E0004FF0000865602461B5420CD8F01BA1693B
:1054F000884202D34FF0010811E0211D09480068DD
:1055000001F038F80BE0BE4204D2BD4202D34FF0A6
:10551000010804E0211D0448006801F02BF8404612
:10552000BDE8F0815C0000205800002070B5054601
:1055300001F046F8A86B08B9012400E0002401F04E
:1055400069F8204670BD70B5054601F039F8A86BC2
:10555000E96B884201D1012400E0002401F05AF8EF
:10556000204670BDF8B505460F461A480068C06869
:10557000C468201D00F0C2FF94F8280000F0040069
:10558000E8B1A06941192B463A462046FFF7A2FF31
:10559000D8B1002003462A4601460090204602F07A
:1055A00005F9064656B900BF502080F31188BFF3B5
:1055B0004F8FBFF36F8F00BF00BFFEE705E094F889
:1055C000280020F0010084F828002046216A88473E
:1055D000F8BD000058000020F0B587B0A0E00398A7
:1055E000002811DA04AE56B900BF502080F31188AC
:1055F000BFF34F8FBFF36F8F00BF00BFFEE7D6E949
:105600000020B168904700BF03980028E6DB059CA6
:10561000606908B9012000E0002010B9201D00F0E9
:105620006DFF02A800F0DEF8054603980A2875D23F
:10563000DFE800F009050739416306083A4200BF78
:1056400000BF00BF00BF94F8280040F0010084F8BC
:1056500028000498A269811803462A462046FFF7CD
:1056600039FFF8B12046216A884794F8280000F0F5
:105670000400B8B1002000900498A16942180023EA
:105680001946204602F092F8074657B900BF50204D
:1056900080F31188BFF34F8FBFF36F8F00BF00BF40
:1056A000FEE700BF3BE000BF94F8280020F00100B7
:1056B00084F8280033E000BF94F8280040F001008F
:1056C00084F828000498A061A06908B1012000E0D6
:1056D000002050B900BF502080F31188BFF34F8FD6
:1056E000BFF36F8F00BF00BFFEE7A06941192B46D3
:1056F0002A462046FFF7EEFE11E094F8280000F05D
:10570000020018B9204600F0A3FF05E094F8280035
:1057100020F0010084F8280001E0FFE700BF00BF8F
:10572000002203A90448006801F0A2FC00287FF4CD
:1057300056AF07B0F0BD000060000020F8B5054688
:105740000C4601F03BF9684600F04CF8064600981C
:1057500020BB44B9B54206D801F06AFF314628465D
:10576000FFF700FF1CE03CB10E480068006808B974
:10577000012000E000200446A91B22460A480068D8
:1057800001F01EF801F054FF50B94FF08050074966
:105790000860BFF34F8FBFF36F8F01E001F048FF48
:1057A000F8BD00005C0000206000002004ED00E077
:1057B0000A490968096809B9012100E0002121B1FD
:1057C0004FF0FF31064A116006E004490968C968D4
:1057D000C868034A4168116070470000200000203B
:1057E0004C00002070B5044601F0DCFD054607487A
:1057F0000068854204D200F00BF80120206001E02F
:105800000020206001480560284670BD6800002027
:105810002DE9F84334E025480068C068056823484E
:105820000068C068C468201D00F068FE2046216A38
:10583000884794F8280000F0040008B3A0694619CE
:10584000AE4207D966602461211D1848006800F047
:1058500091FE15E0002003462A46014600902046AE
:1058600001F0A4FF074657B900BF502080F311880C
:10587000BFF34F8FBFF36F8F00BF00BFFEE700BFC6
:105880000A480068006808B9012000E000200028EC
:10589000C1D00648D0F80080054800680349086078
:1058A0000348C0F80080BDE8F883000058000020DD
:1058B0005C0000200E480068401C08B9012000E090
:1058C000002050B900BF502080F31188BFF34F8FE4
:1058D000BFF36F8F00BF00BFFEE700BF502080F313
:1058E0001188BFF34F8FBFF36F8F00BF00BFFEE77C
:1058F0009000002008B500BF6846FFF7A9FC0446E9
:1059000020460099FFF71AFFFFF766FEF4E770B52F
:10591000044600F055FE94F9455010E0606A08B95D
:10592000012000E0002038B904F1240001F034FE29
:1059300018B100F0A5FF00E003E0681E45B2002D9D
:10594000ECDC00BFFF2084F8450000F063FE00F0AF
:1059500037FE94F9445010E0206908B9012000E0B6
:10596000002048B904F1100001F016FE08B100F063
:1059700087FF681E45B200E001E0002DECDC00BFAF
:10598000FF2084F8440000F045FE70BD2DE9F04191
:1059900004464FF0000801F011F84948006808B9C2
:1059A000FFF76AFC474800682040002870D1D4B156
:1059B000083404F00700B0B104F00700C0F108009B
:1059C000044404F0070008B9012000E0002050B9A9
:1059D00000BF502080F31188BFF34F8FBFF36F8F4C
:1059E00000BF00BFFEE7002C52D037480068844259
:1059F0004ED8364E3046056801E02E462D68686860
:105A0000A04202D228680028F7D12D4800688542BC
:105A10003ED0306800F10808286830606868001BD4
:105A2000102819D92F1907F0070008B9012000E044
:105A3000002050B900BF502080F31188BFF34F8F72
:105A4000BFF36F8F00BF00BFFEE76868001B786080
:105A50006C603846FFF70AFD1B4968680968081A38
:105A6000194908600846006819490968884203D244
:105A700015480068164908601249686809680843B3
:105A800068600020286013480068401C11490860C5
:105A900001F0CEFD08F0070008B9012000E0002069
:105AA00050B900BF502080F31188BFF34F8FBFF370
:105AB0006F8F00BF00BFFEE74046BDE8F0810000E9
:105AC000780000208C0000207C0000207000002066
:105AD0008000002084000020001F4FF080730360CE
