:020000040800F2
:10000000185A0020710200086D1D00088F1C00089E
:10001000691D00087F080008CD24000800000000CA
:10002000000000000000000000000000B101000816
:1000300083080008000000000D020008BD1E000833
:100040008B0200088B0200088B0200088B0200085C
:100050008B0200088B0200088B0200088B0200084C
:100060008B0200088B0200088B0200088B0200083C
:100070008B0200088B0200088B0200088B0200082C
:100080008B0200088B0200088B02000800000000B1
:100090000000000000000000000000008B020008CB
:1000A0008B020008991F00088B0200088B020008D1
:1000B0008B0200088B0200088B0200088B020008EC
:1000C0008B0200088B0200088B0200088B020008DC
:1000D0008B020008BD2400088B020008000000000D
:1000E0008B0200088B0200088B0200080000000051
:1000F0000000000000000000000000008B0200086B
:10010000000000008B0200088B0200088B02000830
:1001100000000000000000000000000000000000DF
:100120008B0200088B0200088B0200088B0200087B
:100130008B0200080000000000000000000000002A
:100140000000000000000000000000008B0200081A
:100150008B0200088B0200088B0200088B0200084B
:100160008B0200088B020008000000000000000065
:10017000000000000000000000000000000000007F
:10018000000000008B0200080000000000000000DA
:100190008B0200088B020008DFF810D000F0EEFAA6
:1001A0000048004715400008AFF30080185A0020AF
:1001B0002C4B19680868B0E8F04F80F30988BFF34A
:1001C0006F8F4FF0000080F311887047000000002F
:1001D00008480068006880F308884FF0000080F34A
:1001E000148862B661B6BFF34F8FBFF36F8F00DF25
:1001F00000BF00BF08ED00E0DFF80C00016841F42B
:1002000070010160704700BF88ED00E0EFF30980E6
:10021000BFF36F8F134B1A681EF0100F08BF20ED4D
:10022000108A20E9F04F106009B44FF0500080F3BD
:100230001188BFF34F8FBFF36F8F05F0BFFB4FF0F7
:10024000000080F3118809BC19680868B0E8F04F15
:100250001EF0100F08BFB0EC108A80F30988BFF3BE
:100260006F8F70471C000020EFF30580704700007F
:100270000648804706480047FEE7FEE7FEE7FEE740
:10028000FEE7FEE7FEE7FEE7FEE7FEE7851F000864
:10029000990100082DE9F05F0546002092469B4633
:1002A00088460646814640241BE02846414647468C
:1002B000224600F09AF853465A46C01A914110D38C
:1002C00011461846224600F081F82D1A67EB010806
:1002D0004F4622460120002100F078F817EB000974
:1002E0004E41201EA4F10104DFDC484631462A4677
:1002F0004346BDE8F09F40EA01039B0703D009E0B5
:1003000008C9121F08C0042AFAD203E011F8013B01
:1003100000F8013B521EF9D27047D2B201E000F85A
:10032000012B491EFBD270470022F6E710B5134699
:100330000A4604461946FFF7F0FF204610BD30B5C7
:1003400005462A460B4612F8010B13F8014B08B17B
:10035000A042F8D01CB1002802D06D1CF1E728465D
:1003600030BD421C10F8011B0029FBD1801A7047D8
:10037000034611F8012B00F8012B002AF9D1184689
:10038000704730B505460020034600E05B1C9342F1
:1003900005D2EC5CC85C201A01D1002CF6D130BD2E
:1003A00030B50B46014600202022012409E021FA45
:1003B00002F59D4205D303FA02F5491B04FA02F542
:1003C0002844151EA2F10102F1DC30BD202A04DB15
:1003D000203A00FA02F1002070479140C2F1200358
:1003E00020FA03F3194390407047202A04DB203A97
:1003F00021FA02F00021704721FA02F3D040C2F145
:10040000200291400843194670472DE9FE4F80466F
:1004100081EA0300C00F0C46009021F0004123F058
:100420000045B8EB0200A94105D24046214690465E
:100430001C460B46024623F00040104347D0270DD0
:10044000C7F30A00C3F30A510290401A01904028F2
:100450006BDAC3F3130040F4801B0098924620B17E
:100460000023D2EB030A63EB0B0B01985946C0F152
:1004700040025046FFF7AAFF06460D465046594631
:10048000019A00F08DF910EB08006141002487EA21
:10049000115284EAE7731A4340D0009A62B3019A7A
:1004A000012A4FEA075215DC001B61EB02014FF0F5
:1004B000004202EA0752CDE90042001C41F58011DA
:1004C00032462B4600F08DF903B0BDE8F08F404670
:1004D0002146F9E7001B61EB0201001C41F5801386
:1004E00000185B412018A2F5001747EB030140EA12
:1004F000D570B6196D4111E06D084FEA360645EA30
:10050000C0754FEA0752001B61EB0201001C41F568
:10051000801149084FEA30000019514132462B46FC
:1005200003B0BDE8F04F00F04DB900980122400043
:100530000023D0EB020263EBE073009821464FEA00
:10054000E074B8EB000061EB0401E9E783F00043DD
:100550005BE781F0004158E72DE9FE4F81EA030493
:1005600004F0004421F0004100944FF0000B23F010
:10057000004350EA01045ED052EA03045BD0C3F3A7
:100580000A54C1F30A552C44A4F2F3340194A0FB9D
:100590000254C1F3130141F48011C3F3130343F474
:1005A000801301FB024400FB034E840A970A44EACD
:1005B000815447EA8357A4FB076802958D0A05FB1F
:1005C00007854FEA932C04FB0C542705029D4FEA44
:1005D000065847EA1637B5EB08056EEB070C870E91
:1005E000920E47EA811742EA8312A7FB0201B6EB9B
:1005F0000B0164EB00042B0D43EA0C335E1844EB53
:100600001C50DA465146E7FB0201C5F313044FEADA
:100610000B3343EA14534FEA0432019C43EA0603C6
:10062000A4F10C040294009CCDE900B400F0D9F8C8
:1006300003B0BDE8F08F00200146F9E72DE9F04D49
:1006400081EA030404F0004B21F0004514464FF00A
:10065000000A23F0004150EA050220D054EA0102CA
:100660001DD0C5F30A570246C5F31303C1F31300A7
:10067000C1F30A5640F4801543F48013A7EB060833
:10068000101BD64608F2FD3873EB050002D308F1C3
:10069000010801E092185B41B8F1000F03DA002075
:1006A0000146BDE8F08D00204FF4801106468446D7
:1006B0000EE0171B73EB050705D3121B63EB050355
:1006C00006434CEA010C49084FEA300092185B419E
:1006D00050EA0107EDD152EA030012D082EA040089
:1006E00083EA0501084305D0101BAB4106D2012265
:1006F000002306E000224FF0004302E06FF0010209
:1007000053101AEB06004CEB085110EB0A0041EBBA
:100710000B01BDE8F04D00F055B8C1F30A52C1F32A
:10072000130140F2FF3341F480119A4202DA0020B3
:100730000146704740F233439A42A2F2334202DC50
:100740005242FFF752BEFFF741BE000030B5041E13
:1007500071F1000404DB4FF00044404264EB0101FE
:10076000141E73F1000405DB1C464FF00043524297
:1007700063EB0403994208BF904230BD064C074D1D
:1007800006E0E06840F0010394E807009847103461
:10079000AC42F6D3FFF704FDC46A0008E46A00081F
:1007A000202A06DBCB17203A41FA02F043EAE07335
:1007B00006E041FA02F3D040C2F120029140084322
:1007C0001946704710B5141E73F1000408DA401C76
:1007D00041F1000192185B411A4301D120F0010060
:1007E00010BD2DE9F04D92469B4611B1B1FA81F250
:1007F00002E0B0FA80F220329046FFF7E7FD0446AF
:100800000F4640EA0A0041EA0B0153465A460843A4
:1008100013D0114653EA010019D0C8F140025046E6
:10082000FFF7E3FD05460E46504659464246FFF7A0
:10083000CDFD084305D0012004E020463946BDE83F
:10084000F08D0020054346EAE0762C4337430A98B2
:100850006305E40AA0EB08000022FD0A44EA4754BD
:100860000A3002D500200146E9E701051019694167
:10087000DDE9084500196941BDE8F04DA2E700BF78
:10088000FEE7704772B600BFFEE770B50446A56D7F
:1008900000F04AF9064694F83500022808D0802076
:1008A000606500BF002084F8340000BF012070BDE7
:1008B0002068006820F01600216808602068406900
:1008C00020F0800021684861206C08B9A06C28B134
:1008D0002068006820F0080021680860206800682F
:1008E00020F001002168086010E000F01DF9801B75
:1008F00005280BD920206065032084F8350000BF4F
:10090000002084F8340000BF0320D0E7206800688E
:1009100000F001000028E8D194F85C103F208840E6
:10092000A860012084F8350000BF002084F834005E
:1009300000BF00BFBBE7014691F83500022803D095
:100940008020486501207047052081F8350008683F
:10095000006820F001000A6810600020F3E7000042
:10096000F8B502460B460025002400200021C7E010
:10097000012606FA01F51E6806EA0504AC4274D1A8
:100980001E7906F00306012E04D01E7906F0030638
:10099000022E13D190684F000326BE40B0434F0093
:1009A000DE68BE4030439060506801268E40B04300
:1009B0001E79C6F300168E40304350601E7906F053
:1009C0000306032E09D0D0684F000326BE40B04373
:1009D0004F009E68BE403043D0601E7906F003068B
:1009E000022E13D1CF0802F1200656F827004E0739
:1009F000F70E0F26BE40B0434F07FF0E1E69BE40E4
:100A00003043CF0802F1200646F8270010684F0057
:100A10000326BE40B0431E7906F003064F00BE40D9
:100A2000304310605E6806F44036002E67D000BF89
:100A300000260096344E366846F48046324F3E60BB
:100A40003E46366806F48046009600BF00BF2F4E33
:100A50008F0856F827008E07370F0F26BE40B04389
:100A60002B4EB24202D1002615E048E0294EB24298
:100A700001D101260FE0284EB24201D102260AE040
:100A8000264EB24201D1032605E0254EB24201D1E5
:100A9000042600E007268F073F0FBE4030431B4E61
:100AA0008F0846F827001F4E3068A0435E6806F4A2
:100AB000801606B120431B4E3060361D3068A043BF
:100AC0005E6806F4001606B12043164E361D3060EF
:100AD000144E361F3068A0435E6806F4003606B137
:100AE0002043104E361F3060361F3068A0435E68CA
:100AF00006F4803606B120430A4E083E3060491C99
:100B00001029FFF435AFF8BD4438024008380140E1
:100B1000000002400004024000080240000C0240B5
:100B200000100240083C0140014800687047000086
:100B30000C00002003480068034909780844014973
:100B4000086070470C0000201400002010B50D480C
:100B5000006840F400700B4908600846006840F4E3
:100B6000806008600846006840F4807008600320D8
:100B700000F0D2F80F2000F007F800F055F8002040
:100B800010BD0000003C0240F0B587B004460026CE
:100B9000002700BF002000901E48006840F00100C0
:100BA0001C4908600846006800F00100009000BF82
:100BB00000BF01A902A800F085F900F0BBF90646C4
:100BC0001548B6FBF0F0471E14481549086040F27E
:100BD000E7311348C1604760002101618160816194
:100BE00000F060FC054695B90D4800F08FFC054605
:100BF0006DB9192000F042F8102C07D200222146CE
:100C0000192000F04BF80748046000E00125284651
:100C100007B0F0BD4438024040420F0000000140E0
:100C20003C0100201000002008B500BF002000900B
:100C30001148006840F480400F4908600846006889
:100C400000F48040009000BF00BF00BF0020009073
:100C5000081F006840F08050091F086008460068BF
:100C600000F08050009000BF00BF00220F21901EB6
:100C700000F014F808BD0000443802400146084660
:100C8000002809DB00F01F0301229A4043099B0062
:100C900003F1E023C3F8002100BF70472DE9F05FA6
:100CA00080460D461646002701F004FD07463946EA
:100CB0002A46334601F00700C0F1070ABAF1040FD3
:100CC00002D94FF0040A01E0C0F1070AD14600F151
:100CD000040ABAF1070F02D24FF0000A01E0A0F1B6
:100CE000030AD4464FF0010A0AFA09FAAAF1010AE6
:100CF0000AEA020A0AFA0CFA4FF0010B0BFA0CFB93
:100D0000ABF1010B0BEA030B4AEA0B042146404608
:100D100001F0D8FCBDE8F09F00BF00F00702064BD1
:100D200019684FF6FF031940044B0B4343EA0221B5
:100D3000014B196000BF70470CED00E00000FA05A0
:100D400070B504460D460CB9012070BD58480068C6
:100D500000F00700A84209D255490D700846006806
:100D600000F00700A84201D00120EEE7207800F053
:100D7000020002281DD1207800F00400042805D1CB
:100D80004C48006840F4E0504A490860207800F080
:100D90000800082805D14748006840F460404549EC
:100DA00008604448006820F0F000A1680843414909
:100DB0000860207800F00100A8B36068012807D11E
:100DC0003C4808380068C0F34040B8B90120BCE78F
:100DD0006068022802D06068032807D135480838C7
:100DE0000068C0F3406048B90120AEE731480838D8
:100DF0000068C0F3400008B90120A6E72D4800684C
:100E000020F00300616808432A490860FFF78CFE60
:100E1000064609E0FFF788FE801B41F288318842D0
:100E200002D9032091E707E02248006800F00C0097
:100E30006168B0EB810FEDD11D48006800F007003C
:100E4000A84209D91A490D700846006800F0070049
:100E5000A84201D0012078E7207800F0040004289F
:100E600007D11448006820F4E050E16808431149B4
:100E70000860207800F00800082808D10D480068B4
:100E800020F46040216940EAC1000A49086000F08E
:100E900061F808490968C1F30311074A515CC84069
:100EA0000649086006480068FFF76EFE00204CE720
:100EB000003C0240083802408C68000818000020FE
:100EC000100000200F2202600D4A126802F0030297
:100ED00042600B4A126802F0F0028260084A12680F
:100EE00002F4E052C260064A126802F46042D2087C
:100EF0000261044A126802F007020A6070470000AB
:100F000008380240003C0240014800687047000079
:100F10001800002000B5FFF7F7FF04490968C1F386
:100F20008221034A515CC84000BD000008380240DD
:100F30009C68000800B5FFF7E7FF04490968C1F3A2
:100F40004231034A515CC84000BD000008380240ED
:100F50009C6800082DE9F047002400250026A146E2
:100F60002548006800F00C0020B1042805D00828AE
:100F70003AD105E0DFF8849039E0DFF8849036E07C
:100F80001D48001F006800F03F041B48001F006858
:100F900000F4800078B11A481749091F0968C1F3A5
:100FA0008811A0FB01700146224600233846FFF756
:100FB00071F905460EE011480F49091F0968C1F390
:100FC0008811A0FB01700146224600233846FFF736
:100FD00061F905460848001F0068C0F30140401C45
:100FE0004600B5FBF6F902E0DFF8109000BF00BF45
:100FF0004846BDE8F0870000083802400024F400AD
:1010000040787D01F8B504460CB90120F8BD207880
:1010100000F00100002874D0F948006800F00C00CE
:1010200004280DD0F648006800F00C00082813D101
:10103000F348001F006800F48000B0F5800F0BD16A
:10104000EF4808380068C0F34040002859D0606875
:10105000002856D10120D9E700BF6068B0F5803F75
:1010600008D1E7480838006840F48030E44908397E
:1010700008601EE06068B0F5A02F0DD1E048083888
:10108000006840F48020DE4908390860084600689E
:1010900040F4803008600CE0D9480838006820F43B
:1010A0008030D749083908600846006820F480205D
:1010B000086000BF606890B1FFF736FD054606E0A6
:1010C000FFF732FD401B642801D903209EE7CC487E
:1010D00008380068C0F340400028F1D011E0FFF765
:1010E00023FD054606E0FFF71FFD401B642801D9DC
:1010F00003208BE7C24808380068C0F3404000284E
:10110000F1D1207800F0020002285FD1BC480068CD
:1011100000F00C0058B1BA48006800F00C00082834
:101120001CD1B748001F006800F48000B0B9B44873
:1011300008380068C0F3400020B1E068012801D001
:10114000012063E7AE480838006820F0F800216904
:1011500040EAC100AA490839086037E0E06800B3F6
:101160000120A8490860FFF7DFFC054606E0FFF70D
:10117000DBFC401B022801D9032047E7A0480838C0
:101180000068C0F340000028F1D09D48083800688E
:1011900020F0F800216940EAC10099490839086047
:1011A00014E0002097490860FFF7BEFC054606E002
:1011B000FFF7BAFC401B022801D9032026E790481C
:1011C00008380068C0F340000028F1D1207800F012
:1011D000080008282CD16069A8B101208A4908605C
:1011E000FFF7A2FC054606E0FFF79EFC401B022825
:1011F00001D903200AE782486C300068C0F3400040
:101200000028F1D014E000207F490860FFF78CFC33
:10121000054606E0FFF788FC401B022801D90320A1
:10122000F4E677486C300068C0F340000028F1D144
:10123000207800F00400042870D10027704838306E
:10124000006800F0805090B900BF002000906C480A
:101250003830006840F080506949383108600846ED
:10126000006800F08050009000BF00BF0127674871
:10127000006800F48070B0B96448006840F4807081
:1012800062490860FFF750FC054606E0FFF74CFC9A
:10129000401B022801D90320B8E65C48006800F42E
:1012A00080700028F2D000BFA068012808D15448FF
:1012B0006830006840F001005149683108601DE065
:1012C000A06805280DD14E486830006840F0040041
:1012D0004B49683108600846006840F0010008602A
:1012E0000CE047486830006820F00100444968314C
:1012F00008600846006820F00400086000BFA0688D
:10130000A8B1FFF711FC054609E0FFF70DFC401BF3
:1013100041F28831884202D9032077E626E0384836
:1013200068300068C0F340000028EED013E0FFF7FB
:10133000FBFB054608E0FFF7F7FB401B41F2883155
:10134000884201D9032061E62D4868300068C0F367
:1013500040000028EFD1012F07D12948383000681C
:1013600020F0805026493831086000BFA06900286D
:1013700045D02348006800F00C0008285DD0A06923
:10138000022845D100201F490866FFF7CDFB05461E
:1013900006E0FFF7C9FB401B022801D9032035E610
:1013A000174808380068C0F340600028F1D1D4E93C
:1013B00007010843616A40EA81110122A06AC2EB79
:1013C000500041EA00412C20005D41EA00600C49D8
:1013D000091F086001200B490866FFF7A5FB0546B9
:1013E00006E0FFF7A1FB401B022801D903200DE610
:1013F000034808380068C0F340600028F1D049E095
:101400000838024000004742800E4742007000400A
:10141000002021490866FFF787FB054606E0FFF735
:1014200083FB401B022801D90320EFE51B4800681D
:10143000C0F340600028F2D12CE0A069012800D15F
:10144000E4E51648001D0668A069012820D006F4CE
:101450008001E06981421BD106F03F01206A814290
:1014600016D147F6C0703040616AB0EB811F0FD1D2
:1014700006F440310122A06AC2EB5000B1EB004FEC
:1014800006D106F070612C20005DB1EB006F01D039
:101490000120BBE50020B9E50000474200380240CA
:1014A0007047704710B504460CB9012010BD94F880
:1014B0003D0028B9002084F83C00204600F025F8C3
:1014C000022084F83D00211D206800F06DFD012000
:1014D00084F8460000BF84F83E0001213F200155FA
:1014E000402001554120015500BF00BF012084F874
:1014F000420043200155442001554520015500BFBD
:10150000012084F83D000020D0E77047014691F8A3
:101510003D00012801D001207047022081F83D00E4
:101520000868C06840F001000B68D860164B086876
:10153000984213D00868B0F1804F0FD0134B086861
:1015400098420BD0124B0868984207D0114B08689C
:10155000984203D0104B086898420CD10868806804
:1015600000F00702062A0CD00868006840F001006D
:101570000B68186005E00868006840F001000B681F
:1015800018600020C8E7000000000140000400408F
:1015900000080040000C004000400140704710B5BA
:1015A000044620680069C0F34000D8B12068C068D4
:1015B000C0F34000B0B16FF0020021680861012063
:1015C00020772068806900F0030018B12046FFF7FB
:1015D000E5FF05E0204600F0ADF8204600F0ABF84E
:1015E0000020207720680069C0F38000D8B120680F
:1015F000C068C0F38000B0B16FF0040021680861DA
:10160000022020772068806900F4407018B12046DD
:10161000FFF7C4FF05E0204600F08CF8204600F0FC
:101620008AF80020207720680069C0F3C000D8B194
:101630002068C068C0F3C000B0B16FF00800216836
:101640000861042020772068C06900F0030018B109
:101650002046FFF7A3FF05E0204600F06BF8204688
:1016600000F069F80020207720680069C0F30010BE
:10167000D8B12068C068C0F30010B0B16FF010009E
:1016800021680861082020772068C06900F4407054
:1016900018B12046FFF782FF05E0204600F04AF827
:1016A000204600F048F8002020772068006900F00C
:1016B000010058B12068C06800F0010030B16FF03F
:1016C000010021680861204600F036F820680069B2
:1016D000C0F3C01058B12068C068C0F3C01030B16A
:1016E0006FF08000216808612046FFF7D9FE20686E
:1016F0000069C0F3801058B12068C068C0F3801042
:1017000030B16FF0400021680861204600F020F8F9
:1017100020680069C0F3401058B12068C068C0F369
:10172000401030B16FF02000216808612046FFF7BB
:10173000B8FE10BD7047704710B5044603492068D5
:10174000884201D1FFF7F6F910BD0000000001400A
:1017500070477047704700002DE9F84F0446206835
:1017600005682068C668206847694FF00009CA46C6
:1017700005F00F09B9F1000F0AD105F0200038B1CA
:1017800006F0200020B1204600F0B0FCBDE8F88F44
:10179000B9F1000F7CD007F0010018B906F4907081
:1017A000002875D005F0010030B106F4807018B142
:1017B000206C40F00100206405F0040030B107F017
:1017C000010018B1206C40F00200206405F0020016
:1017D00030B107F0010018B1206C40F00400206423
:1017E00005F0080048B106F0200010B907F001002C
:1017F00018B1206C40F008002064206C002846D00E
:1018000005F0200028B106F0200010B1204600F0BD
:101810006DFC20684069C0F3801A206C00F008005D
:1018200010B9BAF1000F2DD0204600F019FC206845
:10183000406900F04000402820D100BF00BF21686F
:10184000143151E8001F21F040002168143141E8B3
:101850000002002AF3D100BFA06B50B17548A16B04
:101860000865A06BFFF767F888B1A06B016D88472A
:101870000DE02046FFF76EFF09E009E02046FFF784
:1018800069FF04E02046FFF765FF002020647DE744
:10189000206B012876D105F01000002872D006F0E8
:1018A00010000028FAD000BF0020009020680068D7
:1018B000009020684068009000BF00BF2068406929
:1018C00000F0400040285ED1A06B006840681FFA1D
:1018D00080F8B8F1000F54D0A08D404551DDA4F838
:1018E0002E80A06BC069B0F5807F43D000BF00BFE1
:1018F00021680C3151E8001F21F4807021680C31FF
:1019000041E80002002AF3D100BF00BF00BF2168F8
:10191000143151E8001F21F001002168143141E821
:101920000002002AF3D100BF00BF00BF21681431BC
:1019300051E8001F21F040002168143141E8000205
:10194000002AF3D100BF202084F83E00002020634D
:1019500000BF00BF21680C3151E8001F21F01000CA
:1019600021680C3141E80002002AF3D100BFA06BCE
:10197000FEF78BFFA08DE28D801A81B22046FFF723
:10198000E8FE03E740E0A08DE18D401A1FFA80F8E1
:10199000E08DC0B3B8F1000F35D000BF00BF2168A3
:1019A0000C3151E8001F21F4907021680C3141E89E
:1019B0000002002AF3D100BF00BF00BF216814312C
:1019C00051E8001F21F001002168143141E80002B4
:1019D000002AF3D100BF202084F83E0000202063BD
:1019E00000BF00BF21680C3151E8001F21F010003A
:1019F00021680C3141E80002002AF3D100BF4146C2
:101A00002046FFF7A6FEC1E605F0800030B106F0E3
:101A1000800018B1204600F020FDB7E605F0400038
:101A200030B106F0400018B1204600F04FFBADE6A3
:101A300000BFABE64D20000810B504460CB90120EC
:101A400010BDA06900B100E000BF94F83D0028B9C6
:101A5000002084F83C00204600F028F8242084F878
:101A60003D002068C06820F400502168C86020460E
:101A700000F0B8FB2068006920F4904021680861FC
:101A80002068406920F02A00216848612068C06809
:101A900040F400502168C86000202064202084F8B1
:101AA0003D0084F83E000020CAE7000010B586B073
:101AB0000446142101A8FEF737FC1F49206888421C
:101AC00038D100BF002000901C48006840F0100092
:101AD0001A4908600846006800F01000009000BF36
:101AE00000BF00BF0020009014481438006840F088
:101AF00001001249143908600846006800F001002E
:101B0000009000BF00BF4FF4C0600190022002901F
:101B100000200390032004900720059001A90848A5
:101B2000FEF71EFF002205212520FFF7B7F825202C
:101B3000FFF7A4F806B010BD001001404438024081
:101B40000000024070B504460D46164694F83E006B
:101B5000202816D105B10EB9012070BD00BF94F840
:101B60003C00012801D10220F7E7012084F83C0065
:101B700000BF0020206332462946204600F048FC82
:101B8000EBE70220E9E700007FB505461A48006848
:101B900050B91AA0BC21234B23A2CDE900102AA1E1
:101BA000012001F037FB7FBD00242B48017812484B
:101BB000006802F00FF90446012C11D12648007884
:101BC00026A1C422174BCDE90021029016A21EA126
:101BD000042001F01FFB01221F492A48FFF7B2FF32
:101BE000A12003900223002203A92748006804F0E3
:101BF000B9F900BFD7E70000E4000020476C6F622E
:101C0000616C2063697263756C61722062756666CF
:101C1000657220706F696E746572206973204E550D
:101C20004C4C0000E56900082E2E5C4253505C5578
:101C3000534152545C6273705F756172745F647279
:101C4000697665722E6300006273705F75617274ED
:101C50005F64726976657200E8000020496E736502
:101C60007274656420646174613A20256320696E32
:101C7000746F2063697263756C6172206275666649
:101C800065720000F8000020E0000020704700BFEF
:101C9000FEE7000010B5074A0021074802F058FA95
:101CA00006490860064A0021064802F051FA064932
:101CB000086010BD4468000851510008040000206D
:101CC000686800089D4E00080800002008B500BFA5
:101CD000002000901548006840F004001349086097
:101CE0000846006800F00400009000BF00BF00BF7D
:101CF000002000900846006840F080000860084618
:101D0000006800F08000009000BF00BF00BF00200E
:101D100000900846006840F001000860084600682E
:101D200000F00100009000BF00BF08BD3038024045
:101D300010B50B480B4908604FF461404860002122
:101D400008488160C16001610C214161002181610D
:101D5000C161FFF771FE08B1FEF794FD10BD0000F0
:101D600000100140F800002000BFFEE700BFFEE7C2
:101D70002DE9F04707468846DFF870A000BF9AF8C3
:101D8000000008B900F0A4FB00BFEFF31181084682
:101D9000202181F3118800BF00BF07EB47021349E0
:101DA000183101EBC204E1684D1CA168A94200D1C1
:101DB00000256169022903D100BF2169A942FCD035
:101DC0002169A94208D0E268616801EB020989F83B
:101DD0000080E560012600E00026C1B281F3118891
:101DE00000BF00BF3046BDE8F0870000584A002021
:101DF0002DE9F04104460D4616460E4F00BF3878D7
:101E000008B900F065FB00BFEFF311800746202002
:101E100080F3118800BF00BF32462946204600F0FB
:101E20000BF88046F8B280F3118800BF00BF40462F
:101E3000BDE8F081584A00202DE9F0470746884662
:101E40001646C24607EB47011B4800EBC109D9F80B
:101E5000140020B1012811D0022826D11EE04846E6
:101E600000F06EFB0546B54201D2002405E0344681
:101E700032465146484600F0ACFB18E0484600F0B8
:101E80005FFB0546B54201D2284600E030460446D5
:101E900022465146484600F09CFB08E03246514637
:101EA000484600F05BFB044601E0002400BF00BF91
:101EB0002046BDE8F0870000704A002010B54FF0C2
:101EC000E020006904F056FA012801D003F072FE08
:101ED00010BD000000B593B0302107A8FEF724FA2A
:101EE000142102A8FEF720FA00BF00200190234829
:101EF000006840F08050214908600846006800F002
:101F00008050019000BF00BF00BF002001901C481E
:101F1000006840F440401A4908600846006800F430
:101F20004040019000BF00BF0120079000040890CE
:101F300002200D9041050E910C210F91602110910E
:101F4000022111910421129107A8FFF75BF808B153
:101F5000FEF798FC0F2002900220039000200490CE
:101F60004FF48050059000200690032102A8FEF750
:101F7000E7FE08B1FEF786FC13B000BD4038024012
:101F8000007000400348006840F470000149086098
:101F90007047000088ED00E010B50248FFF7FFFA37
:101FA00010BD00003C01002010B50268204B984293
:101FB0000BD0B0F1804F08D01E4B984205D01E4B7D
:101FC000984202D01D4B984203D122F070024B6818
:101FD0001A43174B984214D0B0F1804F11D0154BD3
:101FE00098420ED0144B98420BD0144B984208D014
:101FF000134B984205D0134B984202D0124B984293
:1020000003D122F44072CB681A4322F080034C695A
:1020100043EA040202608B68C3620B688362044B6C
:10202000984201D10B6903630123436110BD000095
:10203000000001400004004000080040000C004087
:1020400000400140004401400048014070B5054691
:10205000AC6B0020E085E0842046FFF77BFB70BD81
:1020600000BF00BF02680C3252E8002F22F49071CA
:1020700002680C3242E80013002BF3D100BF00BF0E
:1020800000BF0268143252E8002F22F001010268FA
:10209000143242E80013002BF3D100BF016B012979
:1020A0000ED100BF00BF02680C3252E8002F22F0B0
:1020B000100102680C3242E80013002BF3D100BF7C
:1020C000202180F83E1000210163704710B50446BE
:1020D0002068C06820F040002168C860202084F893
:1020E0003D002046FFF7D2FD002010BDF8B50446A4
:1020F00094F83E00222873D1A068B0F5805F0CD11F
:10210000206950B90025A66A20684068C0F308001D
:102110003080A06A801CA06215E0A56A0026A06835
:10212000B0F5805F03D0A06828B9206918B920688D
:102130004068287004E02068406800F07F00287044
:10214000A06A401CA062E08D401E80B2E08500289D
:1021500044D12068C06820F020002168C860206851
:10216000C06820F480702168C8602068406920F051
:10217000010021684861202084F83E00206B01287E
:1021800026D10020206300BF00BF21680C3151E838
:10219000001F21F0100021680C3141E80002002AE4
:1021A000F3D100BF2068006800F0100010280AD1A9
:1021B00000BF002000902068006800902068406800
:1021C000009000BF00BFA18D2046FFF7C2FA02E0D9
:1021D0002046FFF7D9FC0020F8BD01E00020FBE716
:1021E0000220F9E72DE9F84F04462068006920F441
:1021F0004050E1680843216808612169A0680843EC
:1022000061690843E169084300902068C06849F2A9
:102210000C618843009908432168C86020684069C0
:1022200020F44070A169084321684861764920681C
:10223000884203D075492068884203D1FEF77AFEB0
:10224000814602E0FEF766FE8146E069B0F5004F88
:102250006CD102206168A0FB015003461920A9FB44
:10226000007001462A463846FEF714F86421B0FB98
:10227000F1F04FEA001A02206168A0FB01510B4601
:102280001920A9FB00712A463846FEF703F8834659
:1022900002206168A0FB015003461920A9FB0071D0
:1022A0002A463846FDF7F6FF6421B0FBF1F000EB5B
:1022B000C00101EB0010ABEB8000322101EBC0004C
:1022C0006421B0FBF1F000F0F8000AEB400A0220B4
:1022D0006168A0FB015003461920A9FB007001466C
:1022E0002A463846FDF7D6FF834602206168A0FBE8
:1022F000015003461920A9FB00712A463846FDF714
:10230000C9FF6421B0FBF1F000EBC00101EB00104C
:10231000ABEB8000322101EBC0006421B0FBF1F097
:1023200000F007005044216888606AE0042061687A
:10233000A0FB015003461920A9FB007001462A4664
:102340003846FDF7A7FF824604206168A0FB0150D4
:1023500003461920A9FB007001462A463846FDF7BE
:1023600099FF6421B0FBF1F000EBC00101EB00101C
:10237000AAEB8000322101EB00106421B0FBF1F0E8
:1023800000F0F00A04206168A0FB017003461920E8
:10239000A9FB00513A462846FDF77CFF6421B0FBBB
:1023A000F1F00AEB001A04206168A0FB01510B4612
:1023B0001920A9FB00712A463846FDF76BFF8346BA
:1023C00004206168A0FB015003461920A9FB00709E
:1023D00001462A463846FDF75DFF6421B0FBF1F067
:1023E00000EBC00101EB0010ABEB8000322101EBF0
:1023F00000106421B0FBF1F000F00F0050442168A0
:102400008860BDE8F88F0000001001400014014012
:1024100010B5034699629A85DA8500201864222057
:1024200083F83E0000BF002083F83C0000BF18691D
:1024300028B11868C06840F480701C68E0601868B3
:10244000406940F001001C6860611868C06840F095
:1024500020001C68E060002010BD014691F83D009E
:10246000212828D18868B0F5805F0BD1086948B968
:102470000A6A1088C0F308000B685860086A801C5C
:10248000086205E00B6A581C086218780B685860EF
:10249000C88C401E80B2C88458B90868C06820F053
:1024A00080000B68D8600868C06840F040000B6886
:1024B000D860002070470220FCE7000010B50248F9
:1024C000FFF74AF910BD0000F800002000BFFEE74A
:1024D00010B5124C03202061606111A0A061134966
:1024E000E1614FF4806121620021A1626162E162D9
:1024F0000BA020660E4961661021A16600212167AC
:10250000E16661670BA1E01DFDF732FF0AA12046DD
:10251000FDF72EFF2020A07110BD0000584A0020BA
:102520005465726D696E616C00000000004B002004
:10253000004F002052545400534547474552000075
:1025400010B501460A69CB689A4204D88C68641EAB
:10255000E41AA01801E0D41A601E10BD2DE9F05F46
:102560000446894617464FF0000AE56800BFD4F8D4
:102570001080A84503D9A8EB0500461E04E0A5EB92
:102580000800401CA1680E1AA068401BB04201D987
:10259000304601E0A068401B0646BE4201D23046EC
:1025A00000E038460646606800EB050B32464946B7
:1025B0005846FDF7A0FEB244B144BF1B3544A068A5
:1025C000A84200D10025E560002FD0D15046BDE8DB
:1025D000F09F2DE9F047044689461546E668A06855
:1025E000871BAF420AD9606800EB060A2A464946B3
:1025F0005046FDF780FE7019E06014E0B846606850
:1026000000EB060A424649465046FDF774FEA5EB2C
:102610000708D4F804A009EB070142465046FDF72D
:102620006AFEC4F80C80BDE8F08700000FB4054BCB
:1026300010B503A9044A029800F02CF910BC5DF80B
:1026400014FB0000353C0008EC0000200FB47CB502
:102650000C0009AD01D0611E00E00021CDE90001B0
:10266000064B6A462946089800F014F9002C02D05F
:10267000009A002111707CBC5DF814FB9B2F0008B0
:102680007CB50C001D461646014601D0601E00E0D8
:102690000020CDE90010064B6A462946304600F07E
:1026A000F9F8002C02D0009A002111707CBD0000C6
:1026B0009B2F000802480068C0F30220704700000A
:1026C0000CED00E010B5002804DB0A07130E054AE4
:1026D000135406E00A07140E034A00F00F031B1FF1
:1026E000D45410BD00E400E018ED00E0EFF30580E5
:1026F000704702E008C8121F08C1002AFAD17047CB
:102700007047002001E001C1121F002AFBD1704771
:102710002DE9FF5F82B00021DDE90430020DDDF814
:1027200040B0034318D044F61050A2F2FF324243A7
:102730001514119801281FD0A5EB0B00401C5FEA6F
:10274000000A4FF000064E4FDFF83891B046504671
:1027500015D5CAF1000413E0119801244AA30128F9
:1027600001D16FEA0B010298119AC0E90031C0E96A
:10277000024206B0BDE8F09FCBF10000DFE704465F
:102780000021404A491842EB0450CDE9001012E004
:10279000E00707D032463B4640464946FDF7DCFE9F
:1027A0008046894632463B4610461946FDF7D4FE20
:1027B00006460F466410002CEAD1DDE90401DDE98C
:1027C0000023BAF1000F06DAFDF7C6FE42464B467B
:1027D000FDF7C2FE05E0FDF731FF42464B46FDF72F
:1027E0002DFF04460E460022284BFDF7AFFF03D80D
:1027F0004FF0FF30014607E00022254B20463146CE
:10280000FDF703FEFDF789FF102409E0002C0ADB29
:102810000A220023FDF73EFD039B30321A55641E49
:1028200050EA0102F2D1641C039AC4F1110314446A
:10283000119A012A03D0012208430DD10AE008436E
:1028400004D000204FF0110B119072E7A3EB0B05A1
:102850006D1E0DE05B4504DD4FF0000205F1010542
:1028600004E003DA4FF00002A5F10105002AECD0E4
:1028700002981199C0E90231C0E9004579E70000EA
:10288000000014400000F03F300000000000F04362
:102890000000E03F2DE9FF4F95B09A468846064676
:1028A0000025EEE1252877D100242746F94A0121A9
:1028B000039400E0044316F8013F203B01FA03F0C3
:1028C0001042F7D130782A2811D06FF02F033078DA
:1028D000A0F13002092A16D8039A44F0020402EB50
:1028E000820203EB42021044761C0390EFE758F893
:1028F000042B0392002A03DA504244F4005403905C
:1029000044F00204761C30782E2816D116F8010FF8
:1029100044F004042A280DD06FF02F023078A0F183
:102920003003092B09D807EB870302EB4303C718D1
:10293000761CF3E758F8047B761C30786C280FD0AF
:1029400006DC4C2817D068280DD06A2814D104E082
:10295000742810D07A280FD10DE044F400140AE056
:1029600044F4801401E044F440147278824202D1AD
:1029700004F58014761C761C307866280BD013DCA6
:10298000582877D009DC002875D04528F6D046288D
:10299000F4D047281AD193E118E0632835D0642891
:1029A00079D0652812D18BE1702873D008DC6728B4
:1029B000F1D069286FD06E280DD06F2806D1ACE019
:1029C00073282CD0752874D0782853D05246179984
:1029D00090476D1C54E1C4F30250022809D003282B
:1029E0000DD0D8F8001004280DD00D6008F10408AF
:1029F00046E1D8F80010EA17C1E90052F6E7D8F826
:102A000000100D80F2E70D70F0E718F8041B8DF848
:102A1000001000208DF80100EB46012003E058F87B
:102A200004BB4FF0FF3061074FF0000102D40DE00E
:102A300009F101018946B9420FDA8145F8DB1BF83B
:102A400009100029F4D108E009F101018946814209
:102A5000FADB1BF809100029F6D103985346A0EBC6
:102A6000090721463846179A00F080FA284400EBFF
:102A7000090507E044E008E10DE01BF8010B5246B0
:102A800017999047B9F10109F7D2534621463846C4
:102A9000179AF2E039E00A21C4F302524FF0000B1A
:102AA0000091022A06D058F8040BC117032A09D056
:102AB0000AE023E008F1070020F00702F2E8020133
:102AC000904605E000B2C117042A01D140B2C117F7
:102AD000002906DA0A460021404261EB02012D225C
:102AE00002E0220504D52B228DF80420012203E008
:102AF000E20701D02022F7E7914657E00A2100E0E3
:102B000010214FF0000B00910BE010214FF0000B53
:102B100044F004040827009103E008204FF0000B64
:102B20000090C4F30252022A05D058F8040B002189
:102B3000032A08D008E008F1070020F00702F2E8B5
:102B40000201904603E080B2042A00D1C0B24FF0E7
:102B5000000922072AD53278702A07D0DDF800C094
:102B60008CF0100C5CEA0B0C05D00EE040228DF8C6
:102B70000420012208E050EA010306D030238DF83A
:102B800004308DF8052002229146009B83F0080353
:102B900053EA0B030AD150EA010201D1620705D5BD
:102BA00030228DF804204FF001097F1E3278582A18
:102BB00004D039A20C920CAA02920BE03BA2F9E7D6
:102BC0005B46009AFDF766FB0C9B9B5C029A521ECB
:102BD0000292137050EA0102F2D1029804A9081A75
:102BE00000F1200B600702D524F4803400E00127B7
:102BF0005F4502DDA7EB0B0000E0002000EB0B01BE
:102C0000009003984944401A0390E00306D45346C9
:102C10002146179A039800F0A9F90544002706E019
:102C200001A85246C05D179990476D1C7F1C4F4507
:102C3000F6DBE0030CD553462146179A039800F0C3
:102C400095F9054404E030205246179990476D1CD1
:102C50000099481E00900029F5DC08E002980299CE
:102C600052460078491C0291179990476D1CBBF1A0
:102C70000001ABF1010BF1DC5BE100F065F905440B
:102C8000761C307800287FF40DAE19B02846BDE8D8
:102C9000F08F0000092801003031323334353637E7
:102CA0003839616263646566000000003031323398
:102CB0003435363738394142434445460000000038
:102CC000600700D4062708F1070020F00700F0E8AD
:102CD0000223804603F0004C5FEA0C0001D097A06D
:102CE00009E0200501D596A005E0E00701D095A0F8
:102CF00001E0AFF24C001390307823F000436528D8
:102D00000CD006DC452809D046281DD047287FD1A5
:102D10003BE0662818D067287AD136E00021112FD1
:102D200001DB112000E0781CCDE9000104A90CA80A
:102D3000FFF7EEFCDDE90D010C9A4FF0000B07F1F7
:102D40000109109200914EE04FF000400097CDE94C
:102D5000011004A90CA8FFF7DBFCDDE90D020C9BB8
:102D60000F994FF0000B91461093009211B9791C06
:102D700000EB0109B7EB090003D4C0F1FF3B07F1F9
:102D80000109A9EB0700019042E0012F00DA0127B9
:102D90000021112F01DD112000E03846CDE90001AE
:102DA00004A90CA8FFF7B4FCDDE90D010C9A009111
:102DB0004FF0000BB946109221070FD4009A4A45F4
:102DC00003DA914601E0A9F10109B9F1010F05DD2E
:102DD000109AA9F10101515C3029F4D0B84202DA0D
:102DE00010F1040F03DA0121CDE9011010E00028F1
:102DF00003DC8344A9EB000102E0411C494500DDEE
:102E00008946A0EB0B00401C01904FF0004002905F
:102E1000200705D40198484502DB4FF0FF300190B0
:102E200000208DF84B0002980DF14B07B0F1004FD8
:102E300025D002200C902B200D90029800280CDA4F
:102E4000404202902D200D9007E00A210298FDF7E4
:102E5000A7FA3031029007F8011D0C99481E0C901A
:102E60000029F2DC02980028EFD1791E0D98087035
:102E7000307800F0200040F0450007F8020D11A85E
:102E8000C01BC01D02901398007800B1012000EB18
:102E90000901019801EBE071029801440398401A7E
:102EA000401E0390E00306D453462146179A039828
:102EB00000F05CF805441398007818B15246179951
:102EC00090476D1CE00323D553462146179A03987B
:102ED00000F04CF805441BE0BBF1000F07DB009845
:102EE000584504DD1098179910F80B0001E0179968
:102EF00030205246904701980BF1010B401E05F11E
:102F00000105019004D12E205246179990476D1C5F
:102F1000B9F10001A9F10109DEDC05E017F8010BA8
:102F20005246179990476D1C0299481E029000293D
:102F3000F4DC53462146179A03989EE62D000000C4
:102F40002B000000200000002DE9F0410446002580
:102F50001E461746880404D405E039462020B047B1
:102F60006D1C641EF9D52846BDE8F0812DE9F041BD
:102F7000044600251E469046C80301D5302700E0D0
:102F80002027880404D505E041463846B0476D1C2B
:102F9000641EF9D52846BDE8F0814A68002A06D0AB
:102FA0000A68531C0B6010704868401E48607047E8
:102FB00010B500F007F9012000F0FCFCFF21002013
:102FC00000F024FCFF21012000F020FCFF21022062
:102FD00000F01CFCFF21032000F018FCFF2104205E
:102FE00000F014FCFF21052000F010FC00F050FD63
:102FF00010BD00001CB50024742001F01DF804462B
:10300000002C0BD10BA00E21164B17A2CDE90010FE
:1030100022A1012000F0FEF800201CBD6421204602
:10302000FDF782F96420E06600206066A0662067F4
:103030002046F2E74661696C656420746F20616C1C
:103040006C6F63617465206D656D6F727920666F5A
:10305000722063697263756C617220627566666561
:1030600072000000FD6900082E2E5C4D6964646CDE
:103070006577617265735C63697263756C61725FB9
:103080006275666665725C63697263756C61725FB6
:103090006275666665722E630000000043697263A4
:1030A000756C6172427566666572000070B586B0B7
:1030B0000546002D1CD126480068002811D140F299
:1030C000E110244924A229A3CDE90310CDE901325E
:1030D00000900B462EA238A1002000F09BF800BF04
:1030E000FEE740F2E1121B491BA0194B1B689847F1
:1030F00000240526324890F8F00010B9304606B09A
:1031000070BD00F093FA00241BE004EB44112C483E
:103110003130084490F82000012810D104EB44120B
:10312000274831301044411C1E222846FDF729F95A
:1031300028B904EB441122483130465C03E0601C9E
:10314000C4B2052CE1DB00BF00F0A4FA3046D6E79C
:10315000CC0000203669000874616720213D2028DA
:1031600028766F6964202A293029000028257329D0
:103170002068617320617373657274206661696C85
:1031800065642061742025733A256C642E0000006C
:103190002E2E5C4D6964646C6577617265735C6545
:1031A0006173796C6F676765725C7372635C656C81
:1031B0006F672E6300000000656C6F670000000001
:1031C000104F002010B50024114890F8F00001289D
:1031D00001D1204610BD00F089FA04460CB120460A
:1031E000F8E7012000F036FA0020094981F8F300E1
:1031F00081F8F400012000F0DDFB052000F084FAE6
:1032000000F0E6FA0120024981F8F0002046E1E7EB
:10321000104F00200FB42DE9F04F8DB005460F463A
:103220009846DDF868903846FDF79BF88246002402
:103230004FF0020B00200B900C9007900890099023
:103240000A90052D1CDDCC480068002811D140F201
:103250003F20CA49CAA2D1A3CDE90310CDE901326A
:1032600000900B46D6A2E0A10020FFF7D3FF00BFDD
:10327000FEE740F23F22C149C1A0BF4B1B689847FF
:10328000DB4890F8F10020B90DB0BDE8F00F5DF813
:1032900014FBD7480078A84204DB3846FFF706FF46
:1032A000A84200DAF0E7D249491C3846FDF747F852
:1032B00000B9E9E71CA8069000F0B8F9CC4890F8EE
:1032C000F50078B1CB480119CBA2204600F02CFCC8
:1032D0000444CA4850F82520C6480119204600F089
:1032E00023FC04440121284600F0ECFC40B1C44812
:1032F00050F82520BF480119204600F015FC044471
:103300000221284600F0DEFCE8B1BA4801193A462D
:10331000204600F009FC0444BAF10F0F0CD8CAF1A2
:103320000F01202207A8FCF7F8FFB248011907AAED
:10333000204600F0F9FB0444AE480119B1A2204632
:1033400000F0F2FB04441C21284600F0BBFC0028DE
:1033500052D0A8480119ACA2204600F0E5FB044475
:103360000421284600F0AEFCA8B100F0AFF90590AA
:10337000A04801192046059A00F0D6FB0444182104
:10338000284600F09FFC30B19A4801199DA22046C2
:1033900000F0CAFB04440821284600F093FCA8B1C1
:1033A00000F08CF90590934801192046059A00F029
:1033B000BBFB04441021284600F084FC30B18D484A
:1033C000011990A2204600F0AFFB044410212846CA
:1033D00000F078FC48B100F075F9059085480119B6
:1033E0002046059A00F0A0FB04448248011987A2F8
:1033F000204600F099FB044420212846189A00F04A
:10340000CDFC60B942464021284600F0C7FC30B9E7
:103410004A468021284600F0CFFC002862D075483B
:1034200001197BA2204600F07FFB0444202128469E
:10343000189A00F0B3FC08B36E4801192046189A98
:1034400000F072FB044442464021284600F0A6FCEE
:1034500038B1684801196FA2204600F065FB0444AA
:103460000CE04A468021284600F0A6FC30B16148B5
:10347000011964A2204600F057FB04444A4680210B
:10348000284600F099FCC8B14B4663A205210BA861
:10349000FFF7DCF8574801190BAA204600F044FB5F
:1034A000044442464021284600F078FC30B151489F
:1034B000011954A2204600F037FB04444246402143
:1034C000284600F06BFC30B14A48011942462046BC
:1034D00000F02AFB04444748011950A2204600F09E
:1034E00023FB0444C4F58061424A1019069B1B9AD1
:1034F000FFF7C6F8064600200690A019B0F5806FC9
:1035000003D8002E01DB344401E04FF48064201D19
:103510005844B0F5806F04D94FF48064241FA4EBA5
:103520000B04334890F8200058B100203149085569
:103530002F4920312F48FCF702FF10B900F0AAF8FC
:10354000A2E62B4890F8F50030B12A48011934A2C0
:10355000204600F0E9FA04442648011932A2204628
:1035600000F0E2FA04442146224800F0C1F800F0DD
:1035700091F800BF88E60000CC0000204E690008EA
:103580006C6576656C203C3D20454C4F475F4C5642
:103590004C5F564552424F53450000002825732981
:1035A0002068617320617373657274206661696C51
:1035B00065642061742025733A256C642E00000038
:1035C0002E2E5C4D6964646C6577617265735C6511
:1035D0006173796C6F676765725C7372635C656C4D
:1035E0006F672E6300000000656C6F6700000000CD
:1035F000104F0020085000201B5B0000B40000208A
:103600009C000020200000005B0000005D20000006
:10361000280000003A000000256C6400290000002A
:103620001B5B306D000000000D0A000010B508485B
:1036300090F8F20030B100F064F80120044981F8FC
:10364000F40003E00120024981F8F30010BD0000FE
:10365000104F002010B504460D4880F8F24090F855
:10366000F200A0B10A4890F8F40030B9084890F888
:10367000F30010B100F045F809E0054890F8F400B7
:1036800028B1034890F8F30008B900F03BF810BDEA
:10369000104F002010B5084890F8F20030B100F04B
:1036A00031F80020044981F8F40003E000200249C9
:1036B00081F8F30010BD0000104F002000A07047FB
:1036C0000000000000A070470000000010B5FDF7EA
:1036D0002BFA0446234603A210210348FEF7B6FF47
:1036E000014810BD256400000854002000207047E8
:1036F00070B504460D462A4621460020FEF778FBA9
:1037000070BD70477047000010B586B00446052CA8
:103710001CDD10480068002811D140F25B100E49F2
:103720000EA215A3CDE90310CDE9013200900B469E
:103730001AA224A10020FFF76DFD00BFFEE740F2B2
:103740005B12054905A0034B1B6898471F4804708E
:1037500006B010BDCC0000200A6900086C657665D3
:103760006C203C3D20454C4F475F4C564C5F5645C6
:1037700052424F5345000000282573292068617389
:1037800020617373657274206661696C6564206181
:10379000742025733A256C642E0000002E2E5C4D9B
:1037A0006964646C6577617265735C656173796C7B
:1037B0006F676765725C7372635C656C6F672E63BD
:1037C00000000000656C6F6700000000104F0020D3
:1037D00010B5002400BF13E004EB44120A49114461
:1037E000481C1F21FCF7A0FD002104EB44120648F1
:1037F000815404EB4412104480F82010601CC4B2C1
:10380000052CE9DB10BD0000414F002030B585B02C
:1038100004460D46052C1CDD10480068002811D117
:1038200040F241100E490FA215A3CDE90310CDE9D6
:10383000013200900B461BA224A10020FFF7EAFCF6
:1038400000BFFEE740F24112054906A0034B1B688A
:103850009847204840F8245005B030BDCC000020E7
:10386000ED6800086C6576656C203C3D20454C4F4A
:10387000475F4C564C5F564552424F53450000003F
:103880002825732920686173206173736572742021
:103890006661696C65642061742025733A256C64E7
:1038A0002E0000002E2E5C4D6964646C6577617299
:1038B00065735C656173796C6F676765725C737261
:1038C000635C656C6F672E6300000000656C6F675A
:1038D00000000000E84F002010B586B00446002C20
:1038E0001ED0012C1CD011480068002811D14FF4C3
:1038F0008B700F490FA219A3CDE90310CDE9013256
:1039000000900B461EA228A10020FFF783FC00BFF9
:10391000FEE74FF48B72064906A0044B1B689847DC
:10392000234880F8F14006B010BD0000CC00002014
:10393000B968000828656E61626C6564203D3D20B1
:1039400066616C736529207C7C2028656E61626CE1
:103950006564203D3D207472756529002825732912
:103960002068617320617373657274206661696C8D
:1039700065642061742025733A256C642E00000074
:103980002E2E5C4D6964646C6577617265735C654D
:103990006173796C6F676765725C7372635C656C89
:1039A0006F672E6300000000656C6F670000000009
:1039B000104F002010B586B00446002C1ED0012CFC
:1039C0001CD011480068002811D14FF491700F49A4
:1039D0000FA219A3CDE90310CDE9013200900B46E7
:1039E0001EA228A10020FFF715FC00BFFEE74FF440
:1039F0009172064906A0044B1B689847234880F83B
:103A0000F54006B010BD0000CC000020D1680008D1
:103A100028656E61626C6564203D3D2066616C7353
:103A20006529207C7C2028656E61626C6564203D80
:103A30003D207472756529002825732920686173FB
:103A400020617373657274206661696C65642061BE
:103A5000742025733A256C642E0000002E2E5C4DD8
:103A60006964646C6577617265735C656173796CB8
:103A70006F676765725C7372635C656C6F672E63FA
:103A800000000000656C6F6700000000104F002010
:103A90000EB50B4890F8F00000B90EBD0120FFF7FD
:103AA0001BFF08A009A1F722124BCDE900210290CB
:103AB00011A21BA10320FFF7ADFB00BFEDE7000043
:103AC000104F0020322E322E3939000045617379B3
:103AD0004C6F676765722056257320697320696E85
:103AE000697469616C697A65207375636365737362
:103AF0002E000000A46800082E2E5C4D6964646CE2
:103B00006577617265735C656173796C6F67676512
:103B1000725C7372635C656C6F672E6300000000FB
:103B2000656C6F6700000000F0B585B006460D4675
:103B300014462746002D1AD124480068002810D1C9
:103B40002C20234923A224A3CDE90310CDE901327F
:103B500000900B4629A234A10020FFF75BFB00BFB9
:103B6000FEE72C221A491BA0184B1B689847002C13
:103B700019D11648006880B92D2015492CA216A32A
:103B8000CDE90310CDE9013200900B461BA226A11E
:103B90000020FFF73FFB00BFFEE72D220C4924A0C9
:103BA0000A4B1B6898470AE03046761CB0F5806FD8
:103BB00004D214F8010B05F8010B00E002E02078B4
:103BC0000028F1D100BFE01B05B0F0BDCC00002003
:103BD000866900086473740028257329206861735E
:103BE00020617373657274206661696C656420611D
:103BF000742025733A256C642E0000002E2E5C4D37
:103C00006964646C6577617265735C656173796C16
:103C10006F676765725C7372635C656C6F675F7515
:103C200074696C732E630000656C6F6700000000A0
:103C30007372630070B504460D46E1B20020FEF7D2
:103C400097F8204670BD00001CB504465CB908A07A
:103C500071210E4B0EA2CDE9001015A10120FFF736
:103C6000D9FA00201CBD1648006820600120F9E741
:103C7000506F696E74657220746F20706F696E7416
:103C80006572206973204E554C4C0000CA690008CB
:103C90002E2E5C4253505C55534152545C627370FB
:103CA0005F756172745F6472697665722E6300007D
:103CB0006273705F756172745F64726976657200B9
:103CC000E400002030B585B004460D46052C1CDD0F
:103CD00013480068002811D14FF43870114912A21E
:103CE00018A3CDE90310CDE9013200900B461EA2C6
:103CF00027A10020FFF78EFA00BFFEE74FF43872CD
:103D0000084909A0064B1B689847234850F824002F
:103D1000284010B1012005B030BD0020FBE70000B5
:103D2000CC0000205A6900086C6576656C203C3D2B
:103D300020454C4F475F4C564C5F564552424F53BF
:103D40004500000028257329206861732061737382
:103D5000657274206661696C6564206174202573E6
:103D60003A256C642E0000002E2E5C4D6964646C54
:103D70006577617265735C656173796C6F676765A0
:103D8000725C7372635C656C6F672E630000000089
:103D9000656C6F6700000000E84F002070B50546B5
:103DA0000E46144634B131462846FFF78BFF08B162
:103DB000012070BD0020FCE770B505460E46144694
:103DC00034B131462846FFF77DFF08B1012070BDB0
:103DD0000020FCE77CB504460D465CB916A06521C1
:103DE0001B4B1CA2CDE9001027A10120FFF712FAFE
:103DF000FF207CBD204600F0A9F858B126A06B2119
:103E0000134B14A2CDE900101FA10120FFF702FA05
:103E10000020EEE7606E2554606E401CE16EB0FB42
:103E2000F1F201FB12006066204600F08FF808B145
:103E3000012020670120DCE742756666657220700C
:103E40006F696E746572206973204E554C4C00008A
:103E5000396A00082E2E5C4D6964646C6577617266
:103E600065735C63697263756C61725F62756666C7
:103E700065725C63697263756C61725F62756666B8
:103E800065722E630000000043697263756C617295
:103E900042756666657200004275666665722069E5
:103EA000732066756C6C2C2063616E6E6F74206974
:103EB0006E73657274206461746100001CB5044601
:103EC0005CB90AA02B210F4B0FA2CDE900101BA15A
:103ED0000120FFF79FF9FF201CBDD4E9190188429A
:103EE00001D10120F8E70020F6E700004275666680
:103EF000657220706F696E746572206973204E550B
:103F00004C4C00001A6A00082E2E5C4D6964646CEB
:103F10006577617265735C63697263756C61725F0A
:103F20006275666665725C63697263756C61725F07
:103F30006275666665722E630000000043697263F5
:103F4000756C617242756666657200001CB5044648
:103F50005CB914A04421194B19A2CDE9001025A188
:103F60000120FFF757F9FF201CBD606E401CE16E79
:103F7000B0FBF1F201FB1200D4E91A12B1FBF2F32B
:103F800002FB131188420BD11EA04A210B4B0CA23D
:103F9000CDE9001017A10320FFF73CF90120E3E76A
:103FA0000020E1E742756666657220706F696E7485
:103FB0006572206973204E554C4C00002A6A000837
:103FC0002E2E5C4D6964646C6577617265735C6309
:103FD000697263756C61725F6275666665725C6357
:103FE000697263756C61725F6275666665722E6375
:103FF0000000000043697263756C61724275666609
:104000006572000042756666657220697320667588
:104010006C6C0000FCF79AFDFDF75CFFFDF756FEA7
:10402000FDF786FEFEF7C4FF00F04CF8FDF732FE08
:1040300000F05EF800BFFEE7F0B50B30154D20F044
:1040400007010024144A0FE003688B420BD38B4214
:1040500005D95E1A43184768C3E9006700E0436862
:10406000136002C004E0021D10680028ECD1204655
:10407000002802D1286808B10020F0BD064A074890
:104080001060074A121A22F00702C0E9002401203A
:104090002860D7E7F4000020F00000201C54002026
:1040A0001856002070B50546FEF720FB10B16FF0E2
:1040B000050404E0002415B1284601F09FFB2046CA
:1040C00070BD000010B5FEF711FB10B16FF00504D4
:1040D00009E00648006820B901200449086000246E
:1040E00001E04FF0FF34204610BD00006C000020BE
:1040F00070B5FEF7FBFA10B16FF005041FE0114830
:104100000068012819D100BF801F0021002804DBAE
:104110000A07130E0C4A135406E00A07150E0B4A41
:1041200000F00F031B1FD55400BF00BF022005493C
:10413000086001F0DFFB002401E04FF0FF3420466F
:1041400070BD00006C00002000E400E018ED00E00D
:104150002DE9FF4780468946144600200390FEF76C
:10416000C5FA00284ED1B8F1000F4BD08026182593
:104170008246471E44B3206808B1D4F800A0A06965
:1041800000B1A5692DB1382D03D8207900F00100C8
:1041900018B1002004B0BDE8F087606908B160691B
:1041A0008608A06840B1E0685C2805D3206918B192
:1041B000606908B1012708E0A06830B9E06820B95B
:1041C000206910B9002700E00027012F0CD12169D8
:1041D000A0684B463246CDE9005102905146404618
:1041E00002F06AF803900DE067B903A8B2B24B463B
:1041F0005146CDE90050404602F02CF8012801D08C
:10420000002003900398C5E72DE9F04105460E46CE
:104210001648076816480068001D01F067F9681C19
:1042200038B936B112480168091D124801F0B4F9D5
:104230001AE07C190E4800684460BC4207D20C4862
:104240000168091D0C48006801F08CF90CE0084871
:104250000168091D0948006801F084F908480068F0
:10426000844201D206480460BDE8F081300000209D
:104270001C000020740600202400002020000020E4
:104280004C00002010B5044601F092F92448006863
:10429000401C234908602348006840B92148046055
:1042A0000846006801280DD100F0FCF90AE01E481C
:1042B000006838B91B480068C06AE16A884201D8C2
:1042C0001848046019480068401C184908600846EE
:1042D000006860641649E06A0968884202D9144996
:1042E000E06A0860E16A01EB8101124A02EB810099
:1042F000211D01F051F901F085F90B48006868B102
:1043000008480068C06AE16A884207D24FF08050CE
:1043100009490860BFF34F8FBFF36F8F10BD0000D6
:104320002C0000201C000020380000204800002045
:1043300034000020C401002004ED00E008B501F0C5
:1043400037F912480068E8B9114801F0FBF8114844
:1043500001F0F8F80E48104908600E480F4908604F
:1043600000200F4B0F4A102100900A2001F069FC39
:10437000064908600846006820B10BA103480068A0
:1043800001F000FA01F03EF908BD000060000020D5
:10439000880600209C060020580000205C000020B9
:1043A000B006002000070020546D7251000000008C
:1043B00010B516E001F0FCF80C48C068C468201D78
:1043C00001F094F80A480068401E0949086009484D
:1043D0000068401E0749086001F014F9204600F00B
:1043E0005FF8044800680028E4D110BD6006002092
:1043F0002C0000202800002070B504460D46206CDB
:1044000070B1216CE0680144E160D4E90210884297
:1044100001D32168E1602846226CE168FBF76BFF5D
:1044200070BD2DE9F04104460F4615464FF00008D7
:10443000A66B206C48B9206800282CD1A06802F037
:1044400051F880460020A06025E07DB93946226CF5
:104450006068FBF750FF216C606808446060D4E935
:104460000101884217D32068606014E03946226C4D
:10447000E068FBF740FF216CE068411AE1602168C9
:10448000E068884203D2216CA068411AE160022DE5
:1044900001D106B1761E701CA0634046BDE8F081D4
:1044A00010B5044694F8590030B9206B01F0C8F8F3
:1044B000204601F0C5F81AE094F85900012803D10C
:1044C000204601F0BDF812E094F85900022801D10D
:1044D000012000E0002050B900BF502080F3118877
:1044E000BFF34F8FBFF36F8F00BF00BFFEE710BD5C
:1044F0000146084A126812680AB9012200E0002247
:104500000A600A6822B9034A1268D268106800E09B
:10451000002070475800002030B54FF47053174802
:1045200000F007042CB1C01D20F00700134C041B41
:104530001B1B0246124C22600024114D6C60D018E7
:10454000083820F007000F4C206000240D4D2D6826
:104550006C600C4D2D682C601146441A4C60094C5F
:1045600024680C60084D4C682C60084D4C682C6029
:104570004FF00044064D2C6030BD0000580E002066
:104580007000002078000020800000207C000020C7
:104590008C00002000BFFFF70BFF064800680128D1
:1045A000F9D94FF0805004490860BFF34F8FBFF333
:1045B0006F8FF0E7C401002004ED00E02DE9F04129
:1045C00006460D4617469846069C0DB9246000E045
:1045D0002760E66325640121204601F0A3FB84F8EF
:1045E0004C80BDE8F0812DE9F05F82460E46904692
:1045F0009B460A9F0C9C4FEA8801A522206BFBF783
:104600008CFEA8F10100216B01EB800929F007095C
:1046100009F0070008B9012000E0002050B900BFF0
:10462000502080F31188BFF34F8FBFF36F8F00BF0F
:1046300000BFFEE786B1002507E0715D04F134009C
:104640004155705D00B902E06D1C102DF5D300BF1F
:1046500000214320015502E0002084F83400382F67
:1046600000D33727E762E76400202065201D00F0B3
:1046700076FF04F1180000F072FF2461C7F13800E2
:10468000A06164620020606584F858005A46514673
:10469000484600F071FB20600B9808B10B9804604D
:1046A000BDE8F09F10B5002407E004EB84010F4A39
:1046B00002EB810000F046FF641C382CF5D30C4857
:1046C00000F040FF0B4800F03DFF0B4800F03AFFC0
:1046D0000A4800F037FF0A4800F034FF044809494F
:1046E000086004480849086010BD0000C4010020AB
:1046F00024060020380600204C060020600600201A
:1047000074060020200000202400002010B501467F
:10471000164800E0006803688B42FBD302464368FA
:1047200013448B4204D143684C68234443600146E0
:104730000A464B6813440468A34211D10C4C036829
:104740002468A34208D04B680468646823444B6023
:1047500003681B680B6005E0054B1B680B6001E0FC
:1047600003680B60884200D0016010BD700000201B
:10477000780000202DE9F04104460D4616461F46FC
:104780004FF0000865602461B5420CD8F01BA169A8
:10479000884202D34FF0010811E0211D094800684A
:1047A00000F0E0FE0BE0BE4204D2BD4202D34FF067
:1047B000010804E0211D0448006800F0D3FE4046D3
:1047C000BDE8F0815C0000205800002070B505466F
:1047D00000F0EEFEA86B08B9012400E0002400F010
:1047E00011FF204670BD70B5054600F0E1FEA86BD4
:1047F000E96B884201D1012400E0002400F002FFAF
:10480000204670BDF8B505460F461A480068C068D6
:10481000C468201D00F06AFE94F8280000F004002F
:10482000E8B1A06941192B463A462046FFF7A2FF9E
:10483000D8B1002003462A4601460090204601F0E8
:10484000ADFF064656B900BF502080F31188BFF374
:104850004F8FBFF36F8F00BF00BFFEE705E094F8F6
:10486000280020F0010084F828002046216A8847AB
:10487000F8BD000058000020F0B587B0A0E0039814
:10488000002811DA04AE56B900BF502080F3118819
:10489000BFF34F8FBFF36F8F00BF00BFFEE7D6E9B6
:1048A0000020B168904700BF03980028E6DB059C14
:1048B000606908B9012000E0002010B9201D00F057
:1048C00015FE02A800F0DEF8054603980A2875D206
:1048D000DFE800F009050739416306083A4200BFE6
:1048E00000BF00BF00BF94F8280040F0010084F82A
:1048F00028000498A269811803462A462046FFF73B
:1049000039FFF8B12046216A884794F8280000F062
:104910000400B8B1002000900498A1694218002357
:104920001946204601F03AFF074657B900BF50200C
:1049300080F31188BFF34F8FBFF36F8F00BF00BFAD
:10494000FEE700BF3BE000BF94F8280020F0010024
:1049500084F8280033E000BF94F8280040F00100FC
:1049600084F828000498A061A06908B1012000E043
:10497000002050B900BF502080F31188BFF34F8F43
:10498000BFF36F8F00BF00BFFEE7A06941192B4640
:104990002A462046FFF7EEFE11E094F8280000F0CA
:1049A000020018B9204600F04BFE05E094F82800FC
:1049B00020F0010084F8280001E0FFE700BF00BFFD
:1049C000002203A90448006801F04AFB00287FF494
:1049D00056AF07B0F0BD000060000020F8B50546F6
:1049E0000C4600F0E3FF684600F04CF806460098DD
:1049F00020BB44B9B54206D801F012FE3146284624
:104A0000FFF700FF1CE03CB10E480068006808B9E1
:104A1000012000E000200446A91B22460A48006845
:104A200000F0C6FE01F0FCFD50B94FF08050074980
:104A30000860BFF34F8FBFF36F8F01E001F0F0FD0F
:104A4000F8BD00005C0000206000002004ED00E0E4
:104A50000A490968096809B9012100E0002121B16A
:104A60004FF0FF31064A116006E004490968C96841
:104A7000C868034A416811607047000020000020A8
:104A80004C00002070B5044601F084FC0546074840
:104A90000068854204D200F00BF80120206001E09C
:104AA0000020206001480560284670BD6800002095
:104AB0002DE9F84334E025480068C06805682348BC
:104AC0000068C068C468201D00F010FD2046216AFF
:104AD000884794F8280000F0040008B3A06946193C
:104AE000AE4207D966602461211D1848006800F0B5
:104AF00039FD15E0002003462A4601460090204675
:104B000001F04CFE074657B900BF502080F31188D2
:104B1000BFF34F8FBFF36F8F00BF00BFFEE700BF33
:104B20000A480068006808B9012000E00020002859
:104B3000C1D00648D0F800800548006803490860E5
:104B40000348C0F80080BDE8F8830000580000204A
:104B50005C0000200E480068401C08B9012000E0FD
:104B6000002050B900BF502080F31188BFF34F8F51
:104B7000BFF36F8F00BF00BFFEE700BF502080F380
:104B80001188BFF34F8FBFF36F8F00BF00BFFEE7E9
:104B90009000002008B500BF6846FFF7A9FC044656
:104BA00020460099FFF71AFFFFF766FEF4E770B59D
:104BB000044600F0FDFC94F9455010E0606A08B925
:104BC000012000E0002038B904F1240001F0DCFCF1
:104BD00018B100F04DFE00E003E0681E45B2002D64
:104BE000ECDC00BFFF2084F8450000F00BFD00F076
:104BF000DFFC94F9445010E0206908B9012000E07E
:104C0000002048B904F1100001F0BEFC08B100F02A
:104C10002FFE681E45B200E001E0002DECDC00BF75
:104C2000FF2084F8440000F0EDFC70BD2DE9F04158
:104C300004464FF0000800F0B9FE4948006808B982
:104C4000FFF76AFC474800682040002870D1D4B1C3
:104C5000083404F00700B0B104F00700C0F1080008
:104C6000044404F0070008B9012000E0002050B916
:104C700000BF502080F31188BFF34F8FBFF36F8FB9
:104C800000BF00BFFEE7002C52D0374800688442C6
:104C90004ED8364E3046056801E02E462D686868CD
:104CA000A04202D228680028F7D12D48006885422A
:104CB0003ED0306800F10808286830606868001B42
:104CC000102819D92F1907F0070008B9012000E0B2
:104CD000002050B900BF502080F31188BFF34F8FE0
:104CE000BFF36F8F00BF00BFFEE76868001B7860EE
:104CF0006C603846FFF70AFD1B4968680968081AA6
:104D0000194908600846006819490968884203D2B1
:104D10001548006816490860124968680968084320
:104D200068600020286013480068401C1149086032
:104D300001F076FC08F0070008B9012000E000202F
:104D400050B900BF502080F31188BFF34F8FBFF3DD
:104D50006F8F00BF00BFFEE74046BDE8F081000056
:104D6000780000208C0000207C00002070000020D3
:104D70008000002084000020001F4FF0807303603B
:104D8000001F21F001030360001F054B036014386E
:104D90000260001F6FF002030360203870470000BC
:104DA000554B00087CB504460D460CB1002D0BD1C7
:104DB00015A07E211E4B1FA2CDE900102AA10120C3
:104DC000FEF728FAFF207CBD2046FFF777F858B1A0
:104DD00029A08421164B17A2CDE9001022A10120A1
:104DE000FEF718FA0020EEE7A06E205C2870A06E97
:104DF000401CE16EB0FBF1F201FB1200A066002046
:104E000020670120DFE7000042756666657220704A
:104E10006F696E746572206F7220646174612070B6
:104E20006F696E746572206973204E554C4C00009A
:104E3000456A00082E2E5C4D6964646C657761726A
:104E400065735C63697263756C61725F62756666D7
:104E500065725C63697263756C61725F62756666C8
:104E600065722E630000000043697263756C6172A5
:104E700042756666657200004275666665722069F5
:104E80007320656D7074792C2063616E6E6F742071
:104E900072656164206461746100000030B585B0A2
:104EA00005460024FEF7A6F804465CB941A025217A
:104EB000484B49A2CDE900104FA10120FEF7AAF905
:104EC00005B030BD50A02A21424B43A2CDE90010CD
:104ED00049A10320FEF79EF95448046000220421F2
:104EE000012000F081FE524908600846006850B970
:104EF00050A03121374B38A2CDE900103EA101204E
:104F0000FEF788F9DCE755A03621324B32A2CDE915
:104F1000001039A10320FEF77DF9012259495A48B2
:104F2000FCF710FE50B959A03C212A4B2AA2CDE92A
:104F3000001031A10320FEF76DF909E05EA04021C9
:104F4000244B25A2CDE900102BA10120FEF762F928
:104F50000020049000BF62A053211E4B1EA2CDE989
:104F6000001025A10320FEF755F94FF0FF3204A9E8
:104F70002F48006801F074F801280CD19DF810004A
:104F80005FA15622134BCDE90021029012A21AA173
:104F90000320FEF73FF9A22003900223002203A979
:104FA0005F48006800F00AFF012802D15DA0FDF70C
:104FB0003DFBD0E743697263756C61722062756670
:104FC000666572206372656174696F6E20666169DF
:104FD0006C656400B96900082E2E5C4253505C5524
:104FE000534152545C6273705F756172745F647296
:104FF000697665722E6300006273705F756172740A
:105000005F6472697665720043697263756C617280
:1050100020627566666572206372656174696F6E81
:10502000207375636365737300000000E400002063
:10503000E0000020756172745F7265636569766572
:105040005F6972715F717565756520637265617402
:10505000696F6E206661696C6564000075617274C9
:105060005F726563656976655F6972715F717565A9
:105070007565206372656174696F6E207375636313
:1050800065737300E8000020F8000020537461721B
:1050900074205541525420726563656976652069B4
:1050A0006E74657272757074207375636365737363
:1050B00066756C6C792100005374617274205541DF
:1050C0005254207265636569766520696E746572F5
:1050D00072757074206661696C656421000000005F
:1050E000756172745F7265635F415F66756E6320A0
:1050F00069732072756E6E696E672E2E2E00000029
:1051000044617461207265636569766564206672C6
:105110006F6D2071756575653A2025780000000077
:10512000D0000020446174612073656E7420746F38
:105130002071756575655F646174615F70726F631E
:10514000207375636365737366756C6C790D0A0003
:105150007FB5054672A02821794B7AA2CDE90010CF
:1051600081A10320FEF756F8002083490860002241
:105170000421012000F038FD7F49086008460068DE
:1051800050B97EA02D216E4B6EA2CDE9001076A104
:105190000120FEF73FF87FBD80A03221684B69A255
:1051A000CDE9001070A10320FEF734F88448FEF723
:1051B0004BFD044654B983A03821614B61A2CDE96F
:1051C000001069A10120FEF725F8E4E786A03D2143
:1051D0005B4B5CA2CDE9001063A10320FEF71AF837
:1051E00000BF4FF0FF3289496348006800F038FF84
:1051F00001286FD18548007885A14422504BCDE924
:10520000002102904FA258A10320FEF703F86C483A
:10521000006850B986A04721494B4AA2CDE9001049
:1052200051A10120FDF7F6FFB5E768E003A9644846
:105230000068FFF7B7FD012802D10520FEF732FF15
:1052400085480078012804D0022814D0032850D1C2
:1052500041E09DF80C00B1280CD102207E49087075
:105260007EA05B21364B37A2CDE900103EA1032082
:10527000FDF7D0FF41E09DF80C00B2280DD10320CE
:10528000754908707AA062212D4B2EA2CDE900103D
:1052900035A10320FDF7BEFF1BE09DF80C00B128EF
:1052A0000AD178A06721264B26A2CDE900102EA1B5
:1052B0000320FDF7AFFF0CE09DF80C0080A16C22ED
:1052C0001F4BCDE9002102901EA227A10320FDF76C
:1052D000A1FF12E019E001205F4908707FA0722150
:1052E000174B18A2CDE900101FA10320FDF792FF74
:1052F00003E001205849087000BF00BF00BF3048DC
:105300000068FEF7DBFD002890D005A07A210C4B49
:105310000CA2CDE9001014A10320FDF77BFF60E78C
:10532000756172745F7265635F415F66756E63205D
:1053300069732072756E6E696E672E2E2E000000E6
:10534000A96900082E2E5C4170705C756172745FF3
:1053500070617273655C756172745F7061727365A0
:105360005F7461736B2E6300756172745F7061723C
:1053700073655F7461736B00D00000207175657593
:10538000655F646174615F70726F632063726561F1
:1053900074696F6E206661696C656400717565750E
:1053A000655F646174615F70726F632063726561D1
:1053B00074696F6E2073756363657373000000001A
:1053C000D80000204765742063697263756C617250
:1053D000206275666665722068616E646C65206621
:1053E00061696C65640000004765742063697263DD
:1053F000756C6172206275666665722068616E64A4
:105400006C6520737563636573730000D4000020BE
:1054100044617461207265636569766564206672B3
:105420006F6D2071756575653A2025780000000064
:10543000476C6F62616C2063697263756C61722086
:1054400062756666657220706F696E746572206938
:1054500073204E554C4C0000DC0000204672616DFC
:1054600065206865616420646574656374656400C3
:105470004672616D65207461696C20646574656352
:1054800074656400416E6F74686572206672616D48
:105490006520686561642064657465637465642C67
:1054A0002073746179696E6720696E204652414DA0
:1054B000455F4845414420737461746500000000F5
:1054C00050726F63657373696E67206672616D6594
:1054D00020646174613A2025780000004672616D95
:1054E0006520636F6D706C657465000001460A6924
:1054F000D1E901309860D1E90103586050688842D1
:1055000001D188685060002008611068401E10605A
:1055100010687047034B0360034B0B6080231360DC
:1055200070470000A0070020FC070020034B036029
:10553000034B0B604FF4807313607047FC0900202D
:10554000580A002000F1080141604FF0FF318160EE
:1055500000F10801C1600161002101607047002174
:105560000161704710B502460B685C1C0CB91069EC
:1055700007E002F1080000E04068446824689C42AB
:10558000FAD944684C604C68A160886041600A6147
:105590001468641C146010BD42684A6093688B6094
:1055A000936859609160086103685B1C03607047F1
:1055B00000BF502080F31188BFF34F8FBFF36F8F70
:1055C00000BF0E480068401C0C490860084600688F
:1055D000012812D10A480068C0B208B9012000E0D1
:1055E000002050B900BF502080F31188BFF34F8FC7
:1055F000BFF36F8F00BF00BFFEE770479000002031
:1056000004ED00E00D48006850B900BF502080F361
:105610001188BFF34F8FBFF36F8F00BF00BFFEE74E
:1056200006480068401E054908600846006820B921
:10563000002080F3118800BF00BF70479000002059
:1056400070B506463546002E44D0083D2C4622490A
:1056500060680968084008B1012000E0002050B9E6
:1056600000BF502080F31188BFF34F8FBFF36F8FBF
:1056700000BF00BFFEE7206808B9012000E000205D
:1056800050B900BF502080F31188BFF34F8FBFF394
:105690006F8F00BF00BFFEE70F49606809680840D0
:1056A000C0B12068B0B90C4960680968884360607F
:1056B00000F07CF9094960680968084407490860F6
:1056C0002046FFF723F806480068401C044908609C
:1056D00000F0A6FF70BD00008C0000207C000020C0
:1056E0008800002000204FF0E02108618861064812
:1056F00000684FF47A71B0FBF1F0401E4FF0E021EA
:1057000048610720086170471800002070B5FAF75B
:10571000ABFD0446102C16D304F1E02090F8F053B2
:1057200015480078854201DB012000E0002050B9D7
:1057300000BF502080F31188BFF34F8FBFF36F8FEE
:1057400000BF00BFFEE70D48006800F4E0600C49B0
:105750000968884201D8012000E0002050B900BF4C
:10576000502080F31188BFF34F8FBFF36F8F00BFBE
:1057700000BFFEE770BD0000940000200CED00E0CB
:1057800098000020024600200BE0084B53F8303010
:1057900033B9064B43F8301003EBC0035A6002E004
:1057A000401C0828F1D300BF70470000840100208E
:1057B0002DE9F04105460E4617462C46FFF7F8FE48
:1057C00094F94400401C10B9002084F8440094F976
:1057D0004500401C10B9002084F84500FFF712FF77
:1057E000A06B28B93A46314604F1240000F062F873
:1057F0002046FFF7DCF9BDE8F081000070B50446F3
:105800000025D4B11248006808B9012000E000204A
:1058100050B900BF502080F31188BFF34F8FBFF302
:105820006F8F00BF00BFFEE700F0C0F800212046E8
:10583000FEF7EAFC00F0F4FE05463DB94FF080505B
:1058400004490860BFF34F8FBFF36F8F70BD000036
:105850005400002004ED00E0034909680160034999
:1058600009684160704700004400002030000020BB
:1058700001200149086070474000002070B50446CF
:105880000D4654B900BF502080F31188BFF34F8FED
:10589000BFF36F8F00BF00BFFEE7054801681831F6
:1058A0002046FFF75FFE01212846FEF7ADFC70BDE4
:1058B0001C00002070B505460E46144655B900BFC1
:1058C000502080F31188BFF34F8FBFF36F8F00BF5D
:1058D00000BFFEE70648016818312846FFF75CFE66
:1058E0000CB14FF0FF3621463046FEF78DFC70BDFF
:1058F0001C00002010B586B000200590049003AA7B
:1059000004A905A8FFF706FE0022DDE904101346EE
:10591000CDE9002102901EA11F48039A00F0CCFCA3
:105920001E4908600846006808B1012400E0002410
:10593000012C02D100F0F6FE0446012C15D100BF67
:10594000502080F31188BFF34F8FBFF36F8F00BFDC
:105950004FF0FF3012490860012012490860002012
:105960001149086000F072F810E0601C08B10120D5
:1059700000E0002050B900BF502080F31188BFF331
:105980004F8FBFF36F8F00BF00BFFEE706B010BDA3
:1059900049444C4500000000954500085000002097
:1059A0004C00002038000020300000200248006831
:1059B000401C014908607047540000201E480068E0
:1059C00018B101201D49086034E000201B4908601F
:1059D0001B4801680CE051B900BF502080F31188CA
:1059E000BFF34F8FBFF36F8F00BF00BFFEE7491EAD
:1059F00001EB8100134A52F8200008B9012000E0B1
:105A000000200028E7D101EB81020E4B03EB82005E
:105A100042685268426000F108024368934202D132
:105A20004268526842604268D268074B1A60044874
:105A3000016000BF704700005400002040000020BB
:105A400034000020C40100201C0000201CB5524876
:105A500000685249884201D0012000E0002050B97E
:105A600000BF502080F31188BFF34F8FBFF36F8FBB
:105A700000BF00BFFEE7484800684849491E884209
:105A800001D0012000E0002050B900BF502080F379
:105A90001188BFF34F8FBFF36F8F00BF00BFFEE7CA
:105AA0003F49084600780190FF200A4610700846DA
:105AB000007800909DF8000000F0F0009DF80020B4
:105AC000904201D1012000E0002050B900BF5020D9
:105AD00080F31188BFF34F8FBFF36F8F00BF00BFFC
