:020000040800F2
:10000000B85A0020710200087F2100087D1F0008F7
:100010007D210008410A0008652800080000000052
:10002000000000000000000000000000B101000816
:10003000F50A0008000000000D020008F92500087C
:100040008B0200088B0200088B0200088B0200085C
:100050008B0200088B0200088B0200088B0200084C
:100060008B0200088B0200088B0200088B0200083C
:100070008B0200088B0200088B0200088B0200082C
:100080008B0200088B0200080D0900080000000028
:100090000000000000000000000000008B020008CB
:1000A0008B020008B52600088B0200088B020008AE
:1000B0008B0200088B0200088B0200088B020008EC
:1000C0008B0200088B0200088B0200088B020008DC
:1000D0008B0200088B0200088B0200080000000061
:1000E0008B0200088B0200088B0200080000000051
:1000F0000000000000000000000000008B0200086B
:10010000000000008B0200088B0200088B02000830
:1001100000000000000000000000000000000000DF
:10012000450A00088B0200088B0200088B020008B9
:100130008B0200080000000000000000000000002A
:100140000000000000000000000000008B0200081A
:100150008B0200088B0200088B0200088B0200084B
:100160008B0200088B020008000000000000000065
:10017000000000000000000000000000000000007F
:10018000000000008B0200080000000000000000DA
:100190008B0200088B020008DFF810D000F0EEFAA6
:1001A00000480047053D0008AFF30080B85A002022
:1001B0002C4B19680868B0E8F04F80F30988BFF34A
:1001C0006F8F4FF0000080F311887047000000002F
:1001D00008480068006880F308884FF0000080F34A
:1001E000148862B661B6BFF34F8FBFF36F8F00DF25
:1001F00000BF00BF08ED00E0DFF80C00016841F42B
:1002000070010160704700BF88ED00E0EFF30980E6
:10021000BFF36F8F134B1A681EF0100F08BF20ED4D
:10022000108A20E9F04F106009B44FF0500080F3BD
:100230001188BFF34F8FBFF36F8F04F0D9FC4FF0DD
:10024000000080F3118809BC19680868B0E8F04F15
:100250001EF0100F08BFB0EC108A80F30988BFF3BE
:100260006F8F704730000020EFF30580704700006B
:100270000648804706480047FEE7FEE7FEE7FEE740
:10028000FEE7FEE7FEE7FEE7FEE7FEE7A52600083D
:10029000990100082DE9F05F0546002092469B4633
:1002A00088460646814640241BE02846414647468C
:1002B000224600F09AF853465A46C01A914110D38C
:1002C00011461846224600F081F82D1A67EB010806
:1002D0004F4622460120002100F078F817EB000974
:1002E0004E41201EA4F10104DFDC484631462A4677
:1002F0004346BDE8F09F40EA01039B0703D009E0B5
:1003000008C9121F08C0042AFAD203E011F8013B01
:1003100000F8013B521EF9D27047D2B201E000F85A
:10032000012B491EFBD270470022F6E710B5134699
:100330000A4604461946FFF7F0FF204610BD30B5C7
:1003400005462A460B4612F8010B13F8014B08B17B
:10035000A042F8D01CB1002802D06D1CF1E728465D
:1003600030BD421C10F8011B0029FBD1801A7047D8
:10037000034611F8012B00F8012B002AF9D1184689
:10038000704730B505460020034600E05B1C9342F1
:1003900005D2EC5CC85C201A01D1002CF6D130BD2E
:1003A00030B50B46014600202022012409E021FA45
:1003B00002F59D4205D303FA02F5491B04FA02F542
:1003C0002844151EA2F10102F1DC30BD202A04DB15
:1003D000203A00FA02F1002070479140C2F1200358
:1003E00020FA03F3194390407047202A04DB203A97
:1003F00021FA02F00021704721FA02F3D040C2F145
:10040000200291400843194670472DE9FE4F80466F
:1004100081EA0300C00F0C46009021F0004123F058
:100420000045B8EB0200A94105D24046214690465E
:100430001C460B46024623F00040104347D0270DD0
:10044000C7F30A00C3F30A510290401A01904028F2
:100450006BDAC3F3130040F4801B0098924620B17E
:100460000023D2EB030A63EB0B0B01985946C0F152
:1004700040025046FFF7AAFF06460D465046594631
:10048000019A00F08DF910EB08006141002487EA21
:10049000115284EAE7731A4340D0009A62B3019A7A
:1004A000012A4FEA075215DC001B61EB02014FF0F5
:1004B000004202EA0752CDE90042001C41F58011DA
:1004C00032462B4600F08DF903B0BDE8F08F404670
:1004D0002146F9E7001B61EB0201001C41F5801386
:1004E00000185B412018A2F5001747EB030140EA12
:1004F000D570B6196D4111E06D084FEA360645EA30
:10050000C0754FEA0752001B61EB0201001C41F568
:10051000801149084FEA30000019514132462B46FC
:1005200003B0BDE8F04F00F04DB900980122400043
:100530000023D0EB020263EBE073009821464FEA00
:10054000E074B8EB000061EB0401E9E783F00043DD
:100550005BE781F0004158E72DE9FE4F81EA030493
:1005600004F0004421F0004100944FF0000B23F010
:10057000004350EA01045ED052EA03045BD0C3F3A7
:100580000A54C1F30A552C44A4F2F3340194A0FB9D
:100590000254C1F3130141F48011C3F3130343F474
:1005A000801301FB024400FB034E840A970A44EACD
:1005B000815447EA8357A4FB076802958D0A05FB1F
:1005C00007854FEA932C04FB0C542705029D4FEA44
:1005D000065847EA1637B5EB08056EEB070C870E91
:1005E000920E47EA811742EA8312A7FB0201B6EB9B
:1005F0000B0164EB00042B0D43EA0C335E1844EB53
:100600001C50DA465146E7FB0201C5F313044FEADA
:100610000B3343EA14534FEA0432019C43EA0603C6
:10062000A4F10C040294009CCDE900B400F0D9F8C8
:1006300003B0BDE8F08F00200146F9E72DE9F04D49
:1006400081EA030404F0004B21F0004514464FF00A
:10065000000A23F0004150EA050220D054EA0102CA
:100660001DD0C5F30A570246C5F31303C1F31300A7
:10067000C1F30A5640F4801543F48013A7EB060833
:10068000101BD64608F2FD3873EB050002D308F1C3
:10069000010801E092185B41B8F1000F03DA002075
:1006A0000146BDE8F08D00204FF4801106468446D7
:1006B0000EE0171B73EB050705D3121B63EB050355
:1006C00006434CEA010C49084FEA300092185B419E
:1006D00050EA0107EDD152EA030012D082EA040089
:1006E00083EA0501084305D0101BAB4106D2012265
:1006F000002306E000224FF0004302E06FF0010209
:1007000053101AEB06004CEB085110EB0A0041EBBA
:100710000B01BDE8F04D00F055B8C1F30A52C1F32A
:10072000130140F2FF3341F480119A4202DA0020B3
:100730000146704740F233439A42A2F2334202DC50
:100740005242FFF752BEFFF741BE000030B5041E13
:1007500071F1000404DB4FF00044404264EB0101FE
:10076000141E73F1000405DB1C464FF00043524297
:1007700063EB0403994208BF904230BD064C074D1D
:1007800006E0E06840F0010394E807009847103461
:10079000AC42F6D3FFF704FDCC5A0008EC5A00082F
:1007A000202A06DBCB17203A41FA02F043EAE07335
:1007B00006E041FA02F3D040C2F120029140084322
:1007C0001946704710B5141E73F1000408DA401C76
:1007D00041F1000192185B411A4301D120F0010060
:1007E00010BD2DE9F04D92469B4611B1B1FA81F250
:1007F00002E0B0FA80F220329046FFF7E7FD0446AF
:100800000F4640EA0A0041EA0B0153465A460843A4
:1008100013D0114653EA010019D0C8F140025046E6
:10082000FFF7E3FD05460E46504659464246FFF7A0
:10083000CDFD084305D0012004E020463946BDE83F
:10084000F08D0020054346EAE0762C4337430A98B2
:100850006305E40AA0EB08000022FD0A44EA4754BD
:100860000A3002D500200146E9E701051019694167
:10087000DDE9084500196941BDE8F04DA2E710B572
:100880000146806B026C12F0500F05D0026CD2064C
:1008900026D500F023FA10BD016C41F4007101640B
:1008A00001688A6812F0405F17D1027EAAB9CA6A4D
:1008B00012F4700F02D08A6852050ED44A6822F0F2
:1008C00020024A60016C21F480710164016CC9044A
:1008D00003D4016C41F00101016400F0C1F910BDC5
:1008E000806BC26CBDE810400846104710B5806BA5
:1008F00040210164416C41F00401416400F0EEF9D3
:1009000010BD10B5806B00F0E7F910BD014800F094
:1009100011BA0000F0000020464910B54A6822F4E0
:1009200040324A604A6843681A434A6001684A682C
:1009300022F480724A6001684A68036942EA03222D
:100940004A6001684A6822F040724A6001684A6859
:1009500083681A434A6001688A6822F400628A60E8
:1009600001688A68C3681A438A60816A6FF070629E
:10097000D14201688A6822F070628A6001688A68E0
:100980000CD0836A1A438A6001688A6822F0405258
:100990008A6001688A68C36A1A4301E022F0405203
:1009A0008A6001688A6822F002028A6001688A68A7
:1009B000037E42EA43028A6090F820100029016811
:1009C0004A680FD042F400624A6001684A6822F423
:1009D00060424A6001684A68174C436A04EB43333B
:1009E0001A4301E022F400624A600168CA6A22F4F4
:1009F0007002CA620168CA6A838B104C04EB03530D
:100A00001A43CA6201688A6822F400728A60016827
:100A10008A6890F8303042EA43228A6001688A6826
:100A200022F480628A6001688A68406942EA802014
:100A3000886010BD0023014000E0FFFF0000F0FFD0
:100A4000FEE70000014800F01DBB00003801002057
:100A500001681823CAB2103AB2FBF3F2054B6FF3E8
:100A60000901032A9B5CC36500D9091D81650846FD
:100A7000704700004059000810B5014600208B69FE
:100A80008A6A4FF0C07453B1B3F5005F15D072B1EC
:100A9000012A0CD0022A0AD0032A09D104E01AB193
:100AA000012A06D0022A03D1C96AC90100D5012052
:100AB00010BDC96AA142FAD010BD002AF7D0012AA0
:100AC000F2D0022AF3D0032AF3D010BD30B5046867
:100AD000256825F480252560046863608368402BC1
:100AE000036803D099600068C26030BD9A600068F6
:100AF000C16030BD704772B6FEE7704778B500241C
:100B0000009490F83C20012A19D0012280F83C2062
:100B10000A6807230568092A13D9EE680A3A02EB26
:100B2000420293409E43EE600B788A680A3B03EBD7
:100B300043039A400368DD682A43DA6010E002202C
:100B400078BD2E6902EB420293409E432E610B78E2
:100B50008A6803EB43039A4003681D692A431A61BC
:100B60004A681F23072A13D205686E6B521E02EBD8
:100B7000820293409E436E630A8893B20A79521EA2
:100B800002EB820293400268556B2B43536327E0CC
:100B900005680D2A12D22E6BD21F02EB82029340FF
:100BA0009E432E630B790A88DB1F92B203EB83030B
:100BB0009A4003681D6B2A431A6311E0EE6A0D3AEE
:100BC00002EB820293409E43EE620B790A880D3B52
:100BD00092B203EB83039A400368DD6A2A43DA6228
:100BE0001B4B0568194A9D420AD10D68122D07D189
:100BF000556825F400055560556845F48005556035
:100C000005689D421DD1134D0B68AB4201D0112BDD
:100C100017D1536823F480035360536843F40003EF
:100C200053600968A9420CD10B490C4A0968B1FB11
:100C3000F2F101EB8101490000E0491E0091002919
:100C4000FBD180F83C40002078BD0000002301402B
:100C500000200140120000102C00002040420F0034
:100C60001FB500200290FF2003900A48002302AA2B
:100C700003A9C06804F0D2F901280AD106A140F204
:100C80003510CDE900010A4B0AA210A1032002F0A1
:100C900001FC1FBD0000002051756575652073655E
:100CA0006E64207375636365737366756C00000012
:100CB000115900082E2E2F436F72652F5372632F28
:100CC0006672656572746F732E63000046726565A7
:100CD00052544F5300000000704700001CB506A19D
:100CE0004FF49E70CDE90001084B09A20EA101202E
:100CF00002F0D0FB1CBD0000414443206572726FBE
:100D000072206F6363757272656400002A5900086F
:100D10002E2E2F436F72652F5372632F6672656597
:100D200072746F732E6300004672656552544F53A0
:100D30000000000070B5044600680668456816F0BB
:100D4000020F05F020012AD049B3216CC90603D453
:100D5000216C41F400712164816811F0405F17D16A
:100D6000217EA9B9C16A11F4700F02D081684905CA
:100D70000ED4416821F020014160206C20F4807085
:100D80002064206CC00403D4206C40F00100206477
:100D90002046FFF765FF21686FF01200086016F02B
:100DA000040F05F0800132D089B3206CC00603D453
:100DB000206C40F4005020642068816811F4401FCA
:100DC0001ED1816B11F4401F02D08168490517D4F0
:100DD0004168490514D4816811F0405F10D1217E2B
:100DE00071B9416821F080014160206C20F480508D
:100DF0002064206CC00503D4206C40F00100206406
:100E00002046FFF77AFE21686FF00C00086016F0AC
:100E1000010F05F040010FD071B120680068C007D4
:100E20000AD0206C40F480302064204600F043F863
:100E300021686FF00100086016F0200F05F0806156
:100E40000ED000290CD0606C40F002006064206875
:100E50006FF0200505602046FFF740FF2068056021
:100E600070BD70B504004FF0000503D0206C002663
:100E700010B107E0012070BD204600F01DF8666447
:100E800084F83C60206CC00610D4206C20F488509C
:100E900040F0020020642046FFF73EFD6664206CAF
:100EA00020F0020040F00100206400E0012584F8F9
:100EB0003C60284670BD704770B586B00646142168
:100EC0006846FFF731FA2149306888423BD1204813
:100ED0000025016841F480710160006800F48070B1
:100EE00005901B481438016841F001010160006859
:100EF000694600F001000590012000900320CDE933
:100F00000105144800F030FA144C1348C4E90005F8
:100F10000015A560C4E90350800060618000C4E949
:100F2000060525622046656200F07CF908B1FFF7EE
:100F3000E2FDB463002205211220A66300F09CFBB1
:100F4000122000F08BFB06B070BD000000200140B5
:100F50004438024000000240106402403801002082
:100F6000F8B5044600200E46009094F83C10012984
:100F700007D0012184F83C1021688B68DB0702D080
:100F800011E00220F8BD8B6843F001038B60364905
:100F9000364B0968B1FBF3F101EB410100E0491E5A
:100FA00000910029FBD121688B68DB0503D58B6894
:100FB00023F480738B6021688B68DB0749D0236C36
:100FC00040F20165AB4343F48073236449684905EB
:100FD00005D5216C21F4005141F480512164216C2C
:100FE000C90404D5616C21F00601616400E060640D
:100FF00084F83C00A16B1F481D4DC863A16B1E48BF
:101000000864A16B1D48C86421686FF02200086065
:101010002068416841F0806141602068816841F446
:10102000807181602168134632464C31A06B00F01C
:1010300063F96868C006206802D01149884210D15F
:10104000816811F0405F0CD1816841F0804181607E
:1010500007E0206C40F010002064606C40F001005C
:1010600060640020F8BD00002C00002040420F000A
:10107000002301407F08000803090008ED0800086C
:10108000002001402DE9F84304464FF00009CDF857
:10109000009063484FF41651A56D0068B0FBF1F75E
:1010A0002E6894F85C10082000FA01F131420FD04C
:1010B00021680A6852070BD50A6822F004020A6008
:1010C00094F85C108840A860606D40F00100606595
:1010D00094F85C104FF0010808FA01F0304208D093
:1010E00021684969090604D5A860606D40F00200D6
:1010F000606594F85C1004208840304208D0216874
:101100000968890704D5A860606D40F00400606537
:1011100094F85C1010208840304218D0216809688B
:10112000090714D5A86020680168490304D5006840
:10113000000308D5A16C07E00168C90503D4016864
:1011400021F008010160216C09B12046884794F81C
:101150005C1020208840304231D021680968C906DF
:101160002DD5A86094F8350005282068016806D0C0
:10117000490347D5006800031DD4616C1CE021F0D1
:10118000160101602068416921F080014161206CF5
:1011900008B9A06C20B12068016821F00801016045
:1011A00094F85C103F208840A86084F8358084F86B
:1011B0003490216D1FE0E16B09B120468847606DD6
:1011C00000282BD0606DC00714D0052084F83500AE
:1011D0002068016821F0010101600098401C009026
:1011E000B84203D820680068C007F6D184F835807B
:1011F00084F83490E16C002910D001B02046BDE89D
:10120000F04308470168C905D5D4016821F01001F1
:10121000016084F8358084F83490CCE7BDE8F88329
:101220002C0000202DE9F041044600F08DF906461F
:101230005CB1022084F83500002584F83450206821
:10124000016821F0010101600DE00120BDE8F0819D
:1012500000F07AF9801B052805D92020606503205D
:1012600084F83500F2E720680068C007F0D12268F2
:10127000116820480140D4E901031843D4E903363A
:101280003343184363691843A3691843E369184358
:10129000236A18430843616A042903D1D4E90B1374
:1012A00019430843106020684069666A20F007010E
:1012B00030460E43012704280CD1A06A0643E06A99
:1012C00040B12046FFF7D8FB20B14020606584F88C
:1012D0003570BAE7206846612046FFF7B9FB94F8FD
:1012E0005C203F2191408160656584F83570002065
:1012F000ACE700003F8010F02DE9F0410446866D18
:1013000090F83400002501280DD0012084F8340025
:1013100094F835700020012F07D084F8340002259E
:101320002846BDE8F0810220FBE7022784F83570EB
:1013300060652046FFF7CAFB94F85C103F208840A8
:10134000B0602068016841F016010160206C20B196
:101350002068016841F0080101602068016841F0DF
:1013600001010160DCE700002DE9F84FDFF8B8A1CA
:101370000022012403254FF00F090AF1040BAAF102
:10138000040E00BF0B6804FA02F63340B34273D177
:101390000F7907F00307012F01D0022F16D18768BC
:1013A0004FEA420805FA08FC27EA0C07D1F80CC0FE
:1013B0000CFA08FC4CEA070CC0F808C04768B743B1
:1013C0000E79C6F3001696403E4346600E79F6430A
:1013D000B6070DD0C768560005FA06FC27EA0C07C9
:1013E000D1F808C00CFA06FC4CEA070CC0F80CC097
:1013F0000E7906F00306022E10D1D60800EB8608FF
:10140000D8F8206057074FEAD76C09FA0CF7BE43AB
:101410000F6907FA0CF73743C8F8207006684FEADF
:10142000420C05FA0CF7BE430F7907F0030707FAE1
:101430000CF7374307604E6816F4403F6DD03B4EC3
:10144000376847F480473760366822F0030706F4B0
:1014500080460096364E07EB060CDCF808689707C6
:101460003F0F09FA07F826EA0806DFF8C88040456A
:1014700003D14FF000081EE04FE0DFF8BC8040458C
:1014800002D14FF0010816E0DFF8B080404502D1EC
:101490004FF002080FE0DFF8A880404502D14FF07E
:1014A000030808E0DFF89C80404502D14FF00408B3
:1014B00001E04FF0070808FA07F848EA0608CCF8F8
:1014C0000888DAF800605746D1F804C09E435FEA06
:1014D000CC2C00D51E433E60DBF800605F46D1F89F
:1014E00004C09E435FEA8C2C00D51E433E60DEF8AC
:1014F00000607746D1F804C09E435FEA8C3C00D57B
:101500001E433E60084F083F3E68D1F804C09E432A
:101510005FEACC3C00D51E433E60521C102AFFF40B
:1015200031AFBDE8F88F0000083C0140443802406C
:101530000030014000000240000402400008024068
:10154000000C024000100240014880687047000013
:1015500020000020024881680278114481607047B1
:10156000200000200B4810B5016841F400710160B3
:10157000016841F480610160016841F4807101609B
:10158000032000F099F80F2000F006F800F04AF868
:10159000002010BD003C024030B505461C4887B015
:1015A0000024016841F001010160006806A900F013
:1015B0000100009001A800F02BF900F059F915493D
:1015C000154AB0FBF1F11548491E026040F2E732BE
:1015D000C0E90324C0E90114846100F043FB040066
:1015E00012D10E4800F06CFB04000DD1192000F060
:1015F00035F8102D07D200222946192000F03CF8BA
:101600000748056000E0012407B0204630BD000017
:101610004438024040420F0000000140DC0100203D
:10162000240000200C4882B0016841F48041016030
:10163000006800F4804000900748001F016841F0F6
:10164000805101600068002200F0805000900F215E
:10165000901E02B000F010B844380240002809DBA8
:1016600000F01F02012191404009800000F1E020BC
:10167000C0F8001170470000F0B40E4B1B680C4618
:10168000C3F30223C3F10705042D00D90425191D56
:10169000072901D2002300E0DB1E012606FA05F12E
:1016A000491E214099409E40761E16403143F0BCB1
:1016B00001F0ACB90CED00E0064900F00702086843
:1016C0004FF6FF03184040EA0220034A1043086027
:1016D000704700000CED00E00000FA052DE9F0472E
:1016E0000E46050065D0DFF81481D8F80000F7B287
:1016F00000F00700B04207D288F80070D8F8000068
:1017000000F00700B04254D128683D4C810712D543
:10171000400703D5206840F4E05020602878000797
:1017200003D5206840F4604020602068A96820F05C
:10173000F000084320602878C0072DD03049686841
:101740000839012812D0022813D0032811D00968C3
:10175000890700292DDA216821F003010143216066
:10176000FFF7F2FE814641F2883A0EE009688903EC
:10177000EFE709688901ECE7FFF7E6FEA0EB090156
:10178000514502D90320BDE8F0872068696800F060
:101790000C00B0EB810FEFD1D8F80010404601F0FB
:1017A0000701B14207D90770006800F00700B04296
:1017B00001D00120E7E72878400705D52068E968CF
:1017C00020F4E050084320602878000706D5206800
:1017D000296920F4604040EAC100206000F058F818
:1017E0002168084AC1F30311515CC84006490860EA
:1017F00006480068FFF7D0FE0020C4E7003C024026
:1018000008380240485900082C000020240000201D
:101810000F2202600C4A136803F00303436013684D
:1018200003F0F0038360136803F4E053C3601268AD
:101830004FF4E05303EAD20202610448006800F06A
:10184000070008607047000008380240003C024072
:101850000448054900680968044AC1F38221515CC3
:10186000C84070472C000020083802405859000832
:101870000448054900680968044AC1F34231515CD3
:10188000C84070472C000020083802405859000812
:10189000154810B5006810F00C02144813D0144914
:1018A000042A0FD0082A0ED10F4C241F2268236867
:1018B00002F03F025B0207D52068C0F38810A0FB4E
:1018C000010106E0084610BD2168C1F38811A1FBA3
:1018D00000010023FEF7DEFC2168C1F30141491C31
:1018E0004900B0FBF1F010BD083802400024F400BC
:1018F00040787D012DE9F84F04006ED02078DFF8A4
:101900004C93C007A9F104054AD009F1040001680D
:10191000C1F38101012908D00068C0F381000228C9
:101920000AD1D9F80000400206D52868800337D5CF
:1019300060680028E1D033E06068B0F5803F10D0E7
:10194000B0F5A02F286810D020F4803028602868D7
:1019500020F4802028606068A8B1FFF7F5FD0646F6
:101960000DE0286840F48030F4E740F480202860DF
:10197000F7E700BFFFF7E8FD801B642873D82868ED
:101980008003F7D50CE0FFF7DFFD064605E000BF5A
:10199000FFF7DAFD801B6428F0D828688003F7D4AD
:1019A0002078DFF8AC8280074FF0000A3ED5A748C8
:1019B000001D016811F00C0F08D00068C0F3810011
:1019C00002280BD1D9F80000400207D4286880070C
:1019D00016D5E068012800D112E033E1E068B8B123
:1019E0000120C8F80000FFF7AFFD064605E000BF84
:1019F000FFF7AAFD801B0228C0D828688007F7D50A
:101A00002868216920F0F80040EAC10028600DE054
:101A1000C8F800A0FFF798FD064604E0FFF794FD24
:101A2000801B02281FD828688007F7D42078000779
:101A300022D5864F87486169703771B101210160F5
:101A4000FFF782FD064604E0FFF77EFD801B0228BB
:101A500009D838688007F7D50EE0C0F800A0FFF776
:101A600073FD064605E082E0FFF76EFD801B02284D
:101A70007DD838688007F7D42078400768D5DFF82C
:101A8000CCB100270BF13C0BDBF80000C0000BD4FD
:101A9000DBF8001041F08051CBF80010DBF80000BB
:101AA000012700F0805000906B4E3068C00510D4C4
:101AB000306840F480703060FFF746FD009005E02C
:101AC000FFF742FD0099401A022850D83068C0053F
:101AD000F6D55E4EA0686C3601280FD00528306818
:101AE00010D020F001003060306820F00400306039
:101AF000A068B8B1FFF728FD00900FE0306840F013
:101B00000100F4E740F004003060F7E7FFF71CFD48
:101B10000099411A41F28830814266D830688007C6
:101B2000F4D50EE0FFF710FD009007E0FFF70CFD85
:101B30000099411A41F28830814256D830688007B6
:101B4000F4D42FB1DBF8001021F08051CBF8001055
:101B5000A069C8B33D49091D0968C1F38101022983
:101B60004AD00228504607D0C8F8600000E03CE0A8
:101B7000FFF7EAFC04463BE04746C8F86000FFF781
:101B8000E3FC064605E000BFFFF7DEFC801B0228F1
:101B90002BD828688001F7D4D4E907010843A16A4B
:101BA0002E4A490802EB0141626A41EA8211084368
:101BB00094F82C1040EA0161C9F800100120386641
:101BC000FFF7C2FC044606E03EE000BFFFF7BCFCA6
:101BD000001B022809D828688001F7D534E000BF2F
:101BE000FFF7B2FC001B022802D90320BDE8F88FE2
:101BF00028688001F4D427E00128F7D0D9F8000044
:101C0000E26900F4800191421CD1226A00F03F0198
:101C1000914217D147F6C071626A0140B1EB821F51
:101C200010D1A26A4FF0FF3300F4403103EB5202AF
:101C3000B1EB024F06D194F82C1000F07060B0EBBD
:101C4000016F01D00120D1E70020CFE70438024026
:101C500000004742800E4742007000400000FFFF36
:101C60007047704710B5040003D094F83D0010B1E0
:101C700007E0012010BD002084F83C00204600F061
:101C80001EF8022084F83D00211D206800F018FD98
:101C9000012084F8460084F83E0084F83F0084F870
:101CA000400084F8410084F8420084F8430084F83E
:101CB000440084F8450084F83D00002010BD7047C2
:101CC00090F83D10012901D001207047022180F8D1
:101CD0003D100168CA6842F00102CA6000680E49FE
:101CE00088420ED0B0F1804F0BD00C49884208D00A
:101CF0000B49884205D00B49884202D00A498842E4
:101D000004D1816801F00701062903D0016841F080
:101D10000101016000207047000001400004004004
:101D200000080040000C004000400140704770B5C2
:101D30000446006801694FF00005C943890715D4BE
:101D4000C168C943890711D4E91E016101202077C8
:101D5000206880698007204602D0FFF7E7FF04E093
:101D600000F098F8204600F096F825772068016981
:101D7000C943490717D4C168C943490713D46FF051
:101D800004010161022020772068806910F4407FFF
:101D9000204602D0FFF7CAFF04E000F07BF820469F
:101DA00000F079F8257720680169C943090716D43E
:101DB000C168C943090712D46FF00801016104200A
:101DC00020772068C0698007204602D0FFF7AEFF69
:101DD00004E000F05FF8204600F05DF82577206809
:101DE0000169C943C90617D4C168C943C90613D4D8
:101DF0006FF010010161082020772068C06910F49D
:101E0000407F204602D0FFF791FF04E000F042F847
:101E1000204600F040F8257720680169C943C907CA
:101E200008D1C168C943C90704D1891E0161204690
:101E300000F032F820680169C943090609D4C16875
:101E4000C943090605D46FF0800101612046FFF700
:101E500007FF20680169C943490609D4C168C9431D
:101E6000490605D46FF040010161204600F01EF8DC
:101E700020680169C94389060BD4C168C943890632
:101E800007D46FF0200101612046BDE87040FFF7E4
:101E9000E8BE70BD7047704700680349884201D1B1
:101EA000FFF758BB7047000000000140704770B555
:101EB000040004D094F83D00002510B106E0012094
:101EC00070BD84F83C50204600F022F8242084F8AD
:101ED0003D002068C16821F40051C160204600F037
:101EE0003BFC2068016921F490410161206841694F
:101EF00021F02A0141612068C16841F40051C160AC
:101F00002564202084F83D0084F83E00002070BD48
:101F100010B586B0044614216846FEF705FA144948
:101F20002068884221D113480021026842F0100243
:101F30000260006800F0100005900E481438026836
:101F400042F001020260006800F0010005904FF4C9
:101F5000C06000900220CDE901010320039007201A
:101F6000049069460448FFF7FFF906B010BD000071
:101F7000001001404438024000000240FEE700002B
:101F80007FB50024154800940194029412490394EB
:101F900001604FF48031C0E901140461047680F8D7
:101FA00020400F49C0E90A140125C561C46080F8CA
:101FB00030404561FEF755FF08B1FEF79CFDCDE9C5
:101FC0000045694605480294FEF798FD002801D0B7
:101FD000FEF791FD7FBD000000200140F0000020D1
:101FE0000100000F094808B5016841F48001016053
:101FF0000068002200F48000009005213820FFF7DF
:102000003BFBBDE808403820FFF728BB30380240D2
:102010001CB5012002F0AEFE194C6061E0B1002257
:102020000421012002F0B1FEE06008B30022042187
:10203000012002F0AAFE206100281BD0114A0021D5
:10204000114801F0E7FE0F4AE061243A00210F48F1
:1020500001F0E0FEA0611CBD0DA16A20094BCDE995
:102060000001243310A216A1012001F013FA1CBDB7
:1020700016A000E01CA0BDE81C4000F083BC0000DE
:1020800000000020B85800085523000875220008F9
:102090004D75746578206372656174696F6E206632
:1020A00061696C65640000002E2E2F436F72652FEE
:1020B0005372632F6672656572746F732E630000CE
:1020C0004672656552544F530000000051756575A6
:1020D00065206372656174696F6E206661696C6505
:1020E00064200D0A000000004144432051756575CD
:1020F00065206372656174696F6E206661696C65E5
:1021000064200D0A000000000D4808B5016841F088
:1021100004010160016801F004010091016841F0CF
:1021200080010160016801F080010091016841F0C7
:1021300001010160006800F00100009008BD00008E
:10214000303802400C4810B50A4901604FF4E131C3
:102150004160002181600C22C160C0E904128161EC
:10216000C161FFF7A4FE002803D0BDE81040FEF7D0
:10217000C2BC10BD0010014098010020FEE7FEE740
:1021800070B5054615480C46007808B900F06CFBA0
:10219000EFF31181202080F31188104A05EB4500F0
:1021A00002EBC000426A056A13461830521C954281
:1021B00000D100224569022D02D105699542FCD06B
:1021C0000569954204D04568EC54C260012000E0E6
:1021D0000020C9B281F3118870BD0000F84A0020C8
:1021E0002DE9F04107460B4815460E46007808B920
:1021F00000F03AFBEFF31184202080F311882A4687
:102200003146384600F008F8E1B281F31188BDE8A4
:10221000F0810000F84A002070B50E46144900EB2A
:10222000400001EBC0051446E86A183520B10128CA
:102230000FD0022805D113E0284600F049FBA04248
:1022400001D2002411E022463146284600F078FBF6
:102250000BE0284600F03CFBA042F4D20446F2E733
:102260003146284600F03FFB0446204670BD000082
:10227000F84A00200EB5FF201B4C40F20D164FF01F
:10228000FF35029019A0CDE900601E4B1EA224A1CB
:10229000032001F0FFF82A4602A9206902F01EFF80
:1022A0000128EFD12946606902F0B4FF0128E9D185
:1022B0000298012802D0022804D00EE01BA14FF49E
:1022C0008A7002E01EA14FF48C70CDE900010D4B25
:1022D0000DA213A1032001F0DDF800231A461946D0
:1022E000606902F0EBFDCDE7000000206164635FF0
:1022F0006F75747075745F7461736B2072756E6E38
:10230000696E6700FE5800082E2E2F436F72652FEE
:102310005372632F6672656572746F732E6300006B
:102320004672656552544F53000000004275666660
:102330006572312069732072656164790000000064
:1023400042756666657232206973207265616479D0
:10235000000000002DE9F04385B0042001F0E8FC06
:10236000624C2060042001F0E3FC606021684FF4BF
:102370007A7700291ED000281CD05DA1AB20CDE9C2
:102380000001634B63A269A1032001F083F8FF22DF
:1023900004212068FDF7C1FFFF2204216068FDF7DA
:1023A000BCFF012264482168FEF7DAFD28B163A171
:1023B000B6206FE067A1A6206CE0FF200490C02645
:1023C0004FF0FF354FF001084FF00209039068A06D
:1023D000CDE900604E4B4FA254A1032001F05AF802
:1023E0002A4604A9E06802F079FE0128EFD12069AD
:1023F00002F0CFF950B164A1FC20CDE90001444BBB
:1024000044A24AA1032001F045F8E0E729466069AB
:1024100002F000FF0128DAD1A068012802D00228CA
:1024200024D05BE0226861A1CA2012688DE8070011
:10243000374B38A23DA1032001F02CF801223E4881
:102440006168FEF78DFD10B13CA1D12022E0C4F8F7
:1024500008900023CDF80C801A4603A9206902F0E9
:102460002DFD01283AD157A1DC202FE062685CA144
:10247000E22012688DE80700254B26A22BA103203D
:1024800001F008F801222C482168FEF769FD78B1B7
:102490002AA1E920CDE900011D4B1EA223A10120A4
:1024A00000F0F8FF384601F079FC05B0BDE8F08394
:1024B000C4F808800023CDF80C901A4603A92069BF
:1024C00002F0FCFC012809D13EA1F420CDE9000175
:1024D0000F4B10A215A1032000F0DCFF00231A46C9
:1024E0001946606902F0EAFC71E700000000002074
:1024F0004D656D6F727920616C6C6F636174696F8B
:102500006E207375636365737366756C00000000FD
:10251000ED5800082E2E2F436F72652F5372632FD4
:102520006672656572746F732E630000467265652E
:1025300052544F5300000000F00000204661696CC7
:10254000656420746F207374617274204144432069
:10255000444D41004D656D6F727920616C6C6F6305
:102560006174696F6E206661696C656400000000CB
:1025700064656661756C74207461736B2072756E2E
:102580006E696E67000000004E6F206275666665BA
:1025900072207265616479207369676E616C20696D
:1025A0006E206164635F717565756500427566666E
:1025B000657231206461746120616161203D205B3E
:1025C00025645D006164635F717565756520736581
:1025D0006E64207375636365737366756C000000C9
:1025E000427566666572322064617461206262625F
:1025F000203D205B25645D0010B54FF0E0200069B0
:1026000002F056FF012803D0BDE8104002F09CBB49
:1026100010BD000030B593B030216846FDF784FE50
:1026200014210CA8FDF780FE1C480025016841F02C
:1026300080510160006800F08050119018480168D6
:1026400041F4404101600068022400F440401190D0
:1026500001200090000401908001CDE906400C208B
:1026600008906020CDE9090404200B906846FFF72C
:1026700041F908B172B6FEE70CA90F2081E83100DC
:102680004FF48050CDE90F0503210CA8FFF726F881
:10269000002801D072B6FEE713B030BD40380240CA
:1026A000007000400248016841F470010160704709
:1026B00088ED00E00148FFF73ABB0000DC01002094
:1026C000F0B502681D4B1E4C9F031E4D1E4E9842D6
:1026D00007D0B84205D0A04203D0A84201D0B042F2
:1026E00004D122F0700C4A6842EA0C02984210D0E1
:1026F000B8420ED0A0420CD0A8420AD0B04208D0B6
:10270000124CA04205D0124CA04202D0114CA04263
:1027100003D122F44074CA6822434C6922F080023B
:10272000224302608A68C2620A688262984201D1CA
:102730000969016301214161F0BD00000000014011
:102740000004004000080040000C00400040014030
:10275000004401400048014070B50446006801692A
:10276000E26821F44051114301612169A068E269E6
:1027700008436169114308432168CA6849F20C6340
:102780009A430243CA6020684169A26921F44071FA
:102790001143416131492068884202D03049884262
:1027A00002D1FFF765F801E0FFF752F8E269002374
:1027B000192164253226B2F5004F626828D0A0FBAB
:1027C0000101930F9200FDF765FD0146B0FBF5F0A6
:1027D0006FF01802504301EB800006EB0010B0FBD5
:1027E000F5F000F0F002B1FBF5F002EB0012B1FBE6
:1027F000F5F06FF01803584301EB800006EB001072
:10280000B0FBF5F000F00F0021681044886070BD47
:10281000A0FB010192185B41FDF73CFD0146B0FBB6
:10282000F5F00201B1FBF5F06FF01803584301EB2E
:10283000800006EBC000B0FBF5F000F0F80002EB02
:102840004002B1FBF5F0584301EB800006EBC000FD
:10285000B0FBF5F000F00700D6E7000000100140E3
:1028600000140140FEE7000010B5124C0320206167
:10287000606111A0A06104F1A800E0614FF48060E4
:1028800020620020A0626062E0620BA1216604F574
:10289000956161661021A1662067E066606709A105
:1028A000E01DFDF765FD08A12046FDF761FD202034
:1028B000A07110BDF84A00205465726D696E616C9C
:1028C0000000000052545400534547474552000051
:1028D0000269C1688A4203D88068401A104400E047
:1028E000501A401E70472DE9F047C46817468946C4
:1028F00006464FF000083069A04201D9051B02E0EE
:10290000B168201A0D1AB0686D1E001BA84200D8CD
:102910000546BD4200D33D4670682A4620444946DC
:10292000FDF7E9FCB0687F1B2C44A844A944A042F1
:1029300000D10024F460002FDDD14046BDE8F087CF
:102940002DE9F04104468846D4E90207C51BE16839
:10295000606816460844B54206D94146FDF7CBFCEF
:10296000B819E060BDE8F0812A464146FDF7C3FC96
:10297000761B08EB050132466068FDF7BCFCE6609B
:10298000F0E700000FB4054B10B503A9044A029804
:1029900000F01EF910BC5DF814FB0000053C0008B7
:1029A000E40000200FB47CB50C0009AD01D0611E1D
:1029B00000E00021CDE90001064B6A46294608984F
:1029C00000F006F9002C02D0009A002111707CBCA6
:1029D0005DF814FBD73200087CB50C001D46164686
:1029E000014601D0601E00E00020CDE90010064B3A
:1029F0006A462946304600F0EBF8002C02D0009AD7
:102A0000002111707CBD0000D73200080907090EB3
:102A1000002804DB00F1E02080F80014704700F08B
:102A20000F0000F1E02080F8141D704702E008C894
:102A3000121F08C1002AFAD170477047002001E038
:102A400001C1121F002AFBD1704700002DE9FF5F72
:102A500082B00021DDE90430020DDDF840B003430F
:102A600018D044F61050A2F2FF32424315141198C8
:102A700001281FD0A5EB0B00401C5FEA000A4FF0B5
:102A800000064E4FDFF83891B046504615D5CAF1D2
:102A9000000413E0119801244AA3012801D16FEA30
:102AA0000B010298119AC0E90031C0E9024206B058
:102AB000BDE8F09FCBF10000DFE704460021404A6B
:102AC000491842EB0450CDE9001012E0E00707D0AE
:102AD00032463B4640464946FDF73EFD8046894624
:102AE00032463B4610461946FDF736FD06460F4670
:102AF0006410002CEAD1DDE90401DDE90023BAF11C
:102B0000000F06DAFDF728FD42464B46FDF724FD8F
:102B100005E0FDF793FD42464B46FDF78FFD044669
:102B20000E460022284BFDF711FE03D84FF0FF3070
:102B3000014607E00022254B20463146FDF765FCA3
:102B4000FDF7EBFD102409E0002C0ADB0A2200232C
:102B5000FDF7A0FB039B30321A55641E50EA0102B8
:102B6000F2D1641C039AC4F111031444119A012A8E
:102B700003D0012208430DD10AE0084304D000200D
:102B80004FF0110B119072E7A3EB0B056D1E0DE0DA
:102B90005B4504DD4FF0000205F1010504E003DAB6
:102BA0004FF00002A5F10105002AECD0029811991E
:102BB000C0E90231C0E9004579E700000000144097
:102BC0000000F03F300000000000F0430000E03F54
:102BD0002DE9FF4F95B09A46884606460025EEE15E
:102BE000252877D100242746F94A0121039400E0E3
:102BF000044316F8013F203B01FA03F01042F7D1DD
:102C000030782A2811D06FF02F033078A0F13002ED
:102C1000092A16D8039A44F0020402EB820203EB5D
:102C200042021044761C0390EFE758F8042B0392FD
:102C3000002A03DA504244F40054039044F00204A2
:102C4000761C30782E2816D116F8010F44F00404B3
:102C50002A280DD06FF02F023078A0F13003092B15
:102C600009D807EB870302EB4303C718761CF3E789
:102C700058F8047B761C30786C280FD006DC4C2882
:102C800017D068280DD06A2814D104E0742810D019
:102C90007A280FD10DE044F400140AE044F48014C3
:102CA00001E044F440147278824202D104F58014A9
:102CB000761C761C307866280BD013DC582877D029
:102CC00009DC002875D04528F6D04628F4D04728DE
:102CD0001AD193E118E0632835D0642879D06528AB
:102CE00012D18BE1702873D008DC6728F1D06928F5
:102CF0006FD06E280DD06F2806D1ACE073282CD091
:102D0000752874D0782853D05246179990476D1C77
:102D100054E1C4F30250022809D003280DD0D8F89A
:102D2000001004280DD00D6008F1040846E1D8F821
:102D30000010EA17C1E90052F6E7D8F800100D803C
:102D4000F2E70D70F0E718F8041B8DF80010002072
:102D50008DF80100EB46012003E058F804BB4FF06A
:102D6000FF3061074FF0000102D40DE009F10101CD
:102D70008946B9420FDA8145F8DB1BF809100029B2
:102D8000F4D108E009F1010189468142FADB1BF820
:102D900009100029F6D103985346A0EB09072146F4
:102DA0003846179A00F080FA284400EB090507E03E
:102DB00044E008E10DE01BF8010B524617999047DB
:102DC000B9F10109F7D2534621463846179AF2E085
:102DD00039E00A21C4F302524FF0000B0091022A9D
:102DE00006D058F8040BC117032A09D00AE023E0E3
:102DF00008F1070020F00702F2E80201904605E022
:102E000000B2C117042A01D140B2C117002906DA65
:102E10000A460021404261EB02012D2202E0220518
:102E200004D52B228DF80420012203E0E20701D013
:102E30002022F7E7914657E00A2100E010214FF0E9
:102E4000000B00910BE010214FF0000B44F0040444
:102E50000827009103E008204FF0000B0090C4F316
:102E60000252022A05D058F8040B0021032A08D088
:102E700008E008F1070020F00702F2E8020190469E
:102E800003E080B2042A00D1C0B24FF0000922074B
:102E90002AD53278702A07D0DDF800C08CF0100CEB
:102EA0005CEA0B0C05D00EE040228DF804200122D4
:102EB00008E050EA010306D030238DF804308DF885
:102EC000052002229146009B83F0080353EA0B037E
:102ED0000AD150EA010201D1620705D530228DF8EE
:102EE00004204FF001097F1E3278582A04D039A2FD
:102EF0000C920CAA02920BE03BA2F9E75B46009A07
:102F0000FDF7C8F90C9B9B5C029A521E029213704B
:102F100050EA0102F2D1029804A9081A00F1200B2C
:102F2000600702D524F4803400E001275F4502DD0C
:102F3000A7EB0B0000E0002000EB0B0100900398D2
:102F40004944401A0390E00306D453462146179A99
:102F5000039800F0A9F90544002706E001A85246AD
:102F6000C05D179990476D1C7F1C4F45F6DBE00351
:102F70000CD553462146179A039800F095F905445D
:102F800004E030205246179990476D1C0099481E66
:102F900000900029F5DC08E002980299524600787A
:102FA000491C0291179990476D1CBBF10001ABF1D0
:102FB000010BF1DC5BE100F065F90544761C30782B
:102FC00000287FF40DAE19B02846BDE8F08F000050
:102FD00009280100303132333435363738396162EF
:102FE00063646566000000003031323334353637B3
:102FF000383941424344454600000000600700D490
:10300000062708F1070020F00700F0E802238046B9
:1030100003F0004C5FEA0C0001D097A009E0200506
:1030200001D596A005E0E00701D095A001E0AFF240
:103030004C001390307823F0004365280CD006DC58
:10304000452809D046281DD047287FD13BE0662877
:1030500018D067287AD136E00021112F01DB11202A
:1030600000E0781CCDE9000104A90CA8FFF7EEFCF4
:10307000DDE90D010C9A4FF0000B07F101091092E8
:1030800000914EE04FF000400097CDE9011004A9F7
:103090000CA8FFF7DBFCDDE90D020C9B0F994FF04C
:1030A000000B91461093009211B9791C00EB0109B5
:1030B000B7EB090003D4C0F1FF3B07F10109A9EB0D
:1030C0000700019042E0012F00DA01270021112FB3
:1030D00001DD112000E03846CDE9000104A90CA86B
:1030E000FFF7B4FCDDE90D010C9A00914FF0000BE5
:1030F000B946109221070FD4009A4A4503DA914647
:1031000001E0A9F10109B9F1010F05DD109AA9F15A
:103110000101515C3029F4D0B84202DA10F1040FF9
:1031200003DA0121CDE9011010E0002803DC83441B
:10313000A9EB000102E0411C494500DD8946A0EBF6
:103140000B00401C01904FF000400290200705D476
:103150000198484502DB4FF0FF30019000208DF8C8
:103160004B0002980DF14B07B0F1004F25D0022023
:103170000C902B200D90029800280CDA404202900F
:103180002D200D9007E00A210298FDF709F9303152
:10319000029007F8011D0C99481E0C900029F2DCE2
:1031A00002980028EFD1791E0D980870307800F051
:1031B000200040F0450007F8020D11A8C01BC01DFB
:1031C00002901398007800B1012000EB09010198EA
:1031D00001EBE071029801440398401A401E0390ED
:1031E000E00306D453462146179A039800F05CF892
:1031F00005441398007818B15246179990476D1CF2
:10320000E00323D553462146179A039800F04CF863
:1032100005441BE0BBF1000F07DB0098584504DDB7
:103220001098179910F80B0001E0179930205246BA
:10323000904701980BF1010B401E05F1010501902B
:1032400004D12E205246179990476D1CB9F1000108
:10325000A9F10109DEDC05E017F8010B52461799C8
:1032600090476D1C0299481E02900029F4DC5346D9
:103270002146179A03989EE62D0000002B000000BF
:10328000200000002DE9F041044600251E461746A7
:10329000880404D405E039462020B0476D1C641E24
:1032A000F9D52846BDE8F0812DE9F0410446002516
:1032B0001E469046C80301D5302700E02027880429
:1032C00004D505E041463846B0476D1C641EF9D56B
:1032D0002846BDE8F0814A68002A06D00A68531CD7
:1032E0000B6010704868401E4860704710B500F0D1
:1032F0009DF8012000F0B8FBFF21002000F052FBF8
:10330000FF21012000F04EFBFF21022000F04AFBCC
:10331000FF21032000F046FBFF21042000F042FBC8
:10332000FF21052000F03EFBBDE8104000F0A2BBED
:10333000F0B585B0070007D11F4840F2E1120368DD
:10334000A3B11E491EA09847224D0024052695F8DA
:10335000F000002819D000F06FFA00BF04EB441011
:10336000411991F85100012812D017E01348CDE916
:103370000302009212A118A3CDE9013103461FA256
:1033800028A1002000F086F8FEE705B03046F0BD29
:103390001E2238463231FCF7F4FF30B1641CE4B22F
:1033A000052CDBD300F06EFAEFE704EB4410284461
:1033B00090F83160F6E70000B0000020F2590008F4
:1033C00074616720213D202828766F6964202A29AE
:1033D00030290000B053002028257329206861732C
:1033E00020617373657274206661696C6564206125
:1033F000742025733A256C642E0000002E2E5C4D3F
:103400006964646C6577617265735C656173796C1E
:103410006F676765725C7372635C656C6F672E6360
:1034200000000000656C6F67000000002DE9F041AE
:10343000174D002095F8F010012927D000F04AFA26
:10344000060023D1012000F007FA002785F8F37069
:1034500085F8F470012085F8F500052000F044FAA5
:103460000024B84604EB4410471907F132001F212D
:10347000FCF75AFF641C87F83180E4B287F851806A
:10348000052CEFD3012085F8F0003046BDE8F0812F
:10349000B05300200FB42DE9F04F06468BB08B4699
:1034A0000846FCF75EFF00240A940746A1460994EB
:1034B0000594069407940894052E08D9B34840F261
:1034C0003F220368002B7DD0B149B2A09847B84D88
:1034D00095F8F100002876D02878B04273D358468A
:1034E000FFF726FFB0426ED3691C5846FCF727FF52
:1034F000002868D00DF1680A00F09EF9A84695F8FA
:10350000F500A5F5806570B12946AAA2204600F015
:10351000FBFA04469D4829191C3050F82620204605
:1035200000F0F2FA04440121304600F073FB40B190
:1035300096482919001D50F82620204600F0E4FA8C
:1035400004440221304600F065FBC8B129195A46EF
:10355000204600F0D9FA04440F2F0BD8C7F10F0111
:10356000202205A8FCF7D9FE291905AA204600F05B
:10357000CBFA0444291990A2204600F0C5FA04446D
:103580001C21304600F046FB00284BD029198BA2A5
:10359000204600F0B9FA04440421304600F03AFB1A
:1035A000A8B100F087F902462919204600F0ACFACC
:1035B00004441821304600F02DFB40B129197EA2A9
:1035C000204601E035E0DBE000F09EFA04440821EB
:1035D000304600F01FFB90B100F064F90246291953
:1035E000204600F091FA04441021304600F012FB0E
:1035F00028B1291970A2204600F086FA044410214F
:10360000304600F007FB38B100F050F902462919A6
:10361000204600F079FA0444291969A2204600F0F6
:1036200073FA044420213046169A00F059FBE0B9A1
:103630000EE05748CDE90302009256A161A3CDE9FF
:103640000131034668A272A10020FFF723FFFEE7C5
:1036500040213046179A00F043FB30B980213046B4
:10366000189A00F046FB002856D029196AA2204675
:1036700000F04AFA044420213046169A00F030FB4C
:10368000D0B129192046169A00F03EFA0444402190
:103690003046179A00F024FB10B129195FA207E009
:1036A00080213046189A00F024FB28B1291942A243
:1036B000204600F029FA044480213046189A00F090
:1036C00018FBB8B156A2052109A8189BFFF76AF9A3
:1036D000291909AA204600F017FA0444402130466F
:1036E000179A00F0FDFA28B1291933A2204600F0FC
:1036F0000BFA044440213046179A00F0F1FA28B141
:1037000029192046179A00F0FFF90444291945A207
:10371000204600F0F9F90444C4F5806128195346A5
:10372000199AFFF759F904444FF48062944204D87F
:10373000002802DBA01D904201D940F2FA3498F82B
:103740002000464640B11A4905F804902031A1F501
:103750008460FCF7F4FD88B196F8F50028B12919CA
:1037600031A2204600F0D0F90444291930A22046A5
:1037700000F0CAF901192F4800F0AEF800F082F805
:103780000BB0BDE8F00F5DF814FB0000B0000020A6
:103790000A5A00086C6576656C203C3D20454C4F0C
:1037A000475F4C564C5F564552424F534500000010
:1037B000B05300201B5B0000200000005B000000F5
:1037C0005D200000282573292068617320617373D0
:1037D000657274206661696C65642061742025736C
:1037E0003A256C642E0000002E2E5C4D6964646CDA
:1037F0006577617265735C656173796C6F67676526
:10380000725C7372635C656C6F672E63000000000E
:10381000656C6F6700000000280000003A0000009F
:10382000256C6400290000001B5B306D0000000067
:103830000D0A0000B04F002070B5064C012594F829
:10384000F20020B100F04DF884F8F45070BD84F817
:10385000F35070BDB05300200949002881F8F200F0
:103860000DD0074891F8F41090F8F30019B1002832
:1038700005D100F037B8002801D000F032B8704709
:10388000B053002070B5064C002594F8F20020B12A
:1038900000F028F884F8F45070BD84F8F35070BD3F
:1038A000B053002000A070470000000000A0704747
:1038B0000000000010B5FDF747FE034603A21021EB
:1038C0000348FFF76FF8024810BD000025640000B0
:1038D000A8540020002070470A4601460020FEF749
:1038E0007FBC70477047000010B586B004460528BD
:1038F00007D90D4840F25B12036833B10B490CA0A5
:1039000098471248047006B010BD0848CDE903027C
:10391000009207A10EA3CDE90131034615A21FA114
:103920000020FFF7B7FDFEE7B0000020C6590008F1
:103930006C6576656C203C3D20454C4F475F4C568E
:103940004C5F564552424F5345000000B053002093
:103950002825732920686173206173736572742050
:103960006661696C65642061742025733A256C6416
:103970002E0000002E2E5C4D6964646C65776172C8
:1039800065735C656173796C6F676765725C737290
:10399000635C656C6F672E6300000000656C6F6789
:1039A0000000000030B585B00D460446052807D953
:1039B0000E4840F2411203684BB10D490DA09847E3
:1039C000134800EB8400C0F8D85005B030BD08485B
:1039D000CDE90302009207A10EA3CDE90131034610
:1039E00015A21FA10020FFF755FDFEE7B000002043
:1039F000A95900086C6576656C203C3D20454C4F0C
:103A0000475F4C564C5F564552424F5345000000AD
:103A1000B0530020282573292068617320617373D7
:103A2000657274206661696C656420617420257319
:103A30003A256C642E0000002E2E5C4D6964646C87
:103A40006577617265735C656173796C6F676765D3
:103A5000725C7372635C656C6F672E6300000000BC
:103A6000656C6F6700000000014981F8F500704740
:103A7000B05300200EB50A4890F8F01000290DD080
:103A8000012180F8F11007A208A1F7208DE80700B6
:103A9000104B11A21AA10320FFF7FCFC0EBD000081
:103AA000B0530020322E322E39390000456173792F
:103AB0004C6F676765722056257320697320696EA5
:103AC000697469616C697A65207375636365737382
:103AD0002E000000605900082E2E5C4D6964646C55
:103AE0006577617265735C656173796C6F67676533
:103AF000725C7372635C656C6F672E63000000001C
:103B0000656C6F67000000002DE9F043DFF88C90D2
:103B1000DFF88C8085B00D0006461446174606D1A6
:103B2000D8F800302BB12C2249461EA098477CB112
:103B300015E01CA202922C20CDE903901AA3CDE936
:103B40000003164B21A22CA10020FFF7A3FCFEE7E7
:103B5000D8F800307BB12D22104929A098474FF4A6
:103B600080622078B0B13146761C914212D205F8BD
:103B7000010B641CF5E722A202922D20CDE90390EF
:103B800009A3CDE90003054B10A21BA10020FFF7FC
:103B900081FCFEE705B0E01BBDE8F083425A000857
:103BA000B0000020647374002825732920686173B5
:103BB00020617373657274206661696C656420614D
:103BC000742025733A256C642E0000002E2E5C4D67
:103BD0006964646C6577617265735C656173796C47
:103BE0006F676765725C7372635C656C6F675F7546
:103BF00074696C732E630000656C6F6700000000D1
:103C00007372630010B50446C1B20020FEF7B8FA23
:103C1000204610BD30B585B00D460446052807D9AD
:103C200010484FF43872036863B10F490FA09847EA
:103C3000154800EB8400D0F8D800284000D00120BF
:103C400005B030BD0848CDE90302009207A10FA3DB
:103C5000CDE90131034616A21FA10020FFF71AFC8F
:103C6000FEE70000B0000020165A00086C6576657B
:103C70006C203C3D20454C4F475F4C564C5F5645B1
:103C800052424F5345000000B053002028257329AD
:103C90002068617320617373657274206661696C5A
:103CA00065642061742025733A256C642E00000041
:103CB0002E2E5C4D6964646C6577617265735C651A
:103CC0006173796C6F676765725C7372635C656C56
:103CD0006F672E6300000000656C6F6700000000D6
:103CE00010B522B1FFF796FF08B1012010BD0020EA
:103CF00010BD10B522B1FFF78DFF08B1012010BD36
:103D0000002010BDFDF72EFCFEF784FCFEF7FCF949
:103D1000FEF768F9FEF716FAFEF732F9FFF7E6FA52
:103D200000F04AF8FEF774F900F058F8FEE70000DA
:103D3000F0B50B30154D20F007010024144A0FE0B8
:103D400003688B420BD38B4205D95E1A4318476830
:103D5000C3E9006700E04368136002C004E0021D8D
:103D600010680028ECD12046002802D1286808B14C
:103D70000020F0BD064A07481060074A121A22F0D8
:103D80000702C0E9002401202860D7E7EC000020EA
:103D9000E8000020BC540020B856002010B5EFF316
:103DA000058111B16FF0050403E0002408B100F0B3
:103DB00023FE204610BD0000EFF3058010B16FF028
:103DC000050070470448016811B14FF0FF3070479B
:103DD00001210160002070478000002010B5EFF342
:103DE000058010B16FF0050010BD08480168012979
:103DF00002D04FF0FF3010BD054A002182F8141D9B
:103E00000221016000F0A8FE002010BD800000200B
:103E10000BE000E02DE9FF414FEA01034FF0000500
:103E2000EFF30581039549BB40B380271821002497
:103E30004AB3166806B1344696691EB13146761EFD
:103E4000382E02D21679F60703D0002004B0BDE860
:103E5000F081566906B1B708D2F808C0BCF1000F6E
:103E60000DD0D5685C2D18D312693AB136B18DE802
:103E700006103A46214601F0F0FA03900DE0D668AC
:103E80005EB912694AB903AACDE90012BAB2214655
:103E900001F0B6FA012800D003950398D6E7000098
:103EA0002DE9F041134C0F460546E6682068001DD9
:103EB00000F05CFC681C07D137B12168BDE8F04117
:103EC0000D48091D00F0B4BC20683544B54245607A
:103ED000216805D2A06BBDE8F041091D00F090BC3F
:103EE000606B091D00F08CFCA06A854200D2A562BF
:103EF000BDE8F08130000020140700202DE9F041DA
:103F0000054600F0A1FC2D4CA068401CA060206874
:103F10002B4F10B1606930B32BE02560A0680128F9
:103F200027D1002606EB860007EB800000F05AFC44
:103F3000761C382EF6D3234800F054FC2148143068
:103F400000F050FC1F48283000F04CFC1D483C306D
:103F500000F048FC1B48503000F044FC19486063F6
:103F60001430A06305E02068E96AC06A884200D87E
:103F70002560606A401C60626864E86A2169884262
:103F800000D9206100EB800007EB8000291D00F0C4
:103F90004FFC00F079FC606900280CD02068E96AC9
:103FA000C06A884207D208494FF080500860BFF3CA
:103FB0004F8FBFF36F8FBDE8F0810000300000200D
:103FC00064020020C406002004ED00E038B500F0D3
:103FD0003BFC104C2068C8B90F4800F003FC0E48A9
:103FE000143000F0FFFB0C48E060143020610A4BF5
:103FF0000020F03B009003F1500210210A2000F055
:10400000E5FE206010B105A100F0C0FCBDE838401D
:1040100000F03ABC6C00002018080020546D72516A
:104020000000000030B4026C0B46002A0BD0C168BF
:104030001144C1608468A14201D30168C16030BCF1
:104040001846FCF758B930BC70472DE9F041856B34
:10405000174604460026026C82B1C7B1E068FCF73F
:104060004AF9E168206C091AE1602268914202D2A3
:10407000A168081AE060022F16D017E02068A8B9DE
:10408000A06801F08DFA06460020A0600EE060688E
:10409000FCF731F9216C606808446060A1688842CF
:1040A00004D32068606001E005B16D1E6D1CA5633E
:1040B0003046BDE8F08110B5044690F8590058B17B
:1040C00001280CD002280FD0502080F31188BFF3B4
:1040D0004F8FBFF36F8FFEE7206B00F0E9FB2046A8
:1040E000BDE8104000F0E4BB10BD000010484FF4E4
:1040F0007051420706D0C01D0D4920F00700411A3B
:10410000C1F570510B4A00230144C2E9000308398C
:10411000183A21F0070111604B600B600B1AC0E9DF
:10412000001393604FF000405360506170470000EF
:10413000F80E00209C000020144E154CA6F29C475F
:104140004FF08058DFF84C9012E000BF00F07CFB8D
:10415000F068C568281D00F009FBA068401EA0603B
:104160006068401E606000F08FFB2846FFF7A3FFE9
:1041700060680028EAD138680128F9D9C9F80080B8
:10418000BFF34F8FBFF36F8FF2E7000000070020EF
:104190003000002004ED00E0002807D000218160FD
:1041A00001600B460A46C16000F088BE70470000FF
:1041B00070B51D46049C51B1C4F80020C4E90F013C
:1041C0000121204600F036FE84F84C5070BD24607A
:1041D000F4E700002DE9F05F8846DDE90B94154611
:1041E000834691009A460A9EA522206BFCF795F81B
:1041F0006FF00301206B01EB8501084420F00707F5
:10420000780707D0502080F31188BFF34F8FBFF39A
:104210006F8FFEE70025B8F1000F0FD05FF00000B0
:10422000221818F8001082F8341018F8001011B194
:10423000401C1028F4D384F8435001E084F8345033
:10424000382E00D33726E662C4E91365201D00F03E
:10425000D4FA04F1180000F0D0FA2461C6F1380055
:104260006462A061656584F85850524659463846E4
:1042700000F066FA2060B9F1000F01D0C9F80040E3
:10428000BDE8F09F30B5114900E011460A6882424E
:10429000FBD34B685C18844203D1406818444860E3
:1042A000084643681C18944209D1084C183C2468FD
:1042B000A24209D052681A4442600A681268026039
:1042C000814200D0086030BD0460F9E79C00002006
:1042D00070B5002441600B4D0061914206D8D11A9F
:1042E0008269914206D2011D286907E09A4203D2F1
:1042F000994201D3012403E0011DE86800F080FA2F
:10430000204670BD6C00002010B5044600F09CFAF9
:10431000A06B28B15FF0000400F0B6FA204610BD93
:104320000124F9E730B589B03C4D6EE004980028CF
:1043300006DADDE90601059A90470498002864DB57
:10434000069C606910B1201D00F010FA03A800F06F
:10435000D7F8024604980A2857D2DFE800F005058E
:10436000052D334A05052D3394F8280040F001004F
:1043700084F828000599A069059B01442046FFF7B1
:10438000A7FF68B3216A2046884794F828004007B1
:104390003BD5002000900598A169002342181946DA
:1043A000204601F043FAD8B9502080F31188BFF3BA
:1043B0004F8FBFF36F8FFEE714F8280F20F0010036
:1043C000207022E094F8280040F0010084F82800D2
:1043D0000598A06128B1811813462046FFF778FFA1
:1043E00013E0502080F31188BFF34F8FBFF36F8F1E
:1043F000FEE794F82800810703D4204600F058FA1D
:1044000003E020F0010084F82800002204A92868B5
:1044100000F064FE002889D109B030BD6C00002096
:104420002DE9FC410F46054600F0DAFB01A800F03B
:1044300067F80446019818B101F066F9BDE8FC81FF
:10444000254EAFB130690068D0B30027291B3A462A
:10445000306800F0AFFA01F057F90028EED11F499B
:104460004FF080500860BFF34F8FBFF36F8FE5E7C9
:10447000A542EBD801F048F9F0682746C068C46847
:10448000201D00F073F994F82800410719D5A069A0
:104490002B4641193A462046FFF71AFFA8B10020E3
:1044A0000346014600902A46204601F0BFF960B954
:1044B000502080F31188BFF34F8FBFF36F8FFEE75B
:1044C00007E020F0010084F82800216A2046884790
:1044D000B4E70127BAE700006C00002004ED00E01B
:1044E0000648416B096829B1416BC968C9684968C8
:1044F000816270474FF0FF31FAE700003000002082
:1045000070B5054600F0E2FF064E0446B0688442EE
:1045100003D200F009F8012000E0002028602046C6
:10452000B46070BD6C000020F8B5194D20E0C06883
:10453000C4680668201D00F019F9216A20468847E2
:1045400094F82800400713D5A0693044B04206D93A
:1045500024616060211DE86800F052F908E0002045
:104560000346014600903246204601F05FF938B11B
:10457000E86801680029DAD12969C5E90310F8BDA6
:10458000502080F31188BFF34F8FBFF36F8FFEE78A
:104590006C00002008484068401C4FF0500080F339
:1045A000118804D0BFF34F8FBFF36F8FFEE7BFF3C7
:1045B0004F8FBFF36F8FFEE7A4000020074CE06829
:1045C000016841B1C0680021D0F80000FFF728FF62
:1045D000FFF7A8FEF3E701210020F7E76C000020B9
:1045E0002DE9F041044600F02FF994F9455004F10B
:1045F000240609E0606A48B1304601F04DF808B180
:1046000000F028FA6D1E6DB2002DF3DC4FF0FF367E
:1046100084F8456000F038F900F016F994F9445038
:1046200004F1100709E0206948B1384601F034F878
:1046300008B100F00FFA6D1E6DB2002DF3DC84F8A6
:104640004460BDE8F04100F01FB900002DE9F041E1
:104650000546002700F0C4FA324E306808B9FFF76B
:1046600045FD706905424ED1C5B3083568070ED0C7
:1046700005F00700C0F108000544680707D0502086
:1046800080F31188BFF34F8FBFF36F8FFEE72DB319
:104690007068854237D82348183001460C6801E01D
:1046A00020460C466168A94202D221680029F7D150
:1046B00031688C4227D0076821680160606808373C
:1046C000411B10290FD96019420708D0502080F3F0
:1046D0001188BFF34F8FBFF36F8FFEE713E0416088
:1046E0006560FFF7CFFD61687068401A7060B2685E
:1046F000904200D2B060706901430020C4E900011B
:10470000F068401CF06000F0FFFF780707D05020F1
:1047100080F31188BFF34F8FBFF36F8FFEE73846EA
:10472000BDE8F081840000200449086818B10868D9
:10473000026D521C026508687047000030000020BE
:1047400010B5031F4FF080741C601B1F21F0010186
:104750001960191F044B0B6014390A60091F6FF0B0
:10476000020244380A6010BD95450008D0E90132C4
:1047700001699A60D0E901235A604A68824201D1F6
:1047800082684A60002202610868401E086008686A
:10479000704710B5040006D000F056F8A46B00F086
:1047A00073F8204610BD502080F31188BFF34F8F5F
:1047B000BFF36F8FFEE70000034B036003F15C0063
:1047C000086080201060704740080020044B0360A0
:1047D00003F15C0008604FF48070106070470000C7
:1047E0009C0A002000F108014FF0FF32C0E90112DD
:1047F000C1600161002101607047002101617047C3
:1048000030B50B685A1C02D000F1080202E00269C0
:1048100004E02246546825689D42FAD953684B60EB
:1048200099608A60516008610168491C016030BD6F
:1048300042684A6093688B60936859609160086130
:104840000168491C01607047502080F31188BFF354
:104850004F8FBFF36F8F0A494868401C486001289A
:104860000CD10848006810F0FF0F07D0502080F3EB
:104870001188BFF34F8FBFF36F8FFEE770470000C3
:10488000A400002004ED00E00849486828B1401E5B
:10489000486001D180F311887047502080F311885F
:1048A000BFF34F8FBFF36F8FFEE70000A40000201F
:1048B00070B500282AD0164DA0F108046068696917
:1048C000084207D1502080F31188BFF34F8FBFF308
:1048D0006F8FFEE722683AB1502080F31188BFF352
:1048E0004F8FBFF36F8FFEE78843606000F078F969
:1048F00060686968084468602046FFF7C3FC28695F
:10490000401C2861BDE8704000F0FEBE70BD000094
:10491000840000204FF0E020002101618161054901
:104920004FF47A720968B1FBF2F1491E4161072127
:10493000016170472C00002010B5FBF795FC114970
:1049400010280ED300F1E02090F8F0030A7890428E
:1049500007D2502080F31188BFF34F8FBFF36F8FC2
:10496000FEE709480068896800F4E060884207D9DA
:10497000502080F31188BFF34F8FBFF36F8FFEE796
:1049800010BD0000A40000200CED00E010B5084BA5
:10499000002200BF53F832401CB1521C082AF9D340
:1049A00010BD43F8321003EBC201486010BD000097
:1049B0002402002070B515460E460446FFF744FF5A
:1049C00094F944100020491C01D184F8440094F962
:1049D0004510491C01D184F84500FFF755FFA06B35
:1049E00028B92A46314604F1240000F051F8204647
:1049F000BDE87040FFF7F4BD10B5020014D00F48B9
:104A0000006B38B1502080F31188BFF34F8FBFF394
:104A10006F8FFEE700F0E4F800211046FFF740FA40
:104A200000F072FE002807D105494FF08050086061
:104A3000BFF34F8FBFF36F8F10BD00003000002019
:104A400004ED00E002490A6A0260C96841607047EB
:104A50003000002001490120C8617047300000206B
:104A600010B50C4650B1094909681831FFF7C8FE66
:104A70002046BDE810400121FFF712BA502080F314
:104A80001188BFF34F8FBFF36F8FFEE73000002018
:104A900070B514460D4668B10A4909681831FFF728
:104AA000C7FE0CB14FF0FF3521462846BDE87040E7
:104AB000FFF7F6B9502080F31188BFF34F8FBFF393
:104AC0006F8FFEE73000002070B504003ED0226DED
:104AD000A2B1E06C884200D30146E06A884235D03A
:104AE000012A33D11A4D2A6894420FD1502080F305
:104AF0001188BFF34F8FBFF36F8FFEE7502080F315
:104B00001188BFF34F8FBFF36F8FFEE7E162A26999
:104B1000002A02DBC1F13801A1610E4E00EB8000DA
:104B2000616906EB8000814210D1201DFFF71EFE57
:104B3000E06A2969884200D9286100EB800006EB11
:104B40008000211DBDE87040FFF772BE70BD0000FF
:104B5000300000206402002030B587B000240394A8
:104B600005AA04A903A80494FFF726FEDDE90301C2
:104B70000094CDE90110002315A11748059A00F013
:104B80006CFC164D0028E8621FD000F01FFE0128C3
:104B900009D0401C19D1502080F31188BFF34F8FEA
:104BA000BFF36F8FFEE7502080F31188BFF34F8F64
:104BB000BFF36F8F4FF0FF30A86201206861EC6097
:104BC00007B0BDE8304000F045B807B030BD000088
:104BD00049444C45000000003941000830000020E5
:104BE0000248016B491C016370470000300000203F
:104BF000164810B5016B11B10121C16110BD002132
:104C0000C1610169124A01E0B9B1491E01EB81039A
:104C100052F82330002BF7D001EB810302EB830223
:104C200002F1080453685B685360A34201D15B68DA
:104C30005360DA680260016110BD502080F3118872
:104C4000BFF34F8FBFF36F8FFEE7000030000020EF
:104C5000640200201CB537480168374A914207D1E9
:104C6000502080F31188BFF34F8FBFF36F8FFEE7A3
:104C700000683149491E884207D1502080F31188CD
:104C8000BFF34F8FBFF36F8FFEE72C490878019079
:104C9000FF20087008788DF800009DF800009DF84E
:104CA000002000F0F000904207D0502080F31188DF
:104CB000BFF34F8FBFF36F8FFEE79DF80000204CCE
:104CC00000F0500020700720A06005E09DF8002053
:104CD00052008DF80020401E9DF800201206F5D4E9
:104CE000A060032807D0502080F31188BFF34F8FB6
:104CF000BFF36F8FFEE74FF44070A060019808701B
:104D00000C482030016841F470010160016841F0F5
:104D100070410160FFF7FEFD00206060FBF76CFA58
:104D20000848016841F040410160FBF751FA00205A
:104D30001CBD000000ED00E071C20F4100E400E086
:104D4000A400002034EF00E010B5502080F311885B
:104D5000BFF34F8FBFF36F8F00F0BEFB18B1044954
:104D60004FF080500860002080F3118810BD0000D3
:104D700004ED00E010B502460021012000F005F826
:104D80000446FFF709FA204610BDF8B517460E464F
:104D9000050013D005FB06F05030FFF757FC040068
:104DA0000AD0002084F8460004F150023B46314608
:104DB00028460094FFF7FCF92046F8BD502080F308
:104DC0001188BFF34F8FBFF36F8FFEE738B5049D97
:104DD00018B153B1CAB181B120E0502080F31188DD
:104DE000BFF34F8FBFF36F8FFEE7502080F3118822
:104DF000BFF34F8FBFF36F8FFEE7502080F3118812
:104E0000BFF34F8FBFF36F8FFEE739B1502080F3B0
:104E10001188BFF34F8FBFF36F8FFEE750241C46FE
:104E2000012384F846302B460094FFF7C1F9204651
:104E300038BD000070B50D46040025D0FFF704FD15
:104E4000D4E90F20216802FB0011A1600021A163B9
:104E5000216861600A46D4E90F01401E00FB012170
:104E6000E16021464FF0FF3001F8440F487004F133
:104E700010008DB1FFF7B6FC04F12400FFF7B2FC7F
:104E8000FFF702FD012070BD502080F31188BFF3B1
:104E90004F8FBFF36F8FFEE721690029F0D000F03C
:104EA000FBFB0028ECD004494FF080500860BFF3B2
:104EB0004F8FBFF36F8FE3E704ED00E02DE9FF476D
:104EC00082B01D468A464FF00008040003D0BAF1B4
:104ED000000F08D011E0502080F31188BFF34F8FEE
:104EE000BFF36F8FFEE7206C38B1502080F311883C
:104EF000BFF34F8FBFF36F8FFEE7022D0AD1E06B38
:104F0000012807D0502080F31188BFF34F8FBFF3E3
:104F10006F8FFEE700F0CCFA3F4F4FF000094FF0E3
:104F2000805648B9049838B1502080F31188BFF3F7
:104F30004F8FBFF36F8FFEE7FFF786FCA06BE16B2F
:104F4000884207D3022D05D00498D0B1B8F1000FE4
:104F50001AD01EE02A4651462046FFF776F8616ACD
:104F600019B104F1240000F097FB20B13E60BFF3BB
:104F70004F8FBFF36F8FFFF787FC012006B0BDE8AE
:104F8000F087FFF781FC22E06846FFF75BFD4FF0FA
:104F90000108FFF779FCFFF723FEFFF755FC94F9B2
:104FA0004400401C01D184F8449094F94500401C11
:104FB00001D184F84590FFF767FC04A9684600F02A
:104FC000E5F930B12046FFF70BFB00F09DFB002018
:104FD000D4E7FFF739FCA06BE16B884213D1FFF7F0
:104FE00053FC04F110000499FFF73AFD2046FFF747
:104FF000F7FA00F089FB00289ED13E60BFF34F8F87
:10500000BFF36F8F98E7FFF73FFC2046FFF7E8FA02
:1050100000F07AFB90E7000004ED00E02DE9F04796
:105020001F4690468946040003D0B9F1000F08D00E
:1050300011E0502080F31188BFF34F8FBFF36F8FC3
:10504000FEE7206C38B1502080F31188BFF34F8FFA
:10505000BFF36F8FFEE7022F0AD1E06B012807D064
:10506000502080F31188BFF34F8FBFF36F8FFEE79F
:10507000FFF762FC5020EFF3118680F31188BFF335
:105080004F8FBFF36F8FA06BE16B884206D3022F67
:1050900004D0002086F31188BDE8F08794F94550CC
:1050A000A06B3A4649462046FEF7CFFF681C04D065
:1050B0006D1C84F845500120ECE7606A0028FAD0A6
:1050C00004F1240000F0E8FA0028F4D0B8F1000F51
:1050D000F1D00121C8F80010EDE700002DE9F747F5
:1050E000002683B08A46040003D0BAF1000F08D02E
:1050F00011E0502080F31188BFF34F8FBFF36F8F03
:10510000FEE7206C38B1502080F31188BFF34F8F39
:10511000BFF36F8FFEE700F0CBF9DFF8F4804FF0BC
:1051200000094FF0805748B9059838B1502080F3F6
:105130001188BFF34F8FBFF36F8FFEE7FFF784FB3C
:10514000A56BC5B151462046FEF76CFF6D1EA563E9
:10515000206950B104F1100000F09EFA28B1C8F89F
:105160000070BFF34F8FBFF36F8FFFF78DFB0120F0
:1051700006B0BDE8F087059808B11EB106E0FFF75C
:1051800083FB27E06846FFF75DFC0126FFF77CFB09
:10519000FFF726FDFFF758FB94F94400401C01D1AE
:1051A00084F8449094F94500401C01D184F845905E
:1051B000FFF76AFB05A9684600F0E8F800282046DA
:1051C0000AD0FFF70DFA00F09FFA2046FFF79CF88F
:1051D0000028B3D00020CBE7FFF796F890B104F198
:1051E00024000599FFF73CFC2046FFF7F9F900F091
:1051F0008BFA0028A2D1C8F80070BFF34F8FBFF31D
:105200006F8F9BE72046FFF7EBF900F07DFA95E7FB
:1052100004ED00E02DE9F343002683B00400354699
:1052200009D0206C78B1502080F31188BFF34F8FE4
:10523000BFF36F8FFEE7502080F31188BFF34F8FCD
:10524000BFF36F8FFEE700F033F9DFF83C814FF0DA
:1052500000094FF0805748B9049838B1502080F3C6
:105260001188BFF34F8FBFF36F8FFEE7FFF7ECFAA4
:10527000A06BC8B1401EA063206810B9FFF754FAB4
:10528000A060206950B104F1100000F005FA28B1C7
:10529000C8F80070BFF34F8FBFF36F8FFFF7F4FABA
:1052A000012005B0BDE8F083049808B166B10FE0B5
:1052B0003DB1502080F31188BFF34F8FBFF36F8F44
:1052C000FEE7FFF7E1FA5DE06846FFF7BBFB01266A
:1052D000FFF7DAFAFFF784FCFFF7B6FA94F9440017
:1052E000401C01D184F8449094F94500401C01D140
:1052F00084F84590FFF7C8FA04A9684600F046F81C
:105300000028204612D0FFF76BF900F0FDF9204687
:10531000FEF7FAFF0028A9D09DB3FFF795FA606A5F
:1053200050B3206B0068C0F1380126E0FEF7ECFFB7
:10533000E0B1206838B9FFF787FAA06800F070F98B
:105340000546FFF7A1FA04F124000499FFF788FB52
:105350002046FFF745F900F0D7F9002886D1C8F8B4
:105360000070BFF34F8FBFF36F8F7FE72046FFF7CB
:1053700037F900F0C9F979E70021A068FFF7A4FB2D
:105380009FE7FFE700208CE704ED00E02DE9F04106
:105390000C46050011D0C4B1FFF756FA174BDA6876
:1053A0006E682068911B471C17D02F681B6A9F42AC
:1053B00019D0964217D8012410E0502080F31188AC
:1053C000BFF34F8FBFF36F8FFEE7502080F311883C
:1053D000BFF34F8FBFF36F8FFEE70024FFF754FA40
:1053E0002046BDE8F081884205D9401A2060284651
:1053F000FFF728FBF1E700202060DCE73000002009
:105400002DE9FF5F8346DDE90E87994616468A46F9
:105410009000FFF71BF905001CD05C20FFF716F980
:10542000040014D00020256384F85900CDE902401F
:10543000CDE900874B46324651465846FEF7CAFE34
:105440002046FEF75BFD012004B0BDE8F09F284632
:10545000FFF72EFA4FF0FF30F6E7F0B585B0DDE943
:105460000B640A9DA6B1DCB15C2700972663022677
:1054700084F85960002604AFCDE90246CDE9005713
:10548000FEF7A8FE2046FEF739FD049805B0F0BDF2
:10549000502080F31188BFF34F8FBFF36F8FFEE76B
:1054A000502080F31188BFF34F8FBFF36F8FFEE75B
:1054B0000548416919B1006B18B1002070470120FF
:1054C0007047022070470000300000200148C0688B
:1054D00070470000300000202DE9F0412E4C0027DD
:1054E000206B28B1A069401CA0613846BDE8F0815E
:1054F000E668761CE66013D1606B006838B1502016
:1055000080F31188BFF34F8FBFF36F8FFEE7606B9F
:10551000A16B6163A063206A401C2062FEF7E0FF7C
:10552000A06ADFF87880864209D3606B0068A0B17A
:10553000606BC068C5686868864211D2A062206846
:10554000C06A00EB800158F82100012800D901272A
:10555000E0690028C9D00127C7E74FF0FF30EDE729
:10556000281DFFF703F9A86A18B105F11800FFF725
:10557000FDF8E86A2169884200D9206100EB8001CA
:1055800008EB8100291DFFF753F9E86A2168C96A11
:105590008842CAD30127C8E73000002064020020F7
:1055A00070B504004FF0000133D01B4D28688442D1
:1055B00007D0502080F31188BFF34F8FBFF36F8F58
:1055C000FEE7206D38B1401E2065E36CE26A9A4226
:1055D0001FD040B11DE0502080F31188BFF34F8FE2
:1055E000BFF36F8FFEE7201DFFF7C0F8E06CE062AD
:1055F000C0F13800A061E06A2969884200D92861B9
:10560000064900EB800001EB8000211DFFF710F937
:105610000121084670BD0000300000206402002017
:1056200070B504004FF000002BD0194DE16A2A68D4
:10563000D26A914226D2A069002804DB2868C06A99
:10564000C0F13800A061134E01EB8101606906EBE7
:105650008101884211D1201DFFF788F82868C06AAF
:10566000E0622969884200D9286100EB800006EBDE
:105670008000211DFFF7DCF802E02868C06AE062C4
:10568000012070BDE16C2A68D26A9142F8D370BDE6
:10569000300000206402002070B5C068C46854B1B6
:1056A00004F118000646FFF761F8144D286B50B15D
:1056B0003146134815E0502080F31188BFF34F8F17
:1056C000BFF36F8FFEE7201DFFF750F8E06A2969EE
:1056D000884200D928610B4900EB800001EB800073
:1056E000211DFFF7A5F8E06A2968C96A884202D936
:1056F0000120E86170BD002070BD00003000002076
:10570000EC060020640200202DE9F0472C4D002417
:105710002746286B38B1FFF797F8286B401E28639F
:10572000286B40B146E0502080F31188BFF34F8FC3
:10573000BFF36F8FFEE7A968224E0120D1B3A6F513
:10574000916980463068E0B1F068C46804F11800DF
:10575000FFF70CF8201DFFF709F8E06A2969884275
:1057600000D9286100EB800109EB8100211DFFF7C2
:105770005FF8E06A2968C96A8842E3D3C5F81C80EB
:10578000E0E70CB1FEF7ACFEAC694CB14FEA08069D
:10579000FFF7A2FE00B1EE61641EF9D10020A861FE
:1057A000E86938B10849012738070860BFF34F8F0F
:1057B000BFF36F8FFFF768F83846BDE8F087000049
:1057C00030000020EC06002004ED00E010B586B0AB
:1057D000FEF7FCFB114C2068B8B100200390049048
:1057E00005AA04A903A8FEF7F1FFDDE903210220C1
:1057F0008DE8070000230AA10B48059AFFF72DFE4C
:10580000606010B106B0012010BD502080F31188F7
:10581000BFF34F8FBFF36F8FFEE700006C000020D7
:10582000546D722053766300BD4500082DE9FF4199
:105830001E46134602000A9D4FF0000016D0144C7D
:105840002768002F0FD0CDE900130292062917DA3E
:10585000FFF72EFE02284FF000030FD0002269460A
:105860002068FFF72BFB04B0BDE8F081502080F3E7
:105870001188BFF34F8FBFF36F8FFEE72A46EEE725
:105880000023324669463846FFF7C8FBEBE70000C5
:105890006C000020745A00080000000000000000A6
:1058A00000000000000000000002000028000000CE
:1058B0000000000000000000685A0008000000001E
:1058C00000000000000000000000000000020000D6
:1058D0001800000000000000000000004D585F4666
:1058E00052454552544F535F496E69740053746179
:1058F000727444656661756C745461736B005374A3
:105900006172744164634F75747075745461736B24
:105910000048414C5F4144435F436F6E7643706C77
:105920007443616C6C6261636B0048414C5F41443D
:10593000435F4572726F7243616C6C6261636B00AE
:1059400000061016000610160000000000000000FF
:105950000102030406070809000000000102030415
:10596000656C6F675F737461727400656C6F675FFD
:1059700073746F7000656C6F675F7365745F6F75CC
:10598000747075745F656E61626C656400656C6FE0
:10599000675F7365745F746578745F636F6C6F7253
:1059A0005F656E61626C656400656C6F675F7365EF
:1059B000745F666D7400656C6F675F7365745F66B6
:1059C000696C74657200656C6F675F7365745F66A0
:1059D000696C7465725F6C766C00656C6F675F7381
:1059E00065745F66696C7465725F7461675F6C761D
:1059F0006C00656C6F675F6765745F66696C746582
:105A0000725F7461675F6C766C00656C6F675F6F67
:105A10007574707574006765745F666D745F656E2C
:105A200061626C656400656C6F675F66696E645F78
:105A30006C766C00656C6F675F66696E645F74613D
:105A40006700656C6F675F73747263707900656C73
:105A50006F675F6370796C6E00656C6F675F6D6513
:105A60006D6370790000000064656661756C745444
:105A700061736B006164635F6F75747075745F74DC
:105A800061736B00412F0000442F0000452F000080
:105A9000492F0000562F0000572F000033313B31B3
:105AA0006D00000033323B316D00000033333B3179
:105AB0006D00000033343B316D00000033353B3165
:105AC0006D00000033363B316D000000EC5A0008D9
:105AD00000000020F00000002C2A0008DC5B000819
