:020000040800F2
:100000005059002071020008751C00086D18000886
:10001000711C0008FB080008A9210008000000006E
:10002000000000000000000000000000B101000816
:10003000FF080008000000000D020008E51D000890
:100040008B0200088B0200088B0200088B0200085C
:100050008B0200088B020008010900088B020008CF
:100060008B0200088B0200088B0200088B0200083C
:100070008B0200088B0200088B0200088B0200082C
:100080008B0200088B0200088B02000800000000B1
:100090000000000000000000000000008B020008CB
:1000A0008B020008C91E00088B0200088B020008A2
:1000B0008B0200088B0200088B0200088B020008EC
:1000C0008B0200088B0200088B0200088B020008DC
:1000D0008B0200088B0200088B0200080000000061
:1000E0008B0200088B0200088B0200080000000051
:1000F0000000000000000000000000008B0200086B
:10010000000000008B0200088B0200088B02000830
:1001100000000000000000000000000000000000DF
:100120008B0200088B0200088B0200088B0200087B
:100130008B0200080000000000000000000000002A
:100140000000000000000000000000008B0200081A
:100150008B0200088B0200088B0200088B0200084B
:100160008B0200088B020008000000000000000065
:10017000000000000000000000000000000000007F
:10018000000000008B0200080000000000000000DA
:100190008B0200088B020008DFF810D000F05EFB35
:1001A0000048004759440008AFF300805059002030
:1001B0002C4B19680868B0E8F04F80F30988BFF34A
:1001C0006F8F4FF0000080F311887047000000002F
:1001D00008480068006880F308884FF0000080F34A
:1001E000148862B661B6BFF34F8FBFF36F8F00DF25
:1001F00000BF00BF08ED00E0DFF80C00016841F42B
:1002000070010160704700BF88ED00E0EFF30980E6
:10021000BFF36F8F134B1A681EF0100F08BF20ED4D
:10022000108A20E9F04F106009B44FF0500080F3BD
:100230001188BFF34F8FBFF36F8F05F065FA4FF052
:10024000000080F3118809BC19680868B0E8F04F15
:100250001EF0100F08BFB0EC108A80F30988BFF3BE
:100260006F8F704720000020EFF30580704700007B
:100270000648804706480047FEE7FEE7FEE7FEE740
:10028000FEE7FEE7FEE7FEE7FEE7FEE7B51E000835
:10029000990100082DE9F05F0546002092469B4633
:1002A00088460646814640241BE02846414647468C
:1002B000224600F01CF953465A46C01A914110D309
:1002C00011461846224600F003F92D1A67EB010883
:1002D0004F4622460120002100F0FAF817EB0009F2
:1002E0004E41201EA4F10104DFDC484631462A4677
:1002F0004346BDE8F09F40EA01039B0703D009E0B5
:1003000008C9121F08C0042AFAD203E011F8013B01
:1003100000F8013B521EF9D27047D2B201E000F85A
:10032000012B491EFBD270470022F6E710B5134699
:100330000A4604461946FFF7F0FF204610BD30B5C7
:1003400005462A460B4612F8010B13F8014B08B17B
:10035000A042F8D01CB1002802D06D1CF1E728465D
:1003600030BD421C10F8011B0029FBD1801A7047D8
:10037000034611F8012B00F8012B002AF9D1184689
:10038000704730B505460020034600E05B1C9342F1
:1003900005D2EC5CC85C201A01D1002CF6D130BD2E
:1003A0002DE9F04D81EA030404F0004B21F00045F3
:1003B00014464FF0000A23F0004150EA050220D015
:1003C00054EA01021DD0C5F30A570246C5F31303D0
:1003D000C1F31300C1F30A5640F4801543F48013AF
:1003E000A7EB0608101BD64608F2FD3873EB050094
:1003F00002D308F1010801E092185B41B8F1000F47
:1004000003DA00200146BDE8F08D00204FF4801192
:10041000064684460EE0171B73EB050705D3121B37
:1004200063EB050306434CEA010C49084FEA300030
:1004300092185B4150EA0107EDD152EA030012D055
:1004400082EA040083EA0501084305D0101BAB4192
:1004500006D20122002306E000224FF0004302E012
:100460006FF0010253101AEB06004CEB085110EB31
:100470000A0041EB0B01BDE8F04D00F048B800F078
:10048000004230F000400AD0C10D01F56071C0F3A8
:10049000160042EA0151C20840071143704700208C
:1004A0000146704730B50B4601460020202201244A
:1004B00009E021FA02F59D4205D303FA02F5491B32
:1004C00004FA02F52844151EA2F10102F1DC30BD48
:1004D000202A04DB203A00FA02F100207047914004
:1004E000C2F1200320FA03F3194390407047202AF9
:1004F00004DB203A21FA02F00021704721FA02F3CE
:10050000D040C2F12002914008431946704710B50F
:10051000141E73F1000408DA401C41F10001921826
:100520005B411A4301D120F0010010BD2DE9F04DCF
:1005300092469B4611B1B1FA81F202E0B0FA80F224
:1005400020329046FFF7C4FF04460F4640EA0A00F7
:1005500041EA0B0153465A46084313D0114653EA69
:10056000010019D0C8F140025046FFF7C0FF054610
:100570000E46504659464246FFF7AAFF084305D0AB
:10058000012004E020463946BDE8F08D00200543F7
:1005900046EAE0762C4337430A986305E40AA0EB69
:1005A00008000022FD0A44EA47540A3002D5002020
:1005B0000146E9E7010510196941DDE9084500191F
:1005C0006941BDE8F04DA2E72DE9FE4F804681EA82
:1005D0000300C00F0C46009021F0004123F00045BD
:1005E000B8EB0200A94105D24046214690461C4680
:1005F0000B46024623F00040104347D0270DC7F3B7
:100600000A00C3F30A510290401A019040286BDAA5
:10061000C3F3130040F4801B0098924620B10023DE
:10062000D2EB030A63EB0B0B01985946C0F1400271
:100630005046FFF74DFF06460D4650465946019A73
:1006400000F01EF910EB08006141002487EA115206
:1006500084EAE7731A4340D0009A62B3019A012AF0
:100660004FEA075215DC001B61EB02014FF000421C
:1006700002EA0752CDE90042001C41F580113246E2
:100680002B46FFF753FF03B0BDE8F08F40462146ED
:10069000F9E7001B61EB0201001C41F58013001813
:1006A0005B412018A2F5001747EB030140EAD57023
:1006B000B6196D4111E06D084FEA360645EAC0757E
:1006C0004FEA0752001B61EB0201001C41F580114B
:1006D00049084FEA30000019514132462B4603B019
:1006E000BDE8F04FFFF713BF009801224000002340
:1006F000D0EB020263EBE073009821464FEAE0740E
:10070000B8EB000061EB0401E9E783F000435BE72D
:1007100081F0004158E72DE9FE4F81EA030404F01F
:10072000004421F0004100944FF0000B23F00043FF
:1007300050EA01045ED052EA03045BD0C3F30A54CA
:10074000C1F30A552C44A4F2F3340194A0FB0254E3
:10075000C1F3130141F48011C3F3130343F4801375
:1007600001FB024400FB034E840A970A44EA8154C9
:1007700047EA8357A4FB076802958D0A05FB0785A6
:100780004FEA932C04FB0C542705029D4FEA0658B0
:1007900047EA1637B5EB08056EEB070C870E920E8D
:1007A00047EA811742EA8312A7FB0201B6EB0B016D
:1007B00064EB00042B0D43EA0C335E1844EB1C5031
:1007C000DA465146E7FB0201C5F313044FEA0B3347
:1007D00043EA14534FEA0432019C43EA0603A4F1AE
:1007E0000C040294009CCDE900B4FFF79FFE03B017
:1007F000BDE8F08F00200146F9E7C1F30A52C1F3CA
:10080000130140F2FF3341F480119A4202DA0020D2
:100810000146704740F233439A42A2F2334202DC6F
:100820005242FFF764BEFFF753BE000030B5041E0E
:1008300071F1000404DB4FF00044404264EB01011D
:10084000141E73F1000405DB1C464FF000435242B6
:1008500063EB0403994208BF904230BD064C074D3C
:1008600006E0E06840F0010394E807009847103480
:10087000AC42F6D3FFF794FC606500088065000881
:10088000202A06DBCB17203A41FA02F043EAE07354
:1008900006E041FA02F3D040C2F120029140084341
:1008A0001946704770B58C1810F8015B15F00703F6
:1008B00001D110F8013B2A1106D110F8012B03E0F9
:1008C00010F8016B01F8016B5B1EF9D12B0705D401
:1008D0000023521E0DD401F8013BFAE710F8013B4A
:1008E000CB1A921C03E013F8015B01F8015B521E66
:1008F000F9D5A142D8D3002070BD00BFFEE77047F4
:1009000010B5012000F020F810BD72B600BFFEE760
:1009100038B50446012C13D10020009001F0FCF8FA
:10092000054665B16946284603F0AAFD009830B136
:10093000200704490860BFF34F8FBFF36F8F00BFDC
:1009400038BD000004ED00E010B50446044800681E
:10095000204020B1024804602046FFF7D9FF10BDB7
:10096000143C0140F8B502460B4600250024002047
:100970000021C7E0012606FA01F51E6806EA050413
:10098000AC4274D11E7906F00306012E04D01E7904
:1009900006F00306022E13D190684F000326BE40D6
:1009A000B0434F00DE68BE4030439060506801267F
:1009B0008E40B0431E79C6F300168E40304350601F
:1009C0001E7906F00306032E09D0D0684F000326D7
:1009D000BE40B0434F009E68BE403043D0601E7999
:1009E00006F00306022E13D1CF0802F1200656F8B6
:1009F00027004E07F70E0F26BE40B0434F07FF0EED
:100A00001E69BE403043CF0802F1200646F8270099
:100A100010684F000326BE40B0431E7906F003065F
:100A20004F00BE40304310605E6806F44036002E32
:100A300067D000BF00260096344E366846F48046E4
:100A4000324F3E603E46366806F48046009600BF50
:100A500000BF2F4E8F0856F827008E07370F0F263E
:100A6000BE40B0432B4EB24202D1002615E048E012
:100A7000294EB24201D101260FE0284EB24201D1E7
:100A800002260AE0264EB24201D1032605E0254E99
:100A9000B24201D1042600E007268F073F0FBE4077
:100AA00030431B4E8F0846F827001F4E3068A04386
:100AB0005E6806F4801606B120431B4E3060361D7A
:100AC0003068A0435E6806F4001606B12043164E57
:100AD000361D3060144E361F3068A0435E6806F441
:100AE000003606B12043104E361F3060361F306886
:100AF000A0435E6806F4803606B120430A4E083EE5
:100B00003060491C1029FFF435AFF8BD443802406D
:100B10000838014000000240000402400008024082
:100B2000000C024000100240083C014002461369DC
:100B30000B400BB1012000E0002070470AB1816139
:100B400001E00B04836170470148006870470000B2
:100B50000800002003480068034909780844014957
:100B600008607047080000201000002010B50D48F4
:100B7000006840F400700B4908600846006840F4C3
:100B8000806008600846006840F4807008600320B8
:100B900000F0D2F80F2000F007F800F055F8002020
:100BA00010BD0000003C0240F0B587B004460026AE
:100BB000002700BF002000901E48006840F00100A0
:100BC0001C4908600846006800F00100009000BF62
:100BD00000BF01A902A800F085F900F0BBF90646A4
:100BE0001548B6FBF0F0471E14481549086040F25E
:100BF000E7311348C1604760002101618160816174
:100C000000F060FC054695B90D4800F08FFC0546E4
:100C10006DB9192000F042F8102C07D200222146AD
:100C2000192000F04BF80748046000E00125284631
:100C300007B0F0BD4438024040420F0000000140C0
:100C4000840100200C00002008B500BF00200090A7
:100C50001148006840F480400F4908600846006869
:100C600000F48040009000BF00BF00BF0020009053
:100C7000081F006840F08050091F0860084600689F
:100C800000F08050009000BF00BF00220F21901E96
:100C900000F014F808BD0000443802400146084640
:100CA000002809DB00F01F0301229A4043099B0042
:100CB00003F1E023C3F8002100BF70472DE9F05F86
:100CC00080460D461646002701F052FB074639467E
:100CD0002A46334601F00700C0F1070ABAF1040FB3
:100CE00002D94FF0040A01E0C0F1070AD14600F131
:100CF000040ABAF1070F02D24FF0000A01E0A0F196
:100D0000030AD4464FF0010A0AFA09FAAAF1010AC5
:100D10000AEA020A0AFA0CFA4FF0010B0BFA0CFB72
:100D2000ABF1010B0BEA030B4AEA0B0421464046E8
:100D300001F026FBBDE8F09F00BF00F00702064B64
:100D400019684FF6FF031940044B0B4343EA022195
:100D5000014B196000BF70470CED00E00000FA0580
:100D600070B504460D460CB9012070BD58480068A6
:100D700000F00700A84209D255490D7008460068E6
:100D800000F00700A84201D00120EEE7207800F033
:100D9000020002281DD1207800F00400042805D1AB
:100DA0004C48006840F4E0504A490860207800F060
:100DB0000800082805D14748006840F460404549CC
:100DC00008604448006820F0F000A16808434149E9
:100DD0000860207800F00100A8B36068012807D1FE
:100DE0003C4808380068C0F34040B8B90120BCE76F
:100DF0006068022802D06068032807D135480838A7
:100E00000068C0F3406048B90120AEE731480838B7
:100E10000068C0F3400008B90120A6E72D4800682B
:100E200020F00300616808432A490860FFF78CFE40
:100E3000064609E0FFF788FE801B41F288318842B0
:100E400002D9032091E707E02248006800F00C0077
:100E50006168B0EB810FEDD11D48006800F007001C
:100E6000A84209D91A490D700846006800F0070029
:100E7000A84201D0012078E7207800F0040004287F
:100E800007D11448006820F4E050E1680843114994
:100E90000860207800F00800082808D10D48006894
:100EA00020F46040216940EAC1000A49086000F06E
:100EB00061F808490968C1F30311074A515CC84049
:100EC0000649086006480068FFF76EFE00204CE700
:100ED000003C024008380240506300081400002023
:100EE0000C0000200F2202600D4A126802F003027B
:100EF00042600B4A126802F0F0028260084A1268EF
:100F000002F4E052C260064A126802F46042D2085B
:100F10000261044A126802F007020A60704700008A
:100F200008380240003C0240014800687047000059
:100F30001400002000B5FFF7F7FF04490968C1F36A
:100F40008221034A515CC84000BD000008380240BD
:100F50006063000800B5FFF7E7FF04490968C1F3C3
:100F60004231034A515CC84000BD000008380240CD
:100F7000606300082DE9F047002400250026A14603
:100F80002548006800F00C0020B1042805D008288E
:100F90003AD105E0DFF8849039E0DFF8849036E05C
:100FA0001D48001F006800F03F041B48001F006838
:100FB00000F4800078B11A481749091F0968C1F385
:100FC0008811A0FB01700146224600233846FFF736
:100FD00061F905460EE011480F49091F0968C1F380
:100FE0008811A0FB01700146224600233846FFF716
:100FF00051F905460848001F0068C0F30140401C35
:101000004600B5FBF6F902E0DFF8109000BF00BF24
:101010004846BDE8F0870000083802400024F4008C
:1010200040787D01F8B504460CB90120F8BD207860
:1010300000F00100002874D0F948006800F00C00AE
:1010400004280DD0F648006800F00C00082813D1E1
:10105000F348001F006800F48000B0F5800F0BD14A
:10106000EF4808380068C0F34040002859D0606855
:10107000002856D10120D9E700BF6068B0F5803F55
:1010800008D1E7480838006840F48030E44908395E
:1010900008601EE06068B0F5A02F0DD1E048083868
:1010A000006840F48020DE4908390860084600687E
:1010B00040F4803008600CE0D9480838006820F41B
:1010C0008030D749083908600846006820F480203D
:1010D000086000BF606890B1FFF736FD054606E086
:1010E000FFF732FD401B642801D903209EE7CC485E
:1010F00008380068C0F340400028F1D011E0FFF745
:1011000023FD054606E0FFF71FFD401B642801D9BB
:1011100003208BE7C24808380068C0F3404000282D
:10112000F1D1207800F0020002285FD1BC480068AD
:1011300000F00C0058B1BA48006800F00C00082814
:101140001CD1B748001F006800F48000B0B9B44853
:1011500008380068C0F3400020B1E068012801D0E1
:10116000012063E7AE480838006820F0F8002169E4
:1011700040EAC100AA490839086037E0E06800B3D6
:101180000120A8490860FFF7DFFC054606E0FFF7ED
:10119000DBFC401B022801D9032047E7A0480838A0
:1011A0000068C0F340000028F1D09D48083800686E
:1011B00020F0F800216940EAC10099490839086027
:1011C00014E0002097490860FFF7BEFC054606E0E2
:1011D000FFF7BAFC401B022801D9032026E79048FC
:1011E00008380068C0F340000028F1D1207800F0F2
:1011F000080008282CD16069A8B101208A4908603C
:10120000FFF7A2FC054606E0FFF79EFC401B022804
:1012100001D903200AE782486C300068C0F340001F
:101220000028F1D014E000207F490860FFF78CFC13
:10123000054606E0FFF788FC401B022801D9032081
:10124000F4E677486C300068C0F340000028F1D124
:10125000207800F00400042870D10027704838304E
:10126000006800F0805090B900BF002000906C48EA
:101270003830006840F080506949383108600846CD
:10128000006800F08050009000BF00BF0127674851
:10129000006800F48070B0B96448006840F4807061
:1012A00062490860FFF750FC054606E0FFF74CFC7A
:1012B000401B022801D90320B8E65C48006800F40E
:1012C00080700028F2D000BFA068012808D15448DF
:1012D0006830006840F001005149683108601DE045
:1012E000A06805280DD14E486830006840F0040021
:1012F0004B49683108600846006840F0010008600A
:101300000CE047486830006820F00100444968312B
:1013100008600846006820F00400086000BFA0686C
:10132000A8B1FFF711FC054609E0FFF70DFC401BD3
:1013300041F28831884202D9032077E626E0384816
:1013400068300068C0F340000028EED013E0FFF7DB
:10135000FBFB054608E0FFF7F7FB401B41F2883135
:10136000884201D9032061E62D4868300068C0F347
:1013700040000028EFD1012F07D1294838300068FC
:1013800020F0805026493831086000BFA06900284D
:1013900045D02348006800F00C0008285DD0A06903
:1013A000022845D100201F490866FFF7CDFB0546FE
:1013B00006E0FFF7C9FB401B022801D9032035E6F0
:1013C000174808380068C0F340600028F1D1D4E91C
:1013D00007010843616A40EA81110122A06AC2EB59
:1013E000500041EA00412C20005D41EA00600C49B8
:1013F000091F086001200B490866FFF7A5FB054699
:1014000006E0FFF7A1FB401B022801D903200DE6EF
:10141000034808380068C0F340600028F1D049E074
:101420000838024000004742800E474200700040EA
:10143000002021490866FFF787FB054606E0FFF715
:1014400083FB401B022801D90320EFE51B480068FD
:10145000C0F340600028F2D12CE0A069012800D13F
:10146000E4E51648001D0668A069012820D006F4AE
:101470008001E06981421BD106F03F01206A814270
:1014800016D147F6C0703040616AB0EB811F0FD1B2
:1014900006F440310122A06AC2EB5000B1EB004FCC
:1014A00006D106F070612C20005DB1EB006F01D019
:1014B0000120BBE50020B9E50000474200380240AA
:1014C0007047704710B504460CB9012010BD94F860
:1014D0003D0028B9002084F83C00204600F025F8A3
:1014E000022084F83D00211D206800F0F5FC012059
:1014F00084F8460000BF84F83E0001213F200155DA
:10150000402001554120015500BF00BF012084F853
:10151000420043200155442001554520015500BF9C
:10152000012084F83D000020D0E77047014691F883
:101530003D00012801D001207047022081F83D00C4
:101540000868C06840F001000B68D860164B086856
:10155000984213D00868B0F1804F0FD0134B086841
:1015600098420BD0124B0868984207D0114B08687C
:10157000984203D0104B086898420CD108688068E4
:1015800000F00702062A0CD00868006840F001004D
:101590000B68186005E00868006840F001000B68FF
:1015A00018600020C8E7000000000140000400406F
:1015B00000080040000C004000400140704710B59A
:1015C000044620680069C0F34000D8B12068C068B4
:1015D000C0F34000B0B16FF0020021680861012043
:1015E00020772068806900F0030018B12046FFF7DB
:1015F000E5FF05E0204600F0ADF8204600F0ABF82E
:101600000020207720680069C0F38000D8B12068EE
:10161000C068C0F38000B0B16FF0040021680861B9
:10162000022020772068806900F4407018B12046BD
:10163000FFF7C4FF05E0204600F08CF8204600F0DC
:101640008AF80020207720680069C0F3C000D8B174
:101650002068C068C0F3C000B0B16FF00800216816
:101660000861042020772068C06900F0030018B1E9
:101670002046FFF7A3FF05E0204600F06BF8204668
:1016800000F069F80020207720680069C0F300109E
:10169000D8B12068C068C0F30010B0B16FF010007E
:1016A00021680861082020772068C06900F4407034
:1016B00018B12046FFF782FF05E0204600F04AF807
:1016C000204600F048F8002020772068006900F0EC
:1016D000010058B12068C06800F0010030B16FF01F
:1016E000010021680861204600F036F82068006992
:1016F000C0F3C01058B12068C068C0F3C01030B14A
:101700006FF08000216808612046FFF7D9FE20684D
:101710000069C0F3801058B12068C068C0F3801021
:1017200030B16FF0400021680861204600F020F8D9
:1017300020680069C0F3401058B12068C068C0F349
:10174000401030B16FF02000216808612046FFF79B
:10175000B8FE10BD7047704710B5044603492068B5
:10176000884201D1FFF7F6F910BD000000000140EA
:10177000704710B504460CB9012010BDA06900B136
:1017800000E000BF94F83D0028B9002084F83C0038
:10179000204600F027F8242084F83D002068C06827
:1017A00020F400502168C860204600F0E7FB206864
:1017B000006920F49040216808612068406920F0A9
:1017C0002A00216848612068C06840F40050216800
:1017D000C86000202064202084F83D0084F83E008A
:1017E0000020CAE710B586B00446142101A8FEF710
:1017F0009BFD1B492068884230D100BF002000902B
:101800001848006840F01000164908600846006853
:1018100000F01000009000BF00BF00BF002000904B
:1018200010481438006840F001000E49143908606F
:101830000846006800F00100009000BF00BF4FF4B0
:10184000C0600190022002900020039003200490C9
:101850000720059001A90448FFF784F806B010BDE1
:1018600000100140443802400000024000BFFEE783
:1018700010B586B00446142101A8FEF755FD208955
:1018800001900120029003900220049001A9206899
:10189000FFF768F86089019001A96068FFF762F8B6
:1018A00006B010BD70B5044625462846FFF7E0FF98
:1018B000002070BD70B5054608260024284600F0BB
:1018C000F3F913E06006040E0021284600F0D4F975
:1018D000022001F0E1FE0121284600F0CDF90120AF
:1018E00001F0DAFE284600F0D4F90443301EA6F1D8
:1018F0000101CEB2E6D10021284600F0BDF928460C
:1019000000F0F4F9204670BD2DE9F04104460D4683
:1019100026463046FFF7CEFF07462F700020BDE871
:10192000F08110B504460021204600F0D2F90120D4
:1019300001F0B2FE0121204600F09EF9012001F0E5
:10194000ABFE0021204600F097F9012001F0A4FE33
:1019500010BD70B5044625462846FFF7E2FF00207B
:1019600070BD70B505460C4608261AE000212846D1
:1019700000F082F9022001F08FFE04F08001284679
:1019800000F0A7F9012001F087FE6006040E012097
:1019900001F082FE0121284600F06EF9012001F0DD
:1019A0007BFE301EA6F10101CEB2DFD10021284618
:1019B00000F062F9022001F06FFE70BD70B50446C0
:1019C0000D46264629463046FFF7CBFF002070BD66
:1019D00010B504460121204600F07BF9012001F0FA
:1019E0005BFE0121204600F047F9012001F054FE82
:1019F0000021204600F040F9022001F04DFE10BD0C
:101A000070B5044625462846FFF7E2FF002070BD6A
:101A100010B504460121204600F05BF9022001F0D8
:101A20003BFE0121204600F027F9012001F034FEA1
:101A30000021204600F04DF9012001F02DFE00218B
:101A4000204600F019F9012001F026FE10BD70B506
:101A5000044625462846FFF7DBFF002070BD10B581
:101A600004460021204600F007F9022001F014FE90
:101A70000021204600F02DF9012001F00DFE01218A
:101A8000204600F0F9F8012001F006FE0121204671
:101A900000F01FF9012001F0FFFD10BD70B50446F4
:101AA00025462846FFF7DBFF002070BD70B50546D0
:101AB0000524284600F0F8F80121284600F0DCF85B
:101AC0000DE0601E84B2012001F0E6FD3CB928461D
:101AD00000F00CF92846FFF7C2FF012070BD284630
:101AE00000F0D7F80028ECD1284600F0FFF80021DC
:101AF000284600F0C1F8022001F0CEFD0020EDE7FD
:101B000070B5044625462846FFF7D0FF06460EB1BD
:101B1000012070BD0020FCE700487047D054002031
:101B200010B5074A0749084802F0B4FD07490860A4
:101B3000074A0021074802F0ADFD0749086010BDC3
:101B4000DC6200082C010020C151000800000020C8
:101B5000006300089D5200080400002000B587B013
:101B6000142102A8FEF7E0FB00BF002001903048DE
:101B7000006840F004002E4908600846006800F044
:101B80000400019000BF00BF00BF00200190084684
:101B9000006840F0800008600846006800F080009F
:101BA000019000BF00BF00BF002001900846006800
:101BB00040F0020008600846006800F00200019052
:101BC00000BF00BF00BF002001900846006840F041
:101BD000010008600846006800F00100019000BFA5
:101BE00000BF01224FF4C0411248FEF7A7FF0120B9
:101BF00002904FF4041003900120049002A90D48B4
:101C0000FEF7B0FE4FF4C040029011200390002078
:101C10000490059002A90748FEF7A4FE00220521C2
:101C20000620FFF74BF80620FFF738F807B000BD95
:101C3000303802400004024010B50B480B490860E0
:101C40004FF4E1304860002108488160C1600161C3
:101C50000C21416100218161C161FFF78AFD08B15A
:101C6000FEF753FE10BD00000010014040010020AF
:101C700000BFFEE700BFFEE731B1426892694389C9
:101C80001A4343689A6103E04289120443689A61E7
:101C9000704710B5044621892068FEF747FF0128E8
:101CA00000D110BD0020FCE710B586B00446142119
:101CB00001A8FEF739FB2089019000200290012045
:101CC00003900220049001A92068FEF74BFE06B0A5
:101CD00010BD31B10268926903891A4303689A61A1
:101CE00003E00289120403689A61704710B586B058
:101CF0000446142101A8FEF717FB2089019011204A
:101D00000290002003900220049001A92068FEF7B1
:101D100029FE06B010BD00002DE9F04104460D4635
:101D200016460E4F00BF387808B900F03FFA00BFE2
:101D3000EFF311800746202080F3118800BF00BF19
:101D400032462946204600F00BF88046F8B280F370
:101D5000118800BF00BF4046BDE8F081A04A0020C6
:101D60002DE9F047074688461646C24607EB47016D
:101D70001B4800EBC109D9F8140020B1012811D08B
:101D8000022826D11EE0484600F048FA0546B54232
:101D900001D2002405E0344632465146484600F060
:101DA00086FA18E0484600F039FA0546B54201D2F5
:101DB000284600E03046044622465146484600F098
:101DC00076FA08E032465146484600F035FA0446B5
:101DD00001E0002400BF00BF2046BDE8F0870000FE
:101DE000B84A002010B54FF0E020006904F0ACF8CC
:101DF000012803D0BDE8104003F03EBD10BD000037
:101E000000B593B0302107A8FEF78EFA142102A87E
:101E1000FEF78AFA00BF002001902448006840F0D5
:101E20008050224908600846006800F08050019008
:101E300000BF00BF00BF002001901D48006840F4B3
:101E400040401B4908600846006800F4404001908B
:101E500000BF00BF0220079001200A9010200B90C5
:101E600002200D9000210E9108210F916421109104
:101E7000022111910421129107A8FFF7D3F808B1AC
:101E8000FEF743FD0F2002900220039000200490F3
:101E90004FF48050059000200690032102A8FEF721
:101EA0005FFF08B1FEF731FD13B000BD40380240BE
:101EB000007000400348006840F470000149086069
:101EC0007047000088ED00E010B50248FFF777FB8F
:101ED00010BD00008401002010B50268204B98421C
:101EE0000BD0B0F1804F08D01E4B984205D01E4B4E
:101EF000984202D01D4B984203D122F070024B68E9
:101F00001A43174B984214D0B0F1804F11D0154BA3
:101F100098420ED0144B98420BD0144B984208D0E4
:101F2000134B984205D0134B984202D0124B984263
:101F300003D122F44072CB681A4322F080034C692B
:101F400043EA040202608B68C3620B688362044B3D
:101F5000984201D10B6903630123436110BD000066
:101F6000000001400004004000080040000C004058
:101F70000040014000440140004801402DE9F84F75
:101F800004462068006920F44050E1680843216855
:101F900008612169A068084361690843E169084351
:101FA00000902068C06849F20C618843009908439A
:101FB0002168C8602068406920F44070A169084326
:101FC0002168486176492068884203D075492068B5
:101FD000884203D1FEF7BEFF814602E0FEF7AAFF6A
:101FE0008146E069B0F5004F6CD102206168A0FB2A
:101FF000015003461920A9FB007001462A463846C5
:10200000FEF748F96421B0FBF1F04FEA001A022014
:102010006168A0FB01510B461920A9FB00712A46FB
:102020003846FEF737F9834602206168A0FB01506D
:1020300003461920A9FB00712A463846FEF72AF903
:102040006421B0FBF1F000EBC00101EB0010ABEB41
:102050008000322101EBC0006421B0FBF1F000F000
:10206000F8000AEB400A02206168A0FB0150034619
:102070001920A9FB007001462A463846FEF70AF9E6
:10208000834602206168A0FB015003461920A9FB8A
:1020900000712A463846FEF7FDF86421B0FBF1F0E6
:1020A00000EBC00101EB0010ABEB8000322101EB33
:1020B000C0006421B0FBF1F000F00700504421683B
:1020C00088606AE004206168A0FB01500346192083
:1020D000A9FB007001462A463846FEF7DBF8824627
:1020E00004206168A0FB015003461920A9FB007081
:1020F00001462A463846FEF7CDF86421B0FBF1F0E0
:1021000000EBC00101EB0010AAEB8000322101EBD3
:1021100000106421B0FBF1F000F0F00A04206168C7
:10212000A0FB017003461920A9FB00513A4628463E
:10213000FEF7B0F86421B0FBF1F00AEB001A0420BE
:102140006168A0FB01510B461920A9FB00712A46CA
:102150003846FEF79FF8834604206168A0FB0150D3
:1021600003461920A9FB007001462A463846FEF7AF
:1021700091F86421B0FBF1F000EBC00101EB00101D
:10218000ABEB8000322101EB00106421B0FBF1F0D9
:1021900000F00F00504421688860BDE8F88F00000F
:1021A000001001400014014000BFFEE710B5124CC2
:1021B00003202061606111A0A0611349E1614FF427
:1021C000806121620021A1626162E1620BA0206650
:1021D0000E4961661021A16600212167E1666167F1
:1021E0000BA1E01DFEF7C4F80AA12046FEF7C0F8D7
:1021F0002020A07110BD0000A04A00205465726D1F
:10220000696E616C00000000484B0020484F0020C0
:1022100052545400534547474552000010B50146FB
:102220000A69CB689A4204D88C68641EE41AA01824
:1022300001E0D41A601E10BD2DE9F05F0446894606
:1022400017464FF0000AE56800BFD4F81080A84593
:1022500003D9A8EB0500461E04E0A5EB0800401CCE
:10226000A1680E1AA068401BB04201D9304601E0B7
:10227000A068401B0646BE4201D2304600E0384608
:102280000646606800EB050B324649465846FEF7A5
:1022900032F8B244B144BF1B3544A068A84200D113
:1022A0000025E560002FD0D15046BDE8F09F2DE914
:1022B000F047044689461546E668A068871BAF428A
:1022C0000AD9606800EB060A2A4649465046FEF7DE
:1022D00012F87019E06014E0B846606800EB060A76
:1022E000424649465046FEF706F8A5EB0708D4F8E3
:1022F00004A009EB070142465046FDF7FCFFC4F875
:102300000C80BDE8F08700000FB47CB50C0009AD6F
:1023100001D0611E00E00021CDE90001064B6A46B4
:102320002946089800F0A4F9002C02D0009A002158
:1023300011707CBC5DF814FB772D00087CB50C0097
:102340001D461646014601D0601E00E00020CDE982
:102350000010064B6A462946304600F089F9002CE9
:1023600002D0009A002111707CBD0000772D00087A
:1023700002480068C0F30220704700000CED00E046
:1023800010B5002804DB0A07130E054A135406E0B3
:102390000A07140E034A00F00F031B1FD45410BD8C
:1023A00000E400E018ED00E001490860704700001B
:1023B0001C0000201FB50446002003902168886A95
:1023C0008047D4E9002091688847D4E900100A6961
:1023D00071219047D4E900209169884720B9D4E958
:1023E00000104A6903A99047D4E90020D1688847C2
:1023F0002168C86A80479DF80C0017A178221C4B01
:10240000CDE9002102901BA225A1002001F024FAB1
:102410009DF80C0000F01800182811D1224908700E
:102420000846007821A17F22114BCDE900210290BE
:1024300010A21BA1002001F00FFA002004B010BD73
:102440001FA086210A4B0BA2CDE9001014A1012088
:1024500001F002FA0320F1E76168743231207265FD
:1024600061642069642064617461203D20257800E6
:10247000686300082E2E5C4273705C414854323110
:102480005C6472697665725C65635F6273705F61DC
:10249000687432315F6472697665722E6300000081
:1024A0004E4F5F544147000019000020675F64658C
:1024B000766963655F6964203D202578000000002F
:1024C00072656164206661696C65640002E008C839
:1024D000121F08C1002AFAD170477047002001E09E
:1024E00001C1121F002AFBD1704700002DE9FF5FD8
:1024F00082B00021DDE90430020DDDF840B0034375
:1025000018D044F61050A2F2FF324243151411982D
:1025100001281FD0A5EB0B00401C5FEA000A4FF01A
:1025200000064E4FDFF83891B046504615D5CAF137
:10253000000413E0119801244AA3012801D16FEA95
:102540000B010298119AC0E90031C0E9024206B0BD
:10255000BDE8F09FCBF10000DFE704460021404AD0
:10256000491842EB0450CDE9001012E0E00707D013
:1025700032463B4640464946FEF7CDF880468946FE
:1025800032463B4610461946FEF7C5F806460F464A
:102590006410002CEAD1DDE90401DDE90023BAF181
:1025A000000F06DAFEF7B7F842464B46FEF7B3F8DF
:1025B00005E0FDF7F5FE42464B46FDF7F1FE044609
:1025C0000E460022284BFEF731F903D84FF0FF30BA
:1025D000014607E00022254B20463146FDF7F4FF77
:1025E000FEF70BF9102409E0002C0ADB0A22002375
:1025F000FDF750FE039B30321A55641E50EA01026B
:10260000F2D1641C039AC4F111031444119A012AF3
:1026100003D0012208430DD10AE0084304D0002072
:102620004FF0110B119072E7A3EB0B056D1E0DE03F
:102630005B4504DD4FF0000205F1010504E003DA1B
:102640004FF00002A5F10105002AECD00298119983
:10265000C0E90231C0E9004579E7000000001440FC
:102660000000F03F300000000000F0430000E03FB9
:102670002DE9FF4F95B09A46884606460025EEE1C3
:10268000252877D100242746F94A0121039400E048
:10269000044316F8013F203B01FA03F01042F7D142
:1026A00030782A2811D06FF02F033078A0F1300253
:1026B000092A16D8039A44F0020402EB820203EBC3
:1026C00042021044761C0390EFE758F8042B039263
:1026D000002A03DA504244F40054039044F0020408
:1026E000761C30782E2816D116F8010F44F0040419
:1026F0002A280DD06FF02F023078A0F13003092B7B
:1027000009D807EB870302EB4303C718761CF3E7EE
:1027100058F8047B761C30786C280FD006DC4C28E7
:1027200017D068280DD06A2814D104E0742810D07E
:102730007A280FD10DE044F400140AE044F4801428
:1027400001E044F440147278824202D104F580140E
:10275000761C761C307866280BD013DC582877D08E
:1027600009DC002875D04528F6D04628F4D0472843
:102770001AD193E118E0632835D0642879D0652810
:1027800012D18BE1702873D008DC6728F1D069285A
:102790006FD06E280DD06F2806D1ACE073282CD0F6
:1027A000752874D0782853D05246179990476D1CDD
:1027B00054E1C4F30250022809D003280DD0D8F800
:1027C000001004280DD00D6008F1040846E1D8F887
:1027D0000010EA17C1E90052F6E7D8F800100D80A2
:1027E000F2E70D70F0E718F8041B8DF800100020D8
:1027F0008DF80100EB46012003E058F804BB4FF0D0
:10280000FF3061074FF0000102D40DE009F1010132
:102810008946B9420FDA8145F8DB1BF80910002917
:10282000F4D108E009F1010189468142FADB1BF885
:1028300009100029F6D103985346A0EB0907214659
:102840003846179A00F080FA284400EB090507E0A3
:1028500044E008E10DE01BF8010B52461799904740
:10286000B9F10109F7D2534621463846179AF2E0EA
:1028700039E00A21C4F302524FF0000B0091022A02
:1028800006D058F8040BC117032A09D00AE023E048
:1028900008F1070020F00702F2E80201904605E087
:1028A00000B2C117042A01D140B2C117002906DACB
:1028B0000A460021404261EB02012D2202E022057E
:1028C00004D52B228DF80420012203E0E20701D079
:1028D0002022F7E7914657E00A2100E010214FF04F
:1028E000000B00910BE010214FF0000B44F00404AA
:1028F0000827009103E008204FF0000B0090C4F37C
:102900000252022A05D058F8040B0021032A08D0ED
:1029100008E008F1070020F00702F2E80201904603
:1029200003E080B2042A00D1C0B24FF000092207B0
:102930002AD53278702A07D0DDF800C08CF0100C50
:102940005CEA0B0C05D00EE040228DF80420012239
:1029500008E050EA010306D030238DF804308DF8EA
:10296000052002229146009B83F0080353EA0B03E3
:102970000AD150EA010201D1620705D530228DF853
:1029800004204FF001097F1E3278582A04D039A262
:102990000C920CAA02920BE03BA2F9E75B46009A6C
:1029A000FDF778FC0C9B9B5C029A521E02921370FE
:1029B00050EA0102F2D1029804A9081A00F1200B92
:1029C000600702D524F4803400E001275F4502DD72
:1029D000A7EB0B0000E0002000EB0B010090039838
:1029E0004944401A0390E00306D453462146179AFF
:1029F000039800F0A9F90544002706E001A8524613
:102A0000C05D179990476D1C7F1C4F45F6DBE003B6
:102A10000CD553462146179A039800F095F90544C2
:102A200004E030205246179990476D1C0099481ECB
:102A300000900029F5DC08E00298029952460078DF
:102A4000491C0291179990476D1CBBF10001ABF135
:102A5000010BF1DC5BE100F065F90544761C307890
:102A600000287FF40DAE19B02846BDE8F08F0000B5
:102A70000928010030313233343536373839616254
:102A80006364656600000000303132333435363718
:102A9000383941424344454600000000600700D4F5
:102AA000062708F1070020F00700F0E8022380461F
:102AB00003F0004C5FEA0C0001D097A009E020056C
:102AC00001D596A005E0E00701D095A001E0AFF2A6
:102AD0004C001390307823F0004365280CD006DCBE
:102AE000452809D046281DD047287FD13BE06628DD
:102AF00018D067287AD136E00021112F01DB112090
:102B000000E0781CCDE9000104A90CA8FFF7EEFC59
:102B1000DDE90D010C9A4FF0000B07F1010910924D
:102B200000914EE04FF000400097CDE9011004A95C
:102B30000CA8FFF7DBFCDDE90D020C9B0F994FF0B1
:102B4000000B91461093009211B9791C00EB01091A
:102B5000B7EB090003D4C0F1FF3B07F10109A9EB72
:102B60000700019042E0012F00DA01270021112F18
:102B700001DD112000E03846CDE9000104A90CA8D0
:102B8000FFF7B4FCDDE90D010C9A00914FF0000B4A
:102B9000B946109221070FD4009A4A4503DA9146AC
:102BA00001E0A9F10109B9F1010F05DD109AA9F1C0
:102BB0000101515C3029F4D0B84202DA10F1040F5F
:102BC00003DA0121CDE9011010E0002803DC834481
:102BD000A9EB000102E0411C494500DD8946A0EB5C
:102BE0000B00401C01904FF000400290200705D4DC
:102BF0000198484502DB4FF0FF30019000208DF82E
:102C00004B0002980DF14B07B0F1004F25D0022088
:102C10000C902B200D90029800280CDA4042029074
:102C20002D200D9007E00A210298FDF73BFC303182
:102C3000029007F8011D0C99481E0C900029F2DC47
:102C400002980028EFD1791E0D980870307800F0B6
:102C5000200040F0450007F8020D11A8C01BC01D60
:102C600002901398007800B1012000EB090101984F
:102C700001EBE071029801440398401A401E039052
:102C8000E00306D453462146179A039800F05CF8F7
:102C900005441398007818B15246179990476D1C57
:102CA000E00323D553462146179A039800F04CF8C9
:102CB00005441BE0BBF1000F07DB0098584504DD1D
:102CC0001098179910F80B0001E017993020524620
:102CD000904701980BF1010B401E05F10105019091
:102CE00004D12E205246179990476D1CB9F100016E
:102CF000A9F10109DEDC05E017F8010B524617992E
:102D000090476D1C0299481E02900029F4DC53463E
:102D10002146179A03989EE62D0000002B00000024
:102D2000200000002DE9F041044600251E4617460C
:102D3000880404D405E039462020B0476D1C641E89
:102D4000F9D52846BDE8F0812DE9F041044600257B
:102D50001E469046C80301D5302700E0202788048E
:102D600004D505E041463846B0476D1C641EF9D5D0
:102D70002846BDE8F0814A68002A06D00A68531C3C
:102D80000B6010704868401E486070470146002084
:102D9000014A107070470000180000207CB50446FE
:102DA00025A0A421294B2AA2CDE9001033A104209B
:102DB00000F052FD0025E06801684FF496708847E6
:102DC000206810B12068006808B904207CBD206923
:102DD00040B14FF0FF312269A069904705460DB11F
:102DE0002846F3E72168886A8047D4E90020116803
:102DF00088472046FFF7DEFA054685B121A0CA21A3
:102E0000124B13A2CDE900101CA1012000F024FDFB
:102E1000606910B1D4E9051088470320D6E721681E
:102E2000C86A804701201D490870606910B1D4E963
:102E3000051088470020C9E761687432315F696E08
:102E4000697420737461727400000000726300087A
:102E50002E2E5C4273705C41485432315C6472695E
:102E60007665725C65635F6273705F61687432314E
:102E70005F6472697665722E630000004E4F5F5486
:102E800041470000616874323120726561645F6996
:102E900064206661696C6564000000001800002011
:102EA0002DE9F04704460D4617461E46DDF8208002
:102EB00018480078012802D10320BDE8F0874FF0C0
:102EC000000924B11DB116B1B8F1000F01D10420E1
:102ED000F3E72560A660E760C4F804800E4820622E
:102EE0000E4860620E48A0620E48E0620E48206301
:102EF0000E4860630E48A0630E48E0632046FFF76B
:102F00004DFF00F0FF09B9F1000F01D00320D4E715
:102F10000020D2E7180000209D2D00088D2D00080C
:102F2000592F0008F12F0008D12F0008392F000871
:102F3000353200084D32000838B505460C469FED85
:102F4000050A8DED000A22466946284600F050F831
:102F500038BD000000000000014604480078012848
:102F600001D0032070470020FCE70000180000207B
:102F700038B5044615480078012801D0032038BD33
:102F8000002000902168886A8047D4E90020916879
:102F90008847D4E900100A6971219047D4E90020DC
:102FA0009169884720B9D4E900104A696946904779
:102FB000D4E90020116A8847D4E90020D168884705
:102FC0002168C86A80479DF80000D8E718000020F3
:102FD00038B504460D469FED050A8DED000A6A4698
:102FE0002946204600F004F838BD0000000000002B
:102FF0002DE9F04786B004460E4617468C48007807
:10300000012803D0032006B0BDE8F0874FF0050883
:1030100000200590049003900290019000900025FC
:10302000206950B1691E2269A06990478246BAF1B1
:10303000000F01D05046E6E700BF2168886A80474C
:10304000D4E9002091688847D4E900100A6970210A
:103050009047D4E900209169884720B9D4E900104D
:103060000A69AC219047D4E900209169884720B9CA
:10307000D4E900100A6933219047D4E9002091690E
:10308000884720B9D4E900100A6900219047D4E9A3
:10309000002091698847D4E90020D16888472168D9
:1030A000C86A8047A16808688047814603E0E068F5
:1030B000016850208847A16808688047A0EB090094
:1030C0005028F4D311E0E068016805208847A8F192
:1030D000010000F0FF08B8F1000F06D1606910B1DF
:1030E000D4E90510884702208DE72046FFF740FF0E
:1030F00000F08000802802D1B8F1000FE3D12168F0
:10310000886A8047D4E9002091688847D4E9001094
:103110000A6971219047D4E9002091698847002805
:1031200035D1D4E900104A6905A99047D4E90020B7
:10313000D1698847D4E900104A6904A99047D4E9C5
:103140000020D1698847D4E900104A6903A9904753
:10315000D4E90020D1698847D4E900104A6902A95E
:103160009047D4E90020D1698847D4E900104A6922
:1031700001A99047D4E90020D1698847D4E900101B
:103180004A6969469047D4E90020116A8847D4E922
:103190000020D16888472168C86A80479DF81000E0
:1031A000284305029DF80C00284305029DF80800FD
:1031B00005432D094FF47A706843000D00EE100AA4
:1031C000B8EE400A87ED000A97ED000AF2EE040A15
:1031D00080EE201A87ED001A00259DF8080000F007
:1031E0000F00284305029DF80400284305029DF8BE
:1031F0000000054300BF4FF4FA6068434FF4FA71D2
:10320000C1EB105000EE100AB8EE400A86ED000A3D
:1032100096ED000AF2EE040A80EE201A86ED001AFE
:10322000606910B1D4E9051088470020EBE6000082
:1032300018000020014604480078012801D003202E
:1032400070470020FCE700001800002001460448F9
:103250000078012801D0032070470020FCE700001F
:103260001800002010B500F0CFFA012000F0C4FED5
:10327000FF21002000F0ECFDFF21012000F0E8FD1F
:10328000FF21022000F0E4FDFF21032000F0E0FD1B
:10329000FF21042000F0DCFDFF21052000F0D8FD17
:1032A00000F018FF10BD0000FEB505460C460026D4
:1032B00036A094213F4B40A2CDE900104AA1042042
:1032C00000F0CAFA05B15CB949A09B21394B3AA27A
:1032D000CDE9001044A1042000F0BEFA0420FEBD98
:1032E000206858B94DA0A321324B33A2CDE900107C
:1032F0003DA1042000F0B0FA0420F0E7606858B95E
:103300004EA0AB212B4B2CA2CDE9001036A10420FE
:1033100000F0A2FA0420E2E7A06858B94EA0B32159
:10332000244B25A2CDE900102FA1042000F094FA2F
:103330000420D4E72068286060686860A06828617D
:10334000E068A8602069E860284600F019F90646A0
:1033500066B147A0C321174B17A2CDE90106009122
:1033600021A1042000F078FA3046B8E70120E9698D
:10337000087048A0CA210F4B0FA2CDE900101AA176
:10338000042000F069FA0020A9E700006273705F72
:1033900074656D705F68756D695F7878785F686176
:1033A0006E646C65725F696E73742073746172749D
:1033B00000000000976300082E2E5C4273705C4191
:1033C000485432315C68616E646C65725C65635F41
:1033D0006273705F74656D705F68756D695F686159
:1033E0006E646C65722E63004E4F5F54414700005F
:1033F00068616E646C65725F696E7374616E63653B
:10340000206F7220705F696E7075745F6172677390
:10341000206973204E554C4C000000006969635FC1
:103420006472697665725F696E7465726661636500
:10343000206973204E554C4C0000000074696D6586
:10344000626173655F696E74657266616365206948
:1034500073204E554C4C00006F735F696E7465723B
:1034600066616365206973204E554C4C0000000076
:103470006273705F74656D705F7878785F68616E95
:10348000646C65725F696E697420726574203D209A
:10349000256400006273705F74656D705F68756DA0
:1034A000695F7878785F68616E646C65725F696E79
:1034B000737420656E6400007CB50446154800688E
:1034C00008B1002C0CD114A040F279111D4B1EA2A2
:1034D000CDE9001028A1042000F0BEF904207CBD35
:1034E00000250C480068C069007808B90320F6E799
:1034F0000849096888690749096809694FF0FF3276
:103500008B682146984705460DB10320E7E7002068
:10351000E5E700001C00002067705F74656D705F58
:1035200068756D695F696E7374616E6365206F7233
:1035300020696E7075742061726720696E76616CA7
:1035400069640000CF6300082E2E5C4273705C41FA
:10355000485432315C68616E646C65725C65635FAF
:103560006273705F74656D705F68756D695F6861C7
:103570006E646C65722E63004E4F5F5441470000CD
:10358000FEB50446002600250CB90420FEBD2069C6
:10359000406808B90320F9E7206904F118021821EE
:1035A00043680A20984706465EB117A059211B4B75
:1035B0001BA2CDE9001026A1042000F04DF9032044
:1035C000E4E7E0680090D4E9013221686069FFF720
:1035D00067FC054620A06921104B11A2CDE9010529
:1035E00000911BA1042000F037F90DB10320CDE7B5
:1035F0001EA07221094B0AA2CDE9001014A10420DB
:1036000000F02AF90020C1E76372656174652071DA
:1036100075657565206661696C6564007D63000889
:103620002E2E5C4273705C41485432315C68616E8E
:10363000646C65725C65635F6273705F74656D7006
:103640005F68756D695F68616E646C65722E63009A
:103650004E4F5F544147000061687432315F696EBC
:10366000737420726574203D2025640068616E6467
:103670006C657220696E697420656E6400000000DC
:1036800010B5044603E04FF47A7000F005F8201EF0
:10369000A4F10104F7D110BD10B5084B5968084BCF
:1036A0001B68084CB3FBF4F303FB00F200BF034BB1
:1036B0005B685B1A9342FAD310BD0000001000E073
:1036C0001400002040420F000748006840F080705E
:1036D000054908600020054948600846006840F038
:1036E0000100086070470000FCED00E0001000E001
:1036F00070B586B00546002D1CD12648006800280C
:1037000011D140F2E110244924A229A3CDE90310EC
:10371000CDE9013200900B462EA238A1002000F026
:103720009BF800BFFEE740F2E1121B491BA0194BBA
:103730001B68984700240526324890F8F00010B91D
:10374000304606B070BD00F093FA00241BE004EB95
:1037500044112C483130084490F82000012810D141
:1037600004EB4412274831301044411C1E222846E5
:10377000FCF707FE28B904EB441122483130465CBF
:1037800003E0601CC4B2052CE1DB00BF00F0A4FA2A
:103790003046D6E7D00000207864000874616720C6
:1037A000213D202828766F6964202A2930290000CD
:1037B00028257329206861732061737365727420F2
:1037C0006661696C65642061742025733A256C64B8
:1037D0002E0000002E2E5C4D6964646C657761726A
:1037E00065735C656173796C6F676765725C737232
:1037F000635C656C6F672E6300000000656C6F672B
:1038000000000000684F002010B50024114890F817
:10381000F000012801D1204610BD00F089FA0446CD
:103820000CB12046F8E7012000F036FA00200949E3
:1038300081F8F30081F8F400012000F0DDFB0520A1
:1038400000F084FA00F0E6FA0120024981F8F00065
:103850002046E1E7684F00200FB42DE9F04F8DB00E
:1038600005460F469846DDF868903846FCF779FD26
:10387000824600244FF0020B00200B900C90079022
:10388000089009900A90052D1CDDCC48006800289E
:1038900011D140F23F20CA49CAA2D1A3CDE90310F9
:1038A000CDE9013200900B46D6A2E0A10020FFF73F
:1038B000D3FF00BFFEE740F23F22C149C1A0BF4B8A
:1038C0001B689847DB4890F8F10020B90DB0BDE8BF
:1038D000F00F5DF814FBD7480078A84204DB3846A7
:1038E000FFF706FFA84200DAF0E7D249491C384644
:1038F000FCF725FD00B9E9E71CA8069000F0B8F92F
:10390000CC4890F8F50078B1CB480119CBA22046FD
:1039100000F02CFC0444CA4850F82520C648011980
:10392000204600F023FC04440121284600F0A4FCBA
:1039300040B1C44850F82520BF480119204600F086
:1039400015FC04440221284600F096FCE8B1BA4870
:1039500001193A46204600F009FC0444BAF10F0F61
:103960000CD8CAF10F01202207A8FCF7D6FCB248F8
:10397000011907AA204600F0F9FB0444AE480119DA
:10398000B1A2204600F0F2FB04441C21284600F0BE
:1039900073FC002852D0A8480119ACA2204600F0C0
:1039A000E5FB04440421284600F066FCA8B100F0C1
:1039B000AFF90590A04801192046059A00F0D6FB02
:1039C00004441821284600F057FC30B19A480119E8
:1039D0009DA2204600F0CAFB04440821284600F0BE
:1039E0004BFCA8B100F08CF90590934801192046D2
:1039F000059A00F0BBFB04441021284600F03CFC73
:103A000030B18D48011990A2204600F0AFFB04446C
:103A10001021284600F030FC48B100F075F90590FF
:103A2000854801192046059A00F0A0FB044482480D
:103A3000011987A2204600F099FB04442021284662
:103A4000189A00F085FC60B942464021284600F0F3
:103A50007FFC30B94A468021284600F087FC0028C8
:103A600062D0754801197BA2204600F07FFB044418
:103A700020212846189A00F06BFC08B36E48011903
:103A80002046189A00F072FB044442464021284622
:103A900000F05EFC38B1684801196FA2204600F0C2
:103AA00065FB04440CE04A468021284600F05EFC99
:103AB00030B16148011964A2204600F057FB04446C
:103AC0004A468021284600F051FCC8B14B4663A20B
:103AD00005210BA8FEF718FC574801190BAA204630
:103AE00000F044FB044442464021284600F030FCEC
:103AF00030B15148011954A2204600F037FB04446C
:103B000042464021284600F023FC30B14A480119C2
:103B10004246204600F02AFB04444748011950A2BF
:103B2000204600F023FB0444C4F58061424A10198A
:103B3000069B1B9AFEF702FC064600200690A01981
:103B4000B0F5806F03D8002E01DB344401E04FF460
:103B50008064201D5844B0F5806F04D94FF4806410
:103B6000241FA4EB0B04334890F8200058B1002028
:103B7000314908552F4920312F48FCF7E0FB10B997
:103B800000F0AAF8A2E62B4890F8F50030B12A48D8
:103B9000011934A2204600F0E9FA0444264801192C
:103BA00032A2204600F0E2FA04442146224800F006
:103BB000C1F800F091F800BF88E60000D0000020B6
:103BC000906400086C6576656C203C3D20454C4F48
:103BD000475F4C564C5F564552424F5345000000DC
:103BE00028257329206861732061737365727420BE
:103BF0006661696C65642061742025733A256C6484
:103C00002E0000002E2E5C4D6964646C6577617235
:103C100065735C656173796C6F676765725C7372FD
:103C2000635C656C6F672E6300000000656C6F67F6
:103C300000000000684F0020605000201B5B000067
:103C4000B8000020A0000020200000005B00000061
:103C50005D200000280000003A000000256C640090
:103C6000290000001B5B306D000000000D0A000001
:103C700010B5084890F8F20030B100F064F8012067
:103C8000044981F8F40003E00120024981F8F300BF
:103C900010BD0000684F002010B504460D4880F8A4
:103CA000F24090F8F200A0B10A4890F8F40030B960
:103CB000084890F8F30010B100F045F809E0054815
:103CC00090F8F40028B1034890F8F30008B900F028
:103CD0003BF810BD684F002010B5084890F8F2007E
:103CE00030B100F031F80020044981F8F40003E01D
:103CF0000020024981F8F30010BD0000684F002049
:103D000000A070470000000000A070470000000005
:103D100010B5FCF719FF0446234603A210210348FF
:103D2000FEF7F2FA014810BD25640000584F00204C
:103D30000020704770B504460D462A4621460020F3
:103D4000FDF7EAFF70BD70477047000010B586B000
:103D50000446052C1CDD10480068002811D140F2F3
:103D60005B100E490EA215A3CDE90310CDE9013277
:103D700000900B461AA224A10020FFF76DFD00BFA2
:103D8000FEE740F25B12054905A0034B1B6898470C
:103D90001F48047006B010BDD00000204C6400081D
:103DA0006C6576656C203C3D20454C4F475F4C561A
:103DB0004C5F564552424F53450000002825732959
:103DC0002068617320617373657274206661696C29
:103DD00065642061742025733A256C642E00000010
:103DE0002E2E5C4D6964646C6577617265735C65E9
:103DF0006173796C6F676765725C7372635C656C25
:103E00006F672E6300000000656C6F6700000000A4
:103E1000684F002010B5002400BF13E004EB4412EB
:103E20000A491144481C1F21FCF77EFA002104EBCB
:103E300044120648815404EB4412104480F82010C8
:103E4000601CC4B2052CE9DB10BD0000994F0020B6
:103E500030B585B004460D46052C1CDD10480068C1
:103E6000002811D140F241100E490FA215A3CDE94F
:103E70000310CDE9013200900B461BA224A10020C3
:103E8000FFF7EAFC00BFFEE740F24112054906A039
:103E9000034B1B689847204840F8245005B030BDBC
:103EA000D00000202F6400086C6576656C203C3DD6
:103EB00020454C4F475F4C564C5F564552424F533E
:103EC0004500000028257329206861732061737301
:103ED000657274206661696C656420617420257365
:103EE0003A256C642E0000002E2E5C4D6964646CD3
:103EF0006577617265735C656173796C6F6767651F
:103F0000725C7372635C656C6F672E630000000007
:103F1000656C6F67000000004050002010B586B04F
:103F20000446002C1ED0012C1CD01148006800282B
:103F300011D14FF48B700F490FA219A3CDE90310D3
:103F4000CDE9013200900B461EA228A10020FFF708
:103F500083FC00BFFEE74FF48B72064906A0044BBA
:103F60001B689847234880F8F14006B010BD000058
:103F7000D0000020FB63000828656E61626C6564F8
:103F8000203D3D2066616C736529207C7C2028657E
:103F90006E61626C6564203D3D2074727565290018
:103FA00028257329206861732061737365727420FA
:103FB0006661696C65642061742025733A256C64C0
:103FC0002E0000002E2E5C4D6964646C6577617272
:103FD00065735C656173796C6F676765725C73723A
:103FE000635C656C6F672E6300000000656C6F6733
:103FF00000000000684F002010B586B00446002C79
:104000001ED0012C1CD011480068002811D14FF49B
:1040100091700F490FA219A3CDE90310CDE9013228
:1040200000900B461EA228A10020FFF715FC00BF40
:10403000FEE74FF49172064906A0044B1B689847AF
:10404000234880F8F54006B010BD0000D0000020E5
:104050001364000828656E61626C6564203D3D2034
:1040600066616C736529207C7C2028656E61626CBA
:104070006564203D3D2074727565290028257329EB
:104080002068617320617373657274206661696C66
:1040900065642061742025733A256C642E0000004D
:1040A0002E2E5C4D6964646C6577617265735C6526
:1040B0006173796C6F676765725C7372635C656C62
:1040C0006F672E6300000000656C6F6700000000E2
:1040D000684F00200EB50B4890F8F00000B90EBDF7
:1040E0000120FFF71BFF08A009A1F722124BCDE921
:1040F0000021029011A21BA10320FFF7ADFB00BF1E
:10410000EDE70000684F0020322E322E39390000D2
:10411000456173794C6F6767657220562573206916
:104120007320696E697469616C697A65207375635F
:10413000636573732E000000E66300082E2E5C4D4D
:104140006964646C6577617265735C656173796CD1
:104150006F676765725C7372635C656C6F672E6313
:1041600000000000656C6F6700000000F0B585B0CE
:1041700006460D4614462746002D1AD124480068ED
:10418000002810D12C20234923A224A3CDE9031019
:10419000CDE9013200900B4629A234A10020FFF79F
:1041A0005BFB00BFFEE72C221A491BA0184B1B68C3
:1041B0009847002C19D11648006880B92D20154960
:1041C0002CA216A3CDE90310CDE9013200900B46D5
:1041D0001BA226A10020FFF73FFB00BFFEE72D2218
:1041E0000C4924A00A4B1B6898470AE03046761C0D
:1041F000B0F5806F04D214F8010B05F8010B00E054
:1042000002E020780028F1D100BFE01B05B0F0BD2E
:10421000D0000020C8640008647374002825732946
:104220002068617320617373657274206661696CC4
:1042300065642061742025733A256C642E000000AB
:104240002E2E5C4D6964646C6577617265735C6584
:104250006173796C6F676765725C7372635C656CC0
:104260006F675F7574696C732E630000656C6F67B0
:10427000000000007372630030B585B004460D463F
:10428000052C1CDD13480068002811D14FF438704C
:10429000114912A218A3CDE90310CDE90132009013
:1042A0000B461EA227A10020FFF7D6FA00BFFEE7AB
:1042B0004FF43872084909A0064B1B6898472348F9
:1042C00050F82400284010B1012005B030BD002076
:1042D000FBE70000D00000209C6400086C65766558
:1042E0006C203C3D20454C4F475F4C564C5F56453B
:1042F00052424F53450000002825732920686173FE
:1043000020617373657274206661696C65642061F5
:10431000742025733A256C642E0000002E2E5C4D0F
:104320006964646C6577617265735C656173796CEF
:104330006F676765725C7372635C656C6F672E6331
:1043400000000000656C6F67000000004050002016
:1043500070B505460E46144634B131462846FFF77F
:104360008BFF08B1012070BD0020FCE770B5054649
:104370000E46144634B131462846FFF77DFF08B19A
:10438000012070BD0020FCE72DE9F04704460E46F1
:1043900090461F4624B11EB1B8F1000F00D017B9E6
:1043A0000420BDE8F0876168086880470546307CD6
:1043B00020B1012817D002283ED128E0206A281A0F
:1043C000B16888420ED34FF0000960693A46414611
:1043D000C36A98478146B9F1000F01D00720E0E792
:1043E000256200BF32E0606A281AB16888420DD3A6
:1043F0004FF0000960693946426B90478146B9F138
:10440000000F01D00720CCE7656200BF1EE0206AE4
:10441000281AB16888420ED34FF0000960693A4605
:104420004146C36A98478146B9F1000F01D0072081
:10443000B7E7256200BF09E09FED060A88ED000A94
:104440009FED040A87ED000A0420AAE700BF0020C0
:10445000A7E7000000000000FCF788FBFDF7D0FC98
:10446000FFF732F9FDF77AFBFDF7E6FBFEF7FAFE00
:1044700000F02AF8FDF754FB00F03AF800BFFEE721
:1044800070B504460D463CB1206928B120694069E9
:1044900010B12069006808B9042070BD21694A691B
:1044A0000868294690470020F7E710B50146EFF36A
:1044B000058010B16FF0050404E0002411B1084636
:1044C00001F064F8204610BDEFF30580002802D00B
:1044D0006FF0050070470548016811B14FF0FF30DB
:1044E000704701210160002070470000700000202B
:1044F00010B5EFF30580002802D06FF0050010BD65
:1045000007480168012902D04FF0FF3010BD054A6D
:10451000002111700221016001F0A6F8002010BDF9
:10452000700000201FED00E038B51D464FF000047C
:10453000EFF30582002A1AD008B101B115B16FF06E
:10454000030424E0002200926A4601F009FC0128DD
:1045500002D06FF002041AE00098C0B10D494FF08C
:1045600080500860BFF34F8FBFF36F8F0FE048B1EB
:1045700041B12A4601F050FB012808D02DB16FF05F
:10458000010404E06FF0030401E06FF00204204630
:1045900038BD000004ED00E0F8B5844614464FF045
:1045A0000005EFF30580002838D1BCF1000F35D0AD
:1045B000002933D0421EB4B1A06858B1E368502B33
:1045C00008D3236933B163690CFB01F6B34201D30D
:1045D000012209E040B9E06830B9206920B960697A
:1045E00010B9002200E00022012A01D04AB10DE0FA
:1045F000002000906046A368226901F075F9054625
:1046000004E00022604601F04DF9054635B10CB1D9
:10461000216800E00021284600F07EFF2846F8BD12
:1046200038B51D464FF00004EFF30582002A1BD079
:1046300008B101B115B16FF0030426E00022009229
:1046400000236A4601F088FA012802D06FF00204C4
:104650001BE00098C8B10E494FF080500860BFF3CE
:104660004F8FBFF36F8F10E050B149B100232A463E
:1046700001F0BAF9012808D02DB16FF0010404E06F
:104680006FF0030401E06FF00204204638BD000023
:1046900004ED00E02DE9F04385B00B464FF0000734
:1046A0000497EFF3058100294ED100284CD08024D7
:1046B0004FF0180C8946491E52B3166806B1B14630
:1046C000956905B1AC46ACF10105382D03D21579D9
:1046D00015F0010F03D005B00020BDE8F083556947
:1046E00005B1AC08D2F80880B8F1000F07D0D66841
:1046F0005C2E04D3166916B10DB1012109E0B8F1A1
:10470000000F06D1D56825B9156915B9002100E05B
:104710000021012901D061B116E09168126901926E
:104720000291CDF800C02246494601F0DDFB04901D
:104730000AE004A90191A2B2CDF800C0494601F0F7
:104740009DFB012800D00497049805B0BDE8F083D4
:1047500070B505460E461446002231462846FFF73E
:104760001BFF2060206808B9032070BD0020FCE713
:1047700070B505460E4614462346002231462846AB
:10478000FFF7D2FE08B9002070BD0120FCE770B52C
:1047900005460E4614462346002231462846FFF7BA
:1047A0003FFF08B9002070BD0120FCE72DE9F04172
:1047B00004460F46134EF5683068001D00F0A8FD52
:1047C000B4F1FF3F07D137B13068BDE8F041011DBA
:1047D0000D4800F0F0BD2C4430684460AC4206D275
:1047E0003068011DB06BBDE8F04100F0C9BD306814
:1047F000011D706B00F0C4FDB06A844200D2B46247
:10480000BDE8F08120000020BC06002070B5044601
:1048100000F0DEFD1C4DA868401CA860286810B19F
:10482000686938B10CE02C60A868012808D100F054
:1048300093F905E02868E16AC06A884200D82C60D4
:10484000686A401C68626064E06A2969884200D92D
:1048500028610E4900EB800001EB8000211D00F073
:10486000AAFD00F0D5FD686900280CD02868E16A2F
:10487000C06A884207D206494FF080500860BFF3F3
:104880004F8FBFF36F8F70BD200000200C020020FF
:1048900004ED00E038B500F09BFD0F4C2068B8B97E
:1048A0000E4800F05FFD0E4800F05CFD0B48E06034
:1048B0001430206100200B4B009003F150021021B6
:1048C0000A2001F011F8206010B107A100F024FEC9
:1048D000BDE8384000F09CBD5C000020C00700200F
:1048E000D4070020D0060020546D72510000000053
:1048F00070B50D4C6068002815D00C4E00F068FDB6
:10490000F068C568281D00F003FDA068401EA06087
:104910006068401E606000F07BFD284600F051F8A2
:1049200060680028EAD170BD20000020A8060020A1
:104930000B46026C002A0CD0C1681144C160D0F84B
:1049400008C0614501D30168C160C1681846FBF722
:10495000D2BC70472DE9F041044616460027A56BEE
:10496000226C002A10D0C6B1E068FBF7C4FCE168F5
:10497000206C091AE1602268914202D2A168081AEB
:10498000E060022E16D017E02068A8B9A06801F0F8
:1049900055FB07460020A0600EE06068FBF7ABFC0B
:1049A000216C606808446060A168884204D3206874
:1049B000606001E005B16D1E681CA0633846BDE86B
:1049C000F08110B5044694F8591000290BD0012944
:1049D00011D0022914D0502080F31188BFF34F8FDB
:1049E000BFF36F8FFEE7206B00F028FD2046BDE887
:1049F000104000F023BD2046BDE8104000F01EBD71
:104A000010BD00000749CA681168002904D00021C0
:104A1000016019B1002070470121F9E7D0680068F2
:104A2000704700005C0000204FF47051104810F0F7
:104A3000070F06D0C01D20F007000D49411AC1F52F
:104A400070510C4A1060002353600144083921F072
:104A50000701183A11604B600B600B1A436001604C
:104A60004068906050604FF0004050617047000017
:104A7000A00E00208C000020074E4FF08054074D00
:104A8000FFF736FF30680128FAD92C60BFF34F8F4B
:104A9000BFF36F8FF4E700000C02002004ED00E08C
:104AA00070B51D46049C002909D02260E063216492
:104AB0000121204600F050FF84F84C5070BD246066
:104AC000F4E72DE9F05F82460B9F0A9D0C9C0E4691
:104AD00090469B464FEA8801A522206BFBF71DFC00
:104AE000206BA8F1010100EB810020F007094FF0D5
:104AF000000866B100202218315C82F83410315C65
:104B000011B1401C1028F6D384F8438001E084F8EA
:104B10003480382D00D33725E562E564C4F8508031
:104B2000201D00F02AFC04F1180000F026FC24618E
:104B3000C5F13800A0616462C4F8548084F85880DC
:104B40005A465146484600F0C5FA2060002F00D072
:104B50003C60BDE8F09F000070B500240F4D04EBF1
:104B6000840005EB800000F0FDFB641C382CF6D3BC
:104B70000B4800F0F7FB0B4800F0F4FB0A4800F08C
:104B8000F1FB0A4800F0EEFB094800F0EBFB094896
:104B9000034941631431816370BD00000C020020A1
:104BA0006C0600208006002094060020A806002045
:104BB000BC0600202000002010B4144900E011467B
:104BC0000A688242FBD34B6803EB010C844503D196
:104BD00040681844486008460C68D0F804C00CEBE4
:104BE0000003A3420CD10A4B1B689A4206D05268BC
:104BF000624442600A681268026002E0036000E0FA
:104C00000260814200D0086010BC70478C00002018
:104C10007400002010B5002441600061DFF838C046
:104C200091420BD8D11A8269914201D3012410E03C
:104C3000011DDCF8100000F0A3FB0AE09A4203D249
:104C4000994201D3012404E0011DDCF80C0000F0BE
:104C500097FB204610BD00005C00002010B5044604
:104C600000F0B6FBA06B20B1002400F0D1FB204681
:104C700010BD0124F9E710B5044600F0A9FBA06BB4
:104C8000E16B884201D1012400E0002400F0C0FB68
:104C9000204610BDF8B505460E461748C068C068E6
:104CA000C468201D00F034FB94F8280010F0040FB5
:104CB00018D0A0692B46411932462046FFF7AAFFBB
:104CC000A0B100200346014600902A46204601F08C
:104CD000CBFA58B9502080F31188BFF34F8FBFF340
:104CE0006F8FFEE720F0010084F82800216A01B0F0
:104CF0002046BDE8F04008475C00002030B587B092
:104D0000414D002202A9286800F086FF002875D0D6
:104D10000298002803DA039A0599049890470298AC
:104D2000002864DB049C606910B1201D00F0F0FADB
:104D300001A800F0B3F8024602980A2857D2DFE82B
:104D400000F00505052F364D05052F3694F828008F
:104D500040F0010084F828000398A169034601444B
:104D60002046FFF757FF002841D0216A2046884798
:104D700094F8280010F0040F39D000200090039818
:104D8000A169002342181946204601F06DFA70BB54
:104D9000502080F31188BFF34F8FBFF36F8FFEE772
:104DA00094F8280020F0010084F828001FE094F80F
:104DB000280040F0010084F828000398A06128B181
:104DC000811813462046FFF725FF10E0502080F39E
:104DD0001188BFF34F8FBFF36F8FFEE794F8280061
:104DE00010F0020F0CD020F0010084F828000022FF
:104DF00002A9286800F010FF002889D107B030BD53
:104E0000204600F01BFBF2E75C000020F8B50546E9
:104E10000C4600F071FC684600F040F80646009829
:104E200010B101F087F9F8BD44B9B54206D801F0D8
:104E300081F931462846FFF72DFFF8BD0C481CB11B
:104E40000169096891B10024A91B2246006800F09D
:104E500077FB01F06FF90028EFD106494FF0805041
:104E60000860BFF34F8FBFF36F8FF8BD0124EBE7EE
:104E70005C00002004ED00E00749486B0068002852
:104E800005D0486BC068C0684068886270474FF0C2
:104E9000FF308862704700002000002070B5044693
:104EA00001F060F80546074EB068854204D200F074
:104EB0000BF80120206001E000202060B56028464A
:104EC00070BD00005C000020F8B51C4EF068006862
:104ED000002826D00027F068C0680568C468201D37
:104EE00000F016FA216A2046884794F8280010F04E
:104EF000040F12D0A0692844A84206D9606024613A
:104F0000211DF06800F03CFA07E000232A4619460C
:104F10002046009701F0A8F940B1F0680068002829
:104F2000D9D1F0683169F1603061F8BD502080F36B
:104F30001188BFF34F8FBFF36F8FFEE75C00002037
:104F40000A484068B0F1FF3F07D0502080F3118835
:104F5000BFF34F8FBFF36F8FFEE7502080F31188B0
:104F6000BFF34F8FBFF36F8FFEE700009400002068
:104F700082B001A8FFF746FD0199FFF747FFFFF751
:104F8000BDFEF6E770B5044600F022FA94F94550EC
:104F9000002D0CDD606A50B104F1240001F08EF8A0
:104FA00008B100F023FB681E45B2002DF2DC4FF083
:104FB000FF3684F8456000F02BFA00F009FA94F906
:104FC0004450002D0CDD206950B104F1100001F0B7
:104FD00075F808B100F00AFB681E45B2002DF2DC3E
:104FE00084F84460BDE8704000F012BA2DE9F04149
:104FF0000546002600F080FB344F386808B9FFF7FB
:1050000013FD7869054251D19DB1083515F0070FA0
:105010000FD005F00700C0F10800054415F0070F98
:1050200007D0502080F31188BFF34F8FBFF36F8FED
:10503000FEE7002D3AD07868854237D824490846E3
:10504000046801E0214604466068A84202D2206854
:105050000028F7D13868844228D0086800F1080693
:10506000206808606068411B10290FD9601910F092
:10507000070F07D0502080F31188BFF34F8FBFF385
:105080006F8FFEE741606560FFF796FD61687868A5
:10509000401A7860BA68904200D2B86078690843D4
:1050A000606000202060F868401CF86001F042F861
:1050B00016F0070F07D0502080F31188BFF34F8FF1
:1050C000BFF36F8FFEE73046BDE8F081740000202B
:1050D0008C000020001F4FF080730360001F21F040
:1050E00001010160001F0549016014380260001FC2
:1050F0006FF002010160203870470000414F000846
:1051000030B52DED048B87B004460D4695ED000AB1
:1051100010EE101A0846FBF7B2F941EC180B94EDAB
:10512000000A10EE101A0846FBF7A9F941EC190B1A
:105130008DED048B8DED029B0BA0C221144B15A2AB
:10514000CDE900101BA10420FEF786FB94ED000AB8
:10515000F7EE080A20EE200A184880ED000A07B092
:10516000BDEC048B30BD000054656D7065726174D8
:105170007572653A20252E326620432C2048756DC5
:1051800069646974793A20252E326620252500004D
:10519000EB6400082E2E5C41646170746174696F69
:1051A0006E5C41485432315F616461707465722E87
:1051B000630000004E4F5F5441470000180100207B
:1051C00070B5A4B004469FED200A8DED230A9FED33
:1051D0001E0A8DED220A00250026282102A8FBF7D1
:1051E000A3F864B919A040F23F111D4B1DA2CDE9EF
:1051F000001028A10420FEF72FFB24B070BD254627
:105200000CA80790294602A8FEF74EF8064616B9E4
:1052100002A8FDF7C9F800BF069908984FF0FF32C1
:10522000CB681CA9984722AB23AA1CA902A8FFF7A8
:10523000ABF80028F0D121980028EDD022A923A8AE
:10524000219A9047E8E7000000000000617267754E
:105250006D656E74206973204E554C4C0000000043
:10526000B66300082E2E5C4273705C4148543231A4
:105270005C68616E646C65725C65635F6273705FCD
:1052800074656D705F68756D695F68616E646C658B
:10529000722E63004E4F5F544147000088B00CA04F
:1052A0009521114B11A2CDE9001016A10420FEF7A3
:1052B000D3FA1822154902A8FBF71DF800BF02A86F
:1052C000FEF7FAF84FF4FA70FFF7EFF8F7E700008F
:1052D000757365725461736B46756E6374696F6E36
:1052E0002073746172740000246300082E2E2F4313
:1052F0006F72652F5372632F6672656572746F7378
:105300002E6300004E4F5F54414700003863000891
:105310000169436882689A60836842685A604A6893
:10532000824201D182684A60002202610868401E00
:105330000860086870470000034B036003F15C00DD
:105340000860802010607047E8070020044B03606D
:1053500003F15C0008604FF480701060704700003B
:10536000440A002000F1080141604FF0FF328260E2
:10537000C160016100210160704700210161704737
:1053800010B4D1F800C0BCF1FF3F02D000F1080218
:1053900002E0026904E01A4653681C686445FAD9C1
:1053A00053684B6099608A60516008610168491CCC
:1053B000016010BC704742684A6093688B609368D4
:1053C0005960916008610168491C016070470000E4
:1053D000502080F31188BFF34F8FBFF36F8F0A49BE
:1053E0004868401C486001280CD10848006810F04B
:1053F000FF0F07D0502080F31188BFF34F8FBFF30A
:105400006F8FFEE7704700009400002004ED00E07D
:1054100009494868002806D0401E4860002801D18C
:1054200080F311887047502080F31188BFF34F8FAD
:10543000BFF36F8FFEE700009400002070B50028D6
:105440002AD0A0F10804154D60686969084207D1A7
:10545000502080F31188BFF34F8FBFF36F8FFEE7AB
:1054600022683AB1502080F31188BFF34F8FBFF309
:105470006F8FFEE78843606000F03EF960686968FE
:10548000084468602046FFF797FB2869401C2861A4
:10549000BDE8704000F04EBE70BD000074000020FA
:1054A0004FF0E02000210161816105494FF47A72DB
:1054B0000968B1FBF2F1491E4161072101617047A2
:1054C0001400002010B5FAF7CFFE114910280ED3B2
:1054D00000F1E02090F8F0030A78904207D25020C3
:1054E00080F31188BFF34F8FBFF36F8FFEE709483A
:1054F0000068896800F4E060884207D9502080F392
:105500001188BFF34F8FBFF36F8FFEE710BD000010
:10551000940000200CED00E00022084B53F832C04C
:10552000BCF1000F03D0521C082AF7D3704743F890
:10553000321003EBC201486070470000CC0100202C
:1055400070B504460D461646FFF742FF94F9440035
:10555000B0F1FF3F4FF0000001D184F8440094F90E
:105560004510B1F1FF3F01D184F84500FFF750FF2E
:10557000A06B28B93246294604F1240000F056F801
:105580002046BDE87040FFF7FDBC000010B50246A4
:105590000020002A12D00F48006B38B1502080F351
:1055A0001188BFF34F8FBFF36F8FFEE700F0A4F8B1
:1055B00000211046FFF7FAF800F0BCFD002807D1E3
:1055C00005494FF080500860BFF34F8FBFF36F8FD6
:1055D00010BD00002000002004ED00E002490A6A2E
:1055E0000260C96841607047200000200149012025
:1055F000C86170472000002010B50C4600280BD071
:10560000094A126802F11801FFF7BAFE2046BDE808
:1056100010400121FFF7CAB8502080F31188BFF372
:105620004F8FBFF36F8FFEE72000002070B50D464F
:10563000144600280DD00B4909681831FFF7BBFE4E
:105640000CB14FF0FF3521462846BDE87040FFF70A
:10565000ADB8502080F31188BFF34F8FBFF36F8F29
:10566000FEE700002000002030B587B00025069539
:10567000059504AA05A906A8FFF75EFE06980599F8
:10568000019102900023009517A11948049A00F097
:105690002BFC184CE06208B1012000E0002001283A
:1056A00001D100F0ADFD01280AD0B0F1FF3F19D1C2
:1056B000502080F31188BFF34F8FBFF36F8FFEE749
:1056C000502080F31188BFF34F8FBFF36F8F4FF0DF
:1056D000FF30A06201206061E56007B0BDE83040A6
:1056E00000F048B807B030BD49444C450000000008
:1056F000794A0008200000200248016B491C016320
:105700007047000020000020184B186B002802D0C2
:105710000120D86170470020D8611869144900EB56
:10572000800251F822203AB9C0B1401E00EB80023D
:1057300051F82220002AF7D000EB800201EB820111
:105740004A6852684A6001F1080C624501D152680A
:105750004A604968C968196018617047502080F331
:105760001188BFF34F8FBFF36F8FFEE7200000203B
:105770000C02002010B582B038480168384A9142C6
:1057800007D1502080F31188BFF34F8FBFF36F8F85
:10579000FEE700683349884207D1502080F3118822
:1057A000BFF34F8FBFF36F8FFEE72F49087801904B
:1057B000FF200870087800909DF800009DF80020F8
:1057C00000F0F000904207D0502080F31188BFF322
:1057D0004F8FBFF36F8FFEE79DF80000234C00F062
:1057E000500020700720A0609DF8000010F0800F8E
:1057F0000BD0A068401EA0609DF800004000009003
:105800009DF8000010F0800FF3D1A068032807D0A6
:10581000502080F31188BFF34F8FBFF36F8FFEE7E7
:105820004FF44070A060019808701148016841F47D
:1058300070010160016841F070410160FFF730FEC6
:1058400000206060FAF7D8FC0A48016841F0404146
:105850000160FAF7BDFC02B0002010BD00ED00E0D1
:1058600071C20F4170C20F4100E400E094000020BB
:1058700020ED00E034EF00E010B5502080F31188F7
:10588000BFF34F8FBFF36F8F00F072FB18B1044965
:105890004FF080500860002080F3118810BD000098
:1058A00004ED00E0F8B505460E461746002D13D06E
:1058B00005FB06F05030FFF799FB044654B104F1A4
:1058C0005002002084F846003B46314628460094AA
:1058D000FFF7E6F82046F8BD502080F31188BFF3AB
:1058E0004F8FBFF36F8FFEE738B5049D002804D0BB
:1058F0005BB102B189B1C2B120E0502080F31188C0
:10590000BFF34F8FBFF36F8FFEE7502080F31188F6
:10591000BFF34F8FBFF36F8FFEE7502080F31188E6
:10592000BFF34F8FBFF36F8FFEE739B1502080F385
:105930001188BFF34F8FBFF36F8FFEE74FF0500C0E
:10594000CDF800C01C46012384F846302B46009455
:10595000FFF7A6F8204638BD70B504460D46002C6A
:1059600025D0FFF735FD226CE16B206801FB0200BA
:10597000A0600020A06320686060E16B226C20685A
:10598000491E01FB0200E0604FF0FF3084F8440044
:1059900084F845009DB104F11000FFF7E3FC04F129
:1059A0002400FFF7DFFCFFF733FD012070BD50201E
:1059B00080F31188BFF34F8FBFF36F8FFEE720692D
:1059C0000028F0D004F1100000F078FB0028EAD0A5
:1059D00004494FF080500860BFF34F8FBFF36F8FC3
:1059E000E1E7000004ED00E02DE9FF4782B0044646
:1059F0008A461F460025002C03D0BAF1000F08D0BC
:105A000011E0502080F31188BFF34F8FBFF36F8FE9
:105A1000FEE7206C38B1502080F31188BFF34F8F20
:105A2000BFF36F8FFEE7022F0AD1E06B012807D08A
:105A3000502080F31188BFF34F8FBFF36F8FFEE7C5
:105A400000F082FA48B9049838B1502080F31188E8
:105A5000BFF34F8FBFF36F8FFEE700264FF08058E4
:105A6000DFF8F090FFF7B4FCA06BE16B884205D340
:105A7000022F03D0049808B335B329E03A465146C3
:105A80002046FEF767FF616A59B104F1240000F077
:105A900015FB68B1C9F80080BFF34F8FBFF36F8F5C
:105AA00006E028B1C9F80080BFF34F8FBFF36F8FB6
:105AB000FFF7AEFC06B00120BDE8F087FFF7A8FCB9
:105AC00006B00020BDE8F0876846FFF787FD012596
:105AD000FFF79EFCFFF710FEFFF77AFC94F94400F5
