:020000040800F2
:10000000F859002071020008AD2300088D1800087F
:10001000A92300081B090008E128000800000000CF
:10002000000000000000000000000000B101000816
:100030001F090008000000000D0200081D2500082F
:100040008B0200088B0200088B0200088B0200085C
:100050008B0200088B020008210900088B020008AF
:100060008B0200088B0200088B0200088B0200083C
:100070008B0200088B0200088B0200088B0200082C
:100080008B0200088B0200088B02000800000000B1
:100090000000000000000000000000008B020008CB
:1000A0008B020008012600088B0200088B02000862
:1000B0008B0200088B0200088B0200088B020008EC
:1000C0008B0200088B0200088B0200088B020008DC
:1000D0008B0200088B0200088B0200080000000061
:1000E0008B0200088B0200088B0200080000000051
:1000F0000000000000000000000000008B0200086B
:10010000000000008B0200088B0200088B02000830
:1001100000000000000000000000000000000000DF
:100120008B0200088B0200088B0200088B0200087B
:100130008B0200080000000000000000000000002A
:100140000000000000000000000000008B0200081A
:100150008B0200088B0200088B0200088B0200084B
:100160008B0200088B020008000000000000000065
:10017000000000000000000000000000000000007F
:10018000000000008B0200080000000000000000DA
:100190008B0200088B020008DFF810D000F06EFB25
:1001A0000048004721520008AFF30080F8590020B2
:1001B0002C4B19680868B0E8F04F80F30988BFF34A
:1001C0006F8F4FF0000080F311887047000000002F
:1001D00008480068006880F308884FF0000080F34A
:1001E000148862B661B6BFF34F8FBFF36F8F00DF25
:1001F00000BF00BF08ED00E0DFF80C00016841F42B
:1002000070010160704700BF88ED00E0EFF30980E6
:10021000BFF36F8F134B1A681EF0100F08BF20ED4D
:10022000108A20E9F04F106009B44FF0500080F3BD
:100230001188BFF34F8FBFF36F8F08F08BFE4FF025
:10024000000080F3118809BC19680868B0E8F04F15
:100250001EF0100F08BFB0EC108A80F30988BFF3BE
:100260006F8F704728000020EFF305807047000073
:100270000648804706480047FEE7FEE7FEE7FEE740
:10028000FEE7FEE7FEE7FEE7FEE7FEE7ED250008F6
:10029000990100082DE9F05F0546002092469B4633
:1002A00088460646814640241BE02846414647468C
:1002B000224600F02DF953465A46C01A914110D3F8
:1002C00011461846224600F014F92D1A67EB010872
:1002D0004F4622460120002100F00BF917EB0009E0
:1002E0004E41201EA4F10104DFDC484631462A4677
:1002F0004346BDE8F09F40EA01039B0703D009E0B5
:1003000008C9121F08C0042AFAD203E011F8013B01
:1003100000F8013B521EF9D27047D2B201E000F85A
:10032000012B491EFBD270470022F6E710B5134699
:100330000A4604461946FFF7F0FF204610BD30B5C7
:1003400005462A460B4612F8010B13F8014B08B17B
:10035000A042F8D01CB1002802D06D1CF1E728465D
:1003600030BD421C10F8011B0029FBD1801A7047D8
:10037000034611F8012B00F8012B002AF9D1184689
:10038000704730B505460020034600E05B1C9342F1
:1003900005D2EC5CC85C201A01D1002CF6D130BD2E
:1003A0002DE9F04D81EA030404F0004B21F00045F3
:1003B00014464FF0000A23F0004150EA050220D015
:1003C00054EA01021DD0C5F30A570246C5F31303D0
:1003D000C1F31300C1F30A5640F4801543F48013AF
:1003E000A7EB0608101BD64608F2FD3873EB050094
:1003F00002D308F1010801E092185B41B8F1000F47
:1004000003DA00200146BDE8F08D00204FF4801192
:10041000064684460EE0171B73EB050705D3121B37
:1004200063EB050306434CEA010C49084FEA300030
:1004300092185B4150EA0107EDD152EA030012D055
:1004400082EA040083EA0501084305D0101BAB4192
:1004500006D20122002306E000224FF0004302E012
:100460006FF0010253101AEB06004CEB085110EB31
:100470000A0041EB0B01BDE8F04D00F059B80EB594
:10048000C10F80EAE0700844CA07002140F23343FC
:100490008DE80E000A460B4600F059F803B000BD87
:1004A00000F0004230F000400AD0C10D01F560714B
:1004B000C0F3160042EA0151C208400711437047D9
:1004C00000200146704730B50B460146002020222F
:1004D000012409E021FA02F59D4205D303FA02F551
:1004E000491B04FA02F52844151EA2F10102F1DCB1
:1004F00030BD202A04DB203A00FA02F100207047C8
:100500009140C2F1200320FA03F319439040704751
:10051000202A04DB203A21FA02F00021704721FA58
:1005200002F3D040C2F120029140084319467047BF
:1005300010B5141E73F1000408DA401C41F10001EB
:1005400092185B411A4301D120F0010010BD2DE942
:10055000F04D92469B4611B1B1FA81F202E0B0FA39
:1005600080F220329046FFF7C4FF04460F4640EA6F
:100570000A0041EA0B0153465A46084313D011467C
:1005800053EA010019D0C8F140025046FFF7C0FFFE
:1005900005460E46504659464246FFF7AAFF084315
:1005A00005D0012004E020463946BDE8F08D00204A
:1005B000054346EAE0762C4337430A986305E40A8C
:1005C000A0EB08000022FD0A44EA47540A3002D595
:1005D00000200146E9E7010510196941DDE90845F8
:1005E00000196941BDE8F04DA2E72DE9FE4F8046B4
:1005F00081EA0300C00F0C46009021F0004123F077
:100600000045B8EB0200A94105D24046214690467C
:100610001C460B46024623F00040104347D0270DEE
:10062000C7F30A00C3F30A510290401A0190402810
:100630006BDAC3F3130040F4801B0098924620B19C
:100640000023D2EB030A63EB0B0B01985946C0F170
:1006500040025046FFF74DFF06460D4650465946AC
:10066000019A00F01DF910EB08006141002487EAAF
:10067000115284EAE7731A4340D0009A62B3019A98
:10068000012A4FEA075215DC001B61EB02014FF013
:10069000004202EA0752CDE90042001C41F58011F8
:1006A00032462B46FFF753FF03B0BDE8F08F4046BC
:1006B0002146F9E7001B61EB0201001C41F58013A4
:1006C00000185B412018A2F5001747EB030140EA30
:1006D000D570B6196D4111E06D084FEA360645EA4E
:1006E000C0754FEA0752001B61EB0201001C41F587
:1006F000801149084FEA30000019514132462B461B
:1007000003B0BDE8F04FFFF713BF0098012240008F
:100710000023D0EB020263EBE073009821464FEA1E
:10072000E074B8EB000061EB0401E9E783F00043FB
:100730005BE781F0004158E72DE9FE4F81EA0304B1
:1007400004F0004421F0004100944FF0000B23F02E
:10075000004350EA01045ED052EA03045BD0C3F3C5
:100760000A54C1F30A552C44A4F2F3340194A0FBBB
:100770000254C1F3130141F48011C3F3130343F492
:10078000801301FB024400FB034E840A970A44EAEB
:10079000815447EA8357A4FB076802958D0A05FB3D
:1007A00007854FEA932C04FB0C542705029D4FEA62
:1007B000065847EA1637B5EB08056EEB070C870EAF
:1007C000920E47EA811742EA8312A7FB0201B6EBB9
:1007D0000B0164EB00042B0D43EA0C335E1844EB71
:1007E0001C50DA465146E7FB0201C5F313044FEAF9
:1007F0000B3343EA14534FEA0432019C43EA0603E5
:10080000A4F10C040294009CCDE900B4FFF79FFE14
:1008100003B0BDE8F08F00200146F9E7C1F30A52AA
:10082000C1F3130140F2FF3341F480119A4202DA1E
:1008300000200146704740F233439A42A2F233420D
:1008400002DC5242FFF764BEFFF753BE30B5041E10
:1008500071F1000404DB4FF00044404264EB0101FD
:10086000141E73F1000405DB1C464FF00043524296
:1008700063EB0403994208BF904230BD064C074D1C
:1008800006E0E06840F0010394E807009847103460
:10089000AC42F6D3FFF784FC4CA000086CA0000823
:1008A000202A06DBCB17203A41FA02F043EAE07334
:1008B00006E041FA02F3D040C2F120029140084321
:1008C0001946704770B58C1810F8015B15F00703D6
:1008D00001D110F8013B2A1106D110F8012B03E0D9
:1008E00010F8016B01F8016B5B1EF9D12B0705D4E1
:1008F0000023521E0DD401F8013BFAE710F8013B2A
:10090000CB1A921C03E013F8015B01F8015B521E45
:10091000F9D5A142D8D3002070BD00BFFEE77047D3
:1009200010B5012000F020F810BD72B600BFFEE740
:1009300038B50446012C13D10020009001F0A2F933
:10094000054665B16946284605F0B0FE009830B10D
:10095000200704490860BFF34F8FBFF36F8F00BFBC
:1009600038BD000004ED00E010B5044604480068FE
:10097000204020B1024804602046FFF7D9FF10BD97
:10098000143C0140F8B502460B4600250024002027
:100990000021C7E0012606FA01F51E6806EA0504F3
:1009A000AC4274D11E7906F00306012E04D01E79E4
:1009B00006F00306022E13D190684F000326BE40B6
:1009C000B0434F00DE68BE4030439060506801265F
:1009D0008E40B0431E79C6F300168E4030435060FF
:1009E0001E7906F00306032E09D0D0684F000326B7
:1009F000BE40B0434F009E68BE403043D0601E7979
:100A000006F00306022E13D1CF0802F1200656F895
:100A100027004E07F70E0F26BE40B0434F07FF0ECC
:100A20001E69BE403043CF0802F1200646F8270079
:100A300010684F000326BE40B0431E7906F003063F
:100A40004F00BE40304310605E6806F44036002E12
:100A500067D000BF00260096344E366846F48046C4
:100A6000324F3E603E46366806F48046009600BF30
:100A700000BF2F4E8F0856F827008E07370F0F261E
:100A8000BE40B0432B4EB24202D1002615E048E0F2
:100A9000294EB24201D101260FE0284EB24201D1C7
:100AA00002260AE0264EB24201D1032605E0254E79
:100AB000B24201D1042600E007268F073F0FBE4057
:100AC00030431B4E8F0846F827001F4E3068A04366
:100AD0005E6806F4801606B120431B4E3060361D5A
:100AE0003068A0435E6806F4001606B12043164E37
:100AF000361D3060144E361F3068A0435E6806F421
:100B0000003606B12043104E361F3060361F306865
:100B1000A0435E6806F4803606B120430A4E083EC4
:100B20003060491C1029FFF435AFF8BD443802404D
:100B30000838014000000240000402400008024062
:100B4000000C024000100240083C014002461369BC
:100B50000B400BB1012000E0002070470AB1816119
:100B600001E00B0483617047014800687047000092
:100B70000C00002003480068034909780844014933
:100B8000086070470C0000201400002010B50D48CC
:100B9000006840F400700B4908600846006840F4A3
:100BA000806008600846006840F480700860032098
:100BB00000F0D2F80F2000F007F800F055F8002000
:100BC00010BD0000003C0240F0B587B0044600268E
:100BD000002700BF002000901E48006840F0010080
:100BE0001C4908600846006800F00100009000BF42
:100BF00000BF01A902A800F085F900F0BBF9064684
:100C00001548B6FBF0F0471E14481549086040F23D
:100C1000E7311348C1604760002101618160816153
:100C200000F060FC054695B90D4800F08FFC0546C4
:100C30006DB9192000F042F8102C07D2002221468D
:100C4000192000F04BF80748046000E00125284611
:100C500007B0F0BD4438024040420F0000000140A0
:100C60002C0200201000002008B500BF00200090DA
:100C70001148006840F480400F4908600846006849
:100C800000F48040009000BF00BF00BF0020009033
:100C9000081F006840F08050091F0860084600687F
:100CA00000F08050009000BF00BF00220F21901E76
:100CB00000F014F808BD0000443802400146084620
:100CC000002809DB00F01F0301229A4043099B0022
:100CD00003F1E023C3F8002100BF70472DE9F05F66
:100CE00080460D461646002701F0DEFE07463946CF
:100CF0002A46334601F00700C0F1070ABAF1040F93
:100D000002D94FF0040A01E0C0F1070AD14600F110
:100D1000040ABAF1070F02D24FF0000A01E0A0F175
:100D2000030AD4464FF0010A0AFA09FAAAF1010AA5
:100D30000AEA020A0AFA0CFA4FF0010B0BFA0CFB52
:100D4000ABF1010B0BEA030B4AEA0B0421464046C8
:100D500001F0B2FEBDE8F09F00BF00F00702064BB5
:100D600019684FF6FF031940044B0B4343EA022175
:100D7000014B196000BF70470CED00E00000FA0560
:100D800070B504460D460CB9012070BD5848006886
:100D900000F00700A84209D255490D7008460068C6
:100DA00000F00700A84201D00120EEE7207800F013
:100DB000020002281DD1207800F00400042805D18B
:100DC0004C48006840F4E0504A490860207800F040
:100DD0000800082805D14748006840F460404549AC
:100DE00008604448006820F0F000A16808434149C9
:100DF0000860207800F00100A8B36068012807D1DE
:100E00003C4808380068C0F34040B8B90120BCE74E
:100E10006068022802D06068032807D13548083886
:100E20000068C0F3406048B90120AEE73148083897
:100E30000068C0F3400008B90120A6E72D4800680B
:100E400020F00300616808432A490860FFF78CFE20
:100E5000064609E0FFF788FE801B41F28831884290
:100E600002D9032091E707E02248006800F00C0057
:100E70006168B0EB810FEDD11D48006800F00700FC
:100E8000A84209D91A490D700846006800F0070009
:100E9000A84201D0012078E7207800F0040004285F
:100EA00007D11448006820F4E050E1680843114974
:100EB0000860207800F00800082808D10D48006874
:100EC00020F46040216940EAC1000A49086000F04E
:100ED00061F808490968C1F30311074A515CC84029
:100EE0000649086006480068FFF76EFE00204CE7E0
:100EF000003C024008380240C09B00081800002057
:100F0000100000200F2202600D4A126802F0030256
:100F100042600B4A126802F0F0028260084A1268CE
:100F200002F4E052C260064A126802F46042D2083B
:100F30000261044A126802F007020A60704700006A
:100F400008380240003C0240014800687047000039
:100F50001800002000B5FFF7F7FF04490968C1F346
:100F60008221034A515CC84000BD0000083802409D
:100F7000D09B000800B5FFF7E7FF04490968C1F3FB
:100F80004231034A515CC84000BD000008380240AD
:100F9000D09B00082DE9F047002400250026A1463B
:100FA0002548006800F00C0020B1042805D008286E
:100FB0003AD105E0DFF8849039E0DFF8849036E03C
:100FC0001D48001F006800F03F041B48001F006818
:100FD00000F4800078B11A481749091F0968C1F365
:100FE0008811A0FB01700146224600233846FFF716
:100FF00051F905460EE011480F49091F0968C1F370
:101000008811A0FB01700146224600233846FFF7F5
:1010100041F905460848001F0068C0F30140401C24
:101020004600B5FBF6F902E0DFF8109000BF00BF04
:101030004846BDE8F0870000083802400024F4006C
:1010400040787D01F8B504460CB90120F8BD207840
:1010500000F00100002874D0F948006800F00C008E
:1010600004280DD0F648006800F00C00082813D1C1
:10107000F348001F006800F48000B0F5800F0BD12A
:10108000EF4808380068C0F34040002859D0606835
:10109000002856D10120D9E700BF6068B0F5803F35
:1010A00008D1E7480838006840F48030E44908393E
:1010B00008601EE06068B0F5A02F0DD1E048083848
:1010C000006840F48020DE4908390860084600685E
:1010D00040F4803008600CE0D9480838006820F4FB
:1010E0008030D749083908600846006820F480201D
:1010F000086000BF606890B1FFF736FD054606E066
:10110000FFF732FD401B642801D903209EE7CC483D
:1011100008380068C0F340400028F1D011E0FFF724
:1011200023FD054606E0FFF71FFD401B642801D99B
:1011300003208BE7C24808380068C0F3404000280D
:10114000F1D1207800F0020002285FD1BC4800688D
:1011500000F00C0058B1BA48006800F00C000828F4
:101160001CD1B748001F006800F48000B0B9B44833
:1011700008380068C0F3400020B1E068012801D0C1
:10118000012063E7AE480838006820F0F8002169C4
:1011900040EAC100AA490839086037E0E06800B3B6
:1011A0000120A8490860FFF7DFFC054606E0FFF7CD
:1011B000DBFC401B022801D9032047E7A048083880
:1011C0000068C0F340000028F1D09D48083800684E
:1011D00020F0F800216940EAC10099490839086007
:1011E00014E0002097490860FFF7BEFC054606E0C2
:1011F000FFF7BAFC401B022801D9032026E79048DC
:1012000008380068C0F340000028F1D1207800F0D1
:10121000080008282CD16069A8B101208A4908601B
:10122000FFF7A2FC054606E0FFF79EFC401B0228E4
:1012300001D903200AE782486C300068C0F34000FF
:101240000028F1D014E000207F490860FFF78CFCF3
:10125000054606E0FFF788FC401B022801D9032061
:10126000F4E677486C300068C0F340000028F1D104
:10127000207800F00400042870D10027704838302E
:10128000006800F0805090B900BF002000906C48CA
:101290003830006840F080506949383108600846AD
:1012A000006800F08050009000BF00BF0127674831
:1012B000006800F48070B0B96448006840F4807041
:1012C00062490860FFF750FC054606E0FFF74CFC5A
:1012D000401B022801D90320B8E65C48006800F4EE
:1012E00080700028F2D000BFA068012808D15448BF
:1012F0006830006840F001005149683108601DE025
:10130000A06805280DD14E486830006840F0040000
:101310004B49683108600846006840F001000860E9
:101320000CE047486830006820F00100444968310B
:1013300008600846006820F00400086000BFA0684C
:10134000A8B1FFF711FC054609E0FFF70DFC401BB3
:1013500041F28831884202D9032077E626E03848F6
:1013600068300068C0F340000028EED013E0FFF7BB
:10137000FBFB054608E0FFF7F7FB401B41F2883115
:10138000884201D9032061E62D4868300068C0F327
:1013900040000028EFD1012F07D1294838300068DC
:1013A00020F0805026493831086000BFA06900282D
:1013B00045D02348006800F00C0008285DD0A069E3
:1013C000022845D100201F490866FFF7CDFB0546DE
:1013D00006E0FFF7C9FB401B022801D9032035E6D0
:1013E000174808380068C0F340600028F1D1D4E9FC
:1013F00007010843616A40EA81110122A06AC2EB39
:10140000500041EA00412C20005D41EA00600C4997
:10141000091F086001200B490866FFF7A5FB054678
:1014200006E0FFF7A1FB401B022801D903200DE6CF
:10143000034808380068C0F340600028F1D049E054
:101440000838024000004742800E474200700040CA
:10145000002021490866FFF787FB054606E0FFF7F5
:1014600083FB401B022801D90320EFE51B480068DD
:10147000C0F340600028F2D12CE0A069012800D11F
:10148000E4E51648001D0668A069012820D006F48E
:101490008001E06981421BD106F03F01206A814250
:1014A00016D147F6C0703040616AB0EB811F0FD192
:1014B00006F440310122A06AC2EB5000B1EB004FAC
:1014C00006D106F070612C20005DB1EB006F01D0F9
:1014D0000120BBE50020B9E500004742003802408A
:1014E0007047704710B504460CB9012010BD94F840
:1014F0003D0028B9002084F83C00204600F025F883
:10150000022084F83D00211D206801F081F80120AF
:1015100084F8460000BF84F83E0001213F200155B9
:10152000402001554120015500BF00BF012084F833
:10153000420043200155442001554520015500BF7C
:10154000012084F83D000020D0E77047014691F863
:101550003D00012801D001207047022081F83D00A4
:101560000868C06840F001000B68D860164B086836
:10157000984213D00868B0F1804F0FD0134B086821
:1015800098420BD0124B0868984207D0114B08685C
:10159000984203D0104B086898420CD108688068C4
:1015A00000F00702062A0CD00868006840F001002D
:1015B0000B68186005E00868006840F001000B68DF
:1015C00018600020C8E7000000000140000400404F
:1015D00000080040000C004000400140704710B57A
:1015E000044620680069C0F34000D8B12068C06894
:1015F000C0F34000B0B16FF0020021680861012023
:1016000020772068806900F0030018B12046FFF7BA
:10161000E5FF05E0204600F0ADF8204600F0ABF80D
:101620000020207720680069C0F38000D8B12068CE
:10163000C068C0F38000B0B16FF004002168086199
:10164000022020772068806900F4407018B120469D
:10165000FFF7C4FF05E0204600F08CF8204600F0BC
:101660008AF80020207720680069C0F3C000D8B154
:101670002068C068C0F3C000B0B16FF008002168F6
:101680000861042020772068C06900F0030018B1C9
:101690002046FFF7A3FF05E0204600F06BF8204648
:1016A00000F069F80020207720680069C0F300107E
:1016B000D8B12068C068C0F30010B0B16FF010005E
:1016C00021680861082020772068C06900F4407014
:1016D00018B12046FFF782FF05E0204600F04AF8E7
:1016E000204600F048F8002020772068006900F0CC
:1016F000010058B12068C06800F0010030B16FF0FF
:10170000010021680861204600F036F82068006971
:10171000C0F3C01058B12068C068C0F3C01030B129
:101720006FF08000216808612046FFF7D9FE20682D
:101730000069C0F3801058B12068C068C0F3801001
:1017400030B16FF0400021680861204600F020F8B9
:1017500020680069C0F3401058B12068C068C0F329
:10176000401030B16FF02000216808612046FFF77B
:10177000B8FE10BD7047704710B504460349206895
:10178000884201D1FFF7F6F910BD000000000140CA
:10179000704710B504460CB9012010BDA06900B116
:1017A00000E000BF94F83D0028B9002084F83C0018
:1017B000204600F027F8242084F83D002068C06807
:1017C00020F400502168C860204600F073FF2068B4
:1017D000006920F49040216808612068406920F089
:1017E0002A00216848612068C06840F400502168E0
:1017F000C86000202064202084F83D0084F83E006A
:101800000020CAE710B586B00446142101A8FEF7EF
:101810008BFD1B492068884230D100BF002000901A
:101820001848006840F01000164908600846006833
:1018300000F01000009000BF00BF00BF002000902B
:1018400010481438006840F001000E49143908604F
:101850000846006800F00100009000BF00BF4FF490
:10186000C0600190022002900020039003200490A9
:101870000720059001A90448FFF784F806B010BDC1
:1018800000100140443802400000024000BFFEE763
:1018900010B586B00446142101A8FEF745FD208945
:1018A00001900120029003900220049001A9206879
:1018B000FFF768F86089019001A96068FFF762F896
:1018C00006B010BD70B5044625462846FFF7E0FF78
:1018D000002070BD70B5054608260024284600F09B
:1018E0007FFD13E06006040E0021284600F060FD35
:1018F000022002F0B5FD0121284600F059FD01202B
:1019000002F0AEFD284600F060FD0443301EA6F153
:101910000101CEB2E6D10021284600F049FD28465B
:1019200000F080FD204670BD2DE9F04104460D46D3
:1019300026463046FFF7CEFF07462F700020BDE851
:10194000F08110B504460021204600F05EFD012024
:1019500002F086FD0121204600F02AFD012002F060
:101960007FFD0021204600F023FD012002F078FDDC
:1019700010BD70B5044625462846FFF7E2FF00205B
:1019800070BD70B505460C4608261AE000212846B1
:1019900000F00EFD022002F063FD04F080012846F5
:1019A00000F033FD012002F05BFD6006040E012013
:1019B00002F056FD0121284600F0FAFC012002F059
:1019C0004FFD301EA6F10101CEB2DFD10021284625
:1019D00000F0EEFC022002F043FD70BD70B504463D
:1019E0000D46264629463046FFF7CBFF002070BD46
:1019F00010B504460121204600F007FD012002F049
:101A00002FFD0121204600F0D3FC012002F028FD2B
:101A10000021204600F0CCFC022002F021FD10BD88
:101A200070B5044625462846FFF7E2FF002070BD4A
:101A300010B504460121204600F0E7FC022002F028
:101A40000FFD0121204600F0B3FC012002F008FD4B
:101A50000021204600F0D9FC012002F001FD002108
:101A6000204600F0A5FC012002F0FAFC10BD70B584
:101A7000044625462846FFF7DBFF002070BD10B561
:101A800004460021204600F093FC022002F0E8FC0E
:101A90000021204600F0B9FC012002F0E1FC012108
:101AA000204600F085FC012002F0DAFC01212046EE
:101AB00000F0ABFC012002F0D3FC10BD70B5044671
:101AC00025462846FFF7DBFF002070BD70B50546B0
:101AD0000524284600F084FC0121284600F068FC1B
:101AE0000DE0601E84B2012002F0BAFC3CB9284629
:101AF00000F098FC2846FFF7C2FF012070BD284681
:101B000000F063FC0028ECD1284600F08BFC00219B
:101B1000284600F04DFC022002F0A2FC0020EDE778
:101B200070B5044625462846FFF7D0FF06460EB19D
:101B3000012070BD0020FCE72DE9F04780460D46EE
:101B400017461E46DDF820904046FFF771FF6806F5
:101B5000010E4046FFF715FF4046FFF7B7FF28B1DB
:101B60004046FFF78CFF0120BDE8F087394640462C
:101B7000FFF707FF4046FFF7A9FF4046FFF758FF72
:101B8000012000EB4500C1B24046FFF7FAFE404697
:101B9000FFF79CFF00240CE04046FFF79BFE09F88E
:101BA0000400701EA04202DD4046FFF7CAFE601C22
:101BB000C4B2B442F0DB4046FFF71AFF4046FFF7DD
:101BC0005EFF0020D0E72DE9F04106460C461546A1
:101BD0003046FFF72DFF6006010E3046FFF7D1FEBD
:101BE0003046FFF773FF29463046FFF7CAFE3046FE
:101BF000FFF76CFF3046FFF71BFF012000EB4400AE
:101C0000C1B23046FFF7BDFE3046FFF75FFF3046FA
:101C1000FFF760FE07463046FFF7EAFE3046FFF763
:101C20002EFF3846BDE8F0812DE9F04107460C460D
:101C300015461E463846FFF7FBFE6006010E384685
:101C4000FFF79FFE3846FFF741FF28B13846FFF700
:101C500016FF0120BDE8F08129463846FFF791FEC6
:101C60003846FFF733FF31463846FFF78AFE3846DD
:101C7000FFF72CFF3846FFF702FF012002F0F0FBD0
:101C80000020E7E700487047785500203EB5002463
:101C90002DA040F27D11364B36A2CDE900103DA1BA
:101CA000032002F0BDFC3D483D4948613D493C48A8
:101CB00001F01AFF04466CB13BA04FF4C7712C4BE6
:101CC0002CA2CDE90104009132A1012002F0A8FC70
:101CD00020463EBD4049324802F002F904465CB15C
:101CE0003EA04FF4CB71224B22A2CDE9010400911A
:101CF00028A1022002F094FC44A040F299111C4B50
:101D00001CA2CDE9001023A1032002F089FC244885
:101D10004AA14FF4CD72164BCDE90021029015A2D5
:101D20001CA1032002F07CFC4A4800684AA140F252
:101D30009B120F4BCDE9002102900EA215A10320AA
:101D400002F06EFC0020C4E7496E697469616C6939
:101D50007A696E67204D5055363035302068616E97
:101D6000646C65722073797374656D2E2E2E00007D
:101D70009A9E00082E2E5C41646170746174696FD4
:101D80006E5C4D5055363035305F616461707465FE
:101D9000722E63004E4F5F544147000008550020EB
:101DA00078550020D40100204661696C6564207478
:101DB0006F20696E697469616C697A65204D505550
:101DC000363035302068616E646C65722C20726527
:101DD00074203D20256400006D1E00084661696C7A
:101DE000656420746F207265676973746572204D35
:101DF0005055363035302063616C6C6261636B2CFA
:101E000020726574203D2025640000004D50553639
:101E10003035302068616E646C657220737973743C
:101E2000656D20696E697469616C697A6564207397
:101E300075636365737366756C6C79002020486107
:101E40006E646C657220696E7374616E63653A20AE
:101E500025700000B401002020205461736B2068BD
:101E6000616E646C653A20257000000010B52DEDA0
:101E7000028B90B004466CB394ED100A10EE101A69
:101E80000846FEF70DFB41EC180B8DED0E8B94ED23
:101E90000E0B8DED0C0B94ED0C0B8DED0A0B94EDF0
:101EA0000A0B8DED080B94ED060B8DED060B94EDF2
:101EB000040B8DED040B94ED020B8DED020B074826
:101EC0004FF4B571064B07A2CDE900100DA1042017
:101ED00002F0A6FB10B0BDEC028B10BDF49F000811
:101EE000849E00082E2E5C41646170746174696F79
:101EF0006E5C4D5055363035305F6164617074658D
:101F0000722E63004E4F5F544147000070B5044687
:101F100025462846FFF7BCFC002070BD2DE9F8439C
:101F200004460D4616461F46DDF82080A1463B4676
:101F3000324629464846CDF80080FFF7FDFD0020D7
:101F4000BDE8F8832DE9F04104460D4616462746C4
:101F5000324629463846FFF736FE0020BDE8F081BC
:101F60002DE9F04105460C462E463046FFF7B2FCFF
:101F7000074604B127700020BDE8F08170B5044623
:101F800025462846FFF7DDFC002070BD70B50446ED
:101F90000D46264629463046FFF7F3FC002070BD6B
:101FA00070B5044625462846FFF722FD002070BD87
:101FB00070B5044625462846FFF73AFD002070BD5F
:101FC00070B5044625462846FFF759FD002070BD30
:101FD00070B5044625462846FFF778FD06460EB143
:101FE000012070BD0020FCE72DE9F04104460D46BC
:101FF00016461F46A0463B46324629464046FFF756
:1020000013FE0020BDE8F0810020704700207047DB
:1020100002460020704702460020704700207047AB
:1020200070B504460D462E461CB13146204606F0DA
:10203000AFFE002070BD70B505460E4614463DB19A
:1020400034B13146012006F0C1FC2060002070BD93
:102050000420FCE710B50446204606F063FE10BDE0
:102060002DE9F04106460F46144600223946304617
:1020700007F03EF8054615B90320BDE8F08125605C
:102080000020FAE72DE9F04105460E46174605B156
:1020900016B90420BDE8F0814FF47A7078434FF40C
:1020A0007A71B0FBF1F842463146284607F0DAF97A
:1020B0000446012C01D00120ECE70020EAE72DE9DD
:1020C000F04105460E46174605B116B90420BDE895
:1020D000F0814FF47A7078434FF47A71B0FBF1F8E5
:1020E000002342463146284607F0A4F80446012C56
:1020F00001D00120EBE70020E9E700002DE9FF47D0
:1021000005460E4617469846DDE90C944FF0010A45
:1021100005B16CB91AA0EC21244B25A2CDE9001021
:102120002BA1012002F07CFA042004B0BDE8F08766
:10213000BAB2434631462846CDE9009407F0C4FAC6
:102140008246BAF1010F0BD023A0FE21174B18A233
:10215000CDE900101EA1012002F062FA0320E4E79D
:1021600028A14FF481722068104BCDE9011600922E
:1021700003900FA216A1032002F052FA0020D4E728
:102180004D50555F6F735F7468726561645F637211
:10219000656174653A20696E76616C69642070616E
:1021A00072616D6574657273000000006F9E0008B7
:1021B0002E2E5C41646170746174696F6E5C4D5069
:1021C00055363035305F616461707465722E63001E
:1021D0004E4F5F54414700004D50555F6F735F7421
:1021E00068726561645F6372656174653A207854F2
:1021F00061736B437265617465206661696C6564C7
:10220000000000004D5055207468726561642027FD
:102210002573272063726561746564207375636339
:1022200065737366756C6C792C2068616E646C657F
:10223000203D20257000000010B50B4A0B490C48CA
:1022400004F03EFB0B4908600B4A00210B4804F0E8
:1022500037FB0B4908600B4A0B490C4804F030FB74
:102260000B49086010BD0000289B000840010020B9
:10227000B9880008000000204C9B0008358A00083F
:1022800004000020709B0008D4010020F13E0008EB
:102290000800002000B587B0142102A8FEF744F81A
:1022A00000BF002001903048006840F004002E4933
:1022B00008600846006800F00400019000BF00BFFD
:1022C00000BF002001900846006840F080000860D0
:1022D0000846006800F08000019000BF00BF00BF0A
:1022E000002001900846006840F00200086008469F
:1022F000006800F00200019000BF00BF00BF002096
:1023000001900846006840F0010008600846006837
:1023100000F00100019000BF00BF01224FF4C04156
:102320001248FEF71BFC012002904FF404100390AA
:102330000120049002A90D48FEF724FB4FF4C04091
:1023400002901120039000200490059002A90748F4
:10235000FEF718FB002205210620FEF7BFFC062031
:10236000FEF7ACFC07B000BD30380240000402406C
:1023700010B50B480B4908604FF4E130486000216C
:1023800008488160C16001610C21416100218161C7
:10239000C161FFF7FEF908B1FEF7C7FA10BD0000F2
:1023A00000100140E801002000BFFEE700BFFEE78B
:1023B00031B14268926943891A4343689A6103E0E4
:1023C0004289120443689A61704710B50446218916
:1023D0002068FEF7BBFB012800D110BD0020FCE700
:1023E00010B586B00446142101A8FDF79DFF208991
:1023F000019000200290012003900220049001A986
:102400002068FEF7BFFA06B010BD31B102689269CC
:1024100003891A4303689A6103E00289120403687E
:102420009A61704710B586B00446142101A8FDF7E3
:102430007BFF208901901120029000200390022050
:10244000049001A92068FEF79DFA06B010BD0000B7
:102450002DE9F04104460D4616460E4F00BF387870
:1024600008B900F03FFA00BFEFF3118007462020C3
:1024700080F3118800BF00BF32462946204600F095
:102480000BF88046F8B280F3118800BF00BF4046C9
:10249000BDE8F081484B00202DE9F047074688460B
:1024A0001646C24607EB47011B4800EBC109D9F8A5
:1024B000140020B1012811D0022826D11EE0484680
:1024C00000F048FA0546B54201D2002405E0344642
:1024D00032465146484600F086FA18E0484600F079
:1024E00039FA0546B54201D2284600E03046044696
:1024F00022465146484600F076FA08E032465146F8
:10250000484600F035FA044601E0002400BF00BF51
:102510002046BDE8F0870000604B002010B54FF06A
:10252000E020006907F036F9012803D0BDE810402B
:1025300006F0C8BD10BD000000B593B0302107A85B
:10254000FDF7F2FE142102A8FDF7EEFE00BF002009
:1025500001902448006840F08050224908600846F5
:10256000006800F08050019000BF00BF00BF002055
:1025700001901D48006840F440401B49086008462F
:10258000006800F44040019000BF00BF02200790A7
:1025900001200A9010200B9002200D9000210E9136
:1025A00008210F91642110910221119104211291AF
:1025B00007A8FEF747FD08B1FEF7B7F90F20029014
:1025C00002200390002004904FF4805005900020DA
:1025D0000690032102A8FEF7D3FB08B1FEF7A5F988
:1025E00013B000BD4038024000700040034800684E
:1025F00040F47000014908607047000088ED00E079
:1026000010B50248FEF7EBFF10BD00002C020020C1
:1026100010B50268204B98420BD0B0F1804F08D023
:102620001E4B984205D01E4B984202D01D4B98423B
:1026300003D122F070024B681A43174B984214D012
:10264000B0F1804F11D0154B98420ED0144B9842E8
:102650000BD0144B984208D0134B984205D0134B23
:10266000984202D0124B984203D122F44072CB68B8
:102670001A4322F080034C6943EA040202608B682B
:10268000C3620B688362044B984201D10B690363F8
:102690000123436110BD0000000001400004004020
:1026A00000080040000C0040004001400044014090
:1026B000004801402DE9F84F04462068006920F4E5
:1026C0004050E1680843216808612169A068084317
:1026D00061690843E169084300902068C06849F2D5
:1026E0000C618843009908432168C86020684069EC
:1026F00020F44070A1690843216848617649206848
:10270000884203D075492068884203D1FEF732FC25
:10271000814602E0FEF71EFC8146E069B0F5004FFD
:102720006CD102206168A0FB015003461920A9FB6F
:10273000007001462A463846FDF7ACFD6421B0FB27
:10274000F1F04FEA001A02206168A0FB01510B462C
:102750001920A9FB00712A463846FDF79BFD8346E8
:1027600002206168A0FB015003461920A9FB0071FB
:102770002A463846FDF78EFD6421B0FBF1F000EBF0
:10278000C00101EB0010ABEB8000322101EBC00077
:102790006421B0FBF1F000F0F8000AEB400A0220DF
:1027A0006168A0FB015003461920A9FB0070014697
:1027B0002A463846FDF76EFD834602206168A0FB7D
:1027C000015003461920A9FB00712A463846FDF73F
:1027D00061FD6421B0FBF1F000EBC00101EB0010E2
:1027E000ABEB8000322101EBC0006421B0FBF1F0C3
:1027F00000F007005044216888606AE004206168A6
:10280000A0FB015003461920A9FB007001462A468F
:102810003846FDF73FFD824604206168A0FB015069
:1028200003461920A9FB007001462A463846FDF7E9
:1028300031FD6421B0FBF1F000EBC00101EB0010B1
:10284000AAEB8000322101EB00106421B0FBF1F013
:1028500000F0F00A04206168A0FB01700346192013
:10286000A9FB00513A462846FDF714FD6421B0FB50
:10287000F1F00AEB001A04206168A0FB01510B463D
:102880001920A9FB00712A463846FDF703FD83464F
:1028900004206168A0FB015003461920A9FB0070C9
:1028A00001462A463846FDF7F5FC6421B0FBF1F0FD
:1028B00000EBC00101EB0010ABEB8000322101EB1B
:1028C00000106421B0FBF1F000F00F0050442168CB
:1028D0008860BDE8F88F000000100140001401403E
:1028E00000BFFEE710B5124C03202061606111A00B
:1028F000A0611349E1614FF4806121620021A1626E
:102900006162E1620BA020660E4961661021A1663A
:1029100000212167E16661670BA1E01DFDF728FD3D
:102920000AA12046FDF724FD2020A07110BD000063
:10293000484B00205465726D696E616C00000000A8
:10294000F04B0020F04F00205254540053454747AD
:102950004552000010B501460A69CB689A4204D876
:102960008C68641EE41AA01801E0D41A601E10BD21
:102970002DE9F05F0446894617464FF0000AE568E6
:1029800000BFD4F81080A84503D9A8EB0500461E67
:1029900004E0A5EB0800401CA1680E1AA068401BCB
:1029A000B04201D9304601E0A068401B0646BE4255
:1029B00001D2304600E038460646606800EB050B61
:1029C000324649465846FDF796FCB244B144BF1B17
:1029D0003544A068A84200D10025E560002FD0D181
:1029E0005046BDE8F09F2DE9F0470446894615465C
:1029F000E668A068871BAF420AD9606800EB060A48
:102A00002A4649465046FDF776FC7019E06014E00E
:102A1000B846606800EB060A424649465046FDF754
:102A20006AFCA5EB0708D4F804A009EB07014246AD
:102A30005046FDF760FCC4F80C80BDE8F08700004C
:102A40000FB47CB50C0009AD01D0611E00E000217F
:102A5000CDE90001064B6A462946089800F0A4F922
:102A6000002C02D0009A002111707CBC5DF814FB90
:102A7000AF3400087CB50C001D461646014601D057
:102A8000601E00E00020CDE90010064B6A46294692
:102A9000304600F089F9002C02D0009A0021117014
:102AA0007CBD0000AF34000802480068C0F302207B
:102AB000704700000CED00E010B5002804DB0A07A9
:102AC000130E054A135406E00A07140E034A00F0D9
:102AD0000F031B1FD45410BD00E400E018ED00E00C
:102AE0000149086070470000200000201FB504461F
:102AF000002003902168486B8047D4E9002091684A
:102B00008847D4E900100A6971219047D4E9002070
:102B10009169884720B9D4E900104A6903A9904710
:102B2000D4E90020D16888472168886B80479DF8E8
:102B30000C0017A178221C4BCDE9002102901BA2AA
:102B400025A1002001F06CFD9DF80C0000F018009C
:102B5000182811D1224908700846007821A17F2247
:102B6000114BCDE90021029010A21BA1002001F021
:102B700057FD002004B010BD1FA086210A4B0BA2F8
:102B8000CDE9001014A1012001F04AFD0320F1E776
:102B90006168743231207265616420696420646107
:102BA0007461203D20257800D89B00082E2E5C42C1
:102BB00073705C41485432315C6472697665725C52
:102BC00065635F6273705F61687432315F647269FC
:102BD0007665722E630000004E4F5F54414700003F
:102BE0001D000020675F6465766963655F69642026
:102BF0003D202578000000007265616420666169EF
:102C00006C65640002E008C8121F08C1002AFAD1EE
:102C100070477047002001E001C1121F002AFBD15C
:102C2000704700002DE9FF5F82B00021DDE904302C
:102C3000020DDDF840B0034318D044F61050A2F264
:102C4000FF3242431514119801281FD0A5EB0B0049
:102C5000401C5FEA000A4FF000064E4FDFF8389143
:102C6000B046504615D5CAF1000413E0119801246E
:102C70004AA3012801D16FEA0B010298119AC0E919
:102C80000031C0E9024206B0BDE8F09FCBF1000080
:102C9000DFE704460021404A491842EB0450CDE9E1
:102CA000001012E0E00707D032463B464046494656
:102CB000FDF742FD8046894632463B46104619469E
:102CC000FDF73AFD06460F466410002CEAD1DDE917
:102CD0000401DDE90023BAF1000F06DAFDF72CFD4F
:102CE00042464B46FDF728FD05E0FDF759FB4246FD
:102CF0004B46FDF755FB04460E460022284BFDF7D8
:102D0000A5FD03D84FF0FF30014607E00022254B18
:102D100020463146FDF769FCFDF780FD102409E0EF
:102D2000002C0ADB0A220023FDF7B4FA039B3032A1
:102D30001A55641E50EA0102F2D1641C039AC4F1D0
:102D400011031444119A012A03D0012208430DD122
:102D50000AE0084304D000204FF0110B119072E7F5
:102D6000A3EB0B056D1E0DE05B4504DD4FF000028B
:102D700005F1010504E003DA4FF00002A5F10105B9
:102D8000002AECD002981199C0E90231C0E900454F
:102D900079E70000000014400000F03F3000000020
:102DA0000000F0430000E03F2DE9FF4F95B09A4648
:102DB000884606460025EEE1252877D100242746DF
:102DC000F94A0121039400E0044316F8013F203B37
:102DD00001FA03F01042F7D130782A2811D06FF0B1
:102DE0002F033078A0F13002092A16D8039A44F054
:102DF000020402EB820203EB42021044761C0390B1
:102E0000EFE758F8042B0392002A03DA504244F407
:102E10000054039044F00204761C30782E2816D11A
:102E200016F8010F44F004042A280DD06FF02F0289
:102E30003078A0F13003092B09D807EB870302EBA8
:102E40004303C718761CF3E758F8047B761C3078E8
:102E50006C280FD006DC4C2817D068280DD06A28C3
:102E600014D104E0742810D07A280FD10DE044F476
:102E700000140AE044F4801401E044F44014727831
:102E8000824202D104F58014761C761C30786628C4
:102E90000BD013DC582877D009DC002875D04528E2
:102EA000F6D04628F4D047281AD193E118E06328D9
:102EB00035D0642879D0652812D18BE1702873D081
:102EC00008DC6728F1D069286FD06E280DD06F28F4
:102ED00006D1ACE073282CD0752874D0782853D054
:102EE0005246179990476D1C54E1C4F302500228D2
:102EF00009D003280DD0D8F8001004280DD00D609B
:102F000008F1040846E1D8F80010EA17C1E90052B8
:102F1000F6E7D8F800100D80F2E70D70F0E718F82A
:102F2000041B8DF8001000208DF80100EB460120F5
:102F300003E058F804BB4FF0FF3061074FF0000189
:102F400002D40DE009F101018946B9420FDA814549
:102F5000F8DB1BF809100029F4D108E009F10101A0
:102F600089468142FADB1BF809100029F6D1039843
:102F70005346A0EB090721463846179A00F080FA1D
:102F8000284400EB090507E044E008E10DE01BF8E8
:102F9000010B524617999047B9F10109F7D25346F0
:102FA00021463846179AF2E039E00A21C4F302526A
:102FB0004FF0000B0091022A06D058F8040BC117FD
:102FC000032A09D00AE023E008F1070020F00702F5
:102FD000F2E80201904605E000B2C117042A01D1CF
:102FE00040B2C117002906DA0A460021404261EBCF
:102FF00002012D2202E0220504D52B228DF80420A7
:10300000012203E0E20701D02022F7E7914657E0D2
:103010000A2100E010214FF0000B00910BE010217D
:103020004FF0000B44F004040827009103E008204F
:103030004FF0000B0090C4F30252022A05D058F85A
:10304000040B0021032A08D008E008F1070020F053
:103050000702F2E80201904603E080B2042A00D1A0
:10306000C0B24FF0000922072AD53278702A07D063
:10307000DDF800C08CF0100C5CEA0B0C05D00EE003
:1030800040228DF80420012208E050EA010306D016
:1030900030238DF804308DF8052002229146009BE4
:1030A00083F0080353EA0B030AD150EA010201D16D
:1030B000620705D530228DF804204FF001097F1EEC
:1030C0003278582A04D039A20C920CAA02920BE052
:1030D0003BA2F9E75B46009AFDF7DCF80C9B9B5C92
:1030E000029A521E0292137050EA0102F2D1029823
:1030F00004A9081A00F1200B600702D524F48034DB
:1031000000E001275F4502DDA7EB0B0000E0002097
:1031100000EB0B01009003984944401A0390E00330
:1031200006D453462146179A039800F0A9F905449E
:10313000002706E001A85246C05D179990476D1C14
:103140007F1C4F45F6DBE0030CD553462146179A0A
:10315000039800F095F9054404E030205246179991
:1031600090476D1C0099481E00900029F5DC08E08E
:103170000298029952460078491C0291179990478B
:103180006D1CBBF10001ABF1010BF1DC5BE100F068
:1031900065F90544761C307800287FF40DAE19B02F
:1031A0002846BDE8F08F0000092801003031323395
:1031B0003435363738396162636465660000000073
:1031C000303132333435363738394142434445465D
:1031D00000000000600700D4062708F1070020F077
:1031E0000700F0E80223804603F0004C5FEA0C0081
:1031F00001D097A009E0200501D596A005E0E007E1
:1032000001D095A001E0AFF24C001390307823F08C
:10321000004365280CD006DC452809D046281DD07F
:1032200047287FD13BE0662818D067287AD136E05E
:103230000021112F01DB112000E0781CCDE90001F5
:1032400004A90CA8FFF7EEFCDDE90D010C9A4FF084
:10325000000B07F10109109200914EE04FF0004081
:103260000097CDE9011004A90CA8FFF7DBFCDDE90C
:103270000D020C9B0F994FF0000B9146109300929A
:1032800011B9791C00EB0109B7EB090003D4C0F1B7
:10329000FF3B07F10109A9EB0700019042E0012F74
:1032A00000DA01270021112F01DD112000E038464E
:1032B000CDE9000104A90CA8FFF7B4FCDDE90D017C
:1032C0000C9A00914FF0000BB946109221070FD4D1
:1032D000009A4A4503DA914601E0A9F10109B9F1E2
:1032E000010F05DD109AA9F10101515C3029F4D0DC
:1032F000B84202DA10F1040F03DA0121CDE901101E
:1033000010E0002803DC8344A9EB000102E0411C2B
:10331000494500DD8946A0EB0B00401C01904FF0B1
:1033200000400290200705D40198484502DB4FF089
:10333000FF30019000208DF84B0002980DF14B07F3
:10334000B0F1004F25D002200C902B200D90029858
:1033500000280CDA404202902D200D9007E00A214F
:103360000298FDF7B0F83031029007F8011D0C9972
:10337000481E0C900029F2DC02980028EFD1791E3B
:103380000D980870307800F0200040F0450007F8F4
:10339000020D11A8C01BC01D02901398007800B147
:1033A000012000EB0901019801EBE0710298014452
:1033B0000398401A401E0390E00306D4534621466A
:1033C000179A039800F05CF805441398007818B138
:1033D0005246179990476D1CE00323D5534621466A
:1033E000179A039800F04CF805441BE0BBF1000F5E
:1033F00007DB0098584504DD1098179910F80B006A
:1034000001E0179930205246904701980BF1010BCB
:10341000401E05F10105019004D12E205246179956
:1034200090476D1CB9F10001A9F10109DEDC05E04E
:1034300017F8010B5246179990476D1C0299481EC8
:1034400002900029F4DC53462146179A03989EE621
:103450002D0000002B000000200000002DE9F041AD
:10346000044600251E461746880404D405E0394664
:103470002020B0476D1C641EF9D52846BDE8F081B8
:103480002DE9F041044600251E469046C80301D5AB
:10349000302700E02027880404D505E0414638465F
:1034A000B0476D1C641EF9D52846BDE8F0814A6816
:1034B000002A06D00A68531C0B6010704868401E32
:1034C0004860704701460020014A107070470000B4
:1034D0001C0000207CB5044625A0A421294B2AA26B
:1034E000CDE9001033A1042001F09AF80025E0682E
:1034F00001684FF496708847206810B12068006812
:1035000008B904207CBD206940B14FF0FF31226929
:10351000A069904705460DB12846F3E72168486B3E
:103520008047D4E90020116888472046FFF7DEFA7B
:10353000054685B121A0CA21124B13A2CDE9001086
:103540001CA1012001F06CF8606910B1D4E90510EC
:1035500088470320D6E72168886B804701201D49F2
:103560000870606910B1D4E9051088470020C9E7E8
:1035700061687432315F696E69742073746172744A
:1035800000000000E29B00082E2E5C4273705C413C
:10359000485432315C6472697665725C65635F625F
:1035A00073705F61687432315F6472697665722E20
:1035B000630000004E4F5F54414700006168743261
:1035C0003120726561645F6964206661696C65645D
:1035D000000000001C0000202DE9F04704460D46C5
:1035E00017461E46DDF820801A480078012802D1CF
:1035F0000320BDE8F0874FF0000924B11DB116B1DA
:10360000B8F1000F01D10420F3E72560A660E76060
:10361000C4F80480002020616061A0610E4820622F
:103620000E4860620E48A0620E48E0620E482063B9
:103630000E4860630E48A0630E48E0632046FFF723
:1036400049FF00F0FF09B9F1000F01D00320D0E7D6
:103650000020CEE71C000020D5340008C534000847
:10366000993600083137000811370008793600080C
:10367000753900088D39000838B505460C469FEDB0
:10368000050A8DED000A22466946284600F050F8EA
:1036900038BD000000000000014604480078012801
:1036A00001D0032070470020FCE700001C00002030
:1036B00038B5044615480078012801D0032038BDEC
:1036C000002000902168486B8047D4E90020916871
:1036D0008847D4E900100A6971219047D4E9002095
:1036E0009169884720B9D4E900104A696946904732
:1036F000D4E90020116A8847D4E90020D1688847BE
:103700002168886B80479DF80000D8E71C000020E6
:1037100038B504460D469FED050A8DED000A6A4650
:103720002946204600F004F838BD000000000000E3
:103730002DE9F04786B004460E4617468C480078BF
:10374000012803D0032006B0BDE8F0874FF005083C
:1037500000200590049003900290019000900025B5
:10376000206950B1691E2269A06990478246BAF16A
:10377000000F01D05046E6E700BF2168486B804744
:10378000D4E9002091688847D4E900100A697021C3
:103790009047D4E900209169884720B9D4E9001006
:1037A0000A69AC219047D4E900209169884720B983
:1037B000D4E900100A6933219047D4E900209169C7
:1037C000884720B9D4E900100A6900219047D4E95C
:1037D000002091698847D4E90020D1688847216892
:1037E000886B8047A16808688047814603E0E068ED
:1037F000016850208847A16808688047A0EB09004D
:103800005028F4D311E0E068016805208847A8F14A
:10381000010000F0FF08B8F1000F06D1606910B197
:10382000D4E90510884702208DE72046FFF740FFC6
:1038300000F08000802802D1B8F1000FE3D12168A8
:10384000486B8047D4E9002091688847D4E900108C
:103850000A6971219047D4E90020916988470028BE
:1038600035D1D4E900104A6905A99047D4E9002070
:10387000D1698847D4E900104A6904A99047D4E97E
:103880000020D1698847D4E900104A6903A990470C
:10389000D4E90020D1698847D4E900104A6902A917
:1038A0009047D4E90020D1698847D4E900104A69DB
:1038B00001A99047D4E90020D1698847D4E90010D4
:1038C0004A6969469047D4E90020116A8847D4E9DB
:1038D0000020D16888472168886B80479DF81000D8
:1038E000284305029DF80C00284305029DF80800B6
:1038F00005432D094FF47A706843000D00EE100A5D
:10390000B8EE400A87ED000A97ED000AF2EE040ACD
:1039100080EE201A87ED001A00259DF8080000F0BF
:103920000F00284305029DF80400284305029DF876
:103930000000054300BF4FF4FA6068434FF4FA718A
:10394000C1EB105000EE100AB8EE400A86ED000AF6
:1039500096ED000AF2EE040A80EE201A86ED001AB7
:10396000606910B1D4E9051088470020EBE600003B
:103970001C000020014604480078012801D00320E3
:1039800070470020FCE700001C00002001460448AE
:103990000078012801D0032070470020FCE70000D8
:1039A0001C00002010B500F013FE012001F008FA01
:1039B000FF21002001F030F9FF21012001F02CF956
:1039C000FF21022001F028F9FF21032001F024F952
:1039D000FF21042001F020F9FF21052001F01CF94E
:1039E00001F05CFA10BD0000FEB5044600250CB9DC
:1039F0000420FEBD0021E068CDE90010D4E90132C9
:103A00002168606902F0EAFC054616A075211B4B8F
:103A10001BA2CDE90105009125A1042000F000FEC4
:103A20000DB10320E5E76069416A8847054622A099
:103A30008221124B12A2CDE9010500911CA10420A4
:103A400000F0EEFD0DB10320D3E722A090210B4B37
:103A50000BA2CDE9001016A1042000F0E1FD00202A
:103A6000C7E700006D7075787878785F696E737459
:103A700020726574203D2025640000000E9D000822
:103A80002E2E5C4273705C4D5055363035305C687C
:103A9000616E646C65725C6273705F6D707578786E
:103AA00078785F68616E646C65722E630000000058
:103AB0004E4F5F54414700006D7075206472697607
:103AC000657220696E697420726574203D202564DA
:103AD0000000000068616E646C657220696E697434
:103AE00020656E64000000002DE9FF4104460D468C
:103AF000002673A0AC217A4B7AA2CDE9001085A1F3
:103B0000042000F08DFD04B16DB984A0B221744B86
:103B100074A2CDE900107FA1042000F081FD0420F3
:103B200004B0BDE8F081286858B987A0BA216C4B71
:103B30006CA2CDE9001077A1042000F071FD0420F3
:103B4000EEE7686858B988A0C221654B65A2CDE947
:103B5000001070A1042000F063FD0420E0E7A868D5
:103B600058B988A0CA215E4B5EA2CDE9001069A1B8
:103B7000042000F055FD0420D2E7286958B987A039
:103B8000D221574B57A2CDE9001062A1042000F0CA
:103B900047FD0420C4E7A868C06958B987A0DA21A6
:103BA0004F4B50A2CDE900105AA1042000F038FD7F
:103BB0000420B5E72868206068686060A868206114
:103BC000E868A0602869E06000202062582104F1C4
:103BD0002800FCF7A9FB002020767F480168E161FE
:103BE0000068401C7C4908607CA1F122E0693C4BE4
:103BF000CDE9002102903BA246A1042000F010FD77
:103C00002046FFF7F1FE064676B17BA1F922E06976
:103C1000334BCDE90206CDE9002132A23DA10120BE
:103C200000F0FEFC30467BE782A14FF48272E0692F
:103C30002B4BCDE9002102902AA236A1042000F0EE
:103C4000EFFC03212069CDE90010206923464FF4E1
:103C5000007283A1C7698548B84706467EB184A132
:103C600040F21312E0691E4BCDE90206CDE90021B6
:103C70001CA228A1012000F0D3FC032050E72069FA
:103C800000688A4A4FF48D73E169CDE90032CDE9CD
:103C90000210134B13A21FA1032000F0C1FC01204E
:103CA000207683A140F22312E0690D4BCDE900217B
:103CB00002900CA217A1032000F0B2FC00202FE715
:103CC0006273705F6D7075787878785F68616E6424
:103CD0006C65725F696E7374207374617274000036
:103CE000239D00082E2E5C4273705C4D505536307B
:103CF00035305C68616E646C65725C6273705F6DB8
:103D00007075787878785F68616E646C65722E6320
:103D1000000000004E4F5F544147000068616E6430
:103D20006C65725F696E7374616E6365206F72207B
:103D3000705F696E7075745F61726773206973205C
:103D40004E554C4C000000006969635F64726976EF
:103D500065725F696E746572666163652069732060
:103D60004E554C4C0000000074696D6562617365CE
:103D70005F696E74657266616365206973204E5574
:103D80004C4C00006F735F696E74657266616365A9
:103D9000206973204E554C4C00000000696E74651C
:103DA0007272757074696F6E5F696E746572666148
:103DB0006365206973204E554C4C00006F735F742F
:103DC00068726561645F6372656174652069732000
:103DD0004E554C4C000000002400002048616E64E9
:103DE0006C657220696E7374616E63652025752041
:103DF000637265617465640048616E646C6572200D
:103E0000696E7374616E63652025753A2062737004
:103E10005F6D70755F68616E646C65725F696E6915
:103E200074206661696C65642C20726574203D2085
:103E3000256400004372656174696E672068616E75
:103E4000646C65722074687265616420666F7220AC
:103E5000696E7374616E63652025752E2E2E0000C9
:103E60004D50555F48616E646C657200F13E00080C
:103E70004661696C656420746F2063726561746566
:103E80002068616E646C657220746872656164207C
:103E9000666F7220696E7374616E63652025752C80
:103EA00020726574203D202564000000649F000896
:103EB00048616E646C657220696E7374616E6365CF
:103EC00020257520696E697469616C697A65642062
:103ED0007375636365737366756C6C7900000000BD
:103EE00002460AB90420704711620020FBE7000077
:103EF000F0B585B005460020049000270026002478
:103F0000002D0CD124A040F27B11304B30A2CDE922
:103F100000103BA1012000F083FB05B0F0BD2C4652
:103F20002069006838A24FF4C273E169CDE900321C
:103F3000CDE90210254B26A231A1032000F070FB31
:103F400000BF216904AA8B6908684FF0FF319847C8
:103F50000746002FF5D104980028F2D0606904F1DB
:103F60002801826D904706463EB9206A0028E8D0B5
:103F700004F12800216A8847E3E733A14FF4D772A0
:103F8000E069124BCDE90206CDE9002110A21CA187
:103F9000012000F045FBD4E748616E646C65722037
:103FA0007468726561643A20617267756D656E74DC
:103FB000206973204E554C4C2C20746872656164E6
:103FC0002065786974696E67000000003C9D0008F8
:103FD0002E2E5C4273705C4D5055363035305C6827
:103FE000616E646C65725C6273705F6D7075787819
:103FF00078785F68616E646C65722E630000000003
:104000004E4F5F544147000048616E646C657220FA
:10401000696E7374616E63652025753A20746872E9
:10402000656164207374617274656420616E6420DC
:1040300072656164792C207461736B5F68616E6472
:104040006C65203D20257000496E7374616E636558
:104050002025753A20726561642064617461206670
:1040600061696C65642C20726574203D20256400B4
:10407000FEB505460C46002636A094213F4B40A2D3
:10408000CDE900104AA1042000F0CAFA05B15CB9DC
:1040900049A09B21394B3AA2CDE9001044A104204C
:1040A00000F0BEFA0420FEBD206858B94DA0A3213F
:1040B000324B33A2CDE900103DA1042000F0B0FA4C
:1040C0000420F0E7606858B94EA0AB212B4B2CA21E
:1040D000CDE9001036A1042000F0A2FA0420E2E7A6
:1040E000A06858B94EA0B321244B25A2CDE90010F9
:1040F0002FA1042000F094FA0420D4E7206828605F
:1041000060686860A0682861E068A8602069E8606D
:10411000284600F019F9064666B147A0C321174B9F
:1041200017A2CDE90106009121A1042000F078FA40
:104130003046B8E70120E969087048A0CA210F4B52
:104140000FA2CDE900101AA1042000F069FA0020A6
:10415000A9E700006273705F74656D705F68756DCC
:10416000695F7878785F68616E646C65725F696EAC
:10417000737420737461727400000000079C00085F
:104180002E2E5C4273705C41485432315C68616E23
:10419000646C65725C65635F6273705F74656D709B
:1041A0005F68756D695F68616E646C65722E63002F
:1041B0004E4F5F544147000068616E646C65725FEA
:1041C000696E7374616E6365206F7220705F696ED3
:1041D0007075745F61726773206973204E554C4C23
:1041E000000000006969635F6472697665725F69E7
:1041F0006E74657266616365206973204E554C4C20
:104200000000000074696D65626173655F696E74BA
:10421000657266616365206973204E554C4C0000E1
:104220006F735F696E746572666163652069732080
:104230004E554C4C000000006273705F74656D70E9
:104240005F7878785F68616E646C65725F696E69CB
:104250007420726574203D20256400006273705FD5
:1042600074656D705F68756D695F7878785F686197
:104270006E646C65725F696E737420656E640000B5
:104280007CB504461548006808B1002C0CD114A078
:104290004FF4BF711D4B1EA2CDE9001028A10420D0
:1042A00000F0BEF904207CBD00250C480068C06900
:1042B000007808B90320F6E70849096888690749C2
:1042C000096809694FF0FF328B6821469847054617
:1042D0000DB10320E7E70020E5E700002000002003
:1042E00067705F74656D705F68756D695F696E7327
:1042F00074616E6365206F7220696E7075742061E1
:10430000726720696E76616C696400003F9C0008EA
:104310002E2E5C4273705C41485432315C68616E91
:10432000646C65725C65635F6273705F74656D7009
:104330005F68756D695F68616E646C65722E63009D
:104340004E4F5F5441470000FEB50446002600254D
:104350000CB90420FEBD2069406808B90320F9E7C4
:10436000206904F11802182143680A20984706467C
:104370005EB117A059211B4B1BA2CDE9001026A14D
:10438000042000F04DF90320E4E7E0680090D4E950
:10439000013221686069FFF71FF9054620A06921F5
:1043A000104B11A2CDE9010500911BA1042000F0E2
:1043B00037F90DB10320CDE71EA07221094B0AA2E7
:1043C000CDE9001014A1042000F02AF90020C1E773
:1043D00063726561746520717565756520666169D4
:1043E0006C656400ED9B00082E2E5C4273705C418E
:1043F000485432315C68616E646C65725C65635F01
:104400006273705F74656D705F68756D695F686118
:104410006E646C65722E63004E4F5F54414700001E
:1044200061687432315F696E737420726574203D07
:104430002025640068616E646C657220696E697421
:1044400020656E640000000010B5044603E04FF4E0
:104450007A7000F005F8201EA4F10104F7D110BD18
:1044600010B5084B5968084B1B68084CB3FBF4F3B4
:1044700003FB00F200BF034B5B685B1A9342FAD365
:1044800010BD0000001000E01800002040420F00A6
:104490000748006840F08070054908600020054921
:1044A00048600846006840F001000860704700005E
:1044B000FCED00E0001000E070B586B00546002D70
:1044C0001CD126480068002811D140F2E11024498F
:1044D00024A229A3CDE90310CDE9013200900B46B7
:1044E0002EA238A1002000F09BF800BFFEE740F2AA
:1044F000E1121B491BA0194B1B6898470024052695
:10450000324890F8F00010B9304606B070BD00F0A7
:1045100093FA00241BE004EB44112C48313008448A
:1045200090F82000012810D104EB441227483130C4
:104530001044411C1E222846FBF723FF28B904EB38
:10454000441122483130465C03E0601CC4B2052CA3
:10455000E1DB00BF00F0A4FA3046D6E7D800002027
:10456000E99D000874616720213D202828766F6945
:1045700064202A29302900002825732920686173C6
:1045800020617373657274206661696C6564206173
:10459000742025733A256C642E0000002E2E5C4D8D
:1045A0006964646C6577617265735C656173796C6D
:1045B0006F676765725C7372635C656C6F672E63AF
:1045C00000000000656C6F670000000010500020C4
:1045D00010B50024114890F8F000012801D12046C0
:1045E00010BD00F089FA04460CB12046F8E701201E
:1045F00000F036FA0020094981F8F30081F8F40050
:10460000012000F0DDFB052000F084FA00F0E6FA5E
:104610000120024981F8F0002046E1E71050002017
:104620000FB42DE9F04F8DB005460F469846DDF8E2
:1046300068903846FBF795FE824600244FF0020B47
:1046400000200B900C900790089009900A90052D7F
:104650001CDDCC480068002811D140F23F20CA4937
:10466000CAA2D1A3CDE90310CDE9013200900B46D7
:10467000D6A2E0A10020FFF7D3FF00BFFEE740F283
:104680003F22C149C1A0BF4B1B689847DB4890F847
:10469000F10020B90DB0BDE8F00F5DF814FBD7486C
:1046A0000078A84204DB3846FFF706FFA84200DA8C
:1046B000F0E7D249491C3846FBF741FE00B9E9E76B
:1046C0001CA8069000F0B8F9CC4890F8F50078B135
:1046D000CB480119CBA2204600F02CFC0444CA4868
:1046E00050F82520C6480119204600F023FC044458
:1046F0000121284600F0A4FC40B1C44850F8252010
:10470000BF480119204600F015FC04440221284648
:1047100000F096FCE8B1BA4801193A46204600F08C
:1047200009FC0444BAF10F0F0CD8CAF10F01202282
:1047300007A8FBF7F2FDB248011907AA204600F0CE
:10474000F9FB0444AE480119B1A2204600F0F2FB87
:1047500004441C21284600F073FC002852D0A848CD
:104760000119ACA2204600F0E5FB044404212846D0
:1047700000F066FCA8B100F0AFF90590A04801195F
:104780002046059A00F0D6FB04441821284600F084
:1047900057FC30B19A4801199DA2204600F0CAFB8F
:1047A00004440821284600F04BFCA8B100F08CF925
:1047B0000590934801192046059A00F0BBFB04447C
:1047C0001021284600F03CFC30B18D48011990A220
:1047D000204600F0AFFB04441021284600F030FCD6
:1047E00048B100F075F90590854801192046059AF1
:1047F00000F0A0FB04448248011987A2204600F083
:1048000099FB044420212846189A00F085FC60B9E1
:1048100042464021284600F07FFC30B94A468021BC
:10482000284600F087FC002862D0754801197BA259
:10483000204600F07FFB044420212846189A00F00F
:104840006BFC08B36E4801192046189A00F072FB01
:10485000044442464021284600F05EFC38B16848D6
:1048600001196FA2204600F065FB04440CE04A46A3
:104870008021284600F05EFC30B16148011964A235
:10488000204600F057FB04444A468021284600F0A9
:1048900051FCC8B14B4663A205210BA8FEF7D0F826
:1048A000574801190BAA204600F044FB0444424635
:1048B0004021284600F030FC30B15148011954A283
:1048C000204600F037FB044442464021284600F0D1
:1048D00023FC30B14A4801194246204600F02AFB29
:1048E00004444748011950A2204600F023FB044429
:1048F000C4F58061424A1019069B1B9AFEF7BAF86C
:10490000064600200690A019B0F5806F03D8002E4F
:1049100001DB344401E04FF48064201D5844B0F5BD
:10492000806F04D94FF48064241FA4EB0B04334838
:1049300090F8200058B10020314908552F49203106
:104940002F48FBF7FCFC10B900F0AAF8A2E62B48B0
:1049500090F8F50030B12A48011934A2204600F041
:10496000E9FA04442648011932A2204600F0E2FA8E
:1049700004442146224800F0C1F800F091F800BF3D
:1049800088E60000D8000020019E00086C6576656E
:104990006C203C3D20454C4F475F4C564C5F564584
:1049A00052424F5345000000282573292068617347
:1049B00020617373657274206661696C656420613F
:1049C000742025733A256C642E0000002E2E5C4D59
:1049D0006964646C6577617265735C656173796C39
:1049E0006F676765725C7372635C656C6F672E637B
:1049F00000000000656C6F67000000001050002090
:104A0000085100201B5B0000C0000020A80000200F
:104A1000200000005B0000005D2000002800000076
:104A20003A000000256C6400290000001B5B306D1B
:104A3000000000000D0A000010B5084890F8F200D0
:104A400030B100F064F80120044981F8F40003E07B
:104A50000120024981F8F30010BD00001050002031
:104A600010B504460D4880F8F24090F8F200A0B16D
:104A70000A4890F8F40030B9084890F8F30010B1F3
:104A800000F045F809E0054890F8F40028B1034823
:104A900090F8F30008B900F03BF810BD105000206A
:104AA00010B5084890F8F20030B100F031F800205D
:104AB000044981F8F40003E00020024981F8F30082
:104AC00010BD00001050002000A070470000000042
:104AD00000A070470000000010B5FCF745F8044640
:104AE000234603A210210348FDF7AAFF014810BD89
:104AF00025640000005000200020704770B5044677
:104B00000D462A4621460020FDF7A2FC70BD7047E5
:104B10007047000010B586B00446052C1CDD104817
:104B20000068002811D140F25B100E490EA215A3B7
:104B3000CDE90310CDE9013200900B461AA224A161
:104B40000020FFF76DFD00BFFEE740F25B12054954
:104B500005A0034B1B6898471F48047006B010BDA2
:104B6000D8000020BD9D00086C6576656C203C3D3A
:104B700020454C4F475F4C564C5F564552424F5371
:104B80004500000028257329206861732061737334
:104B9000657274206661696C656420617420257398
:104BA0003A256C642E0000002E2E5C4D6964646C06
:104BB0006577617265735C656173796C6F67676552
:104BC000725C7372635C656C6F672E63000000003B
:104BD000656C6F67000000001050002010B50024C5
:104BE00000BF13E004EB44120A491144481C1F2182
:104BF000FBF79AFB002104EB44120648815404EBB6
:104C00004412104480F82010601CC4B2052CE9DB6B
:104C100010BD00004150002030B585B004460D465F
:104C2000052C1CDD10480068002811D140F241100D
:104C30000E490FA215A3CDE90310CDE90132009072
:104C40000B461BA224A10020FFF7EAFC00BFFEE7F1
:104C500040F24112054906A0034B1B6898472048C3
:104C600040F8245005B030BDD8000020A09D0008B9
:104C70006C6576656C203C3D20454C4F475F4C563B
:104C80004C5F564552424F5345000000282573297A
:104C90002068617320617373657274206661696C4A
:104CA00065642061742025733A256C642E00000031
:104CB0002E2E5C4D6964646C6577617265735C650A
:104CC0006173796C6F676765725C7372635C656C46
:104CD0006F672E6300000000656C6F6700000000C6
:104CE000E850002010B586B00446002C1ED0012CE0
:104CF0001CD011480068002811D14FF48B700F4967
:104D00000FA219A3CDE90310CDE9013200900B46A3
:104D10001EA228A10020FFF783FC00BFFEE74FF48E
:104D20008B72064906A0044B1B689847234880F8FD
:104D3000F14006B010BD0000D80000206C9D0008B6
:104D400028656E61626C6564203D3D2066616C7310
:104D50006529207C7C2028656E61626C6564203D3D
:104D60003D207472756529002825732920686173B8
:104D700020617373657274206661696C656420617B
:104D8000742025733A256C642E0000002E2E5C4D95
:104D90006964646C6577617265735C656173796C75
:104DA0006F676765725C7372635C656C6F672E63B7
:104DB00000000000656C6F670000000010500020CC
:104DC00010B586B00446002C1ED0012C1CD0114812
:104DD0000068002811D14FF491700F490FA219A358
:104DE000CDE90310CDE9013200900B461EA228A1A7
:104DF0000020FFF715FC00BFFEE74FF49172064953
:104E000006A0044B1B689847234880F8F54006B07D
:104E100010BD0000D8000020849D000828656E6148
:104E2000626C6564203D3D2066616C736529207C61
:104E30007C2028656E61626C6564203D3D20747243
:104E400075652900282573292068617320617373B3
:104E5000657274206661696C6564206174202573D5
:104E60003A256C642E0000002E2E5C4D6964646C43
:104E70006577617265735C656173796C6F6767658F
:104E8000725C7372635C656C6F672E630000000078
:104E9000656C6F6700000000105000200EB50B48D5
:104EA00090F8F00000B90EBD0120FFF71BFF08A02D
:104EB00009A1F722124BCDE90021029011A21BA1FA
:104EC0000320FFF7ADFB00BFEDE70000105000200E
:104ED000322E322E39390000456173794C6F676785
:104EE00065722056257320697320696E6974696143
:104EF0006C697A6520737563636573732E000000B7
:104F0000579D00082E2E5C4D6964646C6577617254
:104F100065735C656173796C6F676765725C7372EA
:104F2000635C656C6F672E6300000000656C6F67E3
:104F300000000000F0B585B006460D461446274631
:104F4000002D1AD124480068002810D12C202349B4
:104F500023A224A3CDE90310CDE9013200900B4632
:104F600029A234A10020FFF75BFB00BFFEE72C2243
:104F70001A491BA0184B1B689847002C19D11648DA
:104F8000006880B92D2015492CA216A3CDE9031085
:104F9000CDE9013200900B461BA226A10020FFF7AD
:104FA0003FFB00BFFEE72D220C4924A00A4B1B68E3
:104FB00098470AE03046761CB0F5806F04D214F8AA
:104FC000010B05F8010B00E002E020780028F1D188
:104FD00000BFE01B05B0F0BDD8000020399E0008DE
:104FE00064737400282573292068617320617373CA
:104FF000657274206661696C656420617420257334
:105000003A256C642E0000002E2E5C4D6964646CA1
:105010006577617265735C656173796C6F676765ED
:10502000725C7372635C656C6F675F7574696C73D7
:105030002E630000656C6F670000000073726300F0
:1050400030B585B004460D46052C1CDD13480068BC
:10505000002811D14FF43870114912A218A3CDE9DC
:105060000310CDE9013200900B461EA227A10020BB
:10507000FFF7D6FA00BFFEE74FF43872084909A0DF
:10508000064B1B689847234850F82400284010B16D
:10509000012005B030BD0020FBE70000D800002053
:1050A0000D9E00086C6576656C203C3D20454C4F9C
:1050B000475F4C564C5F564552424F5345000000E7
:1050C00028257329206861732061737365727420C9
:1050D0006661696C65642061742025733A256C648F
:1050E0002E0000002E2E5C4D6964646C6577617241
:1050F00065735C656173796C6F676765725C737209
:10510000635C656C6F672E6300000000656C6F6701
:1051100000000000E850002070B505460E46144619
:1051200034B131462846FFF78BFF08B1012070BD2E
:105130000020FCE770B505460E46144634B13146F2
:105140002846FFF77DFF08B1012070BD0020FCE775
:105150002DE9F04704460E4690461F4624B11EB185
:10516000B8F1000F00D017B90420BDE8F0876168DE
:10517000086880470546307C20B1012817D00228F6
:105180003ED128E0206A281AB16888420ED34FF039
:10519000000960693A464146C36A98478146B9F1B9
:1051A000000F01D00720E0E7256200BF32E0606A0F
:1051B000281AB16888420DD34FF00009606939465A
:1051C000426B90478146B9F1000F01D00720CCE730
:1051D000656200BF1EE0206A281AB16888420ED3BB
:1051E0004FF0000960693A464146C36A98478146D4
:1051F000B9F1000F01D00720B7E7256200BF09E031
:105200009FED060A88ED000A9FED040A87ED000A6B
:105210000420AAE700BF0020A7E70000000000006C
:10522000FBF7B4FCFDF788F9FFF732F9FDF732F828
:10523000FDF79EF8FEF7B6FB01F05CFAFCF7FCFF09
:1052400001F06CFA00BFFEE71CB5044606A040F270
:1052500029610E4B0EA2CDE9001018A10320FFF723
:10526000DFF900201CBD00006D70755F6465696E1C
:1052700069743A204D505536303530206465696E7A
:10528000697469616C697A6564000000DC9C0008DF
:105290002E2E5C4273705C4D5055363035305C6458
:1052A00072697665725C6273705F6D70757878781C
:1052B000785F6472697665722E6300004E4F5F54AA
:1052C0004147000011B589B0DAA0D221E74BE8A22E
:1052D000CDE90010F1A10320FFF7A2F9002008900A
:1052E0000790099860B9EFA0DB21E04BE0A2CDE97F
:1052F0000010EAA10120FFF793F904200AB010BDC5
:10530000099800680690099840680590069828B1A9
:105310000698006810B10698406A58B9EAA0E621DC
:10532000D24BD3A2CDE90010DCA10120FFF778F920
:105330000420E3E70998049004988069002819D0B4
:105340000498006A0390049880694FF0FF3102903E
:10535000DDE9022090470890089858B1E4A1F220B6
:10536000C24BC3A2CDE90001CCA10120FFF758F93F
:105370000898C3E7E8A1FC20BC4BBDA2CDE9000121
:10538000C6A10320FFF74CF9069800680390039923
:1053900005988847ECA04FF48171B44BB4A2CDE9D5
:1053A0000010BEA10320FFF73BF90698406A802356
:1053B0006B2268210390039C0598A04708900898E9
:1053C00060B1EBA040F20711A84BA9A2CDE90010F3
:1053D000B2A10120FFF724F900F021BCECA04FF4AA
:1053E0008771A24BA2A2CDE90010ACA10320FFF768
:1053F00017F90698006B28B10698006B039064209B
:1054000003998847F1A04FF48B71984B98A2CDE98E
:105410000010A2A10320FFF703F90698406A0123B8
:105420006B2268210390039C0598A0470890089878
:1054300058B1F6A040F21B118C4B8DA2CDE90010A3
:1054400096A10120FFF7ECF8E9E30698006B28B17C
:105450000698006B03900A2003998847F2A04FF446
:105460009371824B82A2CDE900108CA10320FFF73B
:10547000D7F80698406A0023382268210390039CDD
:105480000598A0470890089858B1F3A140F22B1056
:10549000764B77A2CDE9000180A10120FFF7C0F88B
:1054A000BDE3F6A04FF49971704B71A2CDE90010E5
:1054B0007AA10320FFF7B4F80698406A00236A2215
:1054C00068210390039C0598A0470890089858B15C
:1054D000F8A140F23710654B65A2CDE900016FA13C
:1054E0000120FFF79DF89AE30698406A00232322E3
:1054F00068210390039C0598A0470890089858B12C
:10550000F7A04FF4A071594B59A2CDE9001063A147
:105510000120FFF785F882E3F94840F24711534B29
:1055200053A2CDE900105DA10320FFF779F806989A
:10553000406AB023372268210390039C0598A04756
:105540000890089858B1EFA040F25311474B48A279
:10555000CDE9001051A10120FFF762F85FE3F2A04E
:105560004FF4AD71414B42A2CDE900104BA1032095
:10557000FFF756F80021099802F092FE089008986B
:1055800058B1F6A040F26111384B39A2CDE90010B4
:1055900042A10120FFF744F841E30021099802F0FD
:1055A00095FD0890089858B1F4A04FF4B5712F4BB1
:1055B0002FA2CDE9001039A10120FFF731F82EE329
:1055C000099802F053FF0890089858B1F3A040F2F0
:1055D0007311264B26A2CDE9001030A10120FFF760
:1055E0001FF81CE30521099802F0FCFF08900898B9
:1055F00058B1F1A14FF4BE701C4B1DA2CDE90001C2
:1056000026A10120FFF70CF809E3F4A040F2831172
:10561000164B17A2CDE9001020A10320FFF700F8D8
:1056200007A9099802F05CFB0890089800B1EFE127
:10563000FCE100006D70755F696E69743A20537407
:10564000617274696E67204D505536303530206375
:105650006F6D706C65746520696E697469616C69E1
:105660007A6174696F6E2E2E2E0000005E9C000819
:105670002E2E5C4273705C4D5055363035305C6474
:1056800072697665725C6273705F6D707578787838
:10569000785F6472697665722E6300004E4F5F54C6
:1056A000414700006D70755F696E69743A20696EDC
:1056B0007374616E636520706F696E7465722069C2
:1056C00073204E554C4C00006D70755F696E6974A7
:1056D0003A2049494320696E7465726661636520AA
:1056E0006E6F7420696E697469616C697A656400B3
:1056F0006D70755F696E69743A206661696C656486
:1057000020746F2061637175697265206275732002
:105710006C6F636B000000006D70755F696E69747B
:105720003A205B312F31315D20496E697469616CBB
:10573000697A696E672049494320696E74657266AB
:105740006163652E2E2E00006D70755F696E697441
:105750003A205B322F31315D205265736574746974
:105760006E67206465766963652E2E2E000000004A
:105770006D70755F696E69743A20646576696365FA
:10578000207265736574206661696C656400000051
:105790006D70755F696E69743A205B332F31315DCE
:1057A0002057616974696E6720666F722072657335
:1057B000657420746F20636F6D706C65746520284C
:1057C0003130306D73292E2E2E0000006D70755F04
:1057D000696E69743A205B342F31315D2057616BFB
:1057E000696E672075702064657669636520616EF7
:1057F000642073657474696E6720636C6F636B20DB
:10580000736F757263652E2E2E0000006D70755FCC
:10581000696E69743A2077616B65207570206661E6
:10582000696C6564000000006D70755F696E697475
:105830003A205B352F31315D2044697361626C69B8
:105840006E6720616C6C20696E746572727570741D
:10585000732E2E2E000000006D70755F696E6974E6
:105860003A2064697361626C6520696E7465727256
:1058700075707473206661696C6564006D70755F26
:10588000696E69743A205B362F31315D204469734B
:1058900061626C696E6720494943206D617374656C
:1058A00072206D6F646520616E64204649464F2EFC
:1058B0002E2E00006D70755F696E69743A20646900
:1058C0007361626C6520494943206D617374657230
:1058D000206D6F6465206661696C6564000000007E
:1058E0006D70755F696E69743A2064697361626C8A
:1058F00065204649464F206661696C65640000007A
:10590000D49E00086D70755F696E69743A20636F8C
:105910006E66696775726520494E542070696E2005
:105920006661696C656400006D70755F696E6974AD
:105930003A205B382F31315D20436F6E66696775A1
:1059400072696E672073656E736F72207061726129
:105950006D65746572732E2E2E0000006D70755F7C
:10596000696E69743A20736574206779726F204696
:105970005352206661696C65640000006D70755F4C
:10598000696E69743A2073657420616363656C2085
:10599000465352206661696C656400006D70755FE6
:1059A000696E69743A2073657420444C50462066D1
:1059B00061696C65640000006D70755F696E697483
:1059C0003A207365742073616D706C652072617428
:1059D00065206661696C6564000000006D70755F2C
:1059E000696E69743A205B392F31315D20526561EF
:1059F00064696E6720616E64207665726966796994
:105A00006E67206465766963652049442E2E2E00FA
:105A10008AA04FF4C471914BAFF2AC32CDE90010C3
:105A2000AFF288310120FEF7FBFDF8E08CA140F2D7
:105A30009D108A4BAFF2C832CDE90001AFF2A4311C
:105A40000320FEF7EDFD0698406A01233822682105
:105A50000390039C0598A0470890089868B18DA111
:105A60004FF4D1707D4BAFF2F832CDE90001AFF2C7
:105A7000D4310120FEF7D4FDD1E092A040F2A9116B
:105A8000764BAFF21442CDE90010AFF2F0310320B3
:105A9000FEF7C6FD0698006B28B10698006B0390D0
:105AA0000A200399884793A04FF4D8716B4BAFF24B
:105AB0004042CDE90010AFF21C410320FEF7B0FDDB
:105AC00099A040F2B111654BAFF25C42CDE90010F4
:105AD000AFF238410320FEF7A3FD9EA04FF4D97129
